:020000040000FA
:1000000090280010B1020000B5020000B702000005
:10001000B9020000BB020000BD02000000000000A9
:10002000000000000000000000000000BF0200000F
:10003000C102000000000000C3020000C502000071
:10004000C7020000C7020000C7020000C70200008C
:10005000C7020000C7020000C7020000C70200007C
:10006000C7020000C7020000C7020000C70200006C
:10007000C7020000C7020000C7020000C70200005C
:10008000C7020000C7020000C7020000C70200004C
:10009000C7020000C7020000C7020000C70200003C
:1000A000C7020000C7020000C7020000C70200002C
:1000B000610E0000C7020000C7020000C702000076
:1000C000C7020000C7020000C7020000DFF80CD022
:1000D00001F086FF004800477B01000090280010D7
:1000E00055490A2804D10A7D9206FCD50D220A70D2
:1000F0000A7D9206FCD5087070477CB54FA2514C22
:10010000D2E90012CDE9001200216E460123755C90
:1001100003FA05F203FA01F5054205D0032901D2DD
:10012000A26306E0A26504E0032901D2E26300E0D5
:10013000E265491C0829EAD37CBD0021082810D2B9
:1001400001218140404841F0807141EA00023F486E
:1001500002604268002AFCDA03688B430360C2F342
:10016000891188B270473748416D416B416B416BD3
:10017000416B406B36480078704701F06BFA04F031
:100180007FF934480A214FF0E0250068B0FBF1F018
:10019000A0F1010068614FF0050028612C4C4FF080
:1001A00001064FF03200A6604FF000076061286939
:1001B000C00302D505F00AFE266104F037FB00F00B
:1001C00008F820690128F2D12078401C20702761AE
:1001D000EDE77FB520A31E4C0FCB8DE80F00206903
:1001E000012828D1A068002501280AD161681DF8DE
:1001F0000100FFF782FF6068401C6060102800D398
:100200006560E068012816D10121052001F033F96D
:100210000F4B012218330021052001F017F90121AD
:10022000062001F028F90A4B01222933002106207B
:1002300001F00CF9E5607FBD000001401C1D1F02AC
:100240000304050600C0092000012000004003400F
:1002500000000010600000104888844442222111F0
:10026000120A0C1418283050FEE710B504F038F9C3
:1002700004F0AAF904F09CF904F044F904F084F9BC
:10028000AFF3008010BD10B504F04EFF05F0DAFAB0
:10029000BDE8104004F0A0BF04F064BE04F02CBC24
:1002A00009B10020704703F095B9002070470000A5
:1002B00005480047FEE7FEE7FEE7FEE7FEE7FEE74C
:1002C000FEE7FEE7FEE7FEE7CD0000000146002066
:1002D00000E0401C0A5C002AFBD1704710B50022E8
:1002E00000E0521C835C8C5CA34201D1002BF8D14E
:1002F000D8B2E1B2401A10BD70477047FFFFFFFF50
:100300002DE9F043804687B0282002F063FDDFF836
:100310001094054602AC05AE04AF2822294640469B
:1003200003F052FC8046287800281DD0FDA1284605
:1003300005F014F9012818D0FBA1284605F00EF9A4
:10034000012827D0FAA1284605F008F9012836D05F
:10035000F8A1284605F002F9012845D0F7A1284662
:1003600005F0FCF8012854D067E0CDE90076231DA4
:1003700002AAF4A1E81C01F01BFA029989F8001006
:10038000039989F80110049989F80210059989F8F0
:10039000031052E0CDE90076231D02AAE9A1281D31
:1003A00001F006FA029989F80810039989F80910F2
:1003B000049989F80A10059989F80B103DE0CDE9F8
:1003C0000076231D02AADFA1E81C01F0F1F90299D1
:1003D00089F80410039989F80510049989F8061022
:1003E000059989F8071028E0CDE90076231D02AAB7
:1003F000D4A1681D01F0DCF9029989F80C10039969
:1004000089F80D10049989F80E10059989F80F10D4
:1004100013E0CDE90076231D02AACAA1681D01F0F0
:10042000C7F9029889F81000039889F81100049818
:1004300089F81200059889F81300B8F1000F7FF4CD
:100440006CAF284603F012F907B0BDE8F0832DE940
:10045000F04F87B00F4600286DD1BD4C8046DFF8C5
:10046000F4A284F800804FF001094046CAF80090D9
:10047000002A5ED00026282002F0ACFCDFF8D8B2BB
:10048000054628222946384603F09EFB0746287871
:1004900000284DD0B1A1284605F060F801284DD0C4
:1004A000B0A1284605F05AF801284BD0AFA1284644
:1004B00005F054F8012849D0AEA1284605F04EF8C1
:1004C000012847D0ADA1284605F048F8012845D0BD
:1004D000ACA1284605F042F8012843D0ABA128463C
:1004E00005F03CF8012841D0AAA1284605F036F8CD
:1004F00001283FD0A9A1284605F030F801283ED0B8
:10050000AAA1284605F02AF801283BD0A8A1284630
:1005100005F024F801283CD0A7A1284605F01EF8D4
:1005200001283DD0A6A1284605F018F801283AD0A8
:1005300040E0FFF7E2FD07B0BDE8F08F207840F023
:1005400001001AE0207840F0020016E0207840F028
:10055000040012E0207840F008000EE0207840F01F
:1005600010000AE0207840F0200006E0207840F0FB
:10057000400002E0207840F0800020701AE0CAF8C5
:10058000008017E0E91C684604F0D0FF46F0010641
:1005900010E0291D03A804F0C9FF46F0020609E097
:1005A000691D894802E08848691D113004F0BEFFCA
:1005B000CBF80090002F7FF464AF284603F056F884
:1005C0002078FFF79AFD032EB5D16846FFF77EFE2F
:1005D00082B203A9684604F047F90128ABD1694605
:1005E0007A4804F0A3FFA6E72DE9F04F044600780F
:1005F0000026DFF85C8187B00F4691461D464FF01C
:10060000010A66287ED00BDCA0F16100DFF8C0B1E2
:100610007049052877D2DFE800F00C3FF8F7820038
:10062000672871D06C2870D078286FD079286AD16B
:10063000B5E1A1783A486D2912D004DC672916D0BB
:100640006929F4D104E0702918D07329EFD11CE096
:1006500061490A788178CDE90012437802788AE10D
:10066000C27A817ACDE90012437A027A83E1C279B3
:100670008179CDE90012437902797CE1C27B817BEB
:10068000CDE90012437B027B75E1C27C817CCDE920
:100690000012437C027C6EE1A07863280DD03038D4
:1006A000C0B2072800D900200AFA00F198F800002B
:1006B000C9B24AA208420BD109E0264849A3006802
:1006C000002800D119A319A2C9D146A253E117A24B
:1006D00058E12888464A00EB400101EBC001401C6C
:1006E00002EB81042880B81942A101F0DFFE94F8E2
:1006F00000C00644BCF1010F10D80CEB4C0000EB1D
:10070000CC0104E00CE1B9E015E159E13FE101EB76
:100710000B032F49B8192A887C3190E076E0BDE0C0
:100720005424001069703D006D736B3D00000000A3
:1007300067773D0070646E733D00000073646E73F4
:100740003D00000025642E25642E25642E256400BE
:100750003C000010080000100C0000106C656430B4
:100760003D6F6E006C6564313D6F6E006C65643288
:100770003D6F6E006C6564333D6F6E006C65643474
:100780003D6F6E006C6564353D6F6E006C65643660
:100790003D6F6E006C6564373D6F6E006374726C04
:1007A0003D42726F777365720000000070773D0004
:1007B0007077323D000000006C6364313D00000042
:1007C0006C6364323D000000180000109C000010B3
:1007D00098600000C9D000000000001063686563E5
:1007E0006B65640073656C6563746564000000008C
:1007F000542100103C747220616C69676E3D226365
:10080000656E746572223E0039E02AE0BCF1020F89
:100810001ED0E0790DF10C0AE38B62892189AAE8E8
:100820000F002079A27961798DE807000CEB4C006C
:1008300000EBCC0101EB0B032A88B819644901F0E5
:1008400035FE0644298898F8000081420AD10EE05E
:100850005F4B6089F63B00902A88B81903F1AE011E
:10086000EDE7884606F196004845FFF432AF298847
:1008700098F80000814201D246F4004685E0A07855
:10088000312802D03228F9D106E0544851A200782C
:10089000002877D152A275E0544A73E003F086F93C
:1008A000054653A1FFF71AFD50B352A12846FFF7A2
:1008B00015FD38B351A12846FFF710FD20B351A113
:1008C0002846FFF70BFD08B34FA12846FFF706FDAA
:1008D000F0B14FA12846FFF701FDD8B14EA128463F
:1008E000FFF7FCFCC0B14DA12846FFF7F7FCA8B10B
:1008F0004BA500BF03F05AF903462A46A11C5BE052
:1009000049A5F7E74AA5F5E74CA5F3E74EA5F1E7BA
:100910004FA5EFE751A5EDE753A5EBE754A5E9E7B0
:10092000A078312802D032282FD101E0524A29E0A4
:10093000514A113226E0A178312906D04F48322998
:10094000406809D0332920D117E00220FFF7F5FBDA
:100950000246C8F8040015E001F082F801F085F8BD
:100960004FF06632464B00F0F3FF6FF0090201F0E2
:1009700060F802460B46211D1EE064225043820AA5
:10098000C8F80420211D1FE00646B0B2D3E50220BE
:10099000FFF7D3FB0246611CC8F8040014E0FFF720
:1009A000E2FB6278A2F130030AFA03F1084201D0B7
:1009B00034A300E035A337A1384601F077FDE3E723
:1009C000FFF7D1FB024640A1384601F06FFDDBE79F
:1009D000A4610000456E61626C656400D8D00000BF
:1009E00044697361626C6564000000009C00001043
:1009F000656E0000656E2D7573000000656E2D67D5
:100A0000620000006465000064652D6368000000FA
:100A100064652D617400000066720000736C000054
:100A2000556E6B6E6F776E00456E676C697368000C
:100A3000456E676C6973682055534100456E676C5D
:100A400069736820474200004765726D616E00005F
:100A50004765726D616E2043480000004765726D06
:100A6000616E2041540000004672656E63680000AC
:100A7000536C6F76656E6500180000103C00001026
:100A800066660A40747275650000000066616C73EA
:100A9000650000003C636865636B626F783E3C698B
:100AA000643E627574746F6E25633C2F69643E3CCE
:100AB0006F6E3E25733C2F6F6E3E3C2F63686563FF
:100AC0006B626F783E0000003C76616C75653E2578
:100AD000643C2F76616C75653E000000C1F1200218
:100AE000904010B5FE4A4FF4007453150EE00028F4
:100AF00001DA946500E0D46500BF00BF00BF9365D4
:100B000000BF00BF00BFD3654000491E0029EED1E1
:100B100010BD70B50546F3480078012813D04FF09A
:100B2000A04045F4807181620121416200210213DD
:100B3000436BDB0702D0491C9142F9D3002141628B
:100B4000056BA8B270BDE64C206C40F400702064C8
:100B500020214FF0FF30FFF7C1FF04210620FFF7EF
:100B6000BDFF05210120FFF7B9FF05212846FFF74A
:100B7000B5FF00F0CFF94FF0000528464FF4807123
:100B80004FEA4505A16500BF00BF00BFE165626D8A
:100B9000920501D545F00105401C1028F0D300F066
:100BA000B9F9CEE770B50546CE480C460078012865
:100BB0000ED04FF0A04245F480709062D4620020C5
:100BC0001113536BDB0702D0401C8842F9D370BD70
:100BD000C348016C41F40071016420214FF0FF30E3
:100BE000FFF77CFF04210520FFF778FF0521012096
:100BF000FFF774FF05212846FFF770FF0221084622
:100C0000FFF76CFF10212046FFF768FFBDE870403A
:100C100000F080B92DE9FC47B24C0025B24A25709E
:100C200036200090694612680846904701982521B1
:100C3000B1EB106F01D101202070AC48016841F088
:100C400080410160AB48AA4981602178002961D0C8
:100C5000016921F470210161A148016C41F48071A6
:100C6000C0F840104FF0A0444FF44F40206078206F
:100C7000C4F800016420401EFDD14FF00208C4F802
:100C80000080302060604001606143F20F7020619D
:100C90001227E7607801C4F800014FF40060A061FA
:100CA0006426761EFDD1A5614FF400410020FFF7B8
:100CB00079FF4FF480190020FFF72BFF10F4084F45
:100CC00002D0761C4E45F6D30220FFF722FF0646DF
:100CD0000320FFF71EFF4FF6F0710840864940EAF7
:100CE000064088420DD14FF440510020FFF75AFFD3
:100CF00000260120FFF70DFF800602D4761C4E452A
:100D0000F7D300264FF480391020FFF702FFC10708
:100D100009D105E0C16821F00F01491DC160A1E7BB
:100D2000761C4E45F0D341070CD5616841F00101B6
:100D30006160D4F8001141F48061C4F800111521FC
:100D4000A16000E0A760800701D5A56102E04FF433
:100D50008070A0616948818821644188616400884D
:100D6000A064604B00206C33A3F16801644E01F174
:100D7000240200BF00EB400703EB472741F8307027
:100D800001EBC0077E6042F8305002EBC007401C08
:100D90007D600428EED3C4F80811C4F80C210320A8
:100DA000C4F81001C4F818514E490020554E48317E
:100DB00001F1180200EB400306EB432341F8303009
:100DC00001EBC0035D6042F82050401C0328F1D3C2
:100DD00004F1AC0421676267C4F87880E5674FF0DE
:100DE0002600C4F854014FF08800C4F8380F4FF6BD
:100DF000FF70C4F83C0F606D40F00300606554F86C
:100E0000AC0D40F001002060BDE8FC873E484FF08B
:100E10008051016070473D484FF08051016070473C
:100E2000F0B54FF0A045D5F828112E4E038848366E
:100E3000021D56F83140DB1C9B0803D080CA5B1EA4
:100E400080C4FBD1008806EBC102401E40F0404048
:100E5000491C5060032900D10021C5F82811F0BDBC
:100E600070B54FF0A04533E0C5F8E80F00072FD567
:100E7000D5F8184128E01B48283050F834004100CC
:100E80001CD5C0F30A06F61E40F2EA518E4215D870
:100E90001F49084212D146F0004001F09BFF68B1A3
:100EA000104A011D121DF61C52F83420B30803D05D
:100EB00040CA5B1E40C1FBD104F0B6F8641C042C90
:100EC00000D10024C5F81841D5F81401A042D2D1B0
:100ED000D5F8E00FD5F8E41F0840C5D170BD00007B
:100EE00000C0092008C0072000C00720C4C00F4070
:100EF0000501155000C00240905C00205400001015
:100F0000FF05008074D8072000E100E080E100E0E8
:100F10000000901B0748016C21F4007101644FF43C
:100F20008071816500BF00BF00BFC16500BF00BF09
:100F300000BF704700C0092070B5F948016841F44E
:100F4000806140F8E41B016841F400110160F5483C
:100F5000416A21F070614162F34C216841F04051D7
:100F600044F880194FF00051C4F89810216841F0FE
:100F7000400121604FF04005A561016821F47C210A
:100F80000160016841F428210160E84840F2C7117E
:100F900001604FF00201016141604FF0050000F077
:100FA0000CFB002000F015FBE561732000F009FB4D
:100FB000002000F006FB002000F003FB06020020EA
:100FC00000F0FFFA3043A561D94D4FF48071A8803D
:100FD000012000F02CFB4FF4E061022000F027FB21
:100FE0000021042000F023FB40F20721082000F03C
:100FF0001EFB0021092000F01AFB00210A2000F04E
:1010000016FB00210C2000F012FB00210D2000F047
:101010000EFB00210F2000F00AFB0021102000F041
:1010200006FB0021112000F002FB0021122000F03D
:10103000FEFA0021132000F0FAFA142000F0BDFAA5
:1010400041F2B021102000F0F2FA0721112000F047
:10105000EEFA052000F0B1FA40F2BD11122000F0C6
:10106000E6FA052000F0A9FA4FF4A051132000F091
:10107000DEFA0E21292000F0DAFA052000F09DFAB0
:101080000021202000F0D3FA0021212000F0CFFA27
:10109000A88845F20846B0424ED140F60D313020C6
:1010A00000F0C5FA41F62311312000F0C0FA41F6F4
:1010B0002641322000F0BBFA42F21C61332000F0DE
:1010C000B6FA42F21941342000F0B1FA40F60B5161
:1010D000352000F0ACFA41F20601362000F0A7FA04
:1010E0004FF4C261372000F0A2FA40F206713820B6
:1010F00000F09DFA4FF44171392000F098FA40F663
:1011000005613A2000F093FA40F601613B2000F0BF
:101110008EFA4FF487713C2000F089FA40F20E51AC
:101120003D2000F084FA40F203413E2000F07FFAB7
:1011300040F207613F202CE00621302000F077FAD2
:1011400040F20111312000F072FA0321322000F048
:101150006EFA4FF48371352000F069FA40F60231DF
:10116000362000F064FA40F20231372000F05FFAD6
:1011700040F20771382000F05AFA0721392000F0B8
:1011800056FA4FF4C0613C2000F051FA40F20B21B6
:101190003D2000F04CFA0021502000F048FAEF21E9
:1011A000512000F044FA0021522000F040FA40F2B1
:1011B0003F11532000F03BFAA888B04202D14FF40F
:1011C000274101E04FF41C51602000F030FA01216A
:1011D000612000F02CFA00216A2000F028FA00219A
:1011E000802000F024FA0021812000F020FA002164
:1011F000822000F01CFA0021832000F018FA002160
:10120000842000F014FA0021852000F010FA10214B
:10121000902000F00CFA0021922000F008FA03213F
:10122000932000F004FA4FF48871952000F0FFF944
:101230000021972000F0FBF90021982000F0F7F939
:1012400041F23801032000F0F2F940F23711072093
:1012500000F0EDF94FF08050C4F8980070BD2DE912
:10126000F0410D4681B20446174698460E4650207E
:1012700000F0DDF9E019401E81B2512000F0D7F9ED
:10128000A9B20C46522000F0D2F905EB0800401E2E
:1012900081B2532000F0CBF93146202000F0C7F98D
:1012A0002146BDE8F041212000F0C1B9F022002123
:1012B0004FF4A0730846D2E710B5044689B2202047
:1012C00000F0B5F9A4F23F14604281B2212000F091
:1012D000AEF9222000F07DF915480088BDE81040E5
:1012E00000F087B91249088070471149488070475B
:1012F00070B50646FFF7DAFF222000F06AF900F029
:1013000088F900244FF49635304600F087F9641CC4
:10131000AC42F9D3044940208039886170BD000097
:10132000C4C00F4000C0024080C00920000003403C
:101330005A0000102DE9F05F0C46C0F5A0719046F0
:101340009946891A002743464A4620460A9EFFF7D7
:1013500086FF222000F03DF900F05BF9B848002537
:101360004FF0010B82460FE0B8F101040AD4F15DA1
:101370000BFA04F0014250460DD0008800F04EF9FF
:10138000641EF4D5761C6D1C4D45EDD3AD4940204F
:101390008861BDE8F09F4088F0E72DE9F05F0C46DA
:1013A000C0F5A07190469946891A002743464A46DF
:1013B00020460A9EFFF753FF222000F00AF900F0B2
:1013C00028F99F4800254FF0010B824612E000BF2C
:1013D000B8F101040CD400BF36F817100BFA04F072
:1013E000014250460CD0008800F018F9641EF3D575
:1013F000B61C6D1C4D45EBD3924940208861C8E76F
:101400004088F1E738B5203BDBB28AB1012A0ED122
:1014100003EB43028C4B00EB400003EB0212C400D1
:1014200008010092182310222146FFF7B6FF38BDAD
:10143000864AC40002EBC30201EB41000092400067
:10144000082306222146FFF775FF38BD2DE9F0413C
:1014500005460F4616461C46FFF728FF06E03946AC
:10146000641C7F1C32462846FFF7CCFF2378002BF4
:10147000F5D1BDE8F08130B58FB005460C46FFF7D9
:1014800015FF00226946202014B1012C08D10FE07D
:101490000023C8545B1CDBB2362BFAD3C818427049
:1014A0000B46224600212846FFF7D0FF0FB030BD83
:1014B0000023C8545B1CDBB2142BFAD3EEE72DE9F2
:1014C000F0470446084615460899984669438F0A2E
:1014D000C4F5A0711346491B4246FFF7C0FE222007
:1014E00000F077F800F095F85548002681460CE0AA
:1014F0006C1E09D4BC42484601D3408800E00088F5
:1015000000F08CF8641EF5D5761C4645F0D34D49A5
:1015100040208861BDE8F0872DE9F0410546084686
:1015200016469846C5F5A0711346891B4246069C8F
:10153000FFF795FE222000F04CF800F06AF8002733
:101540000AE0002505E000BF34F8020B00F066F861
:101550006D1CB542F8D37F1C4745F2D33949402072
:10156000886186E72DE9F04106460846154698460B
:10157000C6F5A0711346491B4246069CFFF76FFE55
:10158000222000F026F800F044F808FB05F004EBF8
:101590004004A41E002709E0002604E034F80209F4
:1015A00000F03CF8761CAE42F8D37F1C4745F3D3DD
:1015B0002449402088615CE770478004401EFDD2CA
:1015C000704723498860C8684007FCD58868C0B266
:1015D000704770B51B4D40240646EC617020FFF744
:1015E000F0FF0020FFF7EDFF3046FFF7EAFFAC61A8
:1015F00094E670B5134E40250446F5617220FFF75E
:10160000E0FF200AFFF7DDFFE0B2FFF7DAFFB56188
:1016100084E60C494020C8617220D2E710B5044628
:10162000000AFFF7CEFFE0B2BDE81040C9E710B5F1
:101630000C46FFF7CEFF2046BDE81040D9E700007A
:101640005A00001000C0092076D40000F6D0000037
:101650000000034030B54E482021C0F8A01100BF63
:10166000D0F8A0114906FBD500F180000322C0F894
:1016700084204FF00001C0F82811C0F82C114FF061
:101680000103C0F88C30434C446003604FF0AA0360
:10169000C3604FF05504C460A0F18000D0F88850BA
:1016A0006D01FBD540F8802FC360C460C0F888107E
:1016B000394A4264C0F848118168A0F180006FEA9D
:1016C00011618A073549D0F80C2102F0030207D0D6
:1016D000EAB3012A45D0022A49D0032A50D13AE080
:1016E0002AB1012A13D0022A22D0032A48D150F865
:1016F000882FC2F30742C36F521CDBB25B1C5A43F4
:1017000050F88839264CC3F30E035B1C0EE050F8EA
:10171000882FC2F30742C36F521CDBB25B1C5A43D3
:1017200050F888391F4CC3F30E035B1C634324E05D
:1017300050F8882FC2F30742C36F521CDBB25B1C08
:101740005A4350F88839C3F30E035B1C00E002E0F3
:101750004FF47A44EAE7D0F80421134BD2B2521C7A
:101760000BE0D0F80421114BD2B2521C05E0D0F8A6
:1017700004214FF4FA43D2B2521CB3FBF2F20A60D6
:10178000016821F4704141F48041016030BD0000E6
:1017900000C00F4063000500DE87280460000010D1
:1017A00000127A00002D310100093D00809698005A
:1017B0000FB400B58DB010A909900B9000914FF0B7
:1017C000FF300A9000200C900548069005480790CD
:1017D0006A4609A80F9900F0BDF90DB05DF814FB39
:1017E000751B0000931B00002DE9FF5F1D464FF0A5
:1017F000FF3BD5E90146002091465F468046A96936
:101800007F1C01988847296A824688470028F6D1BC
:101810001AF101000CD024F4C064002E19DD60061A
:1018200014D5BAF12B0F09D0BAF12D0F0ED103E068
:10183000584604B0BDE8F09F44F48064A9697F1C59
:1018400001988847761E8246002E02DDBAF1300FDD
:1018500003D0B9F1000F26D032E0761EA96944F416
:1018600000747F1C019888478246002E05DDBAF17E
:10187000780F06D0BAF1580F03D0B9F1000F10D08D
:101880001EE0B9F1000F02D0B9F1100F18D1761E89
:10189000A96924F400747F1C0198884782461020AF
:1018A00002E0082000E00A20814609E008FB090860
:1018B000761EA96944F400747F1C0198884782460B
:1018C000002E05DD4946504600F02DF90028EDDADE
:1018D000E96901988847A00502D46FF00100A8E7E4
:1018E000E00726D1600613D5C8F10000610500D4D9
:1018F0004046296801F104022A600968220501D5E1
:10190000087016E0220701D5088012E0086010E098
:10191000286800F1040129600068210502D580F8DB
:10192000008006E0210702D5A0F8008001E0C0F8A1
:10193000008038467DE770B5064600F0CBFD0468B0
:1019400005460A220021304600F034F92C6070BDB3
:101950002DE9FE4F81EA0304002621F0004504F042
:10196000004423F00041B246009450EA050302D03F
:1019700052EA010304D10020014603B0BDE8F08F14
:10198000C5F30A54C1F30A53C1F313011C4441F4D3
:101990008018A0FB0213C5F3130545F4801C0CFB53
:1019A000023300FB083E8B46A4F2F334810A930A0B
:1019B00041EA8C5143EA88530194A1FB03474FEA63
:1019C0009C2505FB03734FEA982601FB06373D056E
:1019D000260545EA1435BBEB06016EEB0503850EC3
:1019E000920E45EA8C1542EA8812A5FB0206261ED5
:1019F00067EB00070C0D44EA0334A61947EB1350BC
:101A0000C1F313044FF000031946E5FB02014FEA4E
:101A1000033343EA14534FEA0432019C43EA0603BA
:101A2000A4F10C040294009CCDE900A400F03DF95F
:101A3000A3E770B521F0004303430CD0C1F30A546F
:101A40000026D4EB060566EB0603D417AD1AA341B6
:101A500002DB0020014670BD001C41EB025170BD4D
:101A600096230022114600F0E6B800F0004230F064
:101A700000400DD0C10D01F5607142EA0151002214
:101A8000C0F31600520742EAD002400711437047E4
:101A900000200146704730B50B4601460020202249
:101AA000012409E021FA02F59D4205D303FA02F56B
:101AB000491B04FA02F52844151EA2F10102F1DCCB
:101AC00030BD2DE9F05F0546002092469B468846D2
:101AD0000646814640241CE02846414647462246A9
:101AE00000F09FFA52465B46801A994111D3104686
:101AF0001946224600F086FA2D1A67EB0107B84610
:101B00004F4622460120002100F07CFA38184E4151
:101B10008146201EA4F10104DEDC484631462A46F7
:101B20004346BDE8F09F3A2800D2303820F020022A
:101B3000412A01D3A2F137004FF0FF32884200D290
:101B40000246104670470000026811441378016095
:101B5000184670470B461146044A4A61044A0A6215
:101B60000022C1E9033200F08DBA0000491B0000D9
:101B700071200000426842B1016811F8013B23B1B5
:101B8000521EC0E90012184670470121C160881E2C
:101B90007047416859B1C368026843B9836893428A
:101BA00005D0521E491CC0E90021002070474FF0AB
:101BB000FF3070472DE9F0470F46914680460446B6
:101BC000002614F8015B2DB100F04EFA0068405D6C
:101BD000C007F6D12B2D02D02D2D18D0641E4A46F9
:101BE0003946204600F0EAFB27B13968A14201D10D
:101BF000C7F8008071054FF002040BD54042002861
:101C000003DD00F067FC0460A007BDE8F08746F440
:101C10008066E4E70028F8DA00F05CFC04606FF00E
:101C20000040F2E70029A8BF7047401C490008BFE8
:101C300020F00100704710B4B0FA80FC00FA0CF0FC
:101C400050EA010404BF10BC704749B1CCF1200434
:101C500021FA04F411FA0CF118BF012121430843C1
:101C6000A3EB0C01CB1D0106000A002BBEBF002018
:101C700010BC704700EBC35010440029A4BF10BC37
:101C80007047401C490008BF20F0010010BC70479D
:101C900010B5002B08DA401C41F1000192185B419D
:101CA0001A4301D120F0010010BD2DE9FF4D9346EC
:101CB00011B1B1FA81F202E0B0FA80F2203292461C
:101CC00000F0A0F9039A0746884640EA0B0011434A
:101CD0005B46084304D13846414604B0BDE8F08D68
:101CE000114653EA010018D0CAF14002584600F0EC
:101CF00098F904460D464FF001065846524603999E
:101D000000F080F9084300D10026344345EAE67527
:101D10003C4345EA08052746A8460E984FF00005C3
:101D2000A0EB0A014FEAD7200A314FEA47532A466F
:101D300040EA48504FEAD82402D500200146CCE7BB
:101D4000281844EB0151DDE90C45001904B0694144
:101D5000BDE8F04D9CE72DE9FE4F074681EA030000
:101D6000C00F0E46019021F0004123F00044B81A44
:101D7000A14105D23846314617461E460B4602465B
:101D800023F00040104304D13846314603B0BDE88B
:101D9000F08F350DC5F30A00C3F30A510290401AC3
:101DA000009040286ADAC3F3130040F480108346A1
:101DB0000198924630B10023D2EB030163EB0B0094
:101DC0008A46834600985946C0F14002504600F0CA
:101DD00019F980460C4650465946009A00F031F9F0
:101DE000C0197141EF1785EA11533B433FD0019A67
:101DF0004AB3009A012A11DC0022801A4FF00043F6
:101E000061EB055103EA05538018CDE9002341F544
:101E1000801142462346FFF748FFB7E72E0500250D
:101E2000401B61EB0601401941F580120018524138
:101E30002818A6F5001343EB020140EAD47018EB12
:101E40000808644113E064084FEA38084FF00002C4
:101E500044EAC0744FEA0553801A61EB030180180D
:101E600041F5801149084FEA300080185941424637
:101E7000234603B0BDE8F04FFFF70ABF01980122E7
:101E800040000023D0EB020263EBE07301984FEABD
:101E9000E074381A66EB0401EBE783F000435AE77D
:101EA00081F0004157E72DE9F04D81EA030404F089
:101EB0000044A34621F000474FF0000C1446E246D0
:101EC00023F0004150EA070220D054EA01021DD05D
:101ED000C1F30A550246C1F31300C7F30A56C7F30C
:101EE000130340F4801143F48013A6EB0508101B84
:101EF000D64608F2FD3873EB010002D308F1010861
:101F000001E092185B41B8F1000F03DA00200146AE
:101F1000BDE8F08D00204FF48015064607460EE020
:101F2000B2EB040C73EB010C04D3121B064363EBFE
:101F300001032F436D084FEA300092185B4150EACD
:101F4000050CEDD152EA030012D082EA040083EAC4
:101F50000105284303D100224FF0004308E0101B85
:101F60008B4102D20122002302E06FF001025310E4
:101F70001AEB060047EB085110EB0A0041EB0B018E
:101F8000BDE8F04DFFF784BEC1F30A52C1F313015F
:101F900040F2FF3341F480119A4202DA00200146F8
:101FA000704740F233439A42A2F2334202DC52427B
:101FB00000F037B800F026B830B5002904DB4FF048
:101FC0000044404264EB0101002B05DB4FF000446C
:101FD000524264EB03042346994208BF904230BD4D
:101FE000064C074D06E0E06840F0010394E8070066
:101FF00098471034AC42F6D3FEF76CF8A8EC00001A
:10200000D8EC0000202A04DB203A00FA02F100207C
:1020100070479140C2F1200320FA03F31943904026
:102020007047202A04DB203A21FA02F00021704791
:1020300021FA02F3D040C2F1200291400843194630
:102040007047202A06DBCB17203A41FA02F043EA18
:10205000E07306E041FA02F3D040C2F12002914061
:10206000084319467047000000487047A4EC000080
:1020700010B50446FFF7F8FF0068005D00F00100AE
:1020800010BD00002DE9F34F0020804601208BB0E9
:1020900082460A9001F10C000C4600260DF1080B57
:1020A0000190626901210198904705002DD0252DEE
:1020B0002CD0216A8847C0B16269012101989047FC
:1020C000216A88470028F7D1411E6269019890472C
:1020D00000E0761CA1690B988847216A8847002890
:1020E000F7D1E1690B988847DBE7A1690B9888472E
:1020F0000746A84201D1761CD3E7E1690B988847CF
:102100007F1C02D1B8F1000F72D016E1002762697E
:102110003D463946019890472A2804D16269012139
:10212000019890470125DFF890926269012101989A
:102130009047A0F130020A2A0DD2BAF1000F0AD05E
:102140004F45E2DC07EB870100EB4107303FDCD471
:1021500045F01005E9E7E90601D46FF000476C2867
:102160000AD04C2814D0682815D06A280DD07428BD
:102170001CD07A281AD01DE062690121019890478D
:102180006C2802D045F0040514E045F002050DE08E
:1021900045F020050AE0626901210198904768280E
:1021A00002D045F0080505E045F4006562690121AB
:1021B00001989047C4E90157652842D019DC582896
:1021C0007ED00CDC45283CD004DC252826D04128D4
:1021D00031D136E0462834D047282CD131E05B2875
:1021E0007BD061282DD0632877D0642823D15EE08E
:1021F00022E06F284CD008DC662822D0672820D047
:10220000692826D06E2816D12CE0702849D0732872
:102210006CD075284BD078280DD151E0A1690B986E
:102220008847054625283FF466AFE1690B98884743
:102230006D1C3FF467AF80E04FF0FF300DB0BDE89C
:10224000F08F23466A466FF001000B99AFF30080D0
:102250009DE045F040006060A80723464FF0000273
:1022600035D43DE0206800F10401216000682905B3
:1022700001D5067015E7290701D5068011E7A907E2
:1022800004D54FEAE671C0E900610AE7066008E795
:1022900045F040006060A80723464FF0080216D4BE
:1022A0001EE040F60E0125EA0100606016E045F0F0
:1022B00040006060A80723464FF00A0207D40FE0F1
:1022C00045F040006060A80708D5234610226FF053
:1022D00001000B99AFF3008059E007E0234610227C
:1022E0006FF001000B99FFF77FFA50E00027B94625
:1022F0003B46632802D05B2807D040E0E80601D4C3
:10230000C4F808A00120814639E0626901210198E2
:1023100090475E2804D101276269394601989047A9
:10232000216931B900235A4642F82130491C082955
:10233000FADB10B1216911B10FE040467EE7C11709
:1023400000EBD1635A110BEB820123F01F03C31A78
:102350000A680AFA03F002430A60626901210198DF
:1023600090475D28E5D14FB10020594651F8202013
:10237000D24341F82020401C0828F7DB02AB22465C
:10238000CDF800906FF001000B99AFF300800028AA
:1023900008DA4FF0FF31401C01D10A9800B94146DC
:1023A00008464BE7E90702D108F1010188460644D7
:1023B00000200A9075E60000CCCCCC0C2DE9F05F33
:1023C0008246044600780027641C8B461546B946B1
:1023D000302801D09DB113E014F8010B01277828B3
:1023E00003D0582801D045B10AE00DB1102D07D116
:1023F0000027102514F8010B02E0082500E00A254B
:102400000026B0460FE005FB080005FB06F101EBD6
:102410001046012780B28046B6F5803F01D30120E7
:10242000814614F8010B2946FFF77DFB0028EADA04
:10243000BBF1000F04D0641E07B95446CBF800402E
:10244000B9F1000F06D000F045F802210160C81E66
:10245000BDE8F09F48EA0640FAE700B5002200F028
:1024600007F8C04380B2010241EA102080B200BDEB
:1024700005E000BF30F8023B891E5BBA1A4401290F
:10248000F8DC11B1007802EB002290B200EB1240B0
:1024900000EB104080B27047084400EB104080B25F
:1024A0007047010241EA102080B270470FB4084B18
:1024B00010B504A902AA039800F0C8F8044602A9BE
:1024C000002000F081FC204610BC5DF814FB0000E9
:1024D000C92D0000004870479800001002E008C8AD
:1024E000121F08C1002AFAD17047002001E001C183
:1024F000121F002AFBD170472DE9FF5FDDE90210B2
:10250000020DDDF838B001430FD10F9801244AA322
:10251000012807D000980F9AC0E90031C0E90242B3
:10252000BDE8FF9F6FEA0B01F4E7A2F2FF3244F629
:102530001050424315140F98012810D0A5EB0B0042
:10254000401CB0F1000A3E484FF000043B4E81466B
:10255000A0465046CAF1000717DB074615E0CBF14D
:102560000000EEE7F80707D02246334640464946CA
:10257000FFF7EEF980468946224633461046194653
:10258000FFF7E6F904460E467F10002FEAD1DDE999
:102590000201BAF1000F42464B4602DAFFF7D8F9C2
:1025A00001E0FFF780FC04460E460022254BFFF7B2
:1025B00003FD03D84FF0FF30014607E00022224B15
:1025C00020463146FFF7C7FBFFF7DEFC102409E089
:1025D000002C0ADB0A220023FFF773FA019B30323A
:1025E0001A55641E50EA0102F2D1641C019AC4F12A
:1025F000110314440F9A012A07D00122084301D184
:102600005B450DDD00226D1C0DE0084303D1A3EBFB
:102610000B056D1E09E01120834600200F908AE70C
:1026200001DA00226D1E002A85D000980F99C0E9BA
:102630000231C0E9004573E730000000000024408B
:102640000000F03F0000F0430000E03F2DE9FF4FA5
:1026500095B006469B468946002539E2252801D0DB
:102660001799ACE00024FF492746761C4FF0010A79
:1026700002943278203A0AFA02F0084202D0044367
:10268000761CF6E730782A2811D06FF02F023078C8
:10269000A0F13001092919D8029944F0020401EB94
:1026A000810102EB41010844761C0290EFE7D9F862
:1026B000001009F1040081460291002903DA484222
:1026C00044F40054029044F00204761C30782E2822
:1026D00019D116F8010F44F004042A280DD06FF028
:1026E0002F013078A0F13002092A0CD807EB8702BD
:1026F00001EB42028718761CF3E709F10400D9F8D0
:1027000000708146761C30786C280FD006DC4C288F
:1027100017D068280DD06A2814D104E0742810D08E
:102720007A280FD10DE044F400140AE044F4801438
:1027300001E044F440147178814202D1761C04F522
:102740008014761C96F800C0BCF1660F10D01ADC1D
:10275000BCF1580F7AD00CDCBCF1000F77D0BCF183
:10276000450FF3D0BCF1460FF0D0BCF1470F24D198
:10277000B6E1BCF1630F41D0BCF1640F68D0BCF18D
:10278000650F1AD1ACE1BCF1700F78D00CDCBCF154
:10279000670FEDD0BCF1690F5AD0BCF16E0F12D0AB
:1027A000BCF16F0F09D1C1E0BCF1730F35D0BCF1A2
:1027B000750F76D0BCF1780F48D0179960465A460D
:1027C00090476D1C82E1C4F3025002280AD003280E
:1027D0000ED0D9F8001004280ED00D6009F10400C5
:1027E000814673E1D9F80010EA17C1E90052F5E714
:1027F000D9F800100D80F1E70D70EFE7D9F800105F
:1028000009F1040081468DF800104FF000008DF8AA
:102810000100EA464FF0010007E0D9F8001009F185
:10282000040081468A464FF0FF3061074FF00001F7
:1028300002D410E008F101018846B94212DA80455D
:10284000F8DB1AF808100029F4D10BE061E043E14D
:1028500028E008F1010188468142FADB1AF80810E5
:102860000029F6D102985B46A0EB080721463846BE
:10287000179A00F092FA284400EB080508E04DE0B2
:102880009AF800000AF101018A465A4617999047C2
:10289000B8F101008046F3D25B4621463846179ACC
:1028A00011E134E00A210020C4F302528246009173
:1028B000022A08D009F10401D9F800008946C1179D
:1028C000032A08D009E009F1070020F00702F2E826
:1028D0000201914605E000B2C117042A01D140B2BD
:1028E000C117002906DA0A460021404261EB0201C5
:1028F0002D2202E0220504D52B228DF8042001228E
:1029000003E0E20701D02022F7E7904655E00A20D5
:1029100000E0102000218A4600900BE010200021EA
:102920008A4644F004040827009003E008210020B0
:1029300082460091C4F30252022A08D009F1040130
:10294000D9F8000089460021032A08D009E009F1DE
:10295000070020F00702F2E80201914605E080B28C
:102960000021042A01D1C0B2002100229046220792
:1029700023D5BCF1700F29D0009B83F0100353EADC
:102980000A0309D150EA010206D030228DF8042052
:102990008DF805C002229046009B83F0080353EA9D
:1029A0000A030AD150EA010201D1620705D530229B
:1029B0008DF80420012290467F1E2BA2BCF1580FF7
:1029C00000D02EA20C920BAA0B920FE040228DF8A1
:1029D00004200122DFE75346009AFFF772F80C9BB0
:1029E0009B5C0B9AA2F101020B92137050EA010258
:1029F000F1D10B9803A9A1EB000000F12000824661
:102A0000600702D524F4803400E0012700205146FD
:102A1000574501DDA7EB010000EB0A010090029889
:102A20004144A0EB01000290E00306D45B4621463E
:102A3000179A029800F0B1F90544002706E001A8B2
:102A40005A46C05D179990476D1C7F1C4745F6DBC1
:102A5000E00322D55B462146179A029800F09DF9C3
:102A600005441AE009280100303132333435363755
:102A7000383941424344454600000000303132338A
:102A800034353637383961626364656600000000AA
:102A900030205A46179990476D1C0099481E0090A7
:102AA0000029F5DC08E00B980B995A460078491C80
:102AB0000B91179990476D1CBAF10001AAF1010022
:102AC0008246F0DC4AE100F055F9054406F10106C2
:102AD000307800287FF4C2AD19B02846BDE8F08FE9
:102AE000600700D4062709F1070020F00700F0E88E
:102AF0000228814608F000439BA0190007D19BA043
:102B0000210504D49AA0E10701D1AFF2940028F086
:102B100000430790BCF1650F11D009DCBCF1450FF3
:102B20000DD0BCF1460F1AD0BCF1470F7FD136E073
:102B3000BCF1660F13D0BCF1670F78D12FE00021F4
:102B40001120112F00DA781CCDE900010CA908A88A
:102B5000FFF7D2FC00207F1CBA46039049E04FF0FB
:102B60000040CDE9007A04900CA908A8FFF7C4FC46
:102B7000002003900A9882460B9820B9099907F122
:102B8000010008448246B7EB0A0004D4C0F1FF30CC
:102B90000390781C8246AAEB0700009047E0012FC3
:102BA00000DA012700211120112F00DC3846CDE981
:102BB00000010CA908A8FFF79FFC00200390BA466B
:102BC000200710D40A99B94204DA8A4602E0AAF131
:102BD00001008246BAF1010F05DD0899AAF1010052
:102BE000085C3028F3D00998B84202DA10F1040FDB
:102BF00003DA01200090099818E0002806DC01465D
:102C0000039808440390AAEB010005E0401C5045DE
:102C100003DD099800F10100824609990398A1EBB0
:102C2000000000F1010000904FF0004004902007E8
:102C300005D40098504502DB4FF0FF300090002093
:102C40008DF81B0004980DF11B07B0F1004F26D042
:102C5000022080462B200190049800280CDA404284
:102C600004902D20019007E00A210498FEF713FF3D
:102C70003031049007F8011DB8F10001A8F10100FE
:102C80008046F1DC04980028EED1791E0198087086
:102C9000307800F0200040F0450007F8020D05A84C
:102CA000A0EB070000F1070080460798007800B10C
:102CB000012000EB0A01009801EBE0710298414409
:102CC000A0EB0100A0F101000290E00306D45B46F6
:102CD0002146179A029800F060F80544079800789A
:102CE00020B15A461799904705F10105E00322D516
:102CF0005B462146179A029800F04FF805441AE007
:102D00000398002806DB0A99814203DD0899085CD4
:102D1000179901E0179930205A46904703986D1C87
:102D2000401C03900098401E009004D12E205A466B
:102D3000179990476D1CBAF10001AAF10100824673
:102D4000DEDC05E017F8010B5A46179990476D1C19
:102D5000B8F10001A8F101008046F3DC5B46214692
:102D6000179A0298AFE600002D0000002B0000002B
:102D7000200000002DE9F0410446002517461E46BC
:102D8000880405D406E039462020B04705F1010546
:102D9000641EF8D52846BDE8F0812DE9F0410446CF
:102DA0000025302790461E46C80300D420278804FB
:102DB00005D506E041463846B04705F10105641ED9
:102DC000F8D52846BDE8F0810A68531C0B601070E6
:102DD000704700002DE9F0470027DFF890900028A9
:102DE0000CDA2349D9F8002020F000400968024499
:102DF00001EB4101B2EB910F18D8012705460F30C6
:102E000020F003060FB9FEF706F81A4CD4E90002C9
:102E1000011B891AB1420CD2044600680028F5D182
:102E200027B9FDF7F3FF0020FDF71EFA0020BDE8EB
:102E3000F08772B1101921680160206000F1080864
:102E4000C0F80460D9F800103144C9F8001027B167
:102E500005E004F108086660F4E7FDF7D7FFA8F87D
:102E600000500020A8F802004046E0E7840000106F
:102E7000BCD00000B00000102DE9F047074689469D
:102E800090460026284C294D0BE0207838B10422CA
:102E9000394604F10A0001F0E7FC012835D00E3470
:102EA000761C28888642F0DB2149384601F096FCE2
:102EB000D0B91F4804220021001D01F0FBFC10B115
:102EC0000020BDE8F0870026174C0AE0207830B1DA
:102ED00006224946201D01F0C7FC01281AD00E34F5
:102EE000761C28888642F1DB404600F027F800284F
:102EF000E7D00D49C0EBC00001EB40040E3C0422BA
:102F0000394604F10A0001F0BFFC06224946201DA3
:102F100001F0BAFC07480088E07007480078A0700C
:102F2000032020700120CCE7B0200010C2D00000A8
:102F300054240010C4D00000C6D00000F0B50546EF
:102F4000012116480E46164A03E0037853B10E30AD
:102F5000491C13889942F8DD1248104B0488002060
:102F600001210DE0067045700846F0BD5F78012F25
:102F700004D1DF78A74201D83C4608460E33491CED
:102F80001788B942F2DD0028EFD0044AC0EBC00137
:102F900002EB410101F80E6D4D70F0BDB020001044
:102FA000C2D00000C4D000002DE9F04781460F4692
:102FB00000253D4C3D4E0BE0207838B104224946B7
:102FC00004F10A0001F050FC012815D00E346D1CEC
:102FD00030888542F0DB3649484601F0FFFBDFF8D8
:102FE000C880334D01284FF0040209D00021281D6C
:102FF00001F060FCE8BB1DE0207803284ED350E0D0
:103000004946281D01F030FC012806D10422002188
:10301000281D01F04FFC00B900273846FFF78EFF4E
:1030200006003CD0C6EBC60108EB41040E3C04226E
:1030300049461DE000271C4C0BE0207838B10422E3
:10304000291D04F10A0001F00FFC0128D4D00E3430
:103050007F1C30888742F0DB0020FFF76FFF0600FF
:103060001DD0C6EBC60108EB41040E3C0422291D0D
:1030700000E013E004F10A0001F006FC06220D490D
:10308000201D01F001FC0C480078A0700B4800786E
:10309000E070304600F012F9022020700020BDE8F8
:1030A000F0872046FBE70000B0200010C2D00000EF
:1030B0005424001048EA0000C6D00000C7D0000029
:1030C0002DE9F0470026DFF8D480DFF8D490B2462F
:1030D000344F5DE0B9F80050691C89B2A9F80010BE
:1030E0003A88914201D3A9F800A02F49C5EBC50049
:1030F00001EB40042078C8B3E07820B1401E10F006
:10310000FF00E07043D1607801280AD104222749EA
:1031100004F10A0001F0A8FB012806D0607801281C
:1031200018D010F0FF0F02D031E084F801A0042283
:103130001F4904F10A0001F097FB012817D02078FD
:10314000032818D0A07800B3401E10F0FF00A07034
:103150001BD012E02078032817D0A078A8B1401E19
:1031600010F0FF00A07010D0022005E00FE0114821
:103170000088E0700BE00420207098F80000E070F8
:10318000681CBDE8F04700F099B884F800A0761CF0
:10319000388886429EDBBDE8F0870000C7D000007B
:1031A00090000010C2D00000B02000105824001081
:1031B0004EEA0000C4D000002DE9F041064600258B
:1031C000134C00F10E08134F0DE0207848B1012890
:1031D00007D0042204F10A01404601F045FB012812
:1031E00006D00E346D1C38888542EEDBBDE8F081D8
:1031F000062206F10801201D01F046FB0648008862
:10320000E07006480078A07003202070EEE7000010
:10321000B0200010C2D00000C4D00000C6D0000012
:103220002DE9F04105460E462A20FFF7D3FD04465E
:1032300005F1080106220F46001D01F025FB0622BC
:103240001C4904F10A0001F01FFB4FF4C160208209
:103250004FF4807060820820A0820620A0750420B0
:10326000E075268304F1240006223946064601F063
:103270000BFB05F10E0104F12A000422054601F0C2
:1032800003FB06220B4904F11A0001F0FDFA0422A7
:10329000094904F1200001F0F7FA012231462846DD
:1032A000FFF7EAFD2046FDF7BBFD2046BDE8F041F3
:1032B00000F0DCB9540000105424001070B505462D
:1032C0002A20FFF787FD044606222349001D01F04E
:1032D000DBFA0622214904F10A0001F0D5FA4FF485
:1032E000C16020824FF4807161820820A082062094
:1032F000A0750420E07521830622184904F11A0004
:1033000001F0C2FA0422164904F1200001F0BCFACF
:103310004FF0060265B1002104F1240001F0C2FA69
:103320001049C5EBC50001EB40010422091F06E06E
:10333000094904F1240001F0A7FA0949042204F123
:103340002A0001F0A1FA2046FDF76AFD2046BDE8FB
:10335000704000F08BB9000048EA000054000010F3
:1033600054240010B0200010F0B500231D461C4668
:1033700000268A5DA2F14107192F01D83A4618E0CC
:10338000A2F16107192F01D8473A12E0A2F13007E4
:10339000092F01D8121D0CE02B2A04D02F2A04D0AB
:1033A0003D2A04D013E03E2203E03F2201E0002248
:1033B0006D1C761C42EA8313042EDAD31A0C0270B9
:1033C0001A0A42708370E41CC01C091D15B1641BED
:1033D00015B103E0392CCBD3002101702046F0BD9C
:1033E000002070472DE9F04705460846697907290E
:1033F00078D200EB0208040075D04FF000094CA110
:1034000000F0CCF8012806D04DA1204600F0C6F807
:1034100001286AD072E00E344EA1204602F09EF8D8
:10342000012809D054A1204602F098F80128264628
:1034300021D0A8F101073CE0687940F001005CE090
:1034400052A102F08BF8012815D13420FFF7C2FCFD
:10345000342206F10901686200F0AFFF6A6A801E3B
:1034600002F80090E880687940F00100687168888F
:1034700040F4007034E04146304600F053F9060055
:10348000DED13BE030783B2808D00D2836D00A2822
:1034900034D02F2806D02B2804D009E070782028BB
:1034A0002CD005E03CA1701C02F058F8012803D094
:1034B000761CBE42E6D321E04020FFF78BFC402281
:1034C0002146686200F079FF6A6A801E02F8009067
:1034D000E880687940F001006871688840F4006015
:1034E00068800BE021E01FE0FFE710342046FEF784
:1034F00022FAA860687940F00200687141462046CF
:1035000000F0FCF808B1044679E720780D280BD1CB
:1035100060780A2808D1687940F0040068710728AB
:1035200002D1A01C404500D30020BDE8F087000078
:10353000436F6E74656E742D547970653A20000087
:10354000436F6E74656E742D4C656E6774683A20B7
:10355000000000006170706C69636174696F6E2FA8
:10356000782D7777772D666F726D2D75726C656E1D
:10357000636F6465640000006D756C7469706172DE
:10358000742F666F726D2D6461746100626F756E69
:10359000646172793D000000786D6C0010B5DF2227
:1035A0000BE004785C40144201D0002010BDFF22E3
:1035B0002D2B00D1DF22401C491C0B78002BF0D1B1
:1035C000012010BD06220249001D01F04DB9000086
:1035D0005400001070B5044600F12205204E04226C
:1035E0002049284601F040F938BB0422002104F1AB
:1035F0001E0001F05FF908B1002070BD28780E218F
:10360000B1EB101F0ED101202071002060715E20EF
:10361000A071687800F07F00E071A8782072E878E7
:1036200060720FE0284601F0EBF830B9012128461E
:10363000FFF7BAFC0028E0D0061D06223146201D07
:1036400001F022F90622084904F10A0001F01CF9F0
:10365000082020822046FDF7E3FB012070BD00001A
:1036600048EA00004EEA00005400001070B500283F
:103670002AD0A0F10806154C0025FDF7CCFB09E087
:10368000254624682068800703D0FDF7BFFB022091
:1036900010E064B1B442F3D10D4861680B4B02688D
:1036A000511A01609C4209D10020606008E0FDF7DA
:1036B000ADFB0120BDE87040FCF7D6BD2068286056
:1036C000BDE87040FDF7A2BB70BD0000B000001067
:1036D0008400001010B50346074C084600224FEA4C
:1036E000036301464FEA4000594000D560405B004B
:1036F000521C082AF5D310BDB71DC1040246491E4D
:1037000006E003780D2B02D143780A2B02D0401C2F
:103710008842F6D3904201D0884201D10020704700
:10372000801C70470246491E07E003783B2B0CD0F3
:103730000D2B08D00A2B06D0401C8842F5D39042AE
:1037400001D0884205D1002070474378202BF6D065
:10375000F2E7801C704701784278090641EA02418D
:103760008278C07841EA022108437047392803D99A
:1037700020F02000373800E03038C0B27047012018
:10378000704700002DE9F041067907460D46102EDE
:1037900023D2DFE806F008080A0C12121416181AD1
:1037A0001C220E1E200824A418E026A416E028A43B
:1037B00014E0FFF715FE040010D12CA40EE02EA497
:1037C0000CE030A40AE033A408E035A406E037A4F6
:1037D00004E03AA402E041A400E046A44CA128463B
:1037E00001F0A4FE8046284454A101F09FFE8044CD
:1037F00005EB0800214601F099FE00EB0804012EBC
:1038000015D00C2E13D0F86948B128194FA101F03A
:103810008DFE04442919F86902F0CEFB04442819EE
:103820004EA101F083FE204480B2BDE8F08128194A
:1038300050A101F07BFEF1E7746578742F68746D18
:103840006C0D0A00746578742F6373730D0A0000A1
:103850006170706C69636174696F6E2F782D6A6135
:1038600076617363726970740D0A00007465787410
:103870002F786D6C0D0A0000696D6167652F6769AF
:10388000660D0A00696D6167652F6A7065670D0ACC
:1038900000000000696D6167652F626D700D0A00A0
:1038A000696D6167652F706E670D0A00696D6167EC
:1038B000652F782D69636F6E0D0A00006170706C62
:1038C00069636174696F6E2F782D73696C766572A8
:1038D0006C696768742D6170700D0A006170706C9E
:1038E00069636174696F6E2F78616D6C2B786D6C94
:1038F0000D0A00006170706C69636174696F6E2FEE
:103900006F637465742D73747265616D0D0A0000C8
:10391000485454502F312E3120323030204F4B0D2F
:103920000A5365727665723A204B65696C2D45576E
:1039300045422F322E310D0A00000000436F6E7495
:10394000656E742D547970653A2000004C61737473
:103950002D4D6F6469666965643A2000436F6E6E31
:10396000656374696F6E3A20636C6F73650D0A0D41
:103970000A00000043616368652D436F6E74726FC7
:103980006C3A206E6F2D63616368650D0A0000005C
:103990002DE9F0414FF4987704460E46B94233D0F2
:1039A000A6F58070913831D0032831D027A1204668
:1039B00001F0BCFD054620442CA101F0B7FD0544F3
:1039C000BE4217D060192FA101F0B0FD0544A6F545
:1039D000807091380ED1601931A101F0A7FD054426
:1039E0006019384901F0A2FD0544601936A101F0C3
:1039F0009DFD0544601935A101F098FD0544BE42C6
:103A000008D1A8B2BDE8F08136A1D0E73CA1CEE74D
:103A100042A1CCE76019484901F088FDA6F58076FF
:103A20000544913E0DD0032E0DD04449601901F09C
:103A30007DFD05446019424901F078FD284480B2BB
:103A4000E0E74049F2E74049F0E7000048545450AD
:103A50002F312E3120353031204E6F7420496D705A
:103A60006C656D656E7465640D0A00005365727651
:103A700065723A204B65696C2D455745422F322EB1
:103A8000310D0A00436F6E74656E742D7479706524
:103A90003A20746578742F68746D6C0D0A0000000C
:103AA0005757572D41757468656E74696361746505
:103AB0003A204261736963207265616C6D3D20221A
:103AC00000000000DCD00000220D0A00436F6E6E83
:103AD000656374696F6E3A20636C6F73650D0A0DD0
:103AE0000A000000485454502F312E312033303416
:103AF000204E6F74204D6F6469666965640D0A001D
:103B0000485454502F312E312034303120556E61BD
:103B10007574686F72697A65640D0A004854545070
:103B20002F312E3120343034204E6F7420466F7583
:103B30006E640D0A000000005EEB00000BEB00005D
:103B400099EB000052EA0000B0EA00000020704744
:103B500070B504460078202804D1002070BD641C94
:103B60002E2805D0207830F02001F8D10B2070BD30
:103B70000A4E002505EB450006EB4001204601F00A
:103B8000EDFC012803D06D1C102DF3D3EEE705EBFF
:103B9000450006EB4000407970BD0000E0E9000000
:103BA00000207047002070470020704704480549F6
:103BB000007800EB400001EB00101A38704700005D
:103BC00070000010B42200102DE9F04101260446D7
:103BD00090460D4600271BE015494968A14201D8CF
:103BE0002F7020E0252803D02B280DD120200BE0BA
:103BF00014F8010FFFF7BAFD0001287014F8010F47
:103C0000FFF7B4FD29780843641C05F8010B761C06
:103C10002078262803D0202801D94645DCD32F70F0
:103C20002078262802D00020BDE8F081601CFBE748
:103C30007000001070B500250446057040884006ED
:103C400002D5E06AFCF759FB6088000602D5A06A3D
:103C5000FCF753FB6088C00504D500221146032001
:103C6000FCF7F5FB6088000504D50022114604200E
:103C7000FCF7EDFB206A10B1FFF7F8FC2562606AE3
:103C800010B1FFF7F3FC6562E5602561A5826580F0
:103C900070BD00002DE9F05F044615461E46002069
:103CA0008246884A884B17E000EB400702EB071773
:103CB00000F101007F78A7420ED110F0FF0736D047
:103CC00007EB470002EB0014303C06292FD2DFE857
:103CD00001F007161212181F1F78B842E4DB26E025
:103CE000207808B90220207031462846FFF747FDAA
:103CF00000281DD0E3E02046FFF79CFFDFE0032013
:103D00004CE0A18A206908442061A4F814A0D6E000
:103D1000052E0CD92078DFF8B4914FF0090B05EB94
:103D20000608032806D008287ED009287DD0002068
:103D3000BDE8F09F66A1284601F010FC01280DD0D7
:103D400065A1284601F00AFC012829D064A1284673
:103D500001F004FC012845D00A201FE060883246AB
:103D600040F4806060802946204600F059F92078B0
:103D7000072814D020223F21A81D00F011FB08B114
:103D800080F800A0AD1D2846FFF7E2FE207129460D
:103D9000204600F0A9F80120E06065E020708EE088
:103DA00032462946204600F03BF92078072876D095
:103DB00020223F21681D00F0F3FA060008D089F8A0
:103DC0000070701CC9F80480FCF79AFA86F800A00D
:103DD0006D1D2846FFF7BCFE20712946204600F0E5
:103DE00083F835E032462946204600F019F920785C
:103DF000072864D084F805A0324629462046FFF7FC
:103E0000F1FA06004FF0080A0BD0608880050AD44A
:103E100089F8007031462046C9F8048000F048FA5D
:103E200008B984F800A001E020E039E0A81DFFF700
:103E30008FFE2071A91D204600F056F82078082832
:103E40003DD06088800503D584F800B03EB328E0FB
:103E50006088C00708D07820FEF7BCFF20622046AB
:103E600001F0F8F8052099E7042097E73246294643
:103E70002046FFF7B7FA060021D06088800502D5FA
:103E800084F800B00DE089F8007031462046C9F88A
:103E9000048000F00DFA00283FF44AAFD8E70EE0A6
:103EA0002E4689F80070A8EB0601C9F80480A9F82D
:103EB00002103146204600F04FF90028C8D10120F9
:103EC00036E70000B4220010D7D0000070000010C8
:103ED00048454144202F0000474554202F00000052
:103EE000504F5354202F00002DE9F041044608782C
:103EF00000270D46202801D141A501277820FEF793
:103F000069FFDFF8088106460020295C3154295CEE
:103F100031B1202904D00D2902D0401C7728F4D3D8
:103F2000002131543046FFF73DFE10B36188CA07C7
:103F300004D12279012A0BD00C2A09D041F040018A
:103F40006180E0624FF00040E060C80704D04CE0C0
:103F500041F08101618036E03046FFF721FE30B14B
:103F6000E169814203D1618841F010016180E06123
:103F70003BE0304601F0E5FA02460020414602E00F
:103F8000934205D0401C51F83030002BF8D126E088
:103F90002BB36188CA0704D12279012A0DD00C2ADB
:103FA0000BD008EBC000CB074268E262C2684068F1
:103FB000A2EB0000E06008D017E041F0010108EB3F
:103FC000C00061804068A0620FE01148E2690368A8
:103FD0009A4202D141F0100161800068C7E7012FC9
:103FE00008D0608840F0040060803046BDE8F041B1
:103FF000FFF73CBB012007A52071002784E70000E4
:10400000696E6465782E68746D000000CCCF000086
:10401000F8610000696E6465782E636769000000CE
:104020002DE9F04706464088072592460F46400591
:1040300000D501253548007808B925F001054FF075
:1040400000080C464FF00709C6F81C8055E0E80749
:1040500005D02FA12046FFF7A1FA012810D0A8070C
:1040600005D531A12046FFF799FA012825D0680728
:104070003DD532A12046FFF791FA012830D036E035
:10408000153425F0010521462046FFF76DF930492A
:10409000204601F063FA01280CD12D48FCF716F9EF
:1040A000044420783A2805D1601C04462949FCF7CD
:1040B00015F9E0B186F8009019E0113425F00205F9
:1040C00000203218215C9175215C2C2904D00D2927
:1040D00002D0401C0528F4D3304480F8168006E056
:1040E000133425F00405204600F076F9F06107EB63
:1040F0000A012046FFF702FB04460CB1002DA6D1B1
:10410000E80701D086F80090BDE8F087D8D000001D
:10411000417574686F72697A6174696F6E3A204292
:1041200061736963200000004163636570742D4C06
:10413000616E67756167653A2000000049662D4D24
:104140006F6469666965642D53696E63653A200022
:10415000F0D000009C0000102DE9F04105464079A8
:10416000494E0C46C00652D47088E988884279D9F5
:10417000421A2146686A01F0ABF9002870D0E9883C
:10418000001D0C187ED041A12046FFF707FA012838
:104190000FD1153427460AE042A1384601F0DEF976
:1041A00001280DD038467168FFF7BCFA0746002F8A
:1041B000F2D120467168FFF7A1FAD0B10446E2E7D8
:1041C0000A370A222221384600F0EAF80028F0D007
:1041D00000210170C01B82B239460120FCF737F97B
:1041E000688840F480706880687940F020006871C9
:1041F000DFE720780D2845D160780A2842D1687918
:10420000A41C40F0100068717068A0423AD9697926
:10421000C1F30110032835D17088AA684906A2EBC2
:104220000001A9600FD4E98888421CD9421A2146AE
:10423000686A01F04DF9B0B1801E001B82B22146C0
:104240000220FCF704F9A86804281BD200221146BA
:104250000320FCF7FCF8688820F480706880012057
:10426000BDE8F0810EE0EA88A968706802F10803F1
:104270009942E2D2511A401A6979083841F0400156
:104280006971DAE70020EBE770000010436F6E748D
:10429000656E742D446973706F736974696F6E3ADB
:1042A0002000000066696C656E616D653D2200004E
:1042B0002DE9F041384D04460F4668684FF000067E
:1042C000A0EB010082B26A806188607909051CD583
:1042D000010706D4A16891420ED940F00800607130
:1042E0002661206910442061A168884204D23946C1
:1042F0000520FCF7ACF840E039460420FCF7A7F8AD
:10430000608820F40060608043E000071FD4A0684C
:10431000904204D839460020FCF799F83AE01F494A
:1043200080B2E0800A68B0EB920F01D99008E0807B
:1043300080B2FEF74FFD60626A88394600F0A4FA49
:1043400068882061607940F00800607115E0E088BD
:10435000216981420AD2401A824200D21046626A22
:10436000531802463946184600F08EFA69882069CB
:1043700008442061A168884202D20020BDE8F08193
:10438000E2880020616AFCF762F8606AFFF76EF964
:10439000666226610120F1E770000010BCD00000C9
:1043A00005E0934207D00D2B05D023B1401C0378C4
:1043B0008B42F6D170470020704710B5002307E00C
:1043C0000C783CB15B1C04700A2C03D0401C491CC7
:1043D0009342F5D398B210BD2DE9F04704460C3056
:1043E000FDF7A9FAA0F2B275872D29D840F26D1019
:1043F0006843691CDFF8848000EB9107002604F114
:10440000080900BF08EB8601484601F0A7F801281B
:1044100002D0761C0C2EF5D30C2E11D017484C3040
:10442000012E30F81600074404D9A807B0F1004067
:1044300000D17F1C601DFDF77EFA401E1E2802D9A8
:104440000020BDE8F0873D1804F11100FDF773FA74
:1044500005EB450100EBC10504F11400FDF76BFA13
:10446000C5EB051100EB810504F11700FDF763FAB8
:10447000C5EB051100EB8100E3E700007CE90000DB
:1044800010B5FCF7C8FC00F06DF8074800213C228D
:10449000818006490988C1800549064800F0F4F981
:1044A000BDE81040FBF7E1BE88000010C0D000005E
:1044B0007CD000005424001030B5002106480B4683
:1044C0000124064A03E0037044700E30491C15882D
:1044D000A942F8DB30BD0000B0200010C2D00000BF
:1044E00010B5FCF798FCFCF795FBFFF7E5FF0448D7
:1044F000002101604160BDE81040FCF787BC00006E
:104500007C0000102DE9F0410126114C0025114FCF
:1045100019E0E5602561A582658010482562656225
:1045200002880D4B0021052001F0A8F860700121E0
:10453000217030B10A49098801F0E4F8012800D15E
:1045400025703034761C38788642E2DDBDE8F08193
:10455000B4220010D7D00000953C0000D4D0000059
:10456000DAD000000649054809684218121F0021E8
:10457000026011604160034801607047B0000010A4
:10458000BCD000008400001010B5074A03210020B1
:1045900001F02AFC05490028087004D0BDE810404D
:1045A000892101F045BC10BDCD4800007800001005
:1045B000034802782C2042430021024800F072B9DF
:1045C000C9D00000542100100448007800EB4000DE
:1045D00082000021024800F065B90000C8D0000048
:1045E0003C210010F8B504460F46808AFDF759FFBC
:1045F000054621880E30814245D3A07C0421B1EBD1
:10460000101F40D1264907EB870001EB800104F120
:1046100022000422064600F027F958BB0422214953
:10462000304600F021F928BB6FBB31780E223046AE
:10463000B2EB111F04D1FBF738FE012815D00EE0B4
:1046400004223146684600F01FF9154800990268B7
:1046500080684A40024202D10843401C05D02046EF
:10466000FEF7B0FF78B1E07E02E0E07E022801D0E4
:10467000112808D104F1120000F016F818B9208BA7
:1046800030F0C00001D00020F8BDA07C0007800EF3
:1046900000F10E016180281A20800120F8BD000081
:1046A000542400104EEA000001780907890EFDF736
:1046B000D4BE00002DE9F041214C8046214F2078E6
:1046C000C0070AD02049404600F088F840BB0422C9
:1046D000FF21404600F0EEF810BB1B4D207814354A
:1046E000800704D52946404600F078F800BB164EF6
:1046F00020782836400704D53146404600F06EF851
:10470000D0B92078800702D52078000710D420780F
:10471000400702D52078C0060ED42078C00704D008
:10472000002038700848BDE8F0812078800703D564
:10473000012038702846F6E7022038703046F2E74C
:10474000B8D0000092000010542400102DE9F04170
:104750000446DDF818800F461646012A08D0022EBE
:1047600006D0062E04D0112E02D00020BDE8F08124
:10477000194D45216888401C68802088A174143038
:1047800080B2E374FDF78DFEA0826888FDF789FE94
:10479000E0820020208384F81A80E676A0833846E1
:1047A000FFF788FF0146042204F11E0000F06CF8B8
:1047B0000422394604F1220000F066F804F11200E8
:1047C000FFF772FFA08320882230208029782046BE
:1047D000BDE8F041FBF764BD9200001018B50C462F
:1047E00001460422684600F04FF8206800994840CE
:1047F000A168084201D0002018BD012018BD0000AA
:1048000038B5044601460422684600F03DF80648E3
:10481000826800980243521C01D0002038BD024932
:104820002046FFF7DBFF38BD542400100C48002160
:104830008278012A04D0017080F80110FBF723BDB3
:10484000817081880122491C8BB28380C1888B4290
:1048500004D1044B1B881944C18042700270EDE7FB
:1048600088000010C0D0000010B508E003780C7874
:10487000A34201D0002010BD401C491C521E002A3A
:10488000F4D1012010BD000030B5134606E000BF92
:10489000054611F8014B401C2C705B1E002BF7D114
:1048A000104630BD03E000BF00F8011B521E002A75
:1048B000FAD170473AB103788B4201D0002070479B
:1048C000401C521EF6E70120704700002DE9FF4F03
:1048D000DFF800A181B01C469AF800100E9F8142BB
:1048E00013D1892A11D1322F0FD3608841F20101EF
:1048F00088420AD1A0884FF4807B584505D1E088D2
:1049000018B9208908B9608918B1002005B0BDE840
:10491000F08F2820FEF75EFA064604F10D00002510
:104920000278417812014139A2F582621143715532
:10493000801C6D1C102DF3D3701910F8010C08B1F8
:10494000202801D16D1EF7D14FF0000906F11400A7
:1049500006F805902049804600F00DFE6A1C41468D
:104960003046FFF781FF01282ED10C37B8B28046C0
:1049700001F032FA05462088288085206880A5F855
:104980000490A5F806B0A5F80890A5F80A90277B32
:1049900004F10C01BA1D05F10C00FFF775FF123789
:1049A000E81908220D49FFF76FFF0837E8190422BC
:1049B0000B49FFF769FFCDF800802B4689229AF852
:1049C0000000029901F072FA3046FEF74FFE012016
:1049D0009CE70000780000104400001040EA00004E
:1049E000542400107047000070B501882A2941D373
:1049F000418A4FF4807399423CD1818A082939D188
:104A0000817D062936D1C17D042933D1028B00F185
:104A10001204B2F5806F2DD00ADC4FF4007500F15E
:104A20002A009A4217D0AA4224D10422124909E04E
:104A300024304FF41065B2F5006F0FD0AA4219D19F
:104A400006220E49FFF710FF002813D02046BDE8CC
:104A50007040FEF7B1BB0422074901E00622074976
:104A6000FFF702FF002805D029462046BDE8704028
:104A7000FEF7D6BB70BD0000542400105400001097
:104A800070472DE9F84304464188001D0E1825881B
:104A900030462946FDF7E1FC28B9307848B30828AC
:104AA00001D1707810B10020BDE8F88305F1220033
:104AB000FEF790F900F12607002139707970018521
:104AC00080462A1F311D381DFFF7DEFE2946384675
:104AD000FDF7C3FC7880A8F800508023009340467F
:104AE0000023012204F11E01FFF730FE4046FEF7CD
:104AF000BDFD0120D8E700002DE9F05F428800F1FC
:104B0000040B02EB0B050646287B6FF0030101EA5C
:104B1000900014287ED3318881427BD30244081A46
:104B20001FFA80F8728006F11201284600F028FE74
:104B30005FEA000A06F11E076DD000220421381D2D
:104B4000FDF796FC024604213846FDF791FC01462C
:104B5000F07EFDF7A1FC01463088FDF79DFC024682
:104B600031882846FDF784FCC0430004000C51D175
:104B70000AEB4A0101EBCA00F9494FF0100901EBB9
:104B8000800414F82C0D0B2879D2DFE800F044449F
:104B9000C4F9F7F6F5F4F3F20600687B410704D593
:104BA000A07840F00800A070CEE1810713D5C006C0
:104BB00030D5281DFEF7CFFDA169401C884229D1C0
:104BC00005F10800FEF7C7FD6169884222D100BFE8
:104BD00084F82290B0E1D4E9041291423FD0C0069B
:104BE00018D505F108000746FEF7B5FD01466069D6
:104BF000814215D120610021204601F0A3F8A07860
:104C0000221D40F00800A070A76A238904215046A5
:104C1000B84701E07DE0CCE0A07820F008001DE07E
:104C2000A07840071BD53846FEF795FD0146606920
:104C3000001F814213D12061676A04223888391825
:104C4000363107F13A00FFF71FFE3A21384600F0EF
:104C500051FA04203880A07820F00400A070281DAC
:104C6000FEF779FDA16988420AD0281DFEF773FD81
:104C7000A169401C8842ABD1A08BE083A8E76AE120
:104C8000A178B8F1000F41F00800A0700DD0E089C4
:104C900058B17188A66A01EB0B02434605215046C4
:104CA000B047A16901EB0800A061687BC00717D07D
:104CB000D4E90401884213D1221DA56A2389022167
:104CC0005046A847A069401CA0616069401C606113
:104CD000112084F82200504600F068FF08211BE1F3
:104CE000A178B8F1000F21F00800A0700FD084F86F
:104CF00022906078000707D5E089404502D9A0EBF3
:104D0000080000E00020E081504600F04FFFA08B3B
:104D1000E083BDE8F09F687B410701D50221FBE0FD
:104D2000C10601D4800704D43946284600F0CAFFE2
:104D3000F4E7221DA66A238900215046B047C0B37C
:104D40002946504600F078FE00F0D2FC2061401C5D
:104D50006061281DFEF7FFFC401CA061122084F852
:104D60002200504600F022FFA07820F00100A07041
:104D700053E0E6E0BDE0A3E08FE062E036E0FFE76D
:104D8000687B41077AD4C10714D005F10800FEF70B
:104D9000E2FC61698842BCD1281DFEF7DCFC401CA6
:104DA000A0616069206184F82290504600F0FEFE08
:104DB00011E040E0C10616D505F10800FEF7CBFC76
:104DC00061698842A5D1281DFEF7C5FCA16988420A
:104DD0009FD160692061221DA56A23890121504667
:104DE000A8470A2198E0800793D424E0687B410714
:104DF00044D4122636EA000111D080071BD529467B
:104E0000504600F019FE281DFEF7A5FC401CA061CD
:104E100084F82260504600F0C9FE03217CE005F1D1
:104E20000800FEF798FC61698842B4D129465046D3
:104E300000F002FEB0E739462846BDE8F05F00F01A
:104E400041BF687B41077FD4C10718D005F1080036
:104E50000646FEF780FC6169884205D03046FEF7C1
:104E60007AFC2169884296D1281DFEF774FC4044E3
:104E700000F10100A061606920611AE064E0C006F1
:104E80007FF547AF05F10800FEF765FC0146606954
:104E9000814297D1062120613EE0687B410753D4CF
:104EA000C0073FF436AF281DFEF755FC4044401CB8
:104EB000A06184F82290504600F078FE09212BE092
:104EC000687B410740D4C10609D505F10800FEF70B
:104ED00042FC014660698142A7D12061EEE7C0072C
:104EE000DFD0281DFEF737FC404400F10100A0612F
:104EF0006EE6687B410727D4C10612D505F108008C
:104F0000FEF729FC0146606981428ED120616078FC
:104F10000221C00700D101212046BDE8F05F00F06A
:104F20001BBFC007BDD0281DFEF715FC4044401C28
:104F3000A061112084F822005046BDE8F05F00F027
:104F400035BE687B4107CAD5221DA56A2389032186
:104F50005046A847DBE7BDE8F05F0520FBF784B9C2
:104F6000542100102DE9F84305464188001D0C1816
:104F7000A088FDF796FA082848D30127284EDFF8C5
:104F8000A48047E03078022842D16088FDF789FA92
:104F9000718888423CD117F0FF0737D0717905F14D
:104FA0001E09890724D5E08810B30022042105F1E9
:104FB0002200FDF75DFA024604214846FDF758FA43
:104FC0000146E87EFDF768FA8046A088FDF769FA99
:104FD0004146FDF761FA8046A088FDF762FA014676
:104FE00042462046FDF744FAC0430004000C0DD1B0
:104FF0002088FDF756FA024628884946083883B2C9
:105000000093B56804F108033846A847BDE8F88363
:105010000C367F1C98F800008742B3DDF6E70000ED
:105020003C210010C8D00000084A30B4D2E9003456
:10503000591C01F01F01A14205D0054C44F8230082
:10504000116030BC704730BCFEF710BB7C00001014
:10505000D423001070B5044640882E260025000693
:1050600023D57822216AA06AFEF770FD0028206A05
:105070000ED000782328F4D020790C2814D1206A8F
:10508000FBF724F9216A421E8A5C0A2A04D00AE04E
:105090000670206A4570EFE70246921E401E8A5C49
:1050A0000D2A00D1401E0D5470BDA06A226A0178FD
:1050B000012905D0022905D0032905D0167070BD3D
:1050C000742102E0632100E069211170236A20222B
:1050D0000221401C5A700278042A06D3236A4E1C0F
:1050E000401C5A543146772EF5D3226A5554A0629B
:1050F00070BD000070B50180A0F108040F31606838
:1051000021F00305A8420CD9FBF785FE6068411B1E
:1051100004480268511A01606560BDE87040FBF701
:1051200075BE70BD8400001070B5FFF75BFC2748AA
:105130000078012801D1FDF7C3FF2549D1E90020FE
:10514000824241D0234A52F82040401C00F01F0008
:105150004860208A082806D0B0F5C16F2FD12046BC
:10516000FFF742FC2BE000212046FFF73BFA10B38B
:1051700004F11E00042200210546FFF79BFB28B91D
:10518000012204F10A012846FDF776FEE07E01289F
:1051900006D0022808D006280ED011280FD107E02B
:1051A0002046FFF76EFC0AE02046FFF769FC06E0A8
:1051B0002046FBF771F802E02046FBF76FF8204627
:1051C000BDE87040FEF752BA70BD000089000010C3
:1051D0007C000010D42300102DE9F05F0025052786
:1051E0004FF0010BA946DFF8D882B64E3DE198F8A2
:1051F000001032784046914202D9594680F800B0FA
:10520000C9B2B14801EB410100EB011414F8300DB3
:105210000B2811D2DFE800F0061006101180FEFD09
:105220001010FC00607800F04DFA0228F1D2A74976
:105230006078098800F066FA11E16088410702D5BC
:105240004FF4CA7528E1C10602D54FF4987523E1E1
:10525000A18A0029F0D1D4E903128A4216D3C107EA
:105260000DD0410605D520F040006080E06AFBF7D4
:1052700044F82046FFF7EEFE2770BDE8F09F607807
:1052800000F0B2F92046FEF7D5FCD2E0607800F0DD
:10529000C7FA054600F0EAF98246608800268107D1
:1052A0000AD440F00200608051462046FEF76AFAB8
:1052B0000646608840057ED461880AEB0600A5EBAF
:1052C0000605490615D5E36A0146AAB21846FEF757
:1052D0006BFC0746A8420AD2E06AFBF70EF860882A
:1052E00020F040006080C4F80CB0C4F82C90B8B234
:1052F0000AE0D4E90321521AAA4200D92A46E36AF5
:105300001944FFF7C1FA80B2A082304482B26078BB
:10531000514600F0C9FB8CE0206A0078632815D064
:1053200004DC232877D02E2804D1A8E7692873D07D
:1053300074280BD0607800F02BF92046FEF77AFC39
:1053400098F80000401C88F8000096E7607800F0AC
:1053500067FA064600F08AF907466088002581074B
:1053600017D440F00200608039462046FEF70AFA62
:1053700005460EE0701B216A82B2891C7819FFF77E
:105380001CF8054405F17800B0424AD82046FFF7E2
:1053900061FE206A00787428ECD0632837D1DFF8EA
:1053A00020A104F1080B0AF1040A6088000701D467
:1053B000C4F8089000E079E098F800108AF800102E
:1053C000701B82B2206A7919801C5B46FBF70CF9CE
:1053D000C0F30D010D440104618802D541F00801BC
:1053E00001E021F00801618040041AD405F1F000C9
:1053F000B04216D80807E3D42046FFF72BFE206AF8
:1054000000786328D1D0206A00787428B2D004E0F4
:1054100040E03CE021E01CE011E0608840F020002A
:105420006080AAB2A2826078394600F03DFB062077
:10543000207098F80010491C88F800101DE7216AB8
:105440002046891CFEF750FD0420C4F810902070FF
:1054500013E72046FFF7FEFD5EE7A08A50B198F8FB
:105460000010491C88F800106D1C30788542FFF44C
:10547000BEAE02E72770608810F0280F02D12046E8
:10548000FFF7E8FD608820F020006080F5E640F23C
:10549000911501E040F2F515607800F0C1F900F0D7
:1054A000E5F882462946FEF773FA06466078B2B2FE
:1054B000514600F0F9FA607800F096F83DE70000F8
:1054C0006C000010D7D00000B4220010DAD0000029
:1054D00070B506000C4615461CD019E060782D28E2
:1054E00014D120782D2803D0A0782D2808D00DE0E5
:1054F0003146A01C00F032F8012807D1204670BDCB
:105500003146E01C00F02AF8012805D0A41CAD1E8D
:10551000012DE3D8002070BD601C70BD0A0E027022
:105520000A0C42700A0A8270C170704700220B7820
:1055300003700B781BB1401C491C521CF7E7104646
:10554000704710B50446002004E001461046FEF7FF
:10555000C1F8641C2278002AF7D110BD06E0037858
:10556000934201D000207047401C491C0A78002A51
:10557000F5D1012070470A78A2F16103192B00D8F8
:10558000203A0270002A02D0491C401CF3E7704701
:1055900010B510B31249097888421ED800EB4001BB
:1055A000104A01EBC00102EB810414F82C1D0B29F9
:1055B00013D2DFE801F0120A060C0C0C0C0C0C06DE
:1055C0000C000121204600F0C7FB012010BD042182
:1055D00084F8221000F0EAFAF3E7002010BD000082
:1055E000C9D000005421001010B578B31D490978C6
:1055F000884234D800EB40011B4A01EBC00102EBAA
:105600008104112114F82C2D921E092A27D2DFE8DB
:1056100002F01105111B1B1B1B1B130084F8221029
:105620002169491C21616169491C13E0204600F091
:1056300093FB09E00121F9E7D4E904239A4206D05B
:10564000A07840F00100A070012010BD07E084F8B0
:105650002210591C616100F0A9FA0521E6E700203B
:10566000F3E70000C9D000005421001010B5363017
:10567000FDF7B0FB362141803A3010BD2DE9F041F5
:105680000F2804D81BB101250C4C0D4E06E000205C
:10569000BDE8F081277847B12C346D1C3778BD42C6
:1056A000F8DD0420FAF7E0FDF1E7012626706070CE
:1056B000E170A362A283E8B2EAE70000542100107F
:1056C000C9D0000018B108490978884201D9FF20E3
:1056D000704700EB400101EBC000044901EB800082
:1056E00010F82C0C70470000C9D0000054210010A5
:1056F00003484FF6FF71008801EB0040704700003F
:105700008C00001010B5C0B11B4A1278904214D81A
:1057100099B100EB400202EBC000184A02EB800096
:105720002C384278D20708D0826A32B10278012A36
:1057300005D0022A03D0092A01D0002010BD022280
:105740000270002282700281418140F2B451818155
:1057500041F21C11C181511EC0E90421826180F80F
:10576000222080F82320426204220021001DFFF73E
:1057700099F8012010BD0000C9D00000542100108C
:105780002DE9F04105460127234C01F10C08234E79
:1057900017E02078022812D02888FCF782FE2189A1
:1057A00088420CD16888FCF77CFE6189884206D16A
:1057B00004224146201DFFF757F8012809D02C3458
:1057C0007F1C30788742E4DD687B10F0150F20D114
:1057D00002E0F8B2BDE8F08180071AD501270E4C2F
:1057E00014E0207802280FD16888FCF75AFE6189FE
:1057F000884209D104224146201DFFF745F8288838
:10580000FCF74FFE2081E4E72C347F1C3078874280
:10581000E7DD0020DEE7000054210010C9D00000C1
:1058200000EB400101EBC000054901EB800040F2B4
:10583000B45130F8200C884200D9084680B2704735
:10584000542100102DE9F0477448754B007898B149
:10585000754A0021734814780BE0028C0AB1521E7D
:105860000284012C03D1C28B0AB1521EC2832C3098
:10587000491C1A789142F0DB00264FF011084FF0D6
:10588000020A6A4F6A4D9946A8E0297899F8000003
:10589000814201D9012028702878624900EB40023A
:1058A00002EBC00001EB800414F82C0D0B2877D21A
:1058B000DFE800F09090905959778677776C060072
:1058C000D4E90420A178A0EB0200C90700D038B1C8
:1058D000E18B91B100287DD0208C00287AD120E086
:1058E000A07820F00100A07084F822806069401C3C
:1058F0006061287800F05AF911E084F8228060692C
:10590000401C6061287800F051F9A078221D40F019
:105910000800A070A66A238902212878B0470521D3
:1059200075E094F82300A8B104F11C04401EE07156
:105930004FF01800A071A1684FF0000328780A8882
:10594000164600F045F9A06806803888A0802088B7
:1059500060805FE00021204600F0F4F9A07840F07C
:105960000800A07042E0208CD0B994F82300E0B386
:10597000401E84F82300287800F018F92178388830
:10598000032901D02B480088208443E0208C38B9BB
:1059900060785146C00700D10121204600F0DCF9B3
:1059A00018E0208CB0B994F82300F0B1401E84F8C0
:1059B000230084F82280287800F0F8F83888E3E79C
:1059C000208C38B994F8230078B1401E84F8230065
:1059D000388820842878401C2870761C99F800109C
:1059E0008E42FFF452AFBDE8F087FFE7042084F851
:1059F0002200287800F0DAF8221DA66A2389032104
:105A00002878B04760785146C00700D10121204670
:105A100000F0A2F92878401C2870E4E78800001004
:105A2000C9D000005421001089000010CCD0000023
:105A300064000010D0D00000F0B50A7B6FF00303C3
:105A400003EA9204143C2BD01431002240F2B453E8
:105A500024E08D5C002D23D0012D02D0022D18D121
:105A600001E0521C1AE08E187578042D11D100EB5C
:105A700040050C4F05EBC005768807EB85052C3DEE
:105A800076BA9E4200D91E46AE81AE7846F0020636
:105A9000AE708D186D78002D02D02A44A242D8D362
:105AA000F0BD0000542100102DE9F047A1F13A06A5
:105AB000074670881546362802D00020BDE8F087DA
:105AC000F7B33648007887424CD807EB4700344993
:105AD00000EBC70001EB800414F82C0D0A2841D11B
