:020000040000FA
:10000000C87F0010E1000000E5000000E7000000EC
:10001000E9000000EB000000ED000000000000001F
:10002000000000000000000000000000EF000000E1
:10003000F100000000000000F30000003118020091
:10004000F7000000414A02006D4A0200F70000007C
:10005000F700000045780200F7000000F7000000FC
:10006000F7000000F7000000F7000000F7000000B4
:10007000F7000000F7000000F7000000F7000000A4
:10008000F7000000F7000000F7000000F700000094
:10009000F7000000F7000000C5590000F70000005D
:1000A000F700000023760200F7000000F7000000D0
:1000B0001D8E0200F7000000F7000000F7000000AE
:1000C000F7000000F7000000F7000000DFF80CD098
:1000D00029F09EF800480047A3190200C87F0010CD
:1000E00005480047FEE7FEE7FEE7FEE7FEE7FEE71E
:1000F000FEE7FEE7FEE7FEE7CD000000FEE710B5F5
:100100002BF0CEF92BF05AFA2BF04CFA2BF0DAF94F
:10011000AFF30080BDE810402BF016BA10B52CF0FC
:1001200027F82CF097FE2CF07BF8BDE810402CF05F
:10013000F3B92BF03BBF2BF003BD09B10020704792
:100140002AF00CBA0020704770B5374A0020A2F19F
:100150001401064601F10A030C5C54B11D5CAC426B
:1001600007D1145C2CB1641E14F0FF04145400D1A8
:100170000E540C5C1C54401CC0B20A28ECD370BD59
:1001800070B5294D0024143D641CE4B22E5D1EB1EF
:10019000864201D00A2CF7D3285523480C3040F86A
:1001A0002410283040F824203438035570BD1E4AEE
:1001B0000021143A491CC9B2535C834201D00A2978
:1001C000F8D3DBB2834210D117480C3050F82130FD
:1001D00016480360144B343353F821304360002039
:1001E0005054114A505401207047002070470E4A65
:1001F0000021143A491CC9B2535C834201D00A2938
:10020000F8D3DAB282420CD107480C3050F82120E2
:1002100006480260044A343252F82110416001203D
:100220007047002070470000506B001004C007208A
:100230000C4BDA601870597070470A4A116190705F
:1002400070470849088170470648B0F9081000292E
:1002500007D0491E09B20181002902D1084600F0E9
:10026000C0BF70470CC0072090F900308B4200DA05
:10027000027090F90030934200DD0170704790F9F0
:1002800000308B4200DA017090F90010914200DDDD
:1002900002707047B0F900308B4200DA0180B0F98B
:1002A0000010914200DD02807047B0F900308B42AF
:1002B00000DA0280B0F90030934200DD018070471F
:1002C000064A054B91785854491CC8B290702028B2
:1002D00001D1002090707047B614082015EE072059
:1002E0000146002000E0401C0A5C002AFBD1704758
:1002F00000487047F0F8020070477047FFFFFFFFAB
:10030000002801DA404200B270470020F84A20215C
:100310001154401CC0B2C828FAD370470146F44AB1
:100320000020401CC0B2135C8B4201D0C828F8D317
:10033000704710B50021EF4C0A2200BFB0FBF2F36A
:1003400002FB13006054491CC9B218460529F5D3B5
:1003500010BDF0B5E84B0121202719700521E54AB1
:10036000002601E01C7844B1541814F8015C25B94A
:10037000814202D904F8017C05E0541814F8015DAB
:10038000303525701E70491E11F0FF01EAD1F0BD15
:10039000FEB52B23002802DA404200B22D230025AF
:1003A0000A266C4690FBF6F706FB170060556D1C9D
:1003B0006DB238B20A2DF5DB012600250920202771
:1003C00000E046B114F800C0BCF1000F03D1904228
:1003D00001DD275405E0265C3036265400266D1CCE
:1003E000EDB2401E40B20028EBDA2D2B02D163554E
:1003F0006D1CEDB26AB168B205E0231813F8013C38
:100400002354401E40B29042F7DC2E206D1CA054B5
:10041000EDB20846FFF782FF0021B54A04E0635CB5
:10042000461A491C935549B2A942F8DBFEBDFEB5F8
:100430002B23002801DA40422D2300250A266C4692
:10044000074690FBF6F006FB107767556D1C6DB202
:100450000A2DF5DB012600250920202700E046B102
:1004600014F800C0BCF1000F03D1904201DD275405
:1004700005E0265C3036265400266D1CEDB2401E89
:1004800040B20028EBDA2D2B02D163556D1CEDB282
:100490006AB168B205E0231813F8013C2354401EEA
:1004A00040B29042F7DC2E206D1CA054EDB20846FD
:1004B000FFF734FF00218E4A04E0635C461A491CB2
:1004C000935549B2A942F8DBFEBDFEB52B260028A4
:1004D00001DA40422D2600240A276D46844690FB0F
:1004E000F7F007FB10CC05F804C0641C64B20A2CBA
:1004F000F4DB0127002009244FF0200C00E04FB16D
:1005000015F804E0BEF1000F04D19C4202DD05F8AD
:1005100004C005E02F5D30372F550027401CC0B2C6
:10052000641E64B2002CEADA2D2E02D12E54401C37
:10053000C0B26BB144B205E02E1916F8016C2E550D
:10054000641E64B29C42F7DC2E24401CEC54C0B202
:1005500001EB810102EB8101CAB20021644B04E08E
:100560006C5C561A491C9C5549B28142F8DBFEBDB1
:1005700070B50D4616461C46FFF7DBFE601CC0B288
:10058000FFF7E7FE05EB850006EB8000C1B2594A94
:10059000574B0020A04201D2155C5D5406D3155C78
:1005A000202D03D04CB15E1806F8015C491E401C9A
:1005B000C0B2C9B20528EDD370BD5D54F6E730B5C1
:1005C000044608461546FFF7A9FEFF2809D0484A09
:1005D0002178002905D04319641C401CD154C0B2B5
:1005E000F6E730BD70B50D461446FFF7A2FE601C5D
:1005F000C0B2FFF7AEFE2846FFF790FE3D4B3C4AE7
:10060000002124B95D5C202D01D015540FE0A142DA
:1006100001D25D5CF9E704D14FF02E0515545D5C05
:1006200002E05D5C202D02D0161806F8015C401E29
:10063000491CC9B2C0B20529E3D370BD801801D5E9
:10064000084402E0884200DB401AC0B270472DE93E
:10065000FE4F04460D464FF4606024F0C5FE624232
:100660004021FFF7EBFF400100F58060044602A93E
:1006700024F037FF694604F1080024F032FF01A995
:1006800004F10C0024F02DFF2846FFF747FE064634
:100690009DF8080040273025DFF860B0DFF850A053
:1006A00020244FF0210C4FF02309552828D0CF22C9
:1006B000D123502873D0422872D0532871D04928B2
:1006C0006BD1C8210AF80610761CF1B2ED220AF8A7
:1006D0000120491CC9B2E2220AF80120491C9DF8F8
:1006E00009205046C9B2092A7ED231324254FEE373
:1006F000E802001068C007206DC0072000400240DB
:100700009DF80A0052280ED1C2210AF80610761C64
:10071000F1B2EA220AF80120491CC9B2EB220AF818
:100720000120491CCEB25046B1E300BF9DF8012024
:1007300096F838309A4267D19DF8022096F82C300E
:100740009A42F8D14554491CC9B23A2200F801C076
:10075000491CC9B24254491CC9B24554491CC9B2CA
:100760004754491CC9B24254491CC9B200224554DD
:10077000491CC9B20AF801909DF804002121FFF735
:1007800031FF9DF8050000224021FFF72BFF9DF867
:10079000060000222321FFF725FFBDE8FE8F0BE0B6
:1007A00033E04BE39DF80110FD48002200EB81008F
:1007B0004021FFF704FFF0E70AF80620761CF1B2AB
:1007C00050460AF80130491CC9B20AF80140491CD8
:1007D000C9B20AF80140491CC9B20AF80140491CD3
:1007E000C9B20AF8014000E095E3491CC9B219E317
:1007F0009DF8013092F83860B3429CD19DF80230E8
:1008000092F82C2093429DD055E39DF80A0043288E
:100810007CD1C1210AF80610761CF1B2E0220AF858
:100820000120491CC9B2F2220AF80120491CCEB2AB
:100830009DF809105046092906D231318155761CA0
:10084000F1B2C022425419E0A1F109025A2A11D290
:10085000491C0A23B1FBF3F2904630328255761CD4
:1008600003FB1811F6B230318155761CF1B2C0226B
:10087000425406E08455761CF1B24454491CC9B276
:100880004454491CC9B25E464454491C9DF800209A
:10089000BBF83C30C9B29A4239D19DF8012096F894
:1008A00038309A4233D19DF8022096F82C309A4283
:1008B0002DD14554491CC9B23A2200F801C0491C47
:1008C000C9B24254491CC9B24554491CC9B2475423
:1008D000491CC9B24254491CC9B200224554491CA2
:1008E000C9B20AF80190491CCEB29DF8040021213A
:1008F000FFF778FE9DF8050000224021FFF772FE09
:100900009DF8060000222321FFF76CFE36E04454D8
:10091000491CC9B200224554491CC9B200F801C0A3
:10092000491CC9B24754491CC9B24454491CC9B2F4
:100930004454491CC9B24554491CC9B20AF8019033
:10094000491CCEB29DF802002121FFF74BFE9DF815
:10095000000000222321FFF745FE9DF80100401E04
:100960000C2802D301208DF801009DF801108C485D
:10097000002200EB81004021FFF721FE9DF80A00D4
:10098000532873D1C1210AF80610761CF1B2E02277
:100990000AF80120491CC9B2F2220AF80120491CB8
:1009A0009DF8092043235046C9B2092A09D23132A1
:1009B0004254491CC9B2C0224254491CC9B24354D2
:1009C0000FE0093A5A2A05D2C0224254491CC9B242
:1009D000435403E04454491CC9B24454491CC9B2AD
:1009E0004454491CC9B25E464454491C9DF8002039
:1009F000BBF83C30C9B29A4239D19DF8012096F833
:100A000038309A4233D19DF8022096F82C309A4221
:100A10002DD14554491CC9B23A2200F801C0491CE5
:100A2000C9B24254491CC9B24554491CC9B24754C1
:100A3000491CC9B24254491CC9B200224554491C40
:100A4000C9B20AF80190491CCEB29DF804002121D8
:100A5000FFF7C8FD9DF8050000224021FFF7C2FD09
:100A60009DF8060000222321FFF7BCFD36E0445428
:100A7000491CC9B200224554491CC9B200F801C042
:100A8000491CC9B24754491CC9B24454491CC9B293
:100A90004454491CC9B24554491CC9B20AF80190D2
:100AA000491CCEB29DF802002121FFF79BFD9DF865
:100AB000000000222321FFF795FD9DF80100401E54
:100AC0000C2802D301208DF801009DF80110344854
:100AD000002200EB81004021FFF771FD9DF80A0024
:100AE0005A285CD1C2210AF80610761CF1B2C7223E
:100AF0000AF80120491CC9B250460AF80140491CB5
:100B0000C9B25E460AF80140491CC9B20AF8014060
:100B1000491CC9B24454491CC9B24454491C9DF8EB
:100B20000020BBF83C30C9B29A423BD19DF801206D
:100B300096F838309A4235D19DF8022096F82C303C
:100B40009A422FD14554491CC9B23A2200F801C03B
:100B5000491CC9B24254491CC9B24554491CC9B2C6
:100B60004754491CC9B24254491CC9B200224554D9
:100B7000491CC9B20AF80190491CCEB29DF8040084
:100B80002121FFF72FFD9DF8050000224021FFF7EE
:100B900029FD9DF8060000222321FFF723FD38E000
:100BA000D0DD02004454491CC9B200224554491CFE
:100BB000C9B200F801C0491CC9B24754491CC9B2A6
:100BC0004454491CC9B24454491CC9B24554491C37
:100BD000C9B20AF80190491CCEB29DF80200212149
:100BE000FFF700FD9DF8000000222321FFF7FAFC2B
:100BF0009DF80100401E0C2802D301208DF8010051
:100C00009DF80110FE48002200EB81004021FFF713
:100C1000D6FC9DF80A0057287DD1C1210AF806109C
:100C2000761CF1B2E0220AF80120491CC9B2F22276
:100C30000AF80120491CCEB29DF8091050464FF029
:100C4000F00E092906D231318155761CF1B200F837
:100C500001E019E0A1F109025A2A11D2491C0A2324
:100C6000B1FBF3F2904630328255761C03FB18112B
:100C7000F6B230318155761CF1B200F801E006E0A1
:100C80008455761CF1B24454491CC9B24454491CE1
:100C9000C9B25E464454491C9DF80020BBF83C3064
:100CA000C9B29A423BD19DF8012096F838309A4259
:100CB00035D19DF8022096F82C309A422FD1455418
:100CC000491CC9B23A2200F801C0491CC9B24254B9
:100CD000491CC9B24554491CC9B24754491CC9B240
:100CE0004254491CC9B200224554491CC9B20AF8F1
:100CF0000190491CCEB29DF804002121FFF772FC3F
:100D00009DF8050000224021FFF76CFC00229DF8B1
:100D10000600232100E039E0FFF764FC36E044548C
:100D2000491CC9B200224554491CC9B200F801C08F
:100D3000491CC9B24754491CC9B24454491CC9B2E0
:100D40004454491CC9B24554491CC9B20AF801901F
:100D5000491CCEB29DF802002121FFF743FC9DF80B
:100D6000000000222321FFF73DFC9DF80100401EFA
:100D70000C2802D301208DF801009DF80110A04835
:100D8000002200EB81004021FFF719FC9DF80A00CA
:100D90004B287FF410ADC1210AF80610761CF1B281
:100DA000E0220AF80120491CC9B2F2220AF8012007
:100DB000491C9DF80900C9B209280BD231300AF844
:100DC0000100491CC8B2EA210AF80010401CC0B258
:100DD000E52115E0A0F109025A2A16D2401C0A2387
:100DE000B0FBF3F2904630320AF80120491C03FBB5
:100DF0001800C9B230300AF80100491CC8B2EA2113
:100E00000AF80010401CC1B20BE00AF80140491C6E
:100E1000C9B20AF80140491CC9B20AF80140491C8C
:100E2000C9B250465A464454491C9DF80030BBF89C
:100E30003C60C9B2B3423FF4DBAC3CE0C1210AF8EC
:100E40000610761CF1B250460AF80120491CC9B2BE
:100E50000AF80130491CCEB29DF80910092902D2C6
:100E60003131815514E0A1F109025A2A0FD2491CEF
:100E70000A23B1FBF3F2904630328255761C03FB15
:100E80001811F6B230318155761CF1B205E0845567
:100E9000761CF1B24454491CC9B25E464454491C04
:100EA000C9B24454491C9DF80020BBF83C30C9B27B
:100EB0009A423FF43BAC4454491CC9B24554491CC6
:100EC000C9B200F801C0491CC9B24754491CC9B293
:100ED0004454491CC9B24454491CC9B24554491C24
:100EE000C9B200220AF801909DF8020000E025E056
:100EF0002121FFF777FB9DF8000000222321FFF757
:100F000071FB9DF80100401E0C28FFF44BAC012042
:100F10008DF8010046E4A2F109035A2B0DD2521CB0
:100F20000A25B2FBF5F303F130064654491C05FBD4
:100F30001322C9B23032425403E04454491CC9B2AE
:100F40004454491CC9B20AF8014026E470B504466D
:100F5000084615461E46FFF7E1F92A4B0146FF28D1
:100F600004D106E01A54641C401CC0B22278002A46
:100F7000F8D125480078002804D0002E02D029445A
:100F80005F20585470BD2DE9FF4F8146DDE90D0407
:100F90008A469346FFF7C2F92022DFF86C80194990
:100FA0000A234FF0640C012C09D198F8005035B198
:100FB0000D18A5F10E05AA706A702A7026E099FB3B
:100FC000F3F603FB16970D183037A5F10E05022C2A
:100FD000AF7096FBF3F703FB176606F130066E70F1
:100FE00099FBFCF606F1300605F80E6B0ED198F869
:100FF00000605EB1A5F10A05AA706A702A7027E048
:10100000D0DD0200E8020010D60000109AFBF3F6D3
:1010100003FB16A70D183037A5F10A05032CAF7096
:1010200096FBF3F703FB176606F130066E709AFB2A
:10103000FCF606F13006674605F80A6B08D198F809
:1010400000602EB1A5F10605AA706A702A7022E030
:101050009BFBF3F603FB16B70D183037A5F1060519
:10106000042CAF7096FBF3F703FB176606F130060E
:101070006E709BFBFCF606F13006674605F8066BC2
:1010800009D198F8004034B1A5F102050A546A70FC
:101090002A70BDE8FF8F039C94FBF3F203FB12441C
:1010A00030340C5492FBF3F403FB14220844A0F1F7
:1010B000020030324270039991FBF7F101F13001E7
:1010C0000170E6E717B501EB810002EB8000C2B2C8
:1010D0009DF80030B44803F00F0100EB1313445C9B
:1010E000B2498C54521ED2B21B788B549DF80130F9
:1010F000521E03F00F04D2B2045D8C54521E00EB5A
:101100001313D2B21B788B549DF80230521E03F099
:101110000F04D2B2045D8C54521E00EB1313D2B2F2
:101120001B788B549DF80330521E03F00F04D2B28B
:10113000045D8C54521E00EB1310D2B20078885418
:101140001EBD01EB810102EB8101974A10B500F051
:101150000F03C9B2D45C954B02EB10105C54491ECE
:10116000C9B20078585410BD30B5914901238F4D54
:1011700091F9012091F9041000EB80048A4202D118
:1011800005F8243030BD894D4C1C00EB800005EB88
:101190008000A24201D1037530BD8C1CA24202D155
:1011A00080F8283030BDCC1CA24202D180F83C30FF
:1011B00030BD0C1DA24202D180F8503030BD4C1D14
:1011C000A24202D180F8643030BD8C1DA24202D10F
:1011D00080F8783030BDC91D8A42FBD180F88C3050
:1011E00030BD744B1A88521E104400B21880724AE7
:1011F00000EB800002446E481368036012790271AC
:101200004278114441707047F0B56A4D6A4FB5F9A4
:10121000004004EB8406641C2C80654C3E44256829
:10122000356025793571207061702271A370F0BD31
:10123000F0B505460E461746FFF767F85B4C0020F1
:10124000401C15F8011BC0B204F8011B1428F7D389
:101250005FF00000401C16F8011BC0B204F8011B2F
:101260001428F7D35FF00000401C17F8011BC0B230
:1012700004F8011B1428F7D35FF00000401C13F89A
:10128000011BC0B204F8011B1428F7D3F0BD10B540
:10129000029CFFF7CDFF4648C378827841789920B9
:1012A000FFF7B2FF642094FBF0F0BDE81040C0B23D
:1012B000FEF7C7BF2DE9FE4340010D4600F58060F3
:1012C000044602A924F00DF9694604F1080024F04F
:1012D00008F901A904F10C0024F003F92846FFF7EE
:1012E0001DF8324C202530262554401CC0B24FF04A
:1012F00021082654401CC0B24FF0400C04F8008076
:10130000401CC0B2232104F800C0401CC0B200221F
:101310002554401CC0B22554401CC0B22654401C69
:10132000C0B22154401CC7B29DF802002121FFF732
:1013300059F99DF8000000222321FFF753F99DF889
:101340000100401E0C2802D301208DF801009DF8F9
:1013500001001A49002201EB80004021FFF72FF91C
:10136000E5557F1CF8B23A212654401CC0B2002239
:1013700004F80080401CC0B22154401CC0B221219E
:101380002654401CC0B204F800C0401CC6B29DF8F0
:101390000400FFF727F99DF8050000224021FFF720
:1013A00021F9A555BDE8FE835ADE0200E8020010CF
:1013B00068020010FA000010880B0820D0DD02003F
:1013C0002DE9FF41FB4C00270546A776A07D0121B2
:1013D000022805D0F84A525D552A04D065200EE057
:1013E000A176BDE8FF8105EB450202EB0513F34A48
:1013F00002EB830696F83D20D30702D06620A07644
:10140000EFE796F83F309B0701D56720F7E7920793
:1014100001D56820F3E7EA4AB6F90830B2F90020AE
:10142000934201DD6920EAE75242934201DA6A20E1
:10143000E5E7012804D1E07D00287ED001287DD099
:101440006420A076A175A4F856104FF4F87024F02B
:10145000BFF8E5752946A4F858504FF4FA7024F007
:10146000B7F8D848B761002130F9150024F0B0F87A
:101470002776A4F85A7039464FF4FB7024F0A8F888
:10148000D148D24D0088401C00F0070006EB400018
:10149000008CADF80000A88B8DF804004FF06302BB
:1014A0004FF0010101A8FEF7EAFEC24C9DF80400CE
:1014B0009C342070287E8DF804000C22012101A8A4
:1014C000FEF7DDFE9DF804006070287B8DF80400B7
:1014D0001F22012101A8FEF7D2FE9DF80400A07092
:1014E0009DF80000E0704FF4FC70216824F0ABF828
:1014F000287A8DF804001722002101A8FEF7BFFE0C
:101500009DF80400207128798DF804003B22002109
:1015100001A8FEF7B4FE9DF80400607128788DF8EC
:1015200004003B22002101A8FEF7A9FE9DF804005B
:10153000A0719DF80100E07101E006E007E04FF4C2
:10154000FE70616824F07FF84BE76B2057E76C2052
:1015500055E72DE9F047974CA07D01287ED1204624
:101560000127C07D217EC0F1010207FA02F0954EED
:10157000924D02B211B1012933D037E01423CA21B0
:10158000C820FEF7FDFD14234FF0FF32CE21CD2001
:10159000FEF7F6FDE07D00EB400101EB001005EBEE
:1015A0008000B0F90800FEF7ABFEE17D01EB4102DF
:1015B00002EB011205EB82029369184448F6A0433E
:1015C0009061984212DBC01A906136F8110023F046
:1015D0000BFF401C01B2E07D36F9100023F0F8FF4C
:1015E00004E01423CA21C820FEF7CAFDE07DA84606
:1015F00000EB400101EB001205EB8201744AB1F9E6
:1016000002100025B2F900204FF4F87902EB8202B3
:10161000B1EB420F42DAB4F85210491C09B2A4F8F7
:1016200052101E293CDBA17D012921D1217EF9B96F
:1016300036F8100023F0D8FE01B26648E27D30F99A
:10164000120023F0C5FFE07D36F8100023F0CCFE39
:1016500081B2E07D03F0D4FF5F4800E041E0E17D2E
:1016600030F91100002123F0B3FF3220A083E08382
:10167000E07D5149C0F10100085C552807D0A575EF
:10168000A4F856500021484623F0A2FF08E0277630
:10169000A4F85A7001214FF4FB70F5E7A4F85250FA
:1016A000E17D01EB410000EB0112C1F1010101EB11
:1016B000410303EB011108EB820208EB8100B2F950
:1016C0000220B0F9020082420BDB207E012808D103
:1016D000A575A4F856504846BDE8F047002123F010
:1016E00077BFBDE8F08770B5324C05460026A07D77
:1016F000F0B9022104F8161F4FF4F870A4F8401056
:1017000023F066FFC5EB0510810025870D46E187B4
:101710004FF4F97023F05CFF29464FF4FF7023F07B
:1017200057FF00206087A0860126304603F0F6FFB1
:10173000304670BD10B51F4CA07D022812D104F1B7
:101740001604208F03F0EAFF0020A0862087608720
:101750002070A4F840000146BDE810404FF4F87036
:1017600023F036BF10BD70B5184C203C94F83800FB
:101770001A4D297808440C2803D9A08F401C01B2C7
:1017800001E0B4F93C10B82023F022FF94F838109F
:10179000287801440C2994F8381000D90C380144F9
:1017A000B62023F015FF94F82C001C2818D91C2112
:1017B00018E000001000001074010010C8F00720AD
:1017C0001E01001044D70200DA0100102040024040
:1017D0001801001060D7020040D70200DF0000109F
:1017E00094F82C10B42023F0F3FE04F12004217AA5
:1017F0004FF0AE0023F0ECFE2179B02023F0E8FE9C
:101800002178BDE87040B22023F0E2BE10B5F84860
:10181000F84C007830B3F848818FF84A128891422A
:1018200020D190F83810F64A128891421AD190F8D7
:101830002C10F44A1288914214D190F82810F24AE0
:10184000128891420ED190F82410F04A12889142E9
:1018500008D190F82000EE490988884202D1012081
:10186000607602E0607E00280BD0EA480088C0B2B3
:10187000FFF739FF002804D000206076BDE8104053
:1018800071E710BD70B5DB4CA07D02283FD1B4F8E4
:101890004C004FF461610025884212D2401C80B296
:1018A000A4F84C0088420CD3A4F84C50B4F84E0075
:1018B00038B1401E24F84E0F6088401C6080A4F1AF
:1018C0004E04B4F84A003C2821D2401C80B2A4F84F
:1018D0004A003C281BD324F84A5F6089401E01B2AD
:1018E00061814FF4F97023F073FE6089A4F14A041A
:1018F00000280CD1A5750146A4F856504FF4F87095
:1019000023F066FEBDE87040002003F007BF70BD05
:10191000C1486FF03B010088C0EB001001EB800074
:10192000B449C88770472DE9F05FDFF8C892BA481C
:101930000026B9F83E10B94F491C09B2A9F83E106B
:10194000B0F90000B64DC0EB00124FF0010B09F1E9
:1019500044044FF00A08B1EB820F51DBF0B3A9F851
:101960003E602670DFF8BCA2667089F810609AF8B5
:101970000000552811D1B5F9020050280DDDB5F948
:101980000800FEF7BDFCB7F90010884203DB95F8AC
:101990003D00C00701D084F800B09AF80100552836
:1019A00011D1B5F94E0050280DDDB5F95400FEF700
:1019B000A7FCB7F90010884203DB95F88900C0073F
:1019C00001D084F801B09848007848B999F811100E
:1019D000484629B1817D41B1022900E010E004D0E0
:1019E0002670667089F8106008E0217801291DD002
:1019F000617801291AD0017C012917D0A9F840602B
:101A00004846B9F94010DFF8EC91DFF820A209F15F
:101A10006009F1B383460246491E08B2A2F84000AD
:101A2000052806DD0F231E22642107E0A9F8408067
:101A3000E6E700281BDD0F231E226921E120FEF7C7
:101A40009FFBBBF84000052811D1B5F90800FEF74F
:101A500057FCA9F80000B5F95400FEF751FCA9F8AD
:101A60000200BAF90000FEF74BFCABF82200614817
:101A7000B0F84000002841D1AB46B5F90800FEF7A8
:101A80003FFC5C4D64352880BBF95400FEF738FC00
:101A900000E038E06880BAF90000FEF731FCDFF8BA
:101AA00054A1AAF82400AAF84260B9F90000B5F9D7
:101AB00000100844B7F90010884202DA20780128A3
:101AC00017D0BBF90200C82804DD002126700846A3
:101AD00003F00DFBB9F90200B5F902100844B7F99B
:101AE0000010884202DA6078012805D0BBF94E0068
:101AF0007AE0AAF84280EDE7AAF84280BDE8F09FBC
:101B00006670002106E1B0F94210E9B38046024652
:101B1000491E08B2A2F84200052803DD0F23C8229F
:101B2000642104E000281BDD0F23C8226921E12085
:101B3000FEF726FBB8F84200052811D1B5F90800D8
:101B4000FEF7DEFBA9F80000B5F95400FEF7D8FB5C
:101B5000A9F80200BAF90000FEF7D2FBA8F82200AB
:101B60002448B0F842000028C8D1DFF8B480B8F9A2
:101B70000800FEF7C5FB1F4D64352880B8F95400F6
:101B8000FEF7BEFB688000E058E0BAF90000FEF7FF
:101B9000B7FBDFF86080A8F8240088F80F60B9F977
:101BA0000000B5F900100844B7F90010884202DAC5
:101BB000207801283CD01A48B0F90200C82804DD7A
:101BC00000212670084603F092FAB9F90200B5F92F
:101BD00002100844B7F90010884202DA6078012840
:101BE00029D00F48B0F94E00C82889DC86E70000EC
:101BF000DF000010100000100040024082010010C1
:101C0000800100107E010010780100107A010010A0
:101C10007C010010840100102E0100101E01001034
:101C2000C8F0072074010010E6000010DC0100106D
:101C300088F80FB0C9E788F80FB05FE78146C07B2E
:101C40000028D3D00F2300226E21E120FEF798FA5E
:101C5000B5F90800FEF754FBB7F90010884207DD1C
:101C60002078012804D100212670084603F03FFAAD
:101C7000B5F95400FEF744FBB7F90010884206DDC1
:101C80006078012803D16670002103F030FA2078D3
:101C900030B9607820B999F8101009B989F80F6047
:101CA000E620FEF784FA18B1FF480068E7280AD05A
:101CB000FE48FF49B0F90000B1F9001000EB8000C8
:101CC000B1EB400F92DA89F80F602078F94E0128C5
:101CD0000FD1B7F90000410091FBF8F0B6F9001000
:101CE000884206DA95F83D00C00702D1012103F0D1
:101CF000FEF960780128A0D1B7F90000410091FBFE
:101D0000F8F0B6F90010884297DA95F88900C00714
:101D100093D10121BDE8F05F012003F0E8B970B56F
:101D2000E54CA08F401C00B2A087B0F5E16F02DB4C
:101D30000020A08770BDB0F5DF6F11D90F230122FD
:101D40006421D220FEF71CFA0F230022D821D720CD
:101D5000FEF716FA0F230022D821DC20FEF710FA36
:101D6000B4F93C00A0F5E0610739E3D1D34ED44C7F
:101D7000D44D30882188884205D0B4F90010B5F9D7
:101D8000000023F025FC708861888842D2D0B4F925
:101D90000210B5F90200BDE8704023F019BC10B57F
:101DA000C94C082200212088401C20802046FEF7D4
:101DB0007CFAC648B4F9001000EB410142880A845D
:101DC000B0F84E00A1F86C0010BD70B5C148C04D10
:101DD000B0F90030C048B5F9002090F900109A42DF
:101DE0001BDABE4C0A290EDABD4BB3F900300F2BBB
:101DF0000BDD491C49B201700A2906DB2280012053
:101E000002F021FD01E00A210170B5F90000B4F9EA
:101E10000010884200DA208070BDFDDD0029FBD073
:101E2000491E49B201700029F6DCBDE8704000206F
:101E300002F009BD2DE9F05FAA480A21DFF8A8C227
:101E40000088DFF88CA2B0FBF1F201FB12029A4984
:101E5000DFF8989241F270750E8D3AB9B0F5166FB1
:101E600004D0B0F5965F01D0A84261D1A249A04A42
:101E7000A04B99F89C73B1F90040B2F90020B3F976
:101E80000030DFF878E29E49DFF878B24846072F45
:101E900025D0564396FBFCF09B4AAEF80000B2F901
:101EA0000600584390FBF5F00880B2F91400604337
:101EB00090FBF5F0ABF80000BEF90020AAF8002076
:101EC000B1F900105046914200DA0180BBF90010D0
:101ED000B0F90020914233DAAAF8001030E000F2A5
:101EE000A230DFF8D4C1067847780CF1880C06EBF5
:101EF00007261FFA86F8ACF800808678C77808FBBA
:101F000002F806EB0726B7B2ACF80270067998FB28
:101F1000F5F299F8A70307FB03F706EB002080B260
:101F2000ACF80400AEF8002097FBF5F20A80BEE79B
:101F30007648B0F90000464396FBFCF0AAF8000092
:101F40007148734F4FF4FA66B0F90020B7F90010EA
:101F50005E4C514391FBF6F1DFF8B8C16180B0F9F6
:101F60000820BCF900104FF42F73514391FBF3F19B
:101F7000A180B0F91820B7F90210514391FBF6F196
:101F8000A4F84E10B0F90210BCF90200484390FBCF
:101F9000F3F0A4F85000DC20FEF729F9E8BB484B29
:101FA0004649DFF874E11888098845F6386B401A0D
:101FB000BEF900104FF4967741434A4845F2FA5271
:101FC0004FF47A7C0088584504D0A0F5BC48B8F19D
:101FD000920802D191FBF7F10EE0904207D0A0F5F4
:101FE000AC48B8F1130802D018F1020802D191FBF5
:101FF000F6F101E091FBFCF1218159882F4B5B88C0
:10200000CB1ABEF902105943584503D0A0F5BC4382
:10201000923B03D191FBF7F00DE00EE0904205D02A
:10202000A0F5AC42133A01D0921C02D191FBF6F01C
:1020300001E091FBFCF0A4F85400334F40F6B73CAC
:102040000122B7F90C100020A1F22133634501D21F
:10205000207300E02273DFF8C4B0B84644F620676E
:10206000BBF900304B4393FBF7F1A1F211116181F1
:10207000B8F90E10A1F22133634502D284F858005A
:1020800001E084F85820BBF90230C6464B4393FB6D
:10209000F7F1A1F21111A4F856102149B846B1F98F
:1020A00000302049022B3FE004C007201801001037
:1020B000DE010010E00100101000001042C00720F7
:1020C000F62500106CD70200DA010010C8F00720D6
:1020D000E40100101A01001046040010440400102E
:1020E000F800001076010010B0AD010054F2072096
:1020F0002804001052C007202A040010E601001036
:10210000E8010010EA010010FC6A00102004001031
:102110003EC00720180400101C04001046C0072011
:102120006E01001060F1072002D0042B16D053E09E
:10213000B1F92830052B04DACB8B13B98B8A638174
:102140002073B1F95230052B46DAB1F84830EBBBB9
:10215000C98FA4F8561084F858003DE0B1F92870F2
:102160006FF0130B5B46052F04DACF8B17B9B1F96B
:1021700014302073B1F95270052F08DAB1F84870A5
:102180002FB9B1F93E709F4201DD20733B4613F138
:10219000140700D06381B1F97C705B46052F06DA25
:1021A000B1F872701FB9B1F9683084F85800B1F90C
:1021B000A670052F09DAB1F89C7037B9B1F9921001
:1021C000994202DD84F858000B4600E004E013F168
:1021D000140101D0A4F85630BEF90410FF4FB7F92E
:1021E0000070794391FBF6F1FD4E3180BEF90A6033
:1021F000FC49A6F22137674501D2086000E00A6079
:10220000F346DFF8E4E34746DFF8E083BEF9003049
:10221000734393FBF7F3A3F21113A8F80030BBF953
:102220001430A3F22136664501D2486000E04A60CE
:10223000ED4EC646B6F902605E4396FBF7F3A3F295
:1022400011131BB2A8F802309B46E94BB3F90630D4
:10225000A3F22136664501D2886000E08A60E24A36
:102260004FF47A6CE64EB2F904205A4392FBF7F22F
:10227000A2F211120FFA82F8AEF80480DD4FDFF8F7
:1022800078E33B88BEF900205A4392FBFCF2DB4B1B
:1022900092B2642A1A8001D3BAF8002032807E8874
:1022A000BEF9022008F21118724392FBFCF25A8028
:1022B000D44ADFF854C3B2F90060BCF9003073436C
:1022C00093FBF5F6D14B1E80B2F90270BCF90260A7
:1022D0007E4396FBF5F65E80BCF90470B2F90460AB
:1022E000DFF82CC3774397FBF5F69E80B2F90660C2
:1022F000BCF90030734393FBF5F6C64B1E80B2F970
:102300000870BCF902607E4396FBF5F65E80B2F978
:102310000A20BCF90460564396FBF5F29A80BE4D44
:102320000BF2111213B22B800FFA88F66E804A68F6
:1023300012F0FF022A728968C9B26972B74D04D0DF
:10234000012A0ED012B10DD020E011B1012910D018
:102350001CE0991901EBD1716FF4887202EB6101F5
:1023600013E011B1012908D010E0A6F211162E8059
:102370000CE0A3F211132B8008E0A9490978052984
:1023800002D2A849098800E014212980A6490A78C8
:10239000552A06D1B4F90220C82A02DDA34A2389AE
:1023A0001387497855290BD1B4F94E10C82907DD98
:1023B000B4F95410B4F90820914201DD9B4A118709
:1023C0009B490022B1F900302FE000BFC2EBC201EF
:1023D00001EB410509EB8501CD78192D1CD28D79D2
:1023E000CE7905EB06254D620D7A4E7A05EB062572
:1023F0000D628D7ACE7A05EB0625CD610D7B8D625F
:102400004D7B81F852508D7B81F842500D7C4E7C83
:1024100005EB0625CD6406E0C86148620862886263
:1024200081F84200C864521CD2B29A42CEDBB4F9A1
:1024300008200A2192FBF1F2B4F954407E4F94FB3C
:10244000F1F1114449427B4A0CB2002114803880DA
:10245000CC460EE0C1EBC10505EB45050CEB85064E
:10246000F578052D03D2756A3E8835443D80491CB8
:10247000C9B29942EEDB3988214409B211800029A2
:1024800000DA10806D4C0621A1616D49B1F9005050
:10249000002D5FD000235BE0C3EBC30101EB4101E2
:1024A0000CEB810191F89326192A37D201F296613B
:1024B0000A784E7802EB062603EB430204EB421245
:1024C000D6618E78CF7806EB0726D6620E794F79E3
:1024D00006EB072696618E791662CE7982F8466001
:1024E0000E7A4F7A06EB072696628E7ACF7A06EB43
:1024F0000726566290700E7B82F859604E7B82F8F8
:102500005A608E7B82F85860CE7B82F85B600E7CCE
:1025100082F85C60497C82F85D1017E003EB4301B0
:1025200004EB41111922C861C8628861086281F810
:102530004600486288628A7081F8590081F85A0022
:1025400081F8580081F85B0081F85C005B1CDBB20D
:10255000AB42A1DBBDE8F09F3A4A3B481178052920
:1025600001D0012905D1517819B93849097855297F
:1025700002D03749098803E00178002901D0491EBB
:10258000017070473348416821F4402141F48021B3
:102590004160416821F4403141F48031416041683B
:1025A00021F4404141F480414160416C21F44021DB
:1025B00041F400214164416C21F4403141F4003187
:1025C0004164416C21F4404141F40041416422489E
:1025D000016821F0E061016001683FE050C0072020
:1025E000DE010010040B08204AC00720A2020010E0
:1025F000FC6A0010A802001022040010AE020010B5
:10260000FE010010F46B00105A040010B402001018
:1026100080C00720BA0200105E0B0820F2010010F3
:10262000F2000010020200107401001010000010EF
:1026300062010010E00100105404001074FF072034
:102640006401001068020010B6000010E0000010E5
:102650008601001000C002400040034041F4001118
:102660000160016821F480310160016821F47F413B
:1026700041F4807101608115C160FB4889030160EC
:1026800070472DE9F041F94C60882188401A00B26A
:1026900003F054F9A51D2880A0886188401A00B273
:1026A00003F04CF96880A0882188401A00B203F03A
:1026B00045F94FF49672A880A4F18E01904201DA98
:1026C000A0880AE0B5F90200904201DA608804E0CF
:1026D000B5F90000904201DA2088488591F802C0DF
:1026E0000023BCF1000F22D0E148B1F92A20046890
:1026F000144404604468144444608468144484604E
:10270000C4682244C2604A8E521C12B24A86B2F594
:10271000805F00DB4B86B1F9322094052ED19212F6
:1027200050F8224024120C8540F8223026E0D14F88
:10273000C8780C7907EB8015B1F92A2045F82420D8
:10274000A2070FD100252A4607EB801656F8227003
:10275000521CD2B23D44102AF8D32A11C44D203D58
:1027600025F81020401CC0B2C870102806D3641C85
:10277000E0B2CB700871102800D30B710CF1010C82
:102780004B701CF00100BC4A887005D0106820F026
:10279000FF00001D106034E0C978080700281068A9
:1027A00020F0FF0002DB00F1010001E000F1020077
:1027B0001060B248036843F080530360036A43F03B
:1027C00080430362036E43F080630366CB07436973
:1027D00008D043F0805343618B07436B05D423F04B
:1027E000804304E023F08053F5E743F080434363E4
:1027F0004907416F02D421F0806101E041F080611E
:102800004167106840F080701060BDE8F081F0B55D
:1028100096488E38B0F9201019B1A1F10101018458
:1028200085E00022974C827313469549B4F9004025
:1028300011E000BFC3EBC30505EB450501EB8505C2
:10284000AE78012E05D1ED78142D02D2857B6D1C5A
:1028500085735B1CDBB2A342ECDB867B022E66D366
:1028600041F28833C0E91A230023026717E000BF52
:10287000C3EBC30505EB450501EB8505AF78012FDB
:102880000BD16D6A876EBD4200DD8566C76EBD42A5
:1028900000DAC566076F3D4405675B1CDBB2A342E7
:1028A000E6DB036F012593FBF6F74767C36E03B9B9
:1028B000C566836E64267343C66E93FBF6F3836727
:1028C000A02B00DD4573782B01DA42732FE0407BAB
:1028D00001282CD100226FF0310326E0C2EBC200A8
:1028E00000EB400001EB80008578012D1BD1456A8B
:1028F000BD4205DDB0F85050A5F10105A0F85050DB
:1029000005DAB0F8505005F10105A0F85050B0F9C3
:1029100050509D4202DAA0F8503004E0322D02DD22
:102920003225A0F85050521CD2B2A242D6DB00BFD2
:10293000F0BD2DE9F04154480168544A114001604E
:102940004E4C216841F47C712160C16921F4402121
:10295000C161216E41F000712166416821F0406142
:102960004160206840F0005020604A48484B4B4985
:102970000278494893F83C50B1F9001000781543AB
:1029800007D030B1052904DDA56945F48075A5613E
:1029900003E0E56945F48075E56193F888301343F9
:1029A00007D030B1052904DDA06940F04000A061E6
:1029B00003E0E06940F04000E061D220FDF717FC41
:1029C000374D48B16868012801D028B108E0A069F6
:1029D00040F00050A06103E0E06940F00050E06189
:1029E000D220FDF704FC2F4E10B12868662815D0C0
:1029F0003068C007A0B1E06F40F00070E067D220FF
:102A0000FDF7F5FB10B128686C280ED03068800700
:102A100010D4E06940F01000E0610FE06868E9E779
:102A2000A06F40F00070A067E9E768680028F0D068
:102A3000012803D1A06940F01000A061D220FDF769
:102A4000D6FB194FDFF8648010B128686D282FD0AD
:102A50003878022832D03068400733D4E06940F437
:102A60000070E06132E0000000E100E09E00001034
:102A70001C6B0010FC6600100040034000C00920E1
:102A800054F207206201001000C00240FF00F0FF76
:102A9000C8F007203BC00720BB000010F800001062
:102AA00004C0072024C00720DB000010160400101B
:102AB00068680028D2D0012804D007E098F8000008
:102AC0000028CBD0A06940F40070A061D220FDF7AF
:102AD0008EFB10B128686A2804D0306810F4FF6FAC
:102AE00005D009E0686810B1012805D008E0E06968
:102AF00040F08000E06103E0A06940F08000A06148
:102B0000D220FDF774FB10B128686B2806D0387806
:102B100001280FD0FF48007838B901E06868FBE76A
:102B2000A06940F02000A0616FE6E06940F020005D
:102B3000E0616AE698F800000028F6D0F0E72DE999
:102B4000F05FF44C00264FF00108207D0A2807D2E0
:102B5000401CC0B220750A2802D3267584F815805F
:102B6000A4F84660A4F84860CD20FDF740FBEA4D8C
:102B7000DFF8A893A0B3EA484FF6FF720168CE29A8
:102B800008D0CF2909D0D12909D0D2290BD0D029FA
:102B90000CD011E0A4F848200EE040680AE040683C
:102BA000A4F8460008E0A4F8462005E04068A4F830
:102BB0004600C043A4F8480000272FE008FA07F0B9
:102BC000B4F8481083460842C7EBC70000EB40004A
:102BD00005EB800005D030F8401F491C018002E061
:102BE00021E0A0F84060C7EBC70000EB400005EB18
:102BF00080008246403032220021FDF74BFBBAF9BB
:102C00004000142801DD8AF82C80B4F846101BEA35
:102C1000010F01D08AF82C607F1CFFB2B9F90000C7
:102C20008742CBDD46E0607DB8B3002108464346CD
:102C3000B9F900200AE000BFC0EBC00707EB470767
:102C400005EB8707401C87F82C30C0B29042F3DDBB
:102C5000B44B0020B3F9003014E000BFC0EBC00754
:102C600007EB470705EB870797F802C0BCF1020F97
:102C700002D0BCF1010F03D1491C87F82C60C9B206
:102C8000401CC0B2904201DA9942E7DBA648B0F995
:102C900000003C280EDA00200AE00BE0C0EBC00187
:102CA00001EB410105EB8101401C81F82C60C0B2B1
:102CB0009042F3DD00206323B9F900100EE000BF5D
:102CC000C0EBC00202EB420205EB8202D76B1FB1E0
:102CD00082F82C307F1ED763401CC0B28842EFDBE5
:102CE0006675667400200DE0C0EBC00202EB420284
:102CF00005EB82029278012A02D1627C521C627436
:102D0000401CC0B28842EFDB24E470B587480A213A
:102D1000874D036800242868B3FBF1F2B0FBF1F69D
:102D20008448B2420AD102780F2A01D2521C0270A2
:102D3000D0B20A2803D38048036000E004702B60FF
:102D40007E487F4BB0F90020B3F90000B2FBF1F5EB
:102D5000B0FBF1F17B488D420AD101780F2901D2F5
:102D6000491C0170C8B20A2803D37748028000E0EA
:102D700004701A8070BD2DE9F0410746C0EBC70012
:102D8000654900EB400011F82020032A73D101EBC4
:102D9000800494F84250A807B4F9460010D54FF4C7
:102DA000966188421ADA401C00B2A4F846008842B4
:102DB00014DBA4F846106078C0070FD1012209E0A7
:102DC00060B1401E00B2A4F8460038B96078C00770
:102DD00004D000220021384601F07EFE2807B4F915
:102DE00048004FF00A064FF000010ED50A281FDAFE
:102DF000401C00B2A4F848000A2819DBA4F8486077
:102E00006078800714D4012209E000280DDDA0F1CC
:102E1000010000B2A4F8480050B94FF000024FF092
:102E20000101384601F058FE02E001DAA4F848102A
:102E3000E806B4F94A000ED50A2817DA401C00B299
:102E4000A4F84A000A2811DBA4F84A606078400719
:102E50000CD4012206E048B1401E00B2A4F84A009A
:102E600020B900220221384601F036FE60780007C2
:102E700002D0042012E028E03448007820B1E07845
:102E8000142801D9052009E094F84200800601D5F4
:102E9000022003E0E078142801D20120A070E0783D
:102EA0000A2894F82C0002D340F0800001E000F0E2
:102EB0007F00184984F82C00B4F95000B1F91C10B7
:102EC000084420634FF47A7060639EE470B5204933
:102ED0000020204DB1F90C200121034601FA00F435
:102EE000224201D0295400E02B54401CC0B20C28CF
:102EF000F4D3194C2878194E217881423CD0B6F988
:102F00000010012938DB01287ED0002301220B218B
:102F100013A02FE01000001054F2072062010010EF
:102F200004C0072078C00720F800001088C00720E0
:102F30006004001066040010640200108CC00720BA
:102F4000640400108EC0072004020010E600001088
:102F5000F46B00107C0B0820086C00106C01001052
:102F60004176746F6D6174202331206973204F4660
:102F70004600000020F02CFA6178687881420BD07E
:102F8000B6F90010022907DB01287ED000230222B7
:102F90000B21FFA020F01CFAA178A87881420BD069
:102FA000B6F90010032907DB01287CD00023032297
:102FB0000B21FCA020F00CFAE178E87881420BD0DC
:102FC000B6F90010042907DB012872D0002304227F
:102FD0000B21F9A020F0FCF92179287981420BD04E
:102FE000B6F90010052907DB012867D00023052268
:102FF0000B21F6A020F0ECF96179687981420DD0BF
:10300000B6F90010062900E043E007DB01285AD09A
:10301000002306220B21F2A020F0DAF9A179A87989
:1030200081420BD0B6F90010072907DB01284FD0E9
:10303000002307220B21EFA020F0CAF9E179E879FB
:1030400081420BD0B6F90010082907DB012844D0D3
:10305000002308220B21ECA020F0BAF9217A287A6B
:1030600081420BD0B6F90010092907DB012839D0BD
:10307000002309220B21E9A020F0AAF90020295CF5
:103080002154401CC0B20C2801E007E00BE0F6D34D
:1030900070BD01231A460B21E5A03AE70123022265
:1030A0000B21E8A076E7012303220B21EAA081E7A8
:1030B000FFE7012304220B21ECA08BE7012305226B
:1030C0000B21EFA096E7012306220B21F1A0A3E735
:1030D000012307220B21F4A0AEE7012308220B21D4
:1030E000F6A0B9E7012309220B21F9A0C4E770B5C6
:1030F000C820FDF77CF8FB490022A0B3FA4C01235D
:103100002068C92803D0CA28104611D02CE000201E
:1031100000EB400404EB001411F82450322D02D2CD
:103120006D1C01F82450401CC0B20228F0D325E0E9
:10313000D4F8045003FA00F4254200EB400409D00F
:1031400004EB001611F82640322C07D2641C01F85B
:10315000264003E004EB001401F82420401CC0B218
:103160000228E7D30AE01FE000EB400404EB001460
:10317000401CC0B201F824200228F5D35FF0000003
:1031800000EB400404EB001411F8245001EB84041C
:10319000142D02D984F83C3001E084F83C20401C16
:1031A000C0B20228ECD370BD00EB400303EB001368
:1031B000401C01F8232001EB8303C0B283F83C20BC
:1031C0000228F1D370BD2DE9F041C84FC848C94C61
:1031D000B7F90010B0F90020B4F90000914202DD07
:1031E00000F1010002E002DAA0F1010020800622D5
:1031F0000021C048FDF74EF8B4F90010BE48012682
:10320000052900DD06700024012900DA0470BB489E
:10321000B7F90010BB4DB0F90020B948931E994290
:103220000BDA90F900201E2A16DA521C52B20270F4
:103230001E2A11DB2A88521E0CE091420BDD90F908
:1032400000201E2A08DA521C52B202701E2A03DB2A
:103250002A88521C2A800470AB48B846B0F9000096
:10326000814201DD142203E0A8480088093002B23F
:103270000021A448FDF70EF8F020FCF7B8FF28B1B4
:1032800099480168F12901D140682880B5F90010FA
:103290009F48012901DC067000E004709D489E4FA4
:1032A000B0F90000A0F1320128291BD8B8F90010AC
:1032B0009A4D814202DD2888401C28809848B0F948
:1032C0000000814202DA2888401E28800622002160
:1032D0009248FCF7DFFFB5F90000052800DD3E70DD
:1032E000012800DA3C708F488F4FB0F90000A0F140
:1032F00032011E291BD8B8F900108C4D814202DD25
:103300002888401C28808A48B0F90000814202DAEF
:103310002888401E2880062200218448FCF7BAFF36
:10332000B5F90000052800DD3E70012800DA3C7088
:10333000CBE52DE9FC5F05467E4830F9151011B14B
:10334000491E20F815107B49091D31F9152012B1CD
:10335000521E21F8152005EB450202EB0513614AC8
:1033600002EB8304744AB4F90830B2F900606422B5
:10337000B34201DD20F81520002B01DA21F81520D9
:103380006C4A30F815307C3A002603B1D6E0DFE015
:103390004176746F6D6174202332206973204F462B
:1033A000460000004176746F6D61742023332069FC
:1033B00073204F46460000004176746F6D617420A3
:1033C0002334206973204F46460000004176746F15
:1033D0006D6174202335206973204F46460000003C
:1033E0004176746F6D6174202336206973204F46D7
:1033F000460000004176746F6D61742023372069A8
:1034000073204F46460000004176746F6D61742052
:103410002338206973204F46460000004176746FC0
:103420006D6174202339206973204F4646000000E7
:103430004176746F6D6174202331206973204F4E83
:10344000200000004176746F6D6174202332206982
:1034500073204F4E200000004176746F6D61742020
:103460002333206973204F4E200000004176746F93
:103470006D6174202334206973204F4E20000000BA
:103480004176746F6D6174202335206973204F4E2F
:10349000200000004176746F6D617420233620692E
:1034A00073204F4E200000004176746F6D617420D0
:1034B0002337206973204F4E200000004176746F3F
:1034C0006D6174202338206973204F4E2000000066
:1034D0004176746F6D6174202339206973204F4EDB
:1034E00020000000C8F0072004C00720F2010010EF
:1034F0003E01001090C007203CC007204001001092
:103500003AC007200602001042010010000200101D
:1035100014040010480100103BC00720680400108C
:103520004A010010440100101504001092C0072049
:10353000460100108C0000102601001031F81530F3
:1035400033B1B2F85E30B3B140F6B830A2F85C00E7
:10355000A2F85C6094F83E00401CC0B284F83E00C3
:103560000A2801D384F83E60FE4FDFF8FC833888D8
:10357000322809D017E04FF41673A2F85E3020F815
:10358000156021F81560E3E794F83C00F8B9B4F948
:10359000020050281BDA94F83D00C00717D1012122
:1035A000284601F0A4FDB7F90000C8280FDDB4F9E2
:1035B0000800FCF7A5FEB8F90010884207DD94F872
:1035C0003D00C00703D00021284601F090FDB8F966
:1035D0000000B4F908104042814212DD607B0A28E5
:1035E0000CD2401CC0B260730A2875D3A07B00289F
:1035F00072D0A673284601F02AFC6DE00A206073A1
:103600006AE069DA607BF0B3401E10F0FF0060737F
:1036100062D1A07BB8BB0120A073D448D44F0088EE
:10362000401C00F0070004EB4000008CADF80400E3
:10363000B88B8DF800004FF063024FF0010168462F
:10364000FCF71DFE04F11C049DF800002076387E76
:103650008DF800004FF00C024FF001016846FCF7B6
:103660000EFE9DF800006076387B8DF800001F226A
:1036700001216846FCF703FE9DF80000A0769DF846
:103680000400E07600E027E0387A8DF80000172289
:1036900000216846FCF7F3FD9DF80000207738799B
:1036A0008DF800003B2200216846FCF7E8FD9DF8FC
:1036B0000000607738788DF800003B2200216846D2
:1036C000FCF7DDFD9DF80000A0779DF80500E07790
:1036D00026806680A4F11C0448F6A04894F83E00B9
:1036E00088BBB4F908006169DFF888A20844DFF8F4
:1036F000889245F2555B6061404525DB39F915201C
:103700005A4503D19D4830F8157001E039F815701D
:103710003AF8150021F068FE80B2B8420AD2616919
:1037200000F10100A1F50041A1F54A6161613AF99A
:1037300015202BE031D93AF9150039B221F048FFB4
:10374000C4F8148029E051E08D49884225DC39F91C
:1037500015205A4503D1894830F8157001E039F831
:1037600015703AF8150021F03FFE80B2B84205D935
:103770003AF9150039B221F02BFF384658B1626989
:10378000401E02EB080161613AF9152001B21046B2
:1037900021F01EFF01E07A4860613AF8150021F03F
:1037A00023FE014639F91500584502D1734830F916
:1037B00015004FF47A72514308B1B1FBF0F00A21C1
:1037C000B0FBF1F020826F480088012808D105EB9A
:1037D00085006D4900EBC50001EB8000408A208226
:1037E00004F1100064220021FCF754FDA07B0128A5
:1037F00013D1A08B4746B8420ED2B4F90800FCF7AB
:103800007FFDA18B084480B2A083B84205D3A68374
:10381000E08B401CE08300E0A6835C49B4F90A0019
:10382000B1F90010884201DD207BF0B3B4F840000C
:10383000B0F10100A4F840004FF4167904F1400003
:103840004A460021FCF726FDB4F9400040F24E271D
:10385000B84205DB94F83F1041F0010184F83F10B5
:103860000A2805DC94F83F0020F0010084F83F00AE
:103870004749B4F90A00B1F90010884201DD207B04
:10388000B8B3B4F84200401EA4F8420004F142006C
:103890004A460021FCF7FEFCB4F94200B84207DBBF
:1038A00094F83F1041F0020100E01EE084F83F1060
:1038B0000A2805DC94F83F0020F0020084F83F005D
:1038C000606C40451ADA401C6064404517DB666452
:1038D000304C34F8150021F087FD401C01B234F95A
:1038E0001500BDE8FC5F21F073BEB4F84000401C39
:1038F000A0E7FFE7B4F84200401CC5E76664BDE8F6
:10390000FC9F2DE9F84F244C0021A0790A2807D20A
:10391000401CC0B2A0710A2802D3A17101202072FC
:10392000E079052805D2401CC0B2E071052800D11D
:10393000E171BE20FCF75BFC184928B11848026809
:10394000BF2A3FD140689DE0207A00283AD0154B2D
:1039500015481A78552A29D05A78552A26D0008831
:1039600090E00000F60000101E010010DA010010C7
:103970002040024040D702005002001048020010D0
:103980006073FFFF5C01001008F20720380100108F
:10399000360100105CD7020010000010F801001082
:1039A00004C007207401001028010010FC48DFF853
:1039B000F4A3FD4DB0F90000FC4ADFF8F49310B118
:1039C000012849D05FE0AB464FF0140C6D466FF014
:1039D00013071E5C552E0ED025F81070401CC0B287
:1039E0000228F6D3BDF90030BDF90250F148AB42D0
:1039F00013DD036013E000EB400606EB00180BEB51
:103A0000880696F80C80B8F1000F02D025F810C097
:103A1000E4E7768925F81060E0E72B460560002B87
:103A200002DAB2F9000011E0282B01DD282303603F
:103A3000B9F90050B2F900300068EA1A02EB8202CC
:103A400052004243C82092FBF0F01844A27D022AA3
:103A500018D1BAF9000015E068880A300880A07D06
:103A6000022802D1BAF800000880B1F90030B2F99A
:103A70000000834200DB0880B1F90020B9F90000A2
:103A8000824200DB0880B1F90000622141436422D8
:103A900091FBF2F1C84B19806621484390FBF2F08C
:103AA000C6490880BDE8F88F2DE9F041C44CB4F94F
:103AB000260008B1401EE084C248C34DBA4E0088BB
:103AC0002880B6F908000A27002806DAFCF718FC57
:103AD00090FBF7F0298808442880B6F954000028A4
:103AE00006DAFCF70DFC90FBF7F0298808442880E3
:103AF000B649B5F90000B64AB1F900103C2390FB75
:103B0000F1F1491CC9B2A174B2F9002090FBF2F0A6
:103B1000401CC2B2AF48E274B0F90050A94201DDC6
:103B2000018004E0AA4203DAE18C09B90280E3844F
:103B3000A9490A88A9490AB10A880280B1F9002076
:103B4000BDE8F0410121A348FCF7A4BB2DE9F05FDB
:103B5000A3489B4CB0F90010A2486187008810B1BF
:103B6000A14800886087B4F95C0010B1401EA4F839
:103B70005C00B4F95E0010B1401EA4F85E008A48F3
:103B80004FF00A0890F83F20920703D190F88B007D
:103B9000800702D091FBF8F06087607A4FF000094F
:103BA0004FF0010B0A2808D2401CC0B260720A28EC
:103BB00003D384F8099084F80AB0E120FCF717FBDE
:103BC0008A4F8B4BDFF82CA2D0B38B49086864284E
:103BD00008D069280AD06E280CD0E5281ED0E62827
:103BE0001ED0D2E04968E08B0844CDE04868E18B04
:103BF000081AC9E0A08B401E00B2A0831E2806DD73
:103C00007E49B7F90000B1F90010884205DA0A23AD
:103C10000022E721E620FCF7B3FAB6E04868B3E0FB
:103C2000B7F90000B3F90010884212DDA0EB0100E3
:103C30000A2806DDB4F91C00002802DD401FA3E0BD
:103C40001CE0B4F91C00002836D0A17AA1B3401EB4
:103C50009AE031DA081A0A2807DDB4F91C0040F2AC
:103C6000F731884201DA401D8EE0B4F91C00B0F54E
:103C70007F7F21DAA17AF9B1401C85E0A07AD8B122
:103C80005F48008818B19AF8A30228287DD9B4F9B2
:103C90001E00E086B4F93810628F91FBF8F5B5EBA1
:103CA000420F56DC0DDAC2EB02168E4209DAB4F886
:103CB0005C1021B1401E5DE067E00A385AE0C01E8A
:103CC00058E0C2EB02168E4201DD9542F2DCB7F9F4
:103CD0000050B3F90030354F354E9D4230DAB7F918
:103CE0000070B6F90060A7EB0606A3EB0607AF422B
:103CF00014DD002919DAB4F85C1069B90A3039E02A
:103D0000B4F85C1041B915E0C2EB421303EB821228
:103D1000B2FBF8F28A422EDD401C2BE0F71706EBCF
:103D20009776A3EBA606AE4206DD02EB82038B423A
:103D3000EADDE5E7801C1DE05B1E9D42E4DB1AE046
:103D400019DDB7F90010B6F90020891ACA18AA427D
:103D500004DAB4F85C100029AFD0ABE7CA1701EB66
:103D6000927103EBA101A9424CDAB4F85C1000296E
:103D7000A0D1801EE086124840F2F2320A2136308D
:103D8000FCF788FAE08EE083A083144884F80C9056
:103D900084F80B904D4652465B46B0F9001041E066
:103DA0005C01001020010010C8F007200E01001077
:103DB00010010010500400104C04001076C00720C1
:103DC00010000010540400107AC0072022010010D7
:103DD0002401001078C00720340100106201001097
:103DE00026010010720400101E020010DE010010F7
:103DF000F801001054F2072004C007201801001039
:103E00000A0200105B1C9D42A7DCB4E7C0EBC006B1
:103E100006EB460602EB8606F6781E2E00D22373CA
:103E2000401CE072E07A8842F0DB207B20B94FF43E
:103E30001670A083E083E08640F2F2320A21FC484B
:103E4000FCF728FAA572BDE8F09F2DE9F05FFB4E64
:103E50000020F849DFF8E0834FF00A0B8246B6F9FC
:103E6000003024E0F64AF74C125C34F91220B2F527
:103E7000FA6F0A560DDA0A2A08DA521C52B20A54AC
:103E80000A2A12DB012208F800200EE001F800B037
:103E90000BE0002A07DB521E52B20A54002A04DC4F
:103EA00008F800A001E001F800A0401CC0B2984250
:103EB000D8DB0024DFF89093E44DE54F71E0E5484E
:103EC00030F81400002818F8040001D078B101E09F
:103ED00001280CD019F90400002818DB401E40B25C
:103EE00009F80400002814DC05F804A011E019F911
:103EF00004100A2908DA491C49B209F804100A29F1
:103F000007DB0120285504E009F804B001E009F8B6
:103F100004A0395D285D81423FD0C54A1C3A918E8C
:103F2000491C9186012807D014B3012C25D0022CFE
:103F300028D0032C2BD030E034B1012C09D0022C36
:103F40000CD0032C0FD028E001231A460F21C2A069
:103F500021E0012302220F21C2A01CE00123032241
:103F60000F21C3A017E0012304220F21C3A012E0F8
:103F7000002301220F21C4A00DE0002302220F2103
:103F8000C6A008E0002303220F21C9A003E00023FC
:103F900004220F21CBA01FF01BFA285D3855641CAA
:103FA000E4B2B6F90000844289DB4CE7CA49CB4A47
:103FB0000120087010704870507070472DE9F05F54
:103FC000C848DFF824E3DFF818C3B0F90070BEF981
:103FD0000000974CC0EB00111C3CBCF902506FF084
:103FE0001D0A6FF0950B0026DFF8EC82B4F93E0055
:103FF0000AEB81020BEB8103BD4204DCBB4FB7F936
:104000000070BD4205DA824203DD834201DA88F89E
:104010000060B74DE146BCF908C0B5F90050AF4F9C
:10402000BCEB450F03DC6D42BCEB450F04DA82426A
:1040300002DD834200DA3E706FF0090202EB81017B
:104040007546814220D1A07DF0B998F80000012882
:104050001AD13878012817D14FF4D67021F0C4F95D
:10406000A449B1F9001088420ED0A348008858B185
:1040700099F83D00C00707D14FF4D67021F0A8FA97
:104080009E480178491C01709649B9F902204846BA
:10409000B1F900108A4206DC9449B0F94E20B1F91A
:1040A00000108A420FDAB5F90010B4F93E20C1EBD6
:1040B00001110AEB8103934205DD0BEB8101914273
:1040C00001DA88F801608A49B9F95400B1F90010A1
:1040D000B0EB410F03DC4942B0EB410F0EDAB5F90A
:1040E0000000B4F93E10C0EB00100AEB80028A42D7
:1040F00004DD0BEB8000884200DA7E70B5F9000029
:10410000C0EB00116FF0090000EB8100B4F93E1024
:10411000884222D1A07D00BB98F8010001281CD163
:104120007878012819D14FF4E576304621F05CF912
:1041300002467048B0F902108A420ED06E480088DC
:1041400002280AD199F88900C00706D1304621F02B
:104150003FFA6A480178491C0170B5F900006FF018
:104160000101C0EB001001EB8000B4F93E10884261
:1041700002D1BDE8F05F19E765E62DE9F00360487C
:10418000604ADFF884C100784FF000084FF0010961
:10419000F0B35E486146B0F900605D48B1F90010C7
:1041A000B0F900705B48BE42B0F900305A48B0F92F
:1041B00000405A48B0F900505948B0F9000013DAED
:1041C000834203DB844201DB85420DDA5548B0F9B6
:1041D0000000814219DA491C09B2ACF80010814292
:1041E00013D182F8008015E04F4FB7F90070BE423E
:1041F0000BDD834209DD844207DD854205DD21B107
:10420000491E08B2ACF8000060B11078002800E048
:104210008CE009D1BDE8F0030F2301226E21D220EA
:10422000FBF7AEBF82F80090BDE8F00370470000D6
:104230002C0000106EC007202F0200106801001033
:104240003BD70200FC6A0010470400103302001044
:1042500072C00720C0020010534B20233120416C54
:1042600061726D00534B20233220416C61726D00EE
:10427000534B20233320416C61726D00534B20233C
:104280003420416C61726D00534B20233120416C0E
:1042900061726D206973206F66660000534B2023A6
:1042A0003220416C61726D206973206F6666000078
:1042B000534B20233320416C61726D206973206F52
:1042C00066660000534B20233420416C61726D20E0
:1042D0006973206F66660000560400107CC00720DA
:1042E000C8F0072076C007202E0100104C040010F3
:1042F0001E01001050020010600100107EC0072057
:10430000DB000010160400106A040010DE0100102B
:1043100052010010E6010010E8010010EA0100104F
:104320001A0100105001001054010010ACF8008078
:1043300078E79D48002102880AB1018070479B4AB6
:104340001288002AFAD10122028099480160704740
:104350002DE9F04F9748DFF8608299490378974834
:1043600098F90020B1F90010B0F9000088B023B12D
:10437000022B34D0012B7ED0FDE0924E924B34784C
:1043800096F801C0B3F90A501F7BB3F9566093F851
:10439000583022B1012A0FD1552C14D10FE0552CE1
:1043A00003D1854268DC002F66D1BCF1550F03D1E3
:1043B000864261DC002B5FD108B0BDE8F08F8D42F2
:1043C000FADA002FF8D1BCF1550F7ED18E42F3DA24
:1043D000002B7AD0F0E700BF88F80000ECE77C4CB7
:1043E0007A4B94F803C0B3F90030A76AE56F0095E3
:1043F00094F857500195D4F8D050029594F8AB50EA
:104400000395D4F82451049594F8FF500595D4F8F9
:104410007851069594F85351AE46D4F8CC5107958F
:1044200094F8A751D4F87462AB46D4F82052B14640
:10443000AA4694F8FB5194F84F42DBB387421BDC49
:10444000BCF11E0F18D2012B05DD009E864213DC45
:10445000019E1E2E10D2022B05DD029E86420BDC31
:10446000039E1E2E08D2032B08DD049E864203DC29
:10447000059E1E2E01E05CE07DE07CD2042B05DD74
:10448000069E864277DCBEF11E0F74D2052B05DD39
:10449000079E86426FDCBBF11E0F6CD2062B03DD3C
:1044A000824568DC1E2D66D2072B03DD814562DC68
:1044B0001E2C60D2012A8DD13BB18F428ADABCF129
:1044C0000A0F87D2022B2DDB00E06BE000988842B8
:1044D00084DA01980A28F4D2032B23DB029888425D
:1044E000ECDA03980A28ECD2042B1BDB04988842F0
:1044F000E4DA05980A28E4D2052B13DB06988842F3
:10450000DCDABEF10A0FDCD2062B0BDB07988842FF
:10451000D4DABBF10A0FD4D2072B03DB8A45CDDAFC
:104520000A2DCED2082B3DDB8945C7DA0A2C39D3B8
:1045300042E7294C274BB4F90050B4F90260AA466F
:10454000264DB3F90030B4F90440D5E900C7AD6891
:10455000B94693B182450EDCBCF1000F0BD1012BA3
:1045600004DD864207DCB9F1000F04D1022B04DD23
:10457000844200DC0DB101202EE7012AD8D18BB195
:104580008A45D5DABCF1000FD2D1022B04DB8E4272
:10459000CEDAB9F1000FCBD1032B03DB8C42C7DAA3
:1045A000002DC5D1002017E7720400109CC0072021
:1045B00098C00720DA000010100000104C01001015
:1045C0004E01001074010010C8F0072062010010B5
:1045D00054F2072066010010A2020010040B08200C
:1045E00070B5FB480278FB48016812B141F0010147
:1045F00001E021F001010022F74C01605FF00101B0
:1046000002EB420303EB021304EB830393F83D3008
:10461000DB0706D0551C01FA05F305689D431D43D1
:1046200004E0531C056801FA03F39D43521CD2B207
:104630000560022AE4D3E94C002200BFC2EBC203AA
:1046400003EB430304EB83035B7833B1D51C01FA1E
:1046500005F305689D431D4303E0D31C01FA03F3F2
:104660009D43521CD2B205600C2AE7D32A46D94D8D
:1046700000231435EC5C34B103F10F0601FA06F4A3
:10468000A243224304E003F10F0401FA04F4A2431D
:104690005B1CDBB2062BEDD3D14D00230260EC5C3A
:1046A000012C2FD003F1190401FA04F4A2435B1C7E
:1046B000DBB2042BF3D30260836822EA0301C160FA
:1046C00044680C43C74944600D8815B124F0007458
:1046D00044604C881CB1446824F0806444608C8839
:1046E0001CB1446824F000644460C98819B1416871
:1046F00021F0805141609343D943BB4B01611B883A
:104700003BB109E003F1190601FA06F4A243224382
:10471000CDE761F001010161036941681940C0E919
:10472000011270BDF8B54FF46065284620F05CFEBC
:10473000401C04463F2800D9002421B2284620F01E
:1047400047FF40F60266304620F04EFE3F2800D07C
:10475000204601B2304620F03BFF284620F044FEC0
:104760004FF4806101EB4010054655208DF80000A4
:1047700000268DF8016052208DF802008DF803604C
:104780006946284620F0A9FF6946281D009620F0BA
:10479000A4FF964CA08B8DF80000207E8DF80100C0
:1047A000207B8DF802008DF80360694605F1080052
:1047B00020F093FF207A8DF8000020798DF8010019
:1047C00020788DF802008A48D0F880018DF8030027
:1047D000694605F10C0020F080FF41248DF800406F
:1047E0008DF801408DF802408DF80340694605F1CF
:1047F000100020F072FF8DF800408DF801408DF818
:1048000002408DF80340694605F1140020F065FF71
:104810008DF800408DF801408DF802408DF803407E
:10482000694605F1180020F058FF8DF800408DF81A
:1048300001408DF802408DF80340694605F11C00E7
:1048400020F04BFFF8BD2DE9F843684D604A203D4C
:1048500000262F154FF46061012802D000287DD07A
:1048600037E1012010708846084620F0BDFD401C4D
:1048700004463F2800D9002421B2404620F0A8FE7B
:1048800040F60269484620F0AFFD3F2800D02046A0
:1048900001B2484620F09CFE404620F0A5FD07EB03
:1048A000401750208DF800008DF8016041248DF8EC
:1048B00002408DF803606946384620F00EFF6946D5
:1048C000381D009620F009FF05F12005A88B8DF812
:1048D0000000287E8DF80100287B8DF802008DF8FD
:1048E0000360694607F1080020F0F7FE287A8DF88A
:1048F000000028798DF8010028788DF802008DF8E5
:104900000360694607F10C0020F0E7FE8DF80040D7
:104910008DF801408DF802408DF80340694607F19B
:10492000100020F0DAFE8DF800408DF801408DF87F
:1049300002408DF80340694607F1140020F0CDFED7
:104940008DF800408DF801408DF802408DF803404D
:10495000694607F1180020F0C0FE00E011E08DF874
:1049600000408DF801408DF802408DF80340694603
:1049700007F11C0020F0B1FE0023012202211DA03E
:10498000A5E014481670B046026822F001020260E9
:10499000154A12881AB1426822F0010242600846A4
:1049A00020F022FD064634464FEA070909EB44177A
:1049B0006946384620F095FD9DF8000050283ED10C
:1049C0009DF80100D8BB9DF80200412837D121E0B5
:1049D000E600001020C00720C8F0072054F207208E
:1049E00033020010D00200101601001020400240D7
:1049F00000C00F404D61696E20706F77657220694D
:104A000073206F6666000000641E00E03F24B4421D
:104A1000CCD15EE0694607F1100020F062FD9DF800
:104A2000000041280BD19DF80100412807D19DF8D5
:104A30000200412803D19DF80300412802D0002C38
:104A4000E4D0E1E705F12005A88B8DF80000287E71
:104A50008DF80100287B8DF8020044468DF8038014
:104A6000694607F1100020F038FE287A8DF8000022
:104A700028798DF8010028788DF802008DF8034020
:104A8000694607F1140020F028FEFF48422401780F
:104A90008DF8001040788DF801008DF802408DF8F7
:104AA0000340694607F1180020F017FE8DF800401A
:104AB0008DF801408DF802408DF80340694607F1FA
:104AC0001C0020F00AFE01231A460221EFA01EF06E
:104AD0007FFC00BFBDE8F8832DE9F84F05460C00C8
:104AE0004FF054060BD0012C04D0022C04D0032C20
:104AF00004D004E0552602E0752600E04C26E94982
:104B0000C5EBC503DFF898A303EB43034FF0000B9D
:104B10004FF460604FF4806901EB8301012A02D0F9
:104B2000002A7DD090E134B1012C08D0022C0AD0AB
:104B3000032C0CD00FE04A7842F001020AE04A78D8
:104B400042F0020206E04A7842F0040202E04A78AB
:104B500042F008024A7081F85340804620F044FC3D
:104B6000401C87B23F2F00D9002739B2404620F0C1
:104B70002FFD40F6026020F037FC80B23F2800D0C5
:104B8000384601B240F6026020F022FD404620F097
:104B90002BFC09EB401087B253208DF800008DF8F4
:104BA00001508DF80260D8468DF803B0694638464A
:104BB00020F093FD6946381DCDF8008020F08DFD72
:104BC000BAF83C000AF120068DF80000307E8DF81E
:104BD0000100307B8DF802008DF80380694607F1F3
:104BE000080020F07AFD307A8DF8000030798DF8D9
:104BF000010030788DF802008DF80380694607F1D6
:104C00000C0020F06AFD41268DF800608DF80160EF
:104C10008DF802608DF80360694607F1100000E02E
:104C200084E020F05AFD8DF800608DF801608DF869
:104C300002608DF80360694607F1140020F04DFD15
:104C40008DF800608DF801608DF802608DF80360CA
:104C5000694607F1180020F040FD8DF800608DF8DE
:104C600001608DF802608DF80360694607F11C0051
:104C700020F033FD25B1012D20D0022D3AD0E3E004
:104C800034B1012C09D0022C0CD0032C0FD0DBE066
:104C900000230122042184A00DE001231A460421EF
:104CA00087A008E00223012204218CA003E0032353
:104CB0000122042191A01EF08BFBC5E034B1012C30
:104CC00009D0022C0CD0032C0FD0BDE0002302220F
:104CD000042192A0EFE701230222042195A0EAE734
:104CE00002231A4604219AA0E5E7032302220421A5
:104CF0009FA0E0E734B1012C09D0022C0CD0032C8A
:104D00000FD0A1E0002303220421A1A0D3E70123B7
:104D100003220421A4A0CEE7022303220421A9A098
:104D2000C9E703231A460421AEA0C4E734B1012C1D
:104D300008D0022C0AD0032C0CD00FE04A7822F0C5
:104D400001020AE04A7822F0020206E04A7822F0E4
:104D5000040202E04A7822F008024A7020F044FB84
:104D600084B2A04609EB441087B26946384620F069
:104D7000B8FB9DF80000532824D19DF80100A842FB
:104D800020D19DF80200B0421CD1694607F1100005
:104D900020F0A7FB9DF80000412813D106E0641E17
:104DA000A4B200E03F244445DCD14DE09DF8010071
:104DB000412807D19DF80200412803D19DF8030046
:104DC000412802D0002CEDD0E9E7BAF83C000AF106
:104DD00020048DF80000207E8DF80100207B8DF8E6
:104DE00002005D468DF803B0694607F1100020F01F
:104DF00074FC207A8DF8000020798DF8010020786D
:104E00008DF802008DF80350694607F1140020F078
:104E100064FC42248DF800408DF801408DF802407A
:104E20008DF80340694607F1180020F056FC8DF814
:104E300000408DF801408DF802408DF8034069462E
:104E400007F11C0020F049FC00BFBDE8F88F2DE9F8
:104E5000FC41064600EB460000EB0611694800EBFA
:104E60008104E08B05280DD367484FF46067008804
:104E7000801D00F0070004EB4000008CADF804003A
:104E80003846C3E030E10000440400104D61696E13
:104E900020706F776572206973206F6E00000000CC
:104EA0000040024054F20720425053202331204159
:104EB0006C61726D2C206F7665726865617400009C
:104EC00042505320233120416C61726D2C20766F4B
:104ED0006C746167652069732075700042505320BF
:104EE000233120416C61726D2C20766F6C74616788
:104EF0006520697320646F776E0000004250532074
:104F0000233120416C61726D2C20636F6E6E65637E
:104F100074206973206C6F7374000000425053203A
:104F2000233220416C61726D2C206F76657268654A
:104F30006174000042505320233220416C61726D35
:104F40002C20766F6C746167652069732075700022
:104F500042505320233220416C61726D2C20766FB9
:104F60006C7461676520697320646F776E00000060
:104F700042505320233220416C61726D2C20636FAC
:104F80006E6E656374206973206C6F73740000002B
:104F900042505320233320416C61726D2C206F7678
:104FA00065726865617400004250532023332041CC
:104FB0006C61726D2C20766F6C746167652069730B
:104FC0002075700042505320233320416C61726D74
:104FD0002C20766F6C7461676520697320646F772D
:104FE0006E00000042505320233320416C61726DEB
:104FF0002C20636F6E6E656374206973206C6F7311
:1050000074000000C8F00720DA01001020F0ECF96D
:10501000401C85B23F2D00D9002529B2384620F02A
:10502000D7FA40F60268404620F0DEF980B23F2809
:1050300000D0284601B2404620F0CAFA384620F097
:10504000D3F94FF4806101EB401085B242208DF816
:1050500000008DF8016057208DF8020000268DF8C1
:1050600003606946284620F038FBA07F8DF80000D9
:10507000E07F8DF801009DF804008DF802009DF896
:1050800005008DF803006946281D20F026FB04F179
:10509000340105F1080020F020FB04F1380105F18E
:1050A0000C0020F01AFBFF4CA08B8DF80000207E36
:1050B0008DF80100207B8DF802008DF803606946B1
:1050C00005F1100020F009FB207A8DF8000020790E
:1050D0008DF8010020788DF802008DF80360694694
:1050E00005F1140020F0F9FA00BFBDE8FC812DE9BC
:1050F000F84F0646EC48DFF8AC9306EB460202EBAD
:1051000006124FF0000B4FF0420AA9F120094FF4AC
:1051100060674FF4806500EB8200012902D000290E
:105120007ED01DE110F83D1F41F0010101703846AD
:1051300020F05AF9401C84B23F2C00D9002421B23F
:10514000384620F045FA40F60268404620F04CF917
:1051500080B23F2800D0204601B2404620F038FA05
:10516000384620F041F905EB401085B28DF800A0DB
:105170008DF8016043208DF802005F468DF803B082
:105180006946284620F0A9FA6946281D009720F0B4
:10519000A4FAB9F83C0009F120048DF80000207E43
:1051A0008DF80100207B8DF802008DF803706946B0
:1051B00005F1080020F091FA207A8DF8000020799E
:1051C0008DF8010020788DF802008DF80370694693
:1051D00005F10C0020F081FA41248DF800408DF893
:1051E00001408DF802408DF80340694605F110003A
:1051F00020F073FA8DF800408DF801408DF80240E0
:105200008DF80340694605F1140020F066FA8DF828
:1052100000408DF801408DF802408DF8034000E019
:1052200021E0694605F1180020F057FA8DF800409A
:105230008DF801408DF802408DF80340694605F174
:105240001C0020F04AFA16B1012E05D088E0012397
:105250001A46052195A003E001230222052198A00A
:105260001EF0B6F87CE010F83D1F21F0010101703E
:10527000384620F0B9F887B23C46A84608EB4410FF
:1052800085B26946284620F02CF99DF80000422896
:1052900024D19DF80100B04220D19DF8020043289E
:1052A0001CD106E0641EA4B200E03F24BC42E5D15C
:1052B00056E0694605F1100020F013F99DF8000052
:1052C00041280BD19DF80100412807D19DF802002B
:1052D000412803D19DF80300412802D0002CE4D0DE
:1052E000E0E7B9F83C0009F120048DF80000207EC9
:1052F0008DF80100207B8DF802005E468DF803B02A
:10530000694605F1100020F0E8F9207A8DF80000D8
:1053100020798DF8010020788DF802008DF8036067
:10532000694605F1140020F0D8F98DF800A08DF839
:1053300001A08DF802A054468DF803A0694605F13E
:10534000180020F0CAF98DF800408DF801408DF862
:1053500002408DF80340694605F11C0020F0BDF9BC
:1053600000BF72E52DE9F84FDFF8388106464FF0AF
:10537000000A4FF04209A8F120084FF460604FF492
:105380008065012902D000297DD037E106EB460176
:1053900001EB06124449074601EB820111F83D2F4B
:1053A00042F002020A7020F01FF8401C84B23F2C29
:1053B00000D9002421B2384620F00AF940F6026BE9
:1053C000584620F011F880B23F2800D0204601B2A4
:1053D000584620F0FDF8384620F006F805EB40105E
:1053E00085B28DF800908DF8016053208DF8020091
:1053F00057468DF803A06946284620F06EF96946A5
:10540000281D009720F069F9B8F83C0008F1200445
:105410008DF80000207E8DF80100207B8DF80200C1
:105420008DF80370694605F1080020F056F9207ADE
:105430008DF8000020798DF8010020788DF80200A9
:105440008DF80370694605F10C0020F046F94124FF
:105450008DF800408DF801408DF802408DF8034032
:10546000694605F1100020F038F98DF800408DF8FC
:1054700001408DF802408DF80340694605F11400A3
:1054800020F02BF900E042E08DF800408DF801405B
:105490008DF802408DF80340694605F1180020F0B0
:1054A0001CF917E020400240C8F007204241542078
:1054B000233120416C61726D2C206C6F737400007D
:1054C00042415420233220416C61726D2C206C6F5C
:1054D000737400008DF800408DF801408DF8024093
:1054E0008DF80340694605F11C0020F0F6F816B16E
:1054F000012E05D082E0022301220521FBA003E05A
:1055000002231A460521FFA01DF062FF76E01FF07E
:105510006BFF87B23C46AB460BEB441085B2694645
:1055200028461FF0DEFF9DF80000422824D19DF898
:105530000100B04220D19DF8020043281CD106E0B2
:10554000641EA4B200E03F24BC42E5D156E06946A7
:1055500005F110001FF0C5FF9DF8000041280BD198
:105560009DF80100412807D19DF80200412803D190
:105570009DF80300412802D0002CE4D0E0E7B8F801
:105580003C0008F120048DF80000207E8DF8010019
:10559000207B8DF8020056468DF803A0694605F180
:1055A000100020F09AF8207A8DF8000020798DF80C
:1055B000010020788DF802008DF80360694605F13E
:1055C000140020F08AF88DF800908DF801908DF885
:1055D00002904C468DF80390694605F1180020F0C2
:1055E0007CF88DF800408DF801408DF802408DF870
:1055F0000340694605F11C0020F06FF800BF24E469
:10560000F3B5054600EB4500C44900EB051001EB7E
:105610008000C34983B04FF46066B1F9001000EB1D
:105620004100B0F92200019030461FF0DDFE401C21
:1056300004463F2800D9002421B230461FF0C8FF9D
:1056400040F6026738461FF0CFFE3F2800D02046C4
:1056500001B238461FF0BCFF30461FF0C5FE4FF4C4
:10566000806101EB401442208DF800008DF801505C
:105670004B208DF8020000268DF803606946204615
:1056800020F02BF89DF810008DF800009DF8110017
:105690008DF801009DF804008DF802009DF80500CA
:1056A0008DF803006946201D20F017F84FF4FC70B8
:1056B0001FF0D3FE9B4D2946286004F1080020F01E
:1056C0000CF84FF4FE701FF0C8FE6860291D04F14D
:1056D0000C0020F002F8944DA88B8DF80000287E75
:1056E0008DF80100287B8DF802008DF80360694673
:1056F00004F110001FF0F1FF287A8DF800002879DE
:105700008DF8010028788DF802008DF80360694655
:1057100004F114001FF0E1FF05B0F0BD2DE9F84FD2
:10572000814E0027203E35153C46BA464FF04209CF
:10573000012802D0002871D0FCE04FF460673846A1
:105740001FF052FE401C04463F2800D9002421B21D
:1057500038461FF03DFF40F6026840461FF044FE09
:105760003F2800D0204601B240461FF031FF3846A6
:105770001FF03AFE05EB40158DF800908DF801A062
:105780005A208DF8020054468DF803A06946284639
:105790001FF0A3FF6946281D00941FF09EFF06F12D
:1057A0002006B08B8DF80000307E8DF80100307B34
:1057B0008DF802008DF80340694605F108001FF0DE
:1057C0008CFF307A8DF8000030798DF80100307848
:1057D0008DF802008DF80340694605F10C001FF0BA
:1057E0007CFF41248DF800408DF801408DF8024087
:1057F0008DF80340694605F110001FF06EFF8DF82B
:1058000000408DF801408DF802408DF80340694654
:1058100005F114001FF061FF4EE0FFE74FEA0508B5
:1058200008EB4415694628461FF05BFE9DF8000012
:10583000422803D19DF802005A2804D0ECB3641E1C
:10584000BC42EDD176E0694605F110001FF049FE3B
:105850009DF800004128F1D19DF801004128EDD1CB
:105860009DF802004128E9D19DF803004128E5D1C7
:1058700006F12006B08B8DF80000307E8DF8010017
:10588000307B8DF8020054468DF803A0694605F17F
:1058900010001FF022FF307A8DF8000030798DF86B
:1058A000010030788DF802008DF80340694605F15B
:1058B00014001FF012FF4C4600E03DE08DF8004060
:1058C0008DF801408DF802408DF80340694605F1DE
:1058D00018001FF002FF8DF800408DF801408DF890
:1058E00002408DF80340694620E000004241542008
:1058F000233120416C61726D2C20617373696D6579
:105900007472790042415420233220416C61726DDF
:105910002C20617373696D6574727900C8F007207B
:10592000DA010010AC0000102040024005F11C001C
:105930001FF0D3FE00BF14E53F2471E7002801DA11
:10594000404200B2704710B54FF434701FF04CFD68
:10595000FF4C207040F2D2201FF046FD60704FF4E3
:1059600035701FF041FDA07040F2D6201FF03CFDC5
:10597000E0704FF436701FF037FD207240F2DA20ED
:105980001FF032FD60724FF437701FF02DFDA072D2
:1059900040F2DE201FF028FDE0724FF443701FF04C
:1059A00023FD207140F20E301FF01EFD60714FF498
:1059B00044701FF019FDA07140F212301FF014FD69
:1059C000E07110BDE34810B5016821F0E0610160AD
:1059D0004168E24AC1F30B13DF4C117824F811300F
:1059E000491CC9B21170032903D2016841F08071CA
:1059F000016010BD2DE9F0470746DDE90A090E46B2
:105A0000DDE9085A01B21446984698201FF0E0FDDF
:105A100000219A201FF0DCFD002176201FF0D8FD28
:105A20000121CA201FF0D4FD3C21C2201FF0D0FD6F
:105A300039B278201FF0CCFD04EBD470401001B2D5
:105A4000C8201FF0C5FD31B27A201FF0C1FD21B280
:105A50007C201FF0BDFD4621C6201FF0B9FD50215E
:105A60007E201FF0B5FD0FFA88F182201FF0B0FDF7
:105A7000BB2184201FF0ACFD002186201FF0A8FD73
:105A80000A2188201FF0A4FD0FFA89F1DE201FF003
:105A90009FFD29B28C201FF09BFDE8000A2190FB9E
:105AA000F1F001B28E201FF093FD0121A0201FF024
:105AB0008FFD0121A2201FF08BFD0121A4201FF0EA
:105AC00087FDA02192201FF083FD0FFA8AF1942018
:105AD0001FF07EFD032196201FF07AFD3221CC209D
