:0A00000020C1FECFFDCFFCCFFBCFE7
:10000A00FACFF9CFF8CFF7CFF8C1F5CFF4CFF3CFC6
:10001A00F2CF31C2F0CFEFCFEECFEDCF050607001A
:10002A0019001900000E1C123836242A707E6C62E0
:10003A004846545AE0EEFCF2D8D6C4CA909E8C8246
:10004A00A8A6B4BACEC0D2DCF6F8EAE4BEB0A2AC36
:10005A0086889A942E20323C16180A045E50424C26
:10006A0066687A74929C8E80AAA4B6B8E2ECFEF016
:10007A00DAD4C6C8727C6E604A445658020C1E1006
:10008A003A3426285C52404E646A78762C22303EF6
:10009A00141A0806BCB2A0AE848A9896CCC2D0DEE6
:1000AA00F4FAE8E62A243638121C0E005A54464856
:1000BA00626C7E70CAC4D6D8F2FCEEE0BAB4A6A8C6
:1000CA00828C9E90E4EAF8F6DCD2C0CE949A8886B6
:1000DA00ACA2B0BE040A18163C32202E747A6866A6
:1000EA004C42505EB8B6A4AA808E9C92C8C6D4DA96
:1000FA00F0FEECE25856444A606E7C722826343A86
:10010A00101E0C0276786A644E40525C06081A1475
:10011A003E30222C96988A84AEA0B2BCE6E8FAF465
:10012A00DED0C2CC002A547EA882FCD67A502E0495
:10013A00D2F886ACF4DEA08A5C7608228EA4DAF0C5
:10014A00260C7258C2E896BC6A403E14B892ECC6B5
:10015A00103A446E361C62489EB4CAE04C661832A5
:10016A00E4CEB09AAE84FAD0062C5278D4FE80AA95
:10017A007C5628025A700E24F2D8A68C200A745E85
:10018A0088A2DCF66C463812C4EE90BA163C426875
:10019A00BE94EAC098B2CCE6301A644EE2C8B69C65
:1001AA004A601E34765C2208DEF48AA00C26587255
:1001BA00A48EF0DA82A8D6FC2A007E54F8D2AC8645
:1001CA00507A042EB49EE0CA1C364862CEE49AB035
:1001DA00664C3218406A143EE8C2BC963A106E4425
:1001EA0092B8C6ECD8F28CA6705A240EA288F6DC15
:1001FA000A205E742C06785284AED0FA567C022805
:10020A00FED4AA801A304E64B298E6CC604A341EF4
:10021A00C8E29CB6EEC4BA90466C123894BEC0EAE4
:10022A003C16684203000902260002000C022A005A
:10023A0001000E022C000000F894EE27ECBBF1E05E
:10024A00FBBFEBBFE5BFF8E1F1BDE1BD8DE0A2E088
:10025A00BB27ED938A95E9F780E094E0A0E6ED9359
:10026A000197E9F7EEE2F2E085919591009761F046
:10027A00A591B59105901590BF01F00105900D92D9
:10028A000197E1F7FB01F0CFEFE5EDBFE4E0EEBF48
:10029A00C0E6D1E083C2E5E0E3BFE9EDE2BFE9B73A
:1002AA00E160E9BF0895B7D2BED250F4C0D2EF934D
:1002BA00AEE2B0E0C5D2E491AF91C7D2C9D2F4CFD1
:1002CA00EA810EC0A8D2AFD250F4B1D2EF93AEE217
:1002DA00B1E0B6D2E491AF91B8D2BAD2F4CFEA8102
:1002EA0026960895E091FA01E0931202E091FB014B
:1002FA00E0931302E091FC01E0931402E091FD0106
:10030A00E0931502E091FE01E0931602E091FF01ED
:10031A00E0931702A8E1B2E0E0910C02F0910D021D
:10032A00EC939AD2E7E0EA93BEDFE093190294D203
:10033A00E8E0EA93C7DFE0931A02EAE0E0931B02DF
:10034A0008958FD231F0AFE0B2E08FD28AD209F4A9
:10035A0090D2E0911002E03069F0A0E1B2E085D2DB
:10036A00E0911002E03031F4E0E0F0E0E093FC01CB
:10037A00F093FD01E0911102E03069F0A1E1B2E0F1
:10038A0074D2E0911102E03031F4E0E0F0E0E09361
:10039A00FE01F093FF0108958B988C9AE7B3EF6002
:1003AA00E7BB44FE0FC0E89444F8E0912002EF5FF7
:1003BA00E0932002A0912002AC3018F0E0E0E09334
:1003CA00200202C0689444F844FC06C059D2EF9354
:1003DA005AD2EF70AF9106C053D2EF9354D2E2953E
:1003EA00EF70AF91EA2BE8BB0000000000000000AC
:1003FA0044FAE2B3E4F9E2BB08950A921A92FA9235
:10040A006A937A938A939A93AA93BA93EA93FA93FA
:10041A00EFB7EA9340DFE1E02E2620FE1EC0689483
:10042A0021F85394EAE05E1618F05524689422F8ED
:10043A006394E4E16E1618F06624689423F87394C2
:10044A00E2E37E1618F07724689424F88394E4E6AD
:10045A008E1618F08824689425F8E991EFBFF9916F
:10046A00E991B991A9919991899179916991F990B3
:10047A001990099018950A921A929A93AA93BA9384
:10048A00EA93FA93EFB7EA93E4B1F5B1E09306027F
:10049A00F0930702A0912302AF5FA0932302E2E048
:1004AA00EA1718F4E0E0E0932302E0912302E05C0B
:1004BA00E7B9369AA0912302A13009F05CC0EAD1CB
:1004CA0010F427FE01C003C0689427F8ECD1F1D1DB
:1004DA0010F427FC01C002C0E89427F8F2D160F4B6
:1004EA00E0910602F0910702AE0EBF1E689432F840
:1004FA00EAE0E0930F023FC0E4D110F032FC01C001
:10050A003AC0E89432F8E0910302E4D1EA0FFB1F03
:10051A00FF93EF93AA2DBB2DE3D1AF91BF9135D2B3
:10052A00AA24BB24A0910302AF5FA0930302A931BE
:10053A0010F1DAD1E09303029CD1D9D1DBD198F43E
:10054A00AAEFB1E0BF93AF931CD2FF93EF93E88178
:10055A00C1D1D3D1AF91BF91EA0FFB1FAF91BF9128
:10056A0014D2CFD1EBCFAAEFB1E0BF93AF93CDD1E5
:10057A00AF91BF91D0D1A0912302A23009F08BC0D4
:10058A0089D110F430FE01C02AC0689430F88BD1AA
:10059A00E0910802E0930902A0910802A23081F4D6
:1005AA00BDD16CF4E0910C02F0910D023196E0930A
:1005BA000C02F0930D02B2D114F0689437F80FC010
:1005CA00B5D169F0E0910C02F0910D023197E093F8
:1005DA000C02F0930D02AAD111F4E89437F869D10C
:1005EA0010F430FC01C002C0E89430F86AD160F41B
:1005FA00E0910602F0910702CE0EDF1EEAE0E093D8
:10060A001002689433F847C097D110F033FC01C048
:10061A0042C0E89433F8A4E9B1E0E091040295D12C
:10062A00EA0FFB1FFF93EF93AC2DBD2D59D1AF916C
:10063A00BF91ABD1CC24DD24A0910402AF5FA0937B
:10064A000402A93140F150D1E0930402E0E0F0E065
:10065A00E093FC01F093FD014AD14CD1A0F4ACEF38
:10066A00B1E0BF93AF938DD1FF93EF93A4E9B1E0CB
:10067A0070D143D1AF91BF91EA0FFB1FAF91BF91E8
:10068A0084D13FD1EACFACEFB1E0BF93AF933DD174
:10069A00AF91BF9140D1E0912302E03009F073C0DD
:1006AA00F9D010F431FE01C005C0689431F8E0E0D9
:1006BA00E0930802FED010F431FC01C002C0E894B5
:1006CA0031F83AD1A0F4E0910602F0910702A09124
:1006DA006001B0916101EA0FFB1FE0936001F093A2
:1006EA006101EAE0E0931102689434F84CC024D125
:1006FA0010F034FC01C047C0E89434F8A6ECB1E02D
:10070A00E091050222D1EA0FFB1FFF93EF93A0911C
:10071A006001B0916101E4D0AF91BF9136D1E0E0C0
:10072A00E0936001E0936101A0910502AF5FA0939D
:10073A000502A93140F1D8D0E0930502E0E0F0E0EB
:10074A00E093FE01F093FF01D2D0D4D0A0F4AEEF33
:10075A00B1E0BF93AF9315D1FF93EF93A6ECB1E04D
:10076A00F8D0CBD0AF91BF91EA0FFB1FAF91BF91E9
:10077A000CD1C7D0EACFAEEFB1E0BF93AF93C5D0EB
:10078A00AF91BF91C8D07894E991EFBFF991E991FF
:10079A00B991A9919991199009901895E0E0EBB94E
:1007AA00EAB9D9D0D8D0E0E0E9B9E5BBE4BBE2BB0D
:1007BA00E2E0E1BBE0E0E2BDE3BDE3E4E7B9EFEC90
:1007CA00E6B969DDECE1E1BDECE0E1BD789421FE3A
:1007DA0005C0E89421F8B5DD85DDDEDD22FE02C024
:1007EA00E89422F823FE02C0E89423F824FE02C00B
:1007FA00E89424F825FE02C0E89425F8A895E7CFE6
:10080A00FFCF5F9BFECFECB108955D9BFECFE881E1
:10081A00ECB9219608952397AC81BD81EC91EA83C6
:10082A00E1E0E9830895EB81A981AE170895EC818F
:10083A00FD813196EC83FD83AC81BD81EC910895F5
:10084A00EA81F0E0EA0FFB1F0895EA27EA83089598
:10085A00E981EF5FE9830895E2E1F2E0FA93EA932E
:10086A000895E0910F02E0300895EC91E150EC9385
:10087A000895E0E0F0E0E093FA01F093FB010895B7
:10088A00E8B3E07F0895E0912002F0E0EE5EFD4FCC
:10089A00E0810895A0910602B0910702E4E6F0E033
:1008AA00EA17FB070895E0910802EF5FE093080258
:1008BA000895A0910602B0910702A436E0E0BE07AF
:1008CA000895A0910602B0910702EAE0F0E0EA1763
:1008DA00FB070895A2E6B1E0F0E0EE0FFF1F0895CE
:1008EA00EAE0F0E03BD008952197E0E00895E0E0E7
:1008FA00E8830895A881A9310895AE0FBF1F41D09A
:10090A000895E881EF5FE88308953BD0DF01E9E1CC
:10091A00F0E024D0089539D021960895A0910C02D0
:10092A00B0910D02A233E0E0BE070895E0910C02F7
:10093A00F0910D0230970895A0910602B091070236
:10094A00EEE1F0E0EA17FB070895F0E0EE0FFF1F73
:10095A000895E881FACFE0E0E0BD0895002411246B
:10096A0090E1AA0FBB1F001C111C0E1A1F0A18F4D3
:10097A000E0E1F1E01C0A1609A9599F7FD01D001C4
:10098A000895ED91FC9111970895ED93FC930895C4
:00000001FF
