:020000020000FC
:060000000C9497200C9403
:1000060000000C9400000C9400000C9400000C946A
:1000160000000C9400000C9400000C9400000C945A
:1000260000000C94EB770C9400000C9400000C94E8
:1000360000000C9400000C9400000C94FA770C94C9
:1000460000000C9468290C9400000C94A2290C94CE
:1000560000000C9400000C9400000C9400000C941A
:1000660000000C9400000C9400000C9400000C940A
:1000760000000C9400000C9400000C9400000C94FA
:1000860000000C940000002A547EA882FCD67A5008
:100096002E04D2F886ACF4DEA08A5C7608228EA402
:1000A600DAF0260C7258C2E896BC6A403E14B89242
:1000B600ECC6103A446E361C62489EB4CAE04C66E2
:1000C6001832E4CEB09AAE84FAD0062C5278D4FE1A
:1000D60080AA7C5628025A700E24F2D8A68C200AD2
:1000E600745E88A2DCF66C463812C4EE90BA163CF2
:1000F6004268BE94EAC098B2CCE6301A644EE2C8B2
:10010600B69C4A601E34765C2208DEF48AA00C2671
:100116005872A48EF0DA82A8D6FC2A007E54F8D251
:10012600AC86507A042EB49EE0CA1C364862CEE4F1
:100136009AB0664C3218406A143EE8C2BC963A1031
:100146006E4492B8C6ECD8F28CA6705A240EA288D9
:10015600F6DC0A205E742C06785284AED0FA567C01
:100166000228FED4AA801A304E64B298E6CC604AC1
:10017600341EC8E29CB6EEC4BA90466C123894BEE1
:10018600C0EA3C166842000E1C123836242A707EDD
:100196006C624846545AE0EEFCF2D8D6C4CA909E29
:1001A6008C82A8A6B4BACEC0D2DCF6F8EAE4BEB019
:1001B600A2AC86889A942E20323C16180A045E5009
:1001C600424C66687A74929C8E80AAA4B6B8E2EC19
:1001D600FEF0DAD4C6C8727C6E604A445658020CE9
:1001E6001E103A3426285C52404E646A78762C22D9
:1001F600303E141A0806BCB2A0AE848A9896CCC2C9
:10020600D0DEF4FAE8E62A243638121C0E005A54D8
:100216004648626C7E70CAC4D6D8F2FCEEE0BAB428
:10022600A6A8828C9E90E4EAF8F6DCD2C0CE949A18
:100236008886ACA2B0BE040A18163C32202E747A08
:1002460068664C42505EB8B6A4AA808E9C92C8C618
:10025600D4DAF0FEECE25856444A606E7C722826E8
:10026600343A101E0C0276786A644E40525C0608D8
:100276001A143E30222C96988A84AEA0B2BCE6E8C8
:10028600FAF4DED0C2CC000E1C123836242A707E58
:100296006C624846545AE0EEFCF2D8D6C4CA909E28
:1002A6008C82A8A6B4BACEC0D2DCF6F8EAE4BEB018
:1002B600A2AC86889A942E20323C16180A045E5008
:1002C600424C66687A74929C8E80AAA4B6B8E2EC18
:1002D600FEF0DAD4C6C8727C6E604A445658020CE8
:1002E6001E103A3426285C52404E646A78762C22D8
:1002F600303E141A0806BCB2A0AE848A9896CCC2C8
:10030600D0DEF4FAE8E62A243638121C0E005A54D7
:100316004648626C7E70CAC4D6D8F2FCEEE0BAB427
:10032600A6A8828C9E90E4EAF8F6DCD2C0CE949A17
:100336008886ACA2B0BE040A18163C32202E747A07
:1003460068664C42505EB8B6A4AA808E9C92C8C617
:10035600D4DAF0FEECE25856444A606E7C722826E7
:10036600343A101E0C0276786A644E40525C0608D7
:100376001A143E30222C96988A84AEA0B2BCE6E8C7
:10038600FAF4DED0C2CC000E1C123836242A707E57
:100396006C624846545AE0EEFCF2D8D6C4CA909E27
:1003A6008C82A8A6B4BACEC0D2DCF6F8EAE4BEB017
:1003B600A2AC86889A942E20323C16180A045E5007
:1003C600424C66687A74929C8E80AAA4B6B8E2EC17
:1003D600FEF0DAD4C6C8727C6E604A445658020CE7
:1003E6001E103A3426285C52404E646A78762C22D7
:1003F600303E141A0806BCB2A0AE848A9896CCC2C7
:10040600D0DEF4FAE8E62A243638121C0E005A54D6
:100416004648626C7E70CAC4D6D8F2FCEEE0BAB426
:10042600A6A8828C9E90E4EAF8F6DCD2C0CE949A16
:100436008886ACA2B0BE040A18163C32202E747A06
:1004460068664C42505EB8B6A4AA808E9C92C8C616
:10045600D4DAF0FEECE25856444A606E7C722826E6
:10046600343A101E0C0276786A644E40525C0608D6
:100476001A143E30222C96988A84AEA0B2BCE6E8C6
:10048600FAF4DED0C2CC000E1C123836242A707E56
:100496006C624846545AE0EEFCF2D8D6C4CA909E26
:1004A6008C82A8A6B4BACEC0D2DCF6F8EAE4BEB016
:1004B600A2AC86889A942E20323C16180A045E5006
:1004C600424C66687A74929C8E80AAA4B6B8E2EC16
:1004D600FEF0DAD4C6C8727C6E604A445658020CE6
:1004E6001E103A3426285C52404E646A78762C22D6
:1004F600303E141A0806BCB2A0AE848A9896CCC2C6
:10050600D0DEF4FAE8E62A243638121C0E005A54D5
:100516004648626C7E70CAC4D6D8F2FCEEE0BAB425
:10052600A6A8828C9E90E4EAF8F6DCD2C0CE949A15
:100536008886ACA2B0BE040A18163C32202E747A05
:1005460068664C42505EB8B6A4AA808E9C92C8C615
:10055600D4DAF0FEECE25856444A606E7C722826E5
:10056600343A101E0C0276786A644E40525C0608D5
:100576001A143E30222C96988A84AEA0B2BCE6E8C5
:10058600FAF4DED0C2CC000E1C123836242A707E55
:100596006C624846545AE0EEFCF2D8D6C4CA909E25
:1005A6008C82A8A6B4BACEC0D2DCF6F8EAE4BEB015
:1005B600A2AC86889A942E20323C16180A045E5005
:1005C600424C66687A74929C8E80AAA4B6B8E2EC15
:1005D600FEF0DAD4C6C8727C6E604A445658020CE5
:1005E6001E103A3426285C52404E646A78762C22D5
:1005F600303E141A0806BCB2A0AE848A9896CCC2C5
:10060600D0DEF4FAE8E62A243638121C0E005A54D4
:100616004648626C7E70CAC4D6D8F2FCEEE0BAB424
:10062600A6A8828C9E90E4EAF8F6DCD2C0CE949A14
:100636008886ACA2B0BE040A18163C32202E747A04
:1006460068664C42505EB8B6A4AA808E9C92C8C614
:10065600D4DAF0FEECE25856444A606E7C722826E4
:10066600343A101E0C0276786A644E40525C0608D4
:100676001A143E30222C96988A84AEA0B2BCE6E8C4
:10068600FAF4DED0C2CC000E1C123836242A707E54
:100696006C624846545AE0EEFCF2D8D6C4CA909E24
:1006A6008C82A8A6B4BACEC0D2DCF6F8EAE4BEB014
:1006B600A2AC86889A942E20323C16180A045E5004
:1006C600424C66687A74929C8E80AAA4B6B8E2EC14
:1006D600FEF0DAD4C6C8727C6E604A445658020CE4
:1006E6001E103A3426285C52404E646A78762C22D4
:1006F600303E141A0806BCB2A0AE848A9896CCC2C4
:10070600D0DEF4FAE8E62A243638121C0E005A54D3
:100716004648626C7E70CAC4D6D8F2FCEEE0BAB423
:10072600A6A8828C9E90E4EAF8F6DCD2C0CE949A13
:100736008886ACA2B0BE040A18163C32202E747A03
:1007460068664C42505EB8B6A4AA808E9C92C8C613
:10075600D4DAF0FEECE25856444A606E7C722826E3
:10076600343A101E0C0276786A644E40525C0608D3
:100776001A143E30222C96988A84AEA0B2BCE6E8C3
:10078600FAF4DED0C2CC000E1C123836242A707E53
:100796006C624846545AE0EEFCF2D8D6C4CA909E23
:1007A6008C82A8A6B4BACEC0D2DCF6F8EAE4BEB013
:1007B600A2AC86889A942E20323C16180A045E5003
:1007C600424C66687A74929C8E80AAA4B6B8E2EC13
:1007D600FEF0DAD4C6C8727C6E604A445658020CE3
:1007E6001E103A3426285C52404E646A78762C22D3
:1007F600303E141A0806BCB2A0AE848A9896CCC2C3
:10080600D0DEF4FAE8E62A243638121C0E005A54D2
:100816004648626C7E70CAC4D6D8F2FCEEE0BAB422
:10082600A6A8828C9E90E4EAF8F6DCD2C0CE949A12
:100836008886ACA2B0BE040A18163C32202E747A02
:1008460068664C42505EB8B6A4AA808E9C92C8C612
:10085600D4DAF0FEECE25856444A606E7C722826E2
:10086600343A101E0C0276786A644E40525C0608D2
:100876001A143E30222C96988A84AEA0B2BCE6E8C2
:10088600FAF4DED0C2CC000E1C123836242A707E52
:100896006C624846545AE0EEFCF2D8D6C4CA909E22
:1008A6008C82A8A6B4BACEC0D2DCF6F8EAE4BEB012
:1008B600A2AC86889A942E20323C16180A045E5002
:1008C600424C66687A74929C8E80AAA4B6B8E2EC12
:1008D600FEF0DAD4C6C8727C6E604A445658020CE2
:1008E6001E103A3426285C52404E646A78762C22D2
:1008F600303E141A0806BCB2A0AE848A9896CCC2C2
:10090600D0DEF4FAE8E62A243638121C0E005A54D1
:100916004648626C7E70CAC4D6D8F2FCEEE0BAB421
:10092600A6A8828C9E90E4EAF8F6DCD2C0CE949A11
:100936008886ACA2B0BE040A18163C32202E747A01
:1009460068664C42505EB8B6A4AA808E9C92C8C611
:10095600D4DAF0FEECE25856444A606E7C722826E1
:10096600343A101E0C0276786A644E40525C0608D1
:100976001A143E30222C96988A84AEA0B2BCE6E8C1
:10098600FAF4DED0C2CC000E1C123836242A707E51
:100996006C624846545AE0EEFCF2D8D6C4CA909E21
:1009A6008C82A8A6B4BACEC0D2DCF6F8EAE4BEB011
:1009B600A2AC86889A942E20323C16180A045E5001
:1009C600424C66687A74929C8E80AAA4B6B8E2EC11
:1009D600FEF0DAD4C6C8727C6E604A445658020CE1
:1009E6001E103A3426285C52404E646A78762C22D1
:1009F600303E141A0806BCB2A0AE848A9896CCC2C1
:100A0600D0DEF4FAE8E62A243638121C0E005A54D0
:100A16004648626C7E70CAC4D6D8F2FCEEE0BAB420
:100A2600A6A8828C9E90E4EAF8F6DCD2C0CE949A10
:100A36008886ACA2B0BE040A18163C32202E747A00
:100A460068664C42505EB8B6A4AA808E9C92C8C610
:100A5600D4DAF0FEECE25856444A606E7C722826E0
:100A6600343A101E0C0276786A644E40525C0608D0
:100A76001A143E30222C96988A84AEA0B2BCE6E8C0
:100A8600FAF4DED0C2CC000E1C123836242A707E50
:100A96006C624846545AE0EEFCF2D8D6C4CA909E20
:100AA6008C82A8A6B4BACEC0D2DCF6F8EAE4BEB010
:100AB600A2AC86889A942E20323C16180A045E5000
:100AC600424C66687A74929C8E80AAA4B6B8E2EC10
:100AD600FEF0DAD4C6C8727C6E604A445658020CE0
:100AE6001E103A3426285C52404E646A78762C22D0
:100AF600303E141A0806BCB2A0AE848A9896CCC2C0
:100B0600D0DEF4FAE8E62A243638121C0E005A54CF
:100B16004648626C7E70CAC4D6D8F2FCEEE0BAB41F
:100B2600A6A8828C9E90E4EAF8F6DCD2C0CE949A0F
:100B36008886ACA2B0BE040A18163C32202E747AFF
:100B460068664C42505EB8B6A4AA808E9C92C8C60F
:100B5600D4DAF0FEECE25856444A606E7C722826DF
:100B6600343A101E0C0276786A644E40525C0608CF
:100B76001A143E30222C96988A84AEA0B2BCE6E8BF
:100B8600FAF4DED0C2CC000E1C123836242A707E4F
:100B96006C624846545AE0EEFCF2D8D6C4CA909E1F
:100BA6008C82A8A6B4BACEC0D2DCF6F8EAE4BEB00F
:100BB600A2AC86889A942E20323C16180A045E50FF
:100BC600424C66687A74929C8E80AAA4B6B8E2EC0F
:100BD600FEF0DAD4C6C8727C6E604A445658020CDF
:100BE6001E103A3426285C52404E646A78762C22CF
:100BF600303E141A0806BCB2A0AE848A9896CCC2BF
:100C0600D0DEF4FAE8E62A243638121C0E005A54CE
:100C16004648626C7E70CAC4D6D8F2FCEEE0BAB41E
:100C2600A6A8828C9E90E4EAF8F6DCD2C0CE949A0E
:100C36008886ACA2B0BE040A18163C32202E747AFE
:100C460068664C42505EB8B6A4AA808E9C92C8C60E
:100C5600D4DAF0FEECE25856444A606E7C722826DE
:100C6600343A101E0C0276786A644E40525C0608CE
:100C76001A143E30222C96988A84AEA0B2BCE6E8BE
:100C8600FAF4DED0C2CC000E1C123836242A707E4E
:100C96006C624846545AE0EEFCF2D8D6C4CA909E1E
:100CA6008C82A8A6B4BACEC0D2DCF6F8EAE4BEB00E
:100CB600A2AC86889A942E20323C16180A045E50FE
:100CC600424C66687A74929C8E80AAA4B6B8E2EC0E
:100CD600FEF0DAD4C6C8727C6E604A445658020CDE
:100CE6001E103A3426285C52404E646A78762C22CE
:100CF600303E141A0806BCB2A0AE848A9896CCC2BE
:100D0600D0DEF4FAE8E62A243638121C0E005A54CD
:100D16004648626C7E70CAC4D6D8F2FCEEE0BAB41D
:100D2600A6A8828C9E90E4EAF8F6DCD2C0CE949A0D
:100D36008886ACA2B0BE040A18163C32202E747AFD
:100D460068664C42505EB8B6A4AA808E9C92C8C60D
:100D5600D4DAF0FEECE25856444A606E7C722826DD
:100D6600343A101E0C0276786A644E40525C0608CD
:100D76001A143E30222C96988A84AEA0B2BCE6E8BD
:100D8600FAF4DED0C2CC000E1C123836242A707E4D
:100D96006C624846545AE0EEFCF2D8D6C4CA909E1D
:100DA6008C82A8A6B4BACEC0D2DCF6F8EAE4BEB00D
:100DB600A2AC86889A942E20323C16180A045E50FD
:100DC600424C66687A74929C8E80AAA4B6B8E2EC0D
:100DD600FEF0DAD4C6C8727C6E604A445658020CDD
:100DE6001E103A3426285C52404E646A78762C22CD
:100DF600303E141A0806BCB2A0AE848A9896CCC2BD
:100E0600D0DEF4FAE8E62A243638121C0E005A54CC
:100E16004648626C7E70CAC4D6D8F2FCEEE0BAB41C
:100E2600A6A8828C9E90E4EAF8F6DCD2C0CE949A0C
:100E36008886ACA2B0BE040A18163C32202E747AFC
:100E460068664C42505EB8B6A4AA808E9C92C8C60C
:100E5600D4DAF0FEECE25856444A606E7C722826DC
:100E6600343A101E0C0276786A644E40525C0608CC
:100E76001A143E30222C96988A84AEA0B2BCE6E8BC
:100E8600FAF4DED0C2CC000E1C123836242A707E4C
:100E96006C624846545AE0EEFCF2D8D6C4CA909E1C
:100EA6008C82A8A6B4BACEC0D2DCF6F8EAE4BEB00C
:100EB600A2AC86889A942E20323C16180A045E50FC
:100EC600424C66687A74929C8E80AAA4B6B8E2EC0C
:100ED600FEF0DAD4C6C8727C6E604A445658020CDC
:100EE6001E103A3426285C52404E646A78762C22CC
:100EF600303E141A0806BCB2A0AE848A9896CCC2BC
:100F0600D0DEF4FAE8E62A243638121C0E005A54CB
:100F16004648626C7E70CAC4D6D8F2FCEEE0BAB41B
:100F2600A6A8828C9E90E4EAF8F6DCD2C0CE949A0B
:100F36008886ACA2B0BE040A18163C32202E747AFB
:100F460068664C42505EB8B6A4AA808E9C92C8C60B
:100F5600D4DAF0FEECE25856444A606E7C722826DB
:100F6600343A101E0C0276786A644E40525C0608CB
:100F76001A143E30222C96988A84AEA0B2BCE6E8BB
:100F8600FAF4DED0C2CC000E1C123836242A707E4B
:100F96006C624846545AE0EEFCF2D8D6C4CA909E1B
:100FA6008C82A8A6B4BACEC0D2DCF6F8EAE4BEB00B
:100FB600A2AC86889A942E20323C16180A045E50FB
:100FC600424C66687A74929C8E80AAA4B6B8E2EC0B
:100FD600FEF0DAD4C6C8727C6E604A445658020CDB
:100FE6001E103A3426285C52404E646A78762C22CB
:100FF600303E141A0806BCB2A0AE848A9896CCC2BB
:10100600D0DEF4FAE8E62A243638121C0E005A54CA
:101016004648626C7E70CAC4D6D8F2FCEEE0BAB41A
:10102600A6A8828C9E90E4EAF8F6DCD2C0CE949A0A
:101036008886ACA2B0BE040A18163C32202E747AFA
:1010460068664C42505EB8B6A4AA808E9C92C8C60A
:10105600D4DAF0FEECE25856444A606E7C722826DA
:10106600343A101E0C0276786A644E40525C0608CA
:101076001A143E30222C96988A84AEA0B2BCE6E8BA
:10108600FAF4DED0C2CC000E1C123836242A707E4A
:101096006C624846545AE0EEFCF2D8D6C4CA909E1A
:1010A6008C82A8A6B4BACEC0D2DCF6F8EAE4BEB00A
:1010B600A2AC86889A942E20323C16180A045E50FA
:1010C600424C66687A74929C8E80AAA4B6B8E2EC0A
:1010D600FEF0DAD4C6C8727C6E604A445658020CDA
:1010E6001E103A3426285C52404E646A78762C22CA
:1010F600303E141A0806BCB2A0AE848A9896CCC2BA
:10110600D0DEF4FAE8E62A243638121C0E005A54C9
:101116004648626C7E70CAC4D6D8F2FCEEE0BAB419
:10112600A6A8828C9E90E4EAF8F6DCD2C0CE949A09
:101136008886ACA2B0BE040A18163C32202E747AF9
:1011460068664C42505EB8B6A4AA808E9C92C8C609
:10115600D4DAF0FEECE25856444A606E7C722826D9
:10116600343A101E0C0276786A644E40525C0608C9
:101176001A143E30222C96988A84AEA0B2BCE6E8B9
:10118600FAF4DED0C2CC000E1C123836242A707E49
:101196006C624846545AE0EEFCF2D8D6C4CA909E19
:1011A6008C82A8A6B4BACEC0D2DCF6F8EAE4BEB009
:1011B600A2AC86889A942E20323C16180A045E50F9
:1011C600424C66687A74929C8E80AAA4B6B8E2EC09
:1011D600FEF0DAD4C6C8727C6E604A445658020CD9
:1011E6001E103A3426285C52404E646A78762C22C9
:1011F600303E141A0806BCB2A0AE848A9896CCC2B9
:10120600D0DEF4FAE8E62A243638121C0E005A54C8
:101216004648626C7E70CAC4D6D8F2FCEEE0BAB418
:10122600A6A8828C9E90E4EAF8F6DCD2C0CE949A08
:101236008886ACA2B0BE040A18163C32202E747AF8
:1012460068664C42505EB8B6A4AA808E9C92C8C608
:10125600D4DAF0FEECE25856444A606E7C722826D8
:10126600343A101E0C0276786A644E40525C0608C8
:101276001A143E30222C96988A84AEA0B2BCE6E8B8
:10128600FAF4DED0C2CC000E1C123836242A707E48
:101296006C624846545AE0EEFCF2D8D6C4CA909E18
:1012A6008C82A8A6B4BACEC0D2DCF6F8EAE4BEB008
:1012B600A2AC86889A942E20323C16180A045E50F8
:1012C600424C66687A74929C8E80AAA4B6B8E2EC08
:1012D600FEF0DAD4C6C8727C6E604A445658020CD8
:1012E6001E103A3426285C52404E646A78762C22C8
:1012F600303E141A0806BCB2A0AE848A9896CCC2B8
:10130600D0DEF4FAE8E62A243638121C0E005A54C7
:101316004648626C7E70CAC4D6D8F2FCEEE0BAB417
:10132600A6A8828C9E90E4EAF8F6DCD2C0CE949A07
:101336008886ACA2B0BE040A18163C32202E747AF7
:1013460068664C42505EB8B6A4AA808E9C92C8C607
:10135600D4DAF0FEECE25856444A606E7C722826D7
:10136600343A101E0C0276786A644E40525C0608C7
:101376001A143E30222C96988A84AEA0B2BCE6E8B7
:10138600FAF4DED0C2CC000E1C123836242A707E47
:101396006C624846545AE0EEFCF2D8D6C4CA909E17
:1013A6008C82A8A6B4BACEC0D2DCF6F8EAE4BEB007
:1013B600A2AC86889A942E20323C16180A045E50F7
:1013C600424C66687A74929C8E80AAA4B6B8E2EC07
:1013D600FEF0DAD4C6C8727C6E604A445658020CD7
:1013E6001E103A3426285C52404E646A78762C22C7
:1013F600303E141A0806BCB2A0AE848A9896CCC2B7
:10140600D0DEF4FAE8E62A243638121C0E005A54C6
:101416004648626C7E70CAC4D6D8F2FCEEE0BAB416
:10142600A6A8828C9E90E4EAF8F6DCD2C0CE949A06
:101436008886ACA2B0BE040A18163C32202E747AF6
:1014460068664C42505EB8B6A4AA808E9C92C8C606
:10145600D4DAF0FEECE25856444A606E7C722826D6
:10146600343A101E0C0276786A644E40525C0608C6
:101476001A143E30222C96988A84AEA0B2BCE6E8B6
:10148600FAF4DED0C2CC000E1C123836242A707E46
:101496006C624846545AE0EEFCF2D8D6C4CA909E16
:1014A6008C82A8A6B4BACEC0D2DCF6F8EAE4BEB006
:1014B600A2AC86889A942E20323C16180A045E50F6
:1014C600424C66687A74929C8E80AAA4B6B8E2EC06
:1014D600FEF0DAD4C6C8727C6E604A445658020CD6
:1014E6001E103A3426285C52404E646A78762C22C6
:1014F600303E141A0806BCB2A0AE848A9896CCC2B6
:10150600D0DEF4FAE8E62A243638121C0E005A54C5
:101516004648626C7E70CAC4D6D8F2FCEEE0BAB415
:10152600A6A8828C9E90E4EAF8F6DCD2C0CE949A05
:101536008886ACA2B0BE040A18163C32202E747AF5
:1015460068664C42505EB8B6A4AA808E9C92C8C605
:10155600D4DAF0FEECE25856444A606E7C722826D5
:10156600343A101E0C0276786A644E40525C0608C5
:101576001A143E30222C96988A84AEA0B2BCE6E8B5
:10158600FAF4DED0C2CC000E1C123836242A707E45
:101596006C624846545AE0EEFCF2D8D6C4CA909E15
:1015A6008C82A8A6B4BACEC0D2DCF6F8EAE4BEB005
:1015B600A2AC86889A942E20323C16180A045E50F5
:1015C600424C66687A74929C8E80AAA4B6B8E2EC05
:1015D600FEF0DAD4C6C8727C6E604A445658020CD5
:1015E6001E103A3426285C52404E646A78762C22C5
:1015F600303E141A0806BCB2A0AE848A9896CCC2B5
:10160600D0DEF4FAE8E62A243638121C0E005A54C4
:101616004648626C7E70CAC4D6D8F2FCEEE0BAB414
:10162600A6A8828C9E90E4EAF8F6DCD2C0CE949A04
:101636008886ACA2B0BE040A18163C32202E747AF4
:1016460068664C42505EB8B6A4AA808E9C92C8C604
:10165600D4DAF0FEECE25856444A606E7C722826D4
:10166600343A101E0C0276786A644E40525C0608C4
:101676001A143E30222C96988A84AEA0B2BCE6E8B4
:10168600FAF4DED0C2CC000E1C123836242A707E44
:101696006C624846545AE0EEFCF2D8D6C4CA909E14
:1016A6008C82A8A6B4BACEC0D2DCF6F8EAE4BEB004
:1016B600A2AC86889A942E20323C16180A045E50F4
:1016C600424C66687A74929C8E80AAA4B6B8E2EC04
:1016D600FEF0DAD4C6C8727C6E604A445658020CD4
:1016E6001E103A3426285C52404E646A78762C22C4
:1016F600303E141A0806BCB2A0AE848A9896CCC2B4
:10170600D0DEF4FAE8E62A243638121C0E005A54C3
:101716004648626C7E70CAC4D6D8F2FCEEE0BAB413
:10172600A6A8828C9E90E4EAF8F6DCD2C0CE949A03
:101736008886ACA2B0BE040A18163C32202E747AF3
:1017460068664C42505EB8B6A4AA808E9C92C8C603
:10175600D4DAF0FEECE25856444A606E7C722826D3
:10176600343A101E0C0276786A644E40525C0608C3
:101776001A143E30222C96988A84AEA0B2BCE6E8B3
:10178600FAF4DED0C2CC000E1C123836242A707E43
:101796006C624846545AE0EEFCF2D8D6C4CA909E13
:1017A6008C82A8A6B4BACEC0D2DCF6F8EAE4BEB003
:1017B600A2AC86889A942E20323C16180A045E50F3
:1017C600424C66687A74929C8E80AAA4B6B8E2EC03
:1017D600FEF0DAD4C6C8727C6E604A445658020CD3
:1017E6001E103A3426285C52404E646A78762C22C3
:1017F600303E141A0806BCB2A0AE848A9896CCC2B3
:10180600D0DEF4FAE8E62A243638121C0E005A54C2
:101816004648626C7E70CAC4D6D8F2FCEEE0BAB412
:10182600A6A8828C9E90E4EAF8F6DCD2C0CE949A02
:101836008886ACA2B0BE040A18163C32202E747AF2
:1018460068664C42505EB8B6A4AA808E9C92C8C602
:10185600D4DAF0FEECE25856444A606E7C722826D2
:10186600343A101E0C0276786A644E40525C0608C2
:101876001A143E30222C96988A84AEA0B2BCE6E8B2
:10188600FAF4DED0C2CC000E1C123836242A707E42
:101896006C624846545AE0EEFCF2D8D6C4CA909E12
:1018A6008C82A8A6B4BACEC0D2DCF6F8EAE4BEB002
:1018B600A2AC86889A942E20323C16180A045E50F2
:1018C600424C66687A74929C8E80AAA4B6B8E2EC02
:1018D600FEF0DAD4C6C8727C6E604A445658020CD2
:1018E6001E103A3426285C52404E646A78762C22C2
:1018F600303E141A0806BCB2A0AE848A9896CCC2B2
:10190600D0DEF4FAE8E62A243638121C0E005A54C1
:101916004648626C7E70CAC4D6D8F2FCEEE0BAB411
:10192600A6A8828C9E90E4EAF8F6DCD2C0CE949A01
:101936008886ACA2B0BE040A18163C32202E747AF1
:1019460068664C42505EB8B6A4AA808E9C92C8C601
:10195600D4DAF0FEECE25856444A606E7C722826D1
:10196600343A101E0C0276786A644E40525C0608C1
:101976001A143E30222C96988A84AEA0B2BCE6E8B1
:10198600FAF4DED0C2CC000E1C123836242A707E41
:101996006C624846545AE0EEFCF2D8D6C4CA909E11
:1019A6008C82A8A6B4BACEC0D2DCF6F8EAE4BEB001
:1019B600A2AC86889A942E20323C16180A045E50F1
:1019C600424C66687A74929C8E80AAA4B6B8E2EC01
:1019D600FEF0DAD4C6C8727C6E604A445658020CD1
:1019E6001E103A3426285C52404E646A78762C22C1
:1019F600303E141A0806BCB2A0AE848A9896CCC2B1
:101A0600D0DEF4FAE8E62A243638121C0E005A54C0
:101A16004648626C7E70CAC4D6D8F2FCEEE0BAB410
:101A2600A6A8828C9E90E4EAF8F6DCD2C0CE949A00
:101A36008886ACA2B0BE040A18163C32202E747AF0
:101A460068664C42505EB8B6A4AA808E9C92C8C600
:101A5600D4DAF0FEECE25856444A606E7C722826D0
:101A6600343A101E0C0276786A644E40525C0608C0
:101A76001A143E30222C96988A84AEA0B2BCE6E8B0
:101A8600FAF4DED0C2CC000E1C123836242A707E40
:101A96006C624846545AE0EEFCF2D8D6C4CA909E10
:101AA6008C82A8A6B4BACEC0D2DCF6F8EAE4BEB000
:101AB600A2AC86889A942E20323C16180A045E50F0
:101AC600424C66687A74929C8E80AAA4B6B8E2EC00
:101AD600FEF0DAD4C6C8727C6E604A445658020CD0
:101AE6001E103A3426285C52404E646A78762C22C0
:101AF600303E141A0806BCB2A0AE848A9896CCC2B0
:101B0600D0DEF4FAE8E62A243638121C0E005A54BF
:101B16004648626C7E70CAC4D6D8F2FCEEE0BAB40F
:101B2600A6A8828C9E90E4EAF8F6DCD2C0CE949AFF
:101B36008886ACA2B0BE040A18163C32202E747AEF
:101B460068664C42505EB8B6A4AA808E9C92C8C6FF
:101B5600D4DAF0FEECE25856444A606E7C722826CF
:101B6600343A101E0C0276786A644E40525C0608BF
:101B76001A143E30222C96988A84AEA0B2BCE6E8AF
:101B8600FAF4DED0C2CC000E1C123836242A707E3F
:101B96006C624846545AE0EEFCF2D8D6C4CA909E0F
:101BA6008C82A8A6B4BACEC0D2DCF6F8EAE4BEB0FF
:101BB600A2AC86889A942E20323C16180A045E50EF
:101BC600424C66687A74929C8E80AAA4B6B8E2ECFF
:101BD600FEF0DAD4C6C8727C6E604A445658020CCF
:101BE6001E103A3426285C52404E646A78762C22BF
:101BF600303E141A0806BCB2A0AE848A9896CCC2AF
:101C0600D0DEF4FAE8E62A243638121C0E005A54BE
:101C16004648626C7E70CAC4D6D8F2FCEEE0BAB40E
:101C2600A6A8828C9E90E4EAF8F6DCD2C0CE949AFE
:101C36008886ACA2B0BE040A18163C32202E747AEE
:101C460068664C42505EB8B6A4AA808E9C92C8C6FE
:101C5600D4DAF0FEECE25856444A606E7C722826CE
:101C6600343A101E0C0276786A644E40525C0608BE
:101C76001A143E30222C96988A84AEA0B2BCE6E8AE
:101C8600FAF4DED0C2CC000E1C123836242A707E3E
:101C96006C624846545AE0EEFCF2D8D6C4CA909E0E
:101CA6008C82A8A6B4BACEC0D2DCF6F8EAE4BEB0FE
:101CB600A2AC86889A942E20323C16180A045E50EE
:101CC600424C66687A74929C8E80AAA4B6B8E2ECFE
:101CD600FEF0DAD4C6C8727C6E604A445658020CCE
:101CE6001E103A3426285C52404E646A78762C22BE
:101CF600303E141A0806BCB2A0AE848A9896CCC2AE
:101D0600D0DEF4FAE8E62A243638121C0E005A54BD
:101D16004648626C7E70CAC4D6D8F2FCEEE0BAB40D
:101D2600A6A8828C9E90E4EAF8F6DCD2C0CE949AFD
:101D36008886ACA2B0BE040A18163C32202E747AED
:101D460068664C42505EB8B6A4AA808E9C92C8C6FD
:101D5600D4DAF0FEECE25856444A606E7C722826CD
:101D6600343A101E0C0276786A644E40525C0608BD
:101D76001A143E30222C96988A84AEA0B2BCE6E8AD
:101D8600FAF4DED0C2CC000E1C123836242A707E3D
:101D96006C624846545AE0EEFCF2D8D6C4CA909E0D
:101DA6008C82A8A6B4BACEC0D2DCF6F8EAE4BEB0FD
:101DB600A2AC86889A942E20323C16180A045E50ED
:101DC600424C66687A74929C8E80AAA4B6B8E2ECFD
:101DD600FEF0DAD4C6C8727C6E604A445658020CCD
:101DE6001E103A3426285C52404E646A78762C22BD
:101DF600303E141A0806BCB2A0AE848A9896CCC2AD
:101E0600D0DEF4FAE8E62A243638121C0E005A54BC
:101E16004648626C7E70CAC4D6D8F2FCEEE0BAB40C
:101E2600A6A8828C9E90E4EAF8F6DCD2C0CE949AFC
:101E36008886ACA2B0BE040A18163C32202E747AEC
:101E460068664C42505EB8B6A4AA808E9C92C8C6FC
:101E5600D4DAF0FEECE25856444A606E7C722826CC
:101E6600343A101E0C0276786A644E40525C0608BC
:101E76001A143E30222C96988A84AEA0B2BCE6E8AC
:101E8600FAF4DED0C2CC000E1C123836242A707E3C
:101E96006C624846545AE0EEFCF2D8D6C4CA909E0C
:101EA6008C82A8A6B4BACEC0D2DCF6F8EAE4BEB0FC
:101EB600A2AC86889A942E20323C16180A045E50EC
:101EC600424C66687A74929C8E80AAA4B6B8E2ECFC
:101ED600FEF0DAD4C6C8727C6E604A445658020CCC
:101EE6001E103A3426285C52404E646A78762C22BC
:101EF600303E141A0806BCB2A0AE848A9896CCC2AC
:101F0600D0DEF4FAE8E62A243638121C0E005A54BB
:101F16004648626C7E70CAC4D6D8F2FCEEE0BAB40B
:101F2600A6A8828C9E90E4EAF8F6DCD2C0CE949AFB
:101F36008886ACA2B0BE040A18163C32202E747AEB
:101F460068664C42505EB8B6A4AA808E9C92C8C6FB
:101F5600D4DAF0FEECE25856444A606E7C722826CB
:101F6600343A101E0C0276786A644E40525C0608BB
:101F76001A143E30222C96988A84AEA0B2BCE6E8AB
:101F8600FAF4DED0C2CC000E1C123836242A707E3B
:101F96006C624846545AE0EEFCF2D8D6C4CA909E0B
:101FA6008C82A8A6B4BACEC0D2DCF6F8EAE4BEB0FB
:101FB600A2AC86889A942E20323C16180A045E50EB
:101FC600424C66687A74929C8E80AAA4B6B8E2ECFB
:101FD600FEF0DAD4C6C8727C6E604A445658020CCB
:101FE6001E103A3426285C52404E646A78762C22BB
:101FF600303E141A0806BCB2A0AE848A9896CCC2AB
:10200600D0DEF4FAE8E62A243638121C0E005A54BA
:102016004648626C7E70CAC4D6D8F2FCEEE0BAB40A
:10202600A6A8828C9E90E4EAF8F6DCD2C0CE949AFA
:102036008886ACA2B0BE040A18163C32202E747AEA
:1020460068664C42505EB8B6A4AA808E9C92C8C6FA
:10205600D4DAF0FEECE25856444A606E7C722826CA
:10206600343A101E0C0276786A644E40525C0608BA
:102076001A143E30222C96988A84AEA0B2BCE6E8AA
:10208600FAF4DED0C2CC000E1C123836242A707E3A
:102096006C624846545AE0EEFCF2D8D6C4CA909E0A
:1020A6008C82A8A6B4BACEC0D2DCF6F8EAE4BEB0FA
:1020B600A2AC86889A942E20323C16180A045E50EA
:1020C600424C66687A74929C8E80AAA4B6B8E2ECFA
:1020D600FEF0DAD4C6C8727C6E604A445658020CCA
:1020E6001E103A3426285C52404E646A78762C22BA
:1020F600303E141A0806BCB2A0AE848A9896CCC2AA
:10210600D0DEF4FAE8E62A243638121C0E005A54B9
:102116004648626C7E70CAC4D6D8F2FCEEE0BAB409
:10212600A6A8828C9E90E4EAF8F6DCD2C0CE949AF9
:102136008886ACA2B0BE040A18163C32202E747AE9
:1021460068664C42505EB8B6A4AA808E9C92C8C6F9
:10215600D4DAF0FEECE25856444A606E7C722826C9
:10216600343A101E0C0276786A644E40525C0608B9
:102176001A143E30222C96988A84AEA0B2BCE6E8A9
:10218600FAF4DED0C2CC000E1C123836242A707E39
:102196006C624846545AE0EEFCF2D8D6C4CA909E09
:1021A6008C82A8A6B4BACEC0D2DCF6F8EAE4BEB0F9
:1021B600A2AC86889A942E20323C16180A045E50E9
:1021C600424C66687A74929C8E80AAA4B6B8E2ECF9
:1021D600FEF0DAD4C6C8727C6E604A445658020CC9
:1021E6001E103A3426285C52404E646A78762C22B9
:1021F600303E141A0806BCB2A0AE848A9896CCC2A9
:10220600D0DEF4FAE8E62A243638121C0E005A54B8
:102216004648626C7E70CAC4D6D8F2FCEEE0BAB408
:10222600A6A8828C9E90E4EAF8F6DCD2C0CE949AF8
:102236008886ACA2B0BE040A18163C32202E747AE8
:1022460068664C42505EB8B6A4AA808E9C92C8C6F8
:10225600D4DAF0FEECE25856444A606E7C722826C8
:10226600343A101E0C0276786A644E40525C0608B8
:102276001A143E30222C96988A84AEA0B2BCE6E8A8
:10228600FAF4DED0C2CC000E1C123836242A707E38
:102296006C624846545AE0EEFCF2D8D6C4CA909E08
:1022A6008C82A8A6B4BACEC0D2DCF6F8EAE4BEB0F8
:1022B600A2AC86889A942E20323C16180A045E50E8
:1022C600424C66687A74929C8E80AAA4B6B8E2ECF8
:1022D600FEF0DAD4C6C8727C6E604A445658020CC8
:1022E6001E103A3426285C52404E646A78762C22B8
:1022F600303E141A0806BCB2A0AE848A9896CCC2A8
:10230600D0DEF4FAE8E62A243638121C0E005A54B7
:102316004648626C7E70CAC4D6D8F2FCEEE0BAB407
:10232600A6A8828C9E90E4EAF8F6DCD2C0CE949AF7
:102336008886ACA2B0BE040A18163C32202E747AE7
:1023460068664C42505EB8B6A4AA808E9C92C8C6F7
:10235600D4DAF0FEECE25856444A606E7C722826C7
:10236600343A101E0C0276786A644E40525C0608B7
:102376001A143E30222C96988A84AEA0B2BCE6E8A7
:10238600FAF4DED0C2CC000E1C123836242A707E37
:102396006C624846545AE0EEFCF2D8D6C4CA909E07
:1023A6008C82A8A6B4BACEC0D2DCF6F8EAE4BEB0F7
:1023B600A2AC86889A942E20323C16180A045E50E7
:1023C600424C66687A74929C8E80AAA4B6B8E2ECF7
:1023D600FEF0DAD4C6C8727C6E604A445658020CC7
:1023E6001E103A3426285C52404E646A78762C22B7
:1023F600303E141A0806BCB2A0AE848A9896CCC2A7
:10240600D0DEF4FAE8E62A243638121C0E005A54B6
:102416004648626C7E70CAC4D6D8F2FCEEE0BAB406
:10242600A6A8828C9E90E4EAF8F6DCD2C0CE949AF6
:102436008886ACA2B0BE040A18163C32202E747AE6
:1024460068664C42505EB8B6A4AA808E9C92C8C6F6
:10245600D4DAF0FEECE25856444A606E7C722826C6
:10246600343A101E0C0276786A644E40525C0608B6
:102476001A143E30222C96988A84AEA0B2BCE6E8A6
:10248600FAF4DED0C2CC000E1C123836242A707E36
:102496006C624846545AE0EEFCF2D8D6C4CA909E06
:1024A6008C82A8A6B4BACEC0D2DCF6F8EAE4BEB0F6
:1024B600A2AC86889A942E20323C16180A045E50E6
:1024C600424C66687A74929C8E80AAA4B6B8E2ECF6
:1024D600FEF0DAD4C6C8727C6E604A445658020CC6
:1024E6001E103A3426285C52404E646A78762C22B6
:1024F600303E141A0806BCB2A0AE848A9896CCC2A6
:10250600D0DEF4FAE8E62A243638121C0E005A54B5
:102516004648626C7E70CAC4D6D8F2FCEEE0BAB405
:10252600A6A8828C9E90E4EAF8F6DCD2C0CE949AF5
:102536008886ACA2B0BE040A18163C32202E747AE5
:1025460068664C42505EB8B6A4AA808E9C92C8C6F5
:10255600D4DAF0FEECE25856444A606E7C722826C5
:10256600343A101E0C0276786A644E40525C0608B5
:102576001A143E30222C96988A84AEA0B2BCE6E8A5
:10258600FAF4DED0C2CC000E1C123836242A707E35
:102596006C624846545AE0EEFCF2D8D6C4CA909E05
:1025A6008C82A8A6B4BACEC0D2DCF6F8EAE4BEB0F5
:1025B600A2AC86889A942E20323C16180A045E50E5
:1025C600424C66687A74929C8E80AAA4B6B8E2ECF5
:1025D600FEF0DAD4C6C8727C6E604A445658020CC5
:1025E6001E103A3426285C52404E646A78762C22B5
:1025F600303E141A0806BCB2A0AE848A9896CCC2A5
:10260600D0DEF4FAE8E62A243638121C0E005A54B4
:102616004648626C7E70CAC4D6D8F2FCEEE0BAB404
:10262600A6A8828C9E90E4EAF8F6DCD2C0CE949AF4
:102636008886ACA2B0BE040A18163C32202E747AE4
:1026460068664C42505EB8B6A4AA808E9C92C8C6F4
:10265600D4DAF0FEECE25856444A606E7C722826C4
:10266600343A101E0C0276786A644E40525C0608B4
:102676001A143E30222C96988A84AEA0B2BCE6E8A4
:10268600FAF4DED0C2CC000E1C123836242A707E34
:102696006C624846545AE0EEFCF2D8D6C4CA909E04
:1026A6008C82A8A6B4BACEC0D2DCF6F8EAE4BEB0F4
:1026B600A2AC86889A942E20323C16180A045E50E4
:1026C600424C66687A74929C8E80AAA4B6B8E2ECF4
:1026D600FEF0DAD4C6C8727C6E604A445658020CC4
:1026E6001E103A3426285C52404E646A78762C22B4
:1026F600303E141A0806BCB2A0AE848A9896CCC2A4
:10270600D0DEF4FAE8E62A243638121C0E005A54B3
:102716004648626C7E70CAC4D6D8F2FCEEE0BAB403
:10272600A6A8828C9E90E4EAF8F6DCD2C0CE949AF3
:102736008886ACA2B0BE040A18163C32202E747AE3
:1027460068664C42505EB8B6A4AA808E9C92C8C6F3
:10275600D4DAF0FEECE25856444A606E7C722826C3
:10276600343A101E0C0276786A644E40525C0608B3
:102776001A143E30222C96988A84AEA0B2BCE6E8A3
:10278600FAF4DED0C2CC000E1C123836242A707E33
:102796006C624846545AE0EEFCF2D8D6C4CA909E03
:1027A6008C82A8A6B4BACEC0D2DCF6F8EAE4BEB0F3
:1027B600A2AC86889A942E20323C16180A045E50E3
:1027C600424C66687A74929C8E80AAA4B6B8E2ECF3
:1027D600FEF0DAD4C6C8727C6E604A445658020CC3
:1027E6001E103A3426285C52404E646A78762C22B3
:1027F600303E141A0806BCB2A0AE848A9896CCC2A3
:10280600D0DEF4FAE8E62A243638121C0E005A54B2
:102816004648626C7E70CAC4D6D8F2FCEEE0BAB402
:10282600A6A8828C9E90E4EAF8F6DCD2C0CE949AF2
:102836008886ACA2B0BE040A18163C32202E747AE2
:1028460068664C42505EB8B6A4AA808E9C92C8C6F2
:10285600D4DAF0FEECE25856444A606E7C722826C2
:10286600343A101E0C0276786A644E40525C0608B2
:102876001A143E30222C96988A84AEA0B2BCE6E8A2
:10288600FAF4DED0C2CC000E1C123836242A707E32
:102896006C624846545AE0EEFCF2D8D6C4CA909E02
:1028A6008C82A8A6B4BACEC0D2DCF6F8EAE4BEB0F2
:1028B600A2AC86889A942E20323C16180A045E50E2
:1028C600424C66687A74929C8E80AAA4B6B8E2ECF2
:1028D600FEF0DAD4C6C8727C6E604A445658020CC2
:1028E6001E103A3426285C52404E646A78762C22B2
:1028F600303E141A0806BCB2A0AE848A9896CCC2A2
:10290600D0DEF4FAE8E62A243638121C0E005A54B1
:102916004648626C7E70CAC4D6D8F2FCEEE0BAB401
:10292600A6A8828C9E90E4EAF8F6DCD2C0CE949AF1
:102936008886ACA2B0BE040A18163C32202E747AE1
:1029460068664C42505EB8B6A4AA808E9C92C8C6F1
:10295600D4DAF0FEECE25856444A606E7C722826C1
:10296600343A101E0C0276786A644E40525C0608B1
:102976001A143E30222C96988A84AEA0B2BCE6E8A1
:10298600FAF4DED0C2CC000E1C123836242A707E31
:102996006C624846545AE0EEFCF2D8D6C4CA909E01
:1029A6008C82A8A6B4BACEC0D2DCF6F8EAE4BEB0F1
:1029B600A2AC86889A942E20323C16180A045E50E1
:1029C600424C66687A74929C8E80AAA4B6B8E2ECF1
:1029D600FEF0DAD4C6C8727C6E604A445658020CC1
:1029E6001E103A3426285C52404E646A78762C22B1
:1029F600303E141A0806BCB2A0AE848A9896CCC2A1
:102A0600D0DEF4FAE8E62A243638121C0E005A54B0
:102A16004648626C7E70CAC4D6D8F2FCEEE0BAB400
:102A2600A6A8828C9E90E4EAF8F6DCD2C0CE949AF0
:102A36008886ACA2B0BE040A18163C32202E747AE0
:102A460068664C42505EB8B6A4AA808E9C92C8C6F0
:102A5600D4DAF0FEECE25856444A606E7C722826C0
:102A6600343A101E0C0276786A644E40525C0608B0
:102A76001A143E30222C96988A84AEA0B2BCE6E8A0
:102A8600FAF4DED0C2CC000E1C123836242A707E30
:102A96006C624846545AE0EEFCF2D8D6C4CA909E00
:102AA6008C82A8A6B4BACEC0D2DCF6F8EAE4BEB0F0
:102AB600A2AC86889A942E20323C16180A045E50E0
:102AC600424C66687A74929C8E80AAA4B6B8E2ECF0
:102AD600FEF0DAD4C6C8727C6E604A445658020CC0
:102AE6001E103A3426285C52404E646A78762C22B0
:102AF600303E141A0806BCB2A0AE848A9896CCC2A0
:102B0600D0DEF4FAE8E62A243638121C0E005A54AF
:102B16004648626C7E70CAC4D6D8F2FCEEE0BAB4FF
:102B2600A6A8828C9E90E4EAF8F6DCD2C0CE949AEF
:102B36008886ACA2B0BE040A18163C32202E747ADF
:102B460068664C42505EB8B6A4AA808E9C92C8C6EF
:102B5600D4DAF0FEECE25856444A606E7C722826BF
:102B6600343A101E0C0276786A644E40525C0608AF
:102B76001A143E30222C96988A84AEA0B2BCE6E89F
:102B8600FAF4DED0C2CC000E1C123836242A707E2F
:102B96006C624846545AE0EEFCF2D8D6C4CA909EFF
:102BA6008C82A8A6B4BACEC0D2DCF6F8EAE4BEB0EF
:102BB600A2AC86889A942E20323C16180A045E50DF
:102BC600424C66687A74929C8E80AAA4B6B8E2ECEF
:102BD600FEF0DAD4C6C8727C6E604A445658020CBF
:102BE6001E103A3426285C52404E646A78762C22AF
:102BF600303E141A0806BCB2A0AE848A9896CCC29F
:102C0600D0DEF4FAE8E62A243638121C0E005A54AE
:102C16004648626C7E70CAC4D6D8F2FCEEE0BAB4FE
:102C2600A6A8828C9E90E4EAF8F6DCD2C0CE949AEE
:102C36008886ACA2B0BE040A18163C32202E747ADE
:102C460068664C42505EB8B6A4AA808E9C92C8C6EE
:102C5600D4DAF0FEECE25856444A606E7C722826BE
:102C6600343A101E0C0276786A644E40525C0608AE
:102C76001A143E30222C96988A84AEA0B2BCE6E89E
:102C8600FAF4DED0C2CC000E1C123836242A707E2E
:102C96006C624846545AE0EEFCF2D8D6C4CA909EFE
:102CA6008C82A8A6B4BACEC0D2DCF6F8EAE4BEB0EE
:102CB600A2AC86889A942E20323C16180A045E50DE
:102CC600424C66687A74929C8E80AAA4B6B8E2ECEE
:102CD600FEF0DAD4C6C8727C6E604A445658020CBE
:102CE6001E103A3426285C52404E646A78762C22AE
:102CF600303E141A0806BCB2A0AE848A9896CCC29E
:102D0600D0DEF4FAE8E62A243638121C0E005A54AD
:102D16004648626C7E70CAC4D6D8F2FCEEE0BAB4FD
:102D2600A6A8828C9E90E4EAF8F6DCD2C0CE949AED
:102D36008886ACA2B0BE040A18163C32202E747ADD
:102D460068664C42505EB8B6A4AA808E9C92C8C6ED
:102D5600D4DAF0FEECE25856444A606E7C722826BD
:102D6600343A101E0C0276786A644E40525C0608AD
:102D76001A143E30222C96988A84AEA0B2BCE6E89D
:102D8600FAF4DED0C2CC000E1C123836242A707E2D
:102D96006C624846545AE0EEFCF2D8D6C4CA909EFD
:102DA6008C82A8A6B4BACEC0D2DCF6F8EAE4BEB0ED
:102DB600A2AC86889A942E20323C16180A045E50DD
:102DC600424C66687A74929C8E80AAA4B6B8E2ECED
:102DD600FEF0DAD4C6C8727C6E604A445658020CBD
:102DE6001E103A3426285C52404E646A78762C22AD
:102DF600303E141A0806BCB2A0AE848A9896CCC29D
:102E0600D0DEF4FAE8E62A243638121C0E005A54AC
:102E16004648626C7E70CAC4D6D8F2FCEEE0BAB4FC
:102E2600A6A8828C9E90E4EAF8F6DCD2C0CE949AEC
:102E36008886ACA2B0BE040A18163C32202E747ADC
:102E460068664C42505EB8B6A4AA808E9C92C8C6EC
:102E5600D4DAF0FEECE25856444A606E7C722826BC
:102E6600343A101E0C0276786A644E40525C0608AC
:102E76001A143E30222C96988A84AEA0B2BCE6E89C
:102E8600FAF4DED0C2CC000E1C123836242A707E2C
:102E96006C624846545AE0EEFCF2D8D6C4CA909EFC
:102EA6008C82A8A6B4BACEC01F1D1F1E1F1E1F1FD0
:102EB6001E1F1E1F20202000000000000000000032
:102EC600000000E2EEF1EAF02E0000000000000033
:102ED6000000EFEEEDE5E42E00000000000000002B
:102EE60000E2F2EEF0ED2E0000000000000000000F
:102EF600F1F0E5E4E000000000000000000000F74B
:102F0600E5F2E2E5F0E30000000000000000EFFF5C
:102F1600F2ED2E00000000000000000000F1F3E1D9
:102F2600E1EEF2E0000000000000000087004F0123
:102F360017021900810081818181818181818181CE
:102F46008181AA00AAAAAAAAAAAAAAAAAAAAAAAAD7
:102F5600AAAAAAAAAAAAAAAAAAAAAAAAAAAAAAAACB
:102F6600AAAAAAAAAAAAAAAA7F00AA00303132331C
:102F760034353637383941424344454620202020EF
:102F8600202020202020202020202020000020C2D9
:102F9600FBF5EEE420202020202020202020000029
:102FA600FFEDE200F4E5E200ECE0F000E0EFF00017
:102FB600ECE0E900E8FEED00E8FEEB00E0E2E3000D
:102FC600F1E5ED00EEEAF200EDEEFF00E4E5EA00E1
:102FD60030300030310030320030330030340030D1
:102FE600350030360030370030380030390030E0F8
:102FF6000030E10030E20030E30030E40030E5006C
:1030060030300030310030320030330030340030A0
:10301600350030360030370030380030390030E0C7
:103026000030E10030E20030E30030E40030E5003B
:10303600313000313100313200313300313400316A
:10304600350031360031370031380031390031E092
:103056000031E10031E20031E30031E40031E50006
:10306600313000313100313200313300313400313A
:10307600350031360031370031380031390031E062
:103086000031E10031E20031E30031E40031E500D6
:103096003230003231003232003233003234003204
:1030A600350032360032370032380032390032E02D
:1030B6000032E10032E20032E30032E40032E500A1
:1030C60032300032310032320032330032340032D4
:1030D600350032360032370032380032390032E0FD
:1030E6000032E10032E20032E30032E40032E50071
:1030F600333000333100333200333300333400339E
:10310600350033360033370033380033390033E0C7
:103116000033E10033E20033E30033E40033E5003B
:10312600333000333100333200333300333400336D
:10313600350033360033370033380033390033E097
:103146000033E10033E20033E30033E40033E5000B
:103156003430003431003432003433003434003437
:10316600350034360034370034380034390034E062
:103176000034E10034E20034E30034E40034E500D6
:103186003430003431003432003433003434003407
:10319600350034360034370034380034390034E032
:1031A6000034E10034E20034E30034E40034E500A6
:1031B60035300035310035320035330035340035D1
:1031C600350035360035370035380035390035E0FD
:1031D6000035E10035E20035E30035E40035E50071
:1031E60035300035310035320035330035340035A1
:1031F600350035360035370035380035390035E0CD
:103206000035E10035E20035E30035E40035E50040
:10321600363000363100363200363300363400366A
:10322600350036360036370036380036390036E097
:103236000036E10036E20036E30036E40036E5000B
:10324600363000363100363200363300363400363A
:10325600350036360036370036380036390036E067
:103266000036E10036E20036E30036E40036E500DB
:10327600FDA2FFAAC8ACADAEAFB0B1D769B4B5FE7A
:10328600DFB5CCBAC9BCBDBEBF41A042A1E045A3D3
:10329600A4A5A64BA74D484FA8504354A9AA58E148
:1032A600ABACE2ADAEC4AFB0B161B2B3B4E365B638
:1032B600B7B8B9BABBBCBD6FBE7063BF79AA78E5B3
:1032C600C0C1E6C2C3C4C5C6C70000C1814001C0B3
:1032D600804101C0804100C1814001C0804100C1E0
:1032E600814000C1814001C0804101C0804100C1D0
:1032F600814000C1814001C0804100C1814001C0C0
:10330600804101C0804100C1814001C0804100C1AF
:10331600814000C1814001C0804100C1814001C09F
:10332600804101C0804100C1814000C1814001C08F
:10333600804101C0804100C1814001C0804100C17F
:10334600814000C1814001C0804101C0804100C16F
:10335600814000C1814001C0804100C1814001C05F
:10336600804101C0804100C1814000C1814001C04F
:10337600804101C0804100C1814001C0804100C13F
:10338600814000C1814001C0804100C1814001C02F
:10339600804101C0804100C1814001C0804100C11F
:1033A600814000C1814001C0804101C0804100C10F
:1033B600814000C1814001C0804100C1814001C0FF
:1033C600804101C0804100C1814000C0C101C303EA
:1033D60002C2C60607C705C5C404CC0C0DCD0FCF67
:1033E600CE0E0ACACB0BC90908C8D81819D91BDBD7
:1033F600DA1A1EDEDF1FDD1D1CDC14D4D515D71727
:1034060016D6D21213D311D1D010F03031F133F3D6
:10341600F23236F6F737F53534F43CFCFD3DFF3F26
:103426003EFEFA3A3BFB39F9F83828E8E929EB2B56
:103436002AEAEE2E2FEF2DEDEC2CE42425E527E7E6
:10344600E62622E2E323E12120E0A06061A163A356
:10345600A26266A6A767A56564A46CACAD6DAF6FE6
:103466006EAEAA6A6BAB69A9A86878B8B979BB7B56
:103476007ABABE7E7FBF7DBDBC7CB47475B577B7A6
:10348600B67672B2B373B17170B0509091519353D6
:10349600529296565797559594549C5C5D9D5F9FA6
:1034A6009E5E5A9A9B5B99595898884849894B8BD6
:1034B6008A4A4E8E8F4F8D4D4C8C44848545874766
:1034C600468682424383418180400000AA00AA00CA
:1034D600AAAAAAAAAAAA00002000202120203040D9
:1034E6003A30232030243025303C0020C0E2E0F082
:1034F600E8E920EDE5F2202020202000205E2020B3
:1035060030263A302A2030283029303E0030403AE2
:1035160030233A3024203025202026305E0020201B
:10352600202020D1F2E0EDF6E8FF20202020002028
:10353600202020E2EAEBFEF7E5EDE0202020200047
:10354600202020C0E2E0F0E8FF20D7CF2020202076
:1035560000EAEEF0EEF2EAEEE520E7E0ECFBEAE068
:10356600ED00EFE5F0E5E3F02E20EFEE20F2EEEAD7
:10357600F32000EDE8E7EAEEE520EDE0EFF0FFE608
:10358600E5ED2E00E2FBF1EEEAEEE520EDE0EFF0F0
:10359600FFE62E20002020EEE1F0FBE220F4E0E73B
:1035A600FB20202020002020EFE5F0E5E3F0E5E217
:1035B6002020202020200020202020202020202025
:1035C6002020202020202000202020CDE0EFF0FF2A
:1035D600E6E5EDE8E52020200020F4E0E7FB2041C9
:1035E60020E7E0EDE8E6E5EDEE0020F4E0E7FB207D
:1035F6004120E7E0E2FBF8E5EDEE0020F4E0E7FB32
:10360600204220E7E0EDE8E6E5EDEE0020F4E0E715
:10361600FB204220E7E0E2FBF8E5EDEE0020F4E0D7
:10362600E7FB204320E7E0EDE8E6E5EDEE0020F4D9
:10363600E0E7FB204320E7E0E2FBF8E5EDEE0020C3
:1036460020CDE5EFF0E0E2E8EBFCEDEEE520200032
:1036560020F7E5F0E5E4EEE2E0EDE8E520F4E0E76A
:10366600002020D2E5ECEFE5F0E0F2F3F0E02020D8
:10367600200020E7E0E2FBF8E5EDE02020202067CF
:1036860043200020E7E0EDE8E6E5EDE020202020FD
:103696006743200020202020C0E2E0F0E8FF21213F
:1036A600212020200020202020D1F3F5EEE920F56E
:1036B600EEE42020200020C0E2E0F0E8FF20E4E075
:1036C600F2F7E8EAE02000E4E0E2EBE5EDE8FF20CF
:1036D6002020202040ECC00020202020C4E0E2EB87
:1036E600E5EDE8E52020202000E7E0EDE8E6E5ED61
:1036F600EE20202040E0F2EC2E00E7E0E2FBF8E5C9
:10370600EDEE20202040E0F2EC2E0020C4E2E8E3BB
:10371600E0F2E5EBFC204E2620202000F2EEEA2027
:10372600E7E0EDE8E6E5ED20202040C000F2EEEA15
:1037360020E7E0E2FBF8E5ED20202040C000F1F0B4
:10374600E0E1EEF2E0EBE020E7E0F9E8F2E000206D
:10375600D0E5E6E8EC202020E0E2F2EEECE0F20034
:1037660020D0E5E6E8EC202020F0F3F7EDEEE920A6
:103776000020D0E5E6E8EC202020202020F2E5F12C
:10378600F20020C2F0E5ECFF20E820E4E0F2E020C1
:10379600202000CAEBE8ECE0F2202020E2EDF3F274
:1037A600F02E2000CAEBE8ECE0F2202020E2EDE566
:1037B600F8ED2E200030212E30402830232E2429EB
:1037C60030252E305E002043E5F2FC2020204142C9
:1037D600432020202020002043E5F2FC2020204129
:1037E600434220202020200020202120202040208D
:1037F60020202320202024250020C4E0E2EBE5ED54
:10380600E8E52020212020202000402F202023280A
:10381600202024292F25202020200020CDE0F1EE95
:10382600F1EEE22021202040202023002428202021
:1038360025292820202629203E2020200020D1F2DC
:10384600F3EF2EEFF3F1EA20202021E02E002020D6
:1038560040E0202023F1E5EA202024C3F6200020C2
:10386600CFE5F0E5EAEBFEF7E5EDE8E52020200000
:103876002020EDE0F1EEF1EEE220202020202020B5
:103886000020C2EAEB2E2020202030212E304020BE
:10389600200020C2FBEAEB2E20202030212E3040D3
:1038A60020200020D1ECE5EDE020EDE0F1EEF1EE98
:1038B600E220200020D7E0F1F2EEF2EDE8EA202047
:1038C60020202020002020212F30402F232F242F9E
:1038D60030252020200020C7E0E4E2E8E6EAE020E8
:1038E60020212020202000204020202020202020D1
:1038F6002420202520202000E2EAEB00E2FBEAEB70
:1039060000D1E8EDF52E00C0F1E8EDF52E0020CF50
:10391600F02EEFF3F1EA20202021202020200020A5
:103926002040F72E20202030242E30252020200075
:1039360020D1F3F5EEE920F5EEE420202120202029
:1039460000202040E0F2EC2E202024F1E5EA2E2093
:103956002000776D730020D2E0E9ECE5F02020200E
:103966002020202020200020CDF3EBE5E2E0FF2000
:10397600EDE0E3F0F3E72E0020CFC8C4202020209E
:1039860020202020202020200020C0E2F2EEECE0C3
:10399600F220202020202020200020D0F3F7EDEE7A
:1039A600E92020202020202020200020D2E5F1F24E
:1039B600202020202020202020202000302520200C
:1039C60026305E2021202020202020200020C4E058
:1039D600F2F7E8EA202D20E2EDF3F2F02E0020C403
:1039E600E0F2F7E8EA202D20E2EDE5F8ED2E0020E2
:1039F60020C0E2E0F0E8FF20F5EEEBEEE420200048
:103A06002020202020202020202020204067432026
:103A16000020C2EAEB2E20EEF2EEEFE8F2E5EBFF35
:103A2600200020CAE0EBE8E1F02EE4E0F2F7E8EA55
:103A3600E02000C2EAEB2E20E2E5EDF2E8EBFFF231
:103A4600EEF0E00020C0E2E0F0E8FF20EFE5F0E570
:103A5600E3F0E5E20020C3E8F1F2E5F0E5E7E8F19E
:103A660020202020200020C2FBF5EEE4202020208C
:103A76002020202020200020C4EEEFF3F1EA2020B1
:103A8600202021252020200020D4E0E7E8F0EEE2E7
:103A9600EAE02020414243200020D4E0E7E8F0EEAF
:103AA600E2EAE020204143422000CAE0EBE8E1F0F0
:103AB6002EF4E0E7E041202021C200CAE0EBE8E175
:103AC600F02EF4E0E7E042202021C200CAE0EBE855
:103AD600E1F02EF4E0E7E043202021C200D2E8EF37
:103AE60020E4E0F2F7E8EAEEE22020212000506D23
:103AF600696E202020202020202021E0F2EC00CA40
:103B0600E0EBE8E1F02E20EDE0F1F3F5F3FE200026
:103B1600CAE0EBE8E1F0EEE2EAE0202020202020F7
:103B26000020202050203D202020202021E0F2EC03
:103B36002E00506D6178202020202020202021E0BA
:103B4600F2EC00546D61785F6D696E2020202021B3
:103B5600F1E5EA00476D61785F6D696E20202020EF
:103B660021E0F2EC00CDE0F1EEF1EEE220202020A3
:103B7600212020202000C7E2E5E7E4E02DF2F0E571
:103B8600F3E3EEEBFCED0020202020202020202077
:103B96002120202020202000E2EAEB2E00E2FBEA92
:103BA600EB2E0020C0E2E0F0E8E820EFEE20F2EE97
:103BB600EAF3200020212020202020202020202081
:103BC6002020202000EBEEE3E8F7E5F1EAE8E50047
:103BD600EFEE20E4E0F2F7E8EAE0EC002049EDEC55
:103BE600696E2E202020202020202341002049ED30
:103BF600EC61782E20202020202020234100D0E5D3
:103C0600E62EEDE0F1EEF12320212020202000E039
:103C1600E2F22E00F0F3F7ED2E0020D1E1F0EEF106
:103C260020EDE0F0E0E1EEF2EAE80020EDE0F1EE72
:103C3600F1E02120202020EDE5F2200020EDE0F14A
:103C4600EEF1E02120202020E4E020200020CAE040
:103C5600EBE8E1F0EEE2EAE02049234120002020F3
:103C6600202020212041202020202020202000204C
:103C7600CAE0EBE8E1F0EEE2EAE020492343200067
:103C860020202020204020412020202020202020ED
:103C96000020D121CD2020202020202020202020DF
:103CA600200020D721CD20202020202020202020C9
:103CB60020200020D3F0EEE2E5EDFC20202020209D
:103CC6002020200020202050EF203D2020202021F1
:103CD600E0F2EC2E0020CFF0E8F0EEF1F22020200A
:103CE60020202020200020202050EFF0203D202002
:103CF6002021E0F2EC2E0020C2F0E5ECFF2020208F
:103D06002020202020202000202020D2EFF0203D5F
:103D160020202021F1E5EA2E0020D7E0F1F2EEF294
:103D2600E020202020202020200020202046EFF028
:103D3600203D20202021C3F62020002054E2E5F07B
:103D4600F520202021EC2E3040F12E002054EDE805
:103D5600E72020202021EC2E3040F12E002050EAD2
:103D6600F02E20202020202021E0F2EC2E00204BF7
:103D7600702020202020202020212020202000200C
:103D860054F1EC2020203021F72E3040ECE8ED00F5
:103D9600D0E0E7F0E5F8E5EDE8E52020E2EAEB2EF5
:103DA60000D0E0E7F0E5F8E5EDE8E520E2FBEAEB38
:103DB6002E00466D696E20202020232820202129F0
:103DC600C3F600466D61782020202023282020217C
:103DD60029C3F6002054EFE0E420202020202021F3
:103DE600F1E5EA2E002054E2EEE7E2F02020202062
:103DF60021F1E5EA2E0020D72020202020202020B7
:103E06002021252020200020CF2B2020202020200C
:103E1600202021252020200020CF2D2020202020FA
:103E260020202021252020200020C7E0E4E5F0E620
:103E3600EAE020202020202020002020F1E1F0EEE2
:103E4600F1E020202021F1E5EA2E0020D1EEF1F26A
:103E5600EEFFEDE8E5202120202020002049E76D37
:103E6600696E20202020202141202020002049E7C3
:103E76006D61782020202020214120202000D0E5DF
:103E8600E6E8EC20212020202020202020200063AE
:103E9600E8EDF5F0EEEDEDEE00E0F1E8EDF5F0EE33
:103EA600EDEDEE002054E8F1EF2E20202020202119
:103EB600F72E2020002054EF2EEF2E202020302435
:103EC6002E302520200020C4E0F2F7E8EA2020204A
:103ED600212020202020002054F1F52E2020202013
:103EE60021F1E5EA2E2020002050E2F52E202020A8
:103EF6002021E0F2EC2E2020002050F3F1F22020C9
:103F06002020202021E0F2EC2E0020CFEEEDE5E48B
:103F1600E5EBFCEDE8EA202020200020C2F2EEF0DE
:103F2600EDE8EA20202020202020200020D1F0E506
:103F3600E4E0202020202020202020200020D7E59B
:103F4600F2E2E5F0E320202020202020200020CFF0
:103F5600FFF2EDE8F6E0202020202020202000209F
:103F6600D1F3E1E1EEF2E020202020202020200005
:103F760020C2EEF1EAF0E5F1E5EDFCE52020202097
:103F86000020CFED212030403A30232D30243A3026
:103F9600250020C2F2212030403A30232D30243A29
:103FA60030250020D1F0212030403A30232D302416
:103FB6003A30250020D7F2212030403A30232D30E8
:103FC600243A30250020CFF2212030403A30232DEC
:103FD60030243A30250020D1E1212030403A3023E8
:103FE6002D30243A30250020C2F1212030403A30CD
:103FF600232D30243A30250020D0E5E62028202045
:1040060020292020202020200031202020202029A7
:10401600E0F2EC2E0032202020202029C3F62E20AC
:104026000033202020202029EDE0F12E0020EDE5B0
:1040360020F3F1F2E0ED2E200020547A65726F2015
:1040460020202021F1E5EA2E200020CFE5F0E8EE41
:10405600E42020202021F1E5EA2E0020D3F1E8EB30
:10406600E5EDE8E5202020202021200020D3F1E8FE
:10407600EBE5EDE8E520C820202021200020D3F143
:10408600E8EBE5EDE8E520C420202021200020CE45
:10409600E1EEF0EEF2FB20F7E0F1F2EEED2E00207D
:1040A600EFE5F0E5EAEB20E2EDE8E7202021250048
:1040B6000000020004000200B64006005B07322F33
:1040C60001006207382F0100EE073A2F0600EF07BE
:1040D6003C2F0600F507422F01005B08482F06001B
:1040E60076084A2F06007C08502F06008208562FB5
:1040F600060088085C2F06008E08622F06009A08C4
:10410600682F0200A6086E2F0100BB08702F020060
:10411600CE08DE340100130CD2340100190CD4345D
:1041260006001A0CD6340000F894EE27ECBBF1E03A
:10413600F5BFE5BFE0936C00EBBFF8E1F1BDE1BD73
:104146008DE0A2E0BB27ED938A95E9F780E090E148
:10415600A0E0B1E0ED930197E9F7EAEBF0E4859191
:104166009591009761F0A591B59105901590BF01C5
:10417600F00105900D920197E1F7FB01F0CFEFEF0B
:10418600EDBFE0E1EEBFC0E0D5E00C944D780E94B3
:10419600B27914F40E94B8790E94BD7914F40E9491
:1041A600C37991C00E94B27914F40E94C3790E9427
:1041B600BD7914F40E94B87986C0AC81BD810E9495
:1041C60016880E94C87934F4EA81FB81AC81BD81EE
:1041D600ED93FC93AC81BD810E9416880E94CE7936
:1041E60034F4E881F981AC81BD81ED93FC931AC06A
:1041F600AC81BD810E9437880E94C87934F4EA8177
:10420600FB81AC81BD810E944788AC81BD810E9443
:1042160037880E94CE7934F4E881F981AC81BD817A
:104226000E944788269608950A930E94D4798F9A09
:10423600979A8D9A95980E94E9798E9A969A969A67
:10424600969A9698E0E0E4BB0E94EE790E94EE7999
:104256000E94EE790E94EE7903B3E0916400E1607A
:10426600E0936400E0916500E160E09365008D9A5B
:10427600959AE02F088119C00E94D4798F9A979A4F
:104286008D9A95980E94E9798E9A969A969A969A18
:104296009698EFEFE4BBE881E5BB8F9A97988F9AE3
:1042A60097988F9A979A8D9A959A22960895E8816B
:1042B600F981E0931509F0931609EB81E093120951
:1042C600EA81E093130924960895E0911509F09187
:1042D6001609309779F03197E0931509F09316098E
:1042E600309741F4D0901209E0911309E0930E093A
:1042F600E0930F090895F894B99ABA9ABB98BC9AB4
:104306000E94F979BC9AC498E0ECEA930E941C8753
:10431600C49A789408950A93F894B99ABA9ABB986D
:10432600BC9A0E94F979BC9AC4988BE18A95F1F7F8
:10433600E3E00E94FE790E94057AC49A7894E02F01
:10434600088122960895F894B99ABA9ABB98BC9AAD
:104356000E94F979BC9AC498E5E00E940B7A0E9403
:10436600107AC49A7894239608950A93B99ABA9AB9
:10437600BB98BC9A0E94F979BC9AC498E2E00E9464
:104386000B7AC49AE02F0881239608950A93F8942D
:10439600B99ABA9ABB98BC9A0E94F979BC9AC49801
:1043A6000000000000000000000000000000000007
:1043B600E0EAEA930E941C870E94057AC49A7894E0
:1043C600E02F09910895F894B99ABA9ABB98BC9AC5
:1043D6000E94F979BC9AC498E881E03019F4E1E8C2
:1043E600E8830BC0A881A13019F4E2E8E88305C090
:1043F600A881A23011F4E4E8E8830E94107AC49AF6
:104406007894219608952B970E94768836FC30C1C1
:10441600689436F8E091250AE03019F0E150E0930F
:10442600250A0E94C921E0931909E87A29F0ECE2ED
:10443600EA93ECE10E94147AE0911909E17011F413
:104446000C948722ECE2EA93E3E00E94147AA091AE
:10445600A109AA3010F00C948622E091A109EF5F21
:10446600E093A1090E94197ABF93AF93ADE0B0E043
:104476000E946F87AF91BF91EA0FFB1FEE83FF8308
:1044860000E00D3090F4EE81FF813196EE83FF83DC
:104496003197FF93EF93E02FEF59EA930E948E2115
:1044A600AF91BF91EC930F5FECCF0E94197ABF9347
:1044B600AF93ADE0B0E00E946F87AF91BF910E94CD
:1044C6001F7A14960C91AE81BF811396EC91AE8142
:1044D600BF811496EC93AE81BF811296EC91AE81AA
:1044E600BF811396EC93AE81BF8112960C93E09137
:1044F6009F09EF5FE0939F09A0919F09AA3018F0EA
:10450600E0E0E0939F09B2C0E0911909E47521F457
:10451600E091250AE03009F0A9C0E091240AE030D4
:1045260011F40C943923F8940E94267ABF93AF9322
:10453600ADE0B0E00E946F87AF91BF910E941F7AF5
:104546001D91AE83BF832D91AE83BF833D91AE8314
:10455600BF834D91AE83BF835D91AE83BF830E94BF
:104566002C7AE88B0E942C7AEF870E942C7AEE87B1
:104576000E942C7AED870E942C7AEC870E942C7A76
:10458600EB870E942C7AEA870E942C7AE9870E94A0
:10459600267ABF93AF93ADE0B0E00E946F87AF91EC
:1045A600BF91EA0FFB1FEE83FF83E091240AE150DF
:1045B600E093240AE0911C09EF5FE0931C09A091A7
:1045C6001C09AA3018F0E0E0E0931C097894E1E3B6
:1045D600EA931A930E94B821E2E3EA932A930E948F
:1045E600B821E5E3EA93E32FEF7BEA930E94B82133
:1045F600E3E3EA934A930E94B821E4E3EA935A93E9
:104606000E94B821E6E3EA93E989EA930E94B82179
:10461600E7E3EA93E889EA930E94B821E8E3EA939C
:10462600EF85EA930E94B821E9E3EA93EE85EA93DF
:104636000E94B821EAE3EA93ED85EA930E94B82145
:10464600EBE3EA93EC85EA930E94B821ECE3EA9364
:10465600EB85EA930E94B821EDE3EA93EA850E948E
:10466600327A0E94E621E5E0E093250AE89436F8DE
:104676000E947D88619608952397E0911B09EA833D
:10468600F894A091240AAA3010F00C94DE23E0914D
:10469600240AEF5FE093240AE0911B09EF5FE093A1
:1046A6001B09A0911B09AA3018F0E0E0E0931B0952
:1046B600EA81A2EAB9E0F0E0BF93AF93ADE0B0E0E3
:1046C6000E946F87AF91BF91EA0FFB1FE883F983C2
:1046D6000E94387AEE810E943F7AFF93EF93ED8134
:1046E600E860AF91BF91EC930E94387AE8E00E94AF
:1046F6003F7AFF93EF93AB81BC81EC91AF91BF9171
:104706000E943F7AFF93EF93AB81BC811196EC91A7
:10471600AF91BF910E943F7AFF93EF93AB81BC812B
:104726001296EC91AF91BF910E943F7AFF93EF935F
:10473600AB81BC811396EC91AF91BF910E943F7AF9
:10474600FF93EF93AB81BC811496EC91AF91BF912F
:104756000E943F7AFF93EF93AB81BC811596EC9153
:10476600AF91BF910E943F7AFF93EF93AB81BC81DB
:104776001696EC91AF91BF910E943F7AFF93EF930B
:10478600AB81BC811796EC91AF91BF910E943F7AA5
:10479600FF93EF93AB81BC811896EC91AF91BF91DB
:1047A6000E943F7AFF93EF93AB81BC811996EC91FF
:1047B600AF91BF91EC937894279608950E94477A1B
:1047C6000E944B7AEC91E03011F10E944B7AAC9149
:1047D600E6EAEA17C8F4E881A981BA81F0E0EA0FAF
:1047E600FB1FFF93EF93E6E7F2E3FF93EF930E943D
:1047F6004B7AEC91E75AAF91BF91F0E0EA0FFB1FBD
:10480600E491AF91BF91EC930E94527AD9CF23964F
:1048160008952597EFEFEC83EB83ED81FE813197C9
:10482600ED83FE83319611F1AF81B885EC91EA8371
:10483600EF81F8853196EF83F887EA81AC81EA2724
:10484600F0E0E883F983E0EDF2E3A881B981EA0FAD
:10485600FB1FE491AB81EA27EC83E0EDF3E3A8814B
:10486600B981EA0FFB1FE491EB83D7CFE0E0FC812F
:10487600DF01EB81F0E0EA2BFB2B299608952497C4
:104886000E947988EDE7FBE0FA93EA930E94567A54
:104896000E945B7AE0919B0BE1500E94627A0E17B0
:1048A60059F40E94567AE358F44FE0811E1721F41A
:1048B600A0917D0BA23009F011C2E0913A0AEF5F98
:1048C600E0933A0A689441F8E0E0E093A30BE0E055
:1048D600E093A10BE093A20BE0919C0BE0939D0B60
:1048E6000E94677A18F0E0E0E0939C0B0E94707AD1
:1048F600BF93AF93A4E1B0E00E946F87AF91BF91E1
:10490600AE0FBF1FAC91A130F9F400E010E022E039
:104916002630B8F40E94707ABF93AF93A4E1B0E05A
:104926000E946F87AF91BF910E94767AEF93E22F34
:104936000E94627AAF91EA1711F001E010E02F5F52
:10494600E7CF002E012A01F40E947E7ABF93AF932F
:10495600A4E1B0E00E946F87AF91BF910E94847A74
:10496600E33021F4E0917E0BE33009F089C1E09158
:104976007F0BE430D9F40E947E7ABF93AF93A4E113
:10498600B0E00E946F87AF91BF910E94897A71F45F
:104996000E947E7ABF93AF93A4E1B0E00E946F8736
:1049A600AF91BF910E948F7AE23009F009C10E944F
:1049B6007E7ABF93AF93A4E1B0E00E946F87AF9178
:1049C600BF910E94947AE73071F40E947E7ABF9379
:1049D600AF93A4E1B0E00E946F87AF91BF910E94B0
:1049E600997AE73F09F01AC0E0E0EB83EC83ED83A8
:1049F600EE83E091800B0E949E7AE091810B0E94EB
:104A06009E7AE091820B0E949E7AE091830B0E942F
:104A1600BA7AE0933B0AF0933C0AD2C00E947E7AAF
:104A2600BF93AF93A4E1B0E00E946F87AF91BF91AF
:104A36000E94947AE83071F40E947E7ABF93AF9315
:104A4600A4E1B0E00E946F87AF91BF910E94997A6E
:104A5600E13009F01AC0E0E0EB83EC83ED83EE83EE
:104A6600E091800B0E949E7AE091810B0E949E7AD3
:104A7600E091820B0E949E7AE091830B0E94BA7AA3
:104A8600E0933D0AF0933E0A9BC00E947E7ABF9354
:104A9600AF93A4E1B0E00E946F87AF91BF910E94EF
:104AA600947AE43171F40E947E7ABF93AF93A4E1C5
:104AB600B0E00E946F87AF91BF910E94997AEF3460
:104AC60009F044C0E0E0EB83EC83ED83EE83E091F4
:104AD600800B0E949E7AE091810B0E949E7AE09163
:104AE600820B0E949E7AE091830B0E94D87AAB815A
:104AF600BC818D819E81EAE0F0E060E070E00E947A
:104B0600B987EB83FC836D837E83A091EE07AA3A77
:104B1600B1F4A0E7B2E00E943788A2EBB7E00E94AA
:104B2600E67AAAE9B7E00E94E67AA6EAB7E0EE0FCF
:104B3600FF1FAE0FBF1FEB81FC81ED93FC93EB8152
:104B4600FC81E093110CF093120C3AC00E947E7A1D
:104B5600BF93AF93A4E1B0E00E946F87AF91BF917E
:104B66000E94947AE53171F40E947E7ABF93AF93E6
:104B7600A4E1B0E00E946F87AF91BF910E94997A3D
:104B8600E33009F01DC0E0E0EB83EC83ED83EE83B8
:104B9600E091800B0E949E7AE091810B0E949E7AA2
:104BA600E091820B0E949E7AE091830B0E94D87A54
:104BB600EB81FC816D817E81E093A40BF093A50BC4
:104BC600E0917F0BE230D9F40E947E7ABF93AF93D7
:104BD600A4E1B0E00E946F87AF91BF910E94897AED
:104BE60071F40E947E7ABF93AF93A4E1B0E00E9475
:104BF6006F87AF91BF910E948F7AE13009F040C074
:104C06000E94F37A0E947E7ABF93AF93A4E1B0E04C
:104C16000E946F87AF91BF910E94947AE43171F43C
:104C26000E947E7ABF93AF93A4E1B0E00E946F87A3
:104C3600AF91BF910E94997AEB3309F021C0E0E071
:104C4600EB83EC83ED83EE83E091800B0E94F97A8F
:104C5600AB81BC818D819E81E8E00E944187EB8318
:104C6600FC836D837E83EB81E070EB83E091810BA7
:104C76000E94F97AEB81FC81E0933F0AF093400AA7
:104C86000E94707ABF93AF93A4E1B0E00E946F8751
:104C9600AF91BF91AE0FBF1FAC91A630F9F400E003
:104CA60010E022E02630B8F40E94707ABF93AF93EA
:104CB600A4E1B0E00E946F87AF91BF910E94767A1F
:104CC600EF93E22F0E94627AAF91EA1711F001E0AA
:104CD60010E02F5FE7CF002E012A01F40E948088A2
:104CE60027960895A0915D0AA831E1F3F894E09122
:104CF6005D0AE03011F45D9917C0A0915B0AB0E03F
:104D0600AD5BB54FE881EC93A0915B0AAF5FA093D2
:104D16005B0AA83119F4E0E0E0935B0AE0915D0AD2
:104D2600EF5FE0935D0A08C0BD9AC59ABE9AC69A1F
:104D3600E881ECB9E89441F87894219608951A939D
:104D46000A93EA81FB810E94077BBF93AF93A4E19C
:104D5600B0E00E946F87AF91BF910E94107BBF9316
:104D6600AF93A4E1B0E00E946F87AF91BF910E941C
:104D76001A7BE1E00E941F7BBF93AF93A4E1B0E0F2
:104D86000E946F87AF91BF910E94267BBF93AF931E
:104D9600A4E1B0E00E946F87AF91BF910E94317B82
:104DA600BF93AF93A4E1B0E00E946F87AF91BF912C
:104DB6000E943C7BBF93AF93A4E1B0E00E946F8753
:104DC600AF91BF910E94427BBF93AF93A4E1B0E045
:104DD6000E946F87AF91BF910E94487B0E944F7BD4
:104DE600BF93AF93A4E1B0E00E946F87AF91BF91EC
:104DF6000E94557BBF93AF93A4E1B0E00E946F87FA
:104E0600AF91BF910E945B7B18F0E0E0E0939E0BB0
:104E1600198108815DC41A930A93EE81FF810E946D
:104E2600077BBF93AF93A4E1B0E00E946F87AF9179
:104E3600BF910E94107BBF93AF93A4E1B0E00E94A4
:104E46006F87AF91BF910E941A7BEFE00E941F7B94
:104E5600BF93AF93A4E1B0E00E946F87AF91BF917B
:104E66000E94267BBF93AF93A4E1B0E00E946F87B8
:104E7600AF91BF910E94317BBF93AF93A4E1B0E0A5
:104E86000E946F87AF91BF910E943C7BBF93AF9307
:104E9600A4E1B0E00E946F87AF91BF910E94427B70
:104EA600BF93AF93A4E1B0E00E946F87AF91BF912B
:104EB6000E94707BBF93AF93A4E1B0E00E946F871E
:104EC600AF91BF91EA0FFB1F37960E94767BBF9387
:104ED600AF93A4E1B0E00E946F87AF91BF91EA0F54
:104EE600FB1F38960E94797BBF93AF93A4E1B0E095
:104EF6000E946F87AF91BF91EA0FFB1F39960E9400
:104F06007C7BBF93AF93A4E1B0E00E946F87AF9123
:104F1600BF91EA0FFB1F3A960E947F7BBF93AF9328
:104F2600A4E1B0E00E946F87AF91BF910E94827B9F
:104F36000E944F7BBF93AF93A4E1B0E00E946F87BE
:104F4600AF91BF910E94897BBF93AF93A4E1B0E07C
:104F56000E946F87AF91BF910E948F7B18F0E0E0AF
:104F6600E0939E0BACC01A930A93AE81BF810E9458
:104F7600A47BBF93AF93A4E1B0E00E946F87AF918B
:104F8600BF910E94107BBF93AF93A4E1B0E00E9453
:104F96006F87AF91BF910E941A7BE0E10E941F7B51
:104FA600BF93AF93A4E1B0E00E946F87AF91BF912A
:104FB6000E94267BBF93AF93A4E1B0E00E946F8767
:104FC600AF91BF910E94317BBF93AF93A4E1B0E054
:104FD6000E946F87AF91BF910E943C7BBF93AF93B6
:104FE600A4E1B0E00E946F87AF91BF91EA0FFB1F6B
:104FF6003596DF01E2E00E941F7BBF93AF93A4E1E9
:10500600B0E00E946F87AF91BF910E94707BBF9303
:10501600AF93A4E1B0E00E946F87AF91BF91EA0F12
:10502600FB1F37960E94797BBF93AF93A4E1B0E054
:105036000E946F87AF91BF91EA0FFB1F38960E94BF
:10504600767BBF93AF93A4E1B0E00E946F87AF91E8
:10505600BF91EA0FFB1F39960E947F7BBF93AF93E8
:10506600A4E1B0E00E946F87AF91BF91EA0FFB1FEA
:105076003A960E947C7BBF93AF93A4E1B0E00E9476
:105086006F87AF91BF910E94827B0E944F7BBF9337
:10509600AF93A4E1B0E00E946F87AF91BF910E94E9
:1050A600897BBF93AF93A4E1B0E00E946F87AF9175
:1050B600BF910E948F7B18F0E0E0E0939E0B198170
:1050C6000881289608951A930A93AB81BC810E94A1
:1050D600A47BBF93AF93A4E1B0E00E946F87AF912A
:1050E600BF910E94107BBF93AF93A4E1B0E00E94F2
:1050F6006F87AF91BF910E941A7BE3E00E941F7BEE
:10510600BF93AF93A4E1B0E00E946F87AF91BF91C8
:105116000E94267BBF93AF93A4E1B0E00E946F8705
:10512600AF91BF910E94317BBF93AF93A4E1B0E0F2
:105136000E946F87AF91BF910E943C7BBF93AF9354
:10514600A4E1B0E00E946F87AF91BF91EA0FFB1F09
:1051560035960E947C7BBF93AF93A4E1B0E00E949A
:105166006F87AF91BF910E94487B0E944F7BBF9390
:10517600AF93A4E1B0E00E946F87AF91BF910E9408
:10518600557BBF93AF93A4E1B0E00E946F87AF91C8
:10519600BF910E945B7B18F0E0E0E0939E0B1981C3
:1051A6000881E4C1229781E0A0E0B0E0E0EDF4E3FD
:1051B6000E948488E0E0E983EA81A981AE1768F459
:1051C600E981AB81BC81F0E0AE0FBF1FEC91EA93A1
:1051D6000E9475260E94A97BEFCFC8C1E0919F0B64
:1051E600F091A00B309759F13197E0939F0BF09314
:1051F600A00B309721F50E94477AE0917E0AA8819C
:10520600AE17A8F4E881F0E0E358F44FFF93EF936C
:10521600E881F0E0E25AF54FE081AF91BF91EC935F
:10522600E0917E0AE0939B0B0E94527AE6CFE0E083
:10523600E093800AE0937E0A0E944224219641FC74
:105246002BC0E091A10BF091A20B309729F1319779
:10525600E093A10BF093A20B3097F1F4A091A30B6E
:10526600AA3090F40E94707ABF93AF93A4E1B0E0A5
:105276000E946F87AF91BF910E94AD7BE091A30B17
:10528600EF5FE093A30B08C0689441F80E94677A29
:1052960018F0E0E0E0939C0BE0919C0BA0919E0B34
:1052A600EA1711F041FC01C00FC00E94707ABF934B
:1052B600AF93A4E1B0E00E946F87AF91BF910E94C7
:1052C600AD7BE0E0E093A30B0895AA93BA93EA932B
:1052D600FA93EFB7EA931A930A930BB11CB1E02F36
:1052E600EC7111F5A0917E0AB0E0A25AB54F1C935D
:1052F600A0917E0AAF5FA0937E0AA03219F4E0E285
:10530600E0937E0AA091800AAF5FA093800AA03244
:1053160029F4E0E0E093800A689437F8EDE0F0E0E5
:10532600E0939F0BF093A00B09911991E991EFBFC0
:10533600F991E991B991A9911895F8947894AA935D
:10534600EA93FA93EFB7EA93E0915D0AE030C9F089
:10535600BD9AC59ABE9AC69AE150E0935D0AE0915D
:105366005C0AF0E0ED5BF54FE081ECB9A0915C0AD8
:10537600AF5FA0935C0AA83119F4E0E0E0935C0A01
:105386000AC0BD9AC598BE9AC698E6E9F0E0E093D1
:10539600A10BF093A20BE991EFBFF991E991A991C5
:1053A60018952397AC81BD81EC91EA83E1E0E9830E
:1053B600EB81A981AE17B0F4EC81FD813196EC83C7
:1053C600FD83AC81BD81EC91EF93ACE8B1E0EA815D
:1053D600F0E0EA0FFB1FE491AF91EA27EA830E940F
:1053E600A97BE6CFEA8126960895E1E0F0E0E09316
:1053F6005708F0935808E0E0E093A90BE093AA0B56
:10540600E0E0E093EC07E093ED0708950E94BA7B95
:10541600E093B30BF093B40BE0E0F0E0E093B50B50
:10542600F093B60BE091FB07F091FC070E946887AA
:10543600E093B70BF093B80B6093B90B7093BA0B6C
:105446000895AEE6B2E00E94378831960E944788FA
:105456003197AEE6B2E00E943788E431A0E0FA0761
:1054660034F0E0E0F0E0AEE6B2E00E944788AEE657
:10547600B2E00E943788E258FE4FFF93EF930E94F6
:10548600C67BEF71AF91BF910E944F88AEE6B2E046
:105496000E943788EE56FE4FFF93EF930E94CA7B19
:1054A600AF91BF910E944F88AEE6B2E00E94378866
:1054B600EA55FE4FFF93EF930E94CE7BAF91BF91CB
:1054C6000E944F88AEE6B2E00E943788E654FE4F4F
:1054D600FF93EF930E94D27BAF91BF910E944F88BA
:1054E600AEE6B2E00E943788E253FE4FFF93EF9399
:1054F6000E94D67BAF91BF910E944F88AEE6B2E084
:105506000E943788EE51FE4FFF93EF930E94DA7B9D
:10551600AF91BF910E944F88AEE6B2E00E943788F5
:10552600A6EFB1E0EE0FFF1FAE0FBF1FEC81F0E05C
:105536000E944788AEE6B2E00E943788AEE1B2E04C
:10554600EE0FFF1FAE0FBF1FEA81FB810E94478847
:10555600AEE6B2E00E943788A6E4B2E0EE0FFF1F87
:10556600AE0FBF1FE881F9810E94478825960895EE
:10557600E0919407F0919507E815F90584F0A0915C
:10558600A80BA23261F4A0910108A03041F4A091C9
:10559600FB07B091FC07A83EE3E0BE070CF013C082
:1055A6000E94DE7B7CF4E091260CF091270C31966C
:1055B600E093260CF093270C0E94DE7B1CF0E8E8B3
:1055C600E093A80B05C0E0E0E093260CE093270CDF
:1055D60008952497E0915007F09151070E94E97BC6
:1055E600E4EFF1E060E070E00E94F47BE0E0F4E0DC
:1055F60060E070E00E94DF87E883F9836A837B833B
:10560600A881B9818A819B81A332E0E0BE07E0E0F0
:105616008E07E0E09E073CF0EAEFF0E060E070E025
:105626000E946C883CF5A091140CA931E4F4E09139
:10563600140CEF5FE093140CA091140CA93124F024
:10564600A091130CA53509F40DC0E5E5E093130C04
:10565600E1E0EA93E981FA816B817C810E94FF7B1C
:105666000E94242A06C00E94067C1CF4E4E1E09312
:10567600140C2EC0A881B9818A819B81E3E2F0E0F7
:1056860060E070E00E946C8844F4AA3FE0E0BE0748
:10569600E0E08E07E0E09E070CF01AC00E940B7C4B
:1056A6008CF4E091140CE150E093140C0E940B7CF6
:1056B60024F0A091130CAA3A09F403C0EAEAE09395
:1056C600130C06C00E94067C1CF4E4E1E093140C63
:1056D60024960895A4E1B0E00E943B88E53511F0D8
:1056E6000C94EF2BE091A80BE030C1F5A0910609D0
:1056F600A535B9F4A0915408A93699F0E091CB0CE0
:10570600F091CC0C309769F4E091CA0CE03049F482
:1057160044FC07C0E0919407F0919507E815F90558
:105726000CF01BC0A091190CA535A1F00E94107CAD
:10573600FF93EF930E94197CAF91BF91EA17FB0785
:1057460024F4E1E1E093A80B02C00E94227C0E94AF
:10575600F82903C0E9E9E093A80B3EC0A091A80B85
:10576600A13161F4A0910609AA3A21F0A09154084A
:10577600A93619F4E8E8E093A80B2EC0A091A80B6F
:10578600A23261F4A0910609AA3A21F0A091540828
:10579600A93619F4E8E8E093A80B1EC0A091A80B5F
:1057A600A93961F4A0910609AA3A21F0A0915408FA
:1057B600A93619F4E8E8E093A80B0EC0A091A80B4F
:1057C600A83851F443FC04C0A091EE07A13809F0B3
:1057D60003C0E0E0E093A80B0895A4E1B0E00E94C6
:1057E6003B88E53511F00C94542DE091A80BE03080
:1057F60031F4E0E0E0935708E093580847C1A091E0
:10580600A80BA13111F00C94C32CE091EC07F09198
:10581600ED07309739F0A0919407B0919507A81538
:10582600B9050CF405C0E0E0E093EC07E093ED0762
:10583600E091EC07F091ED073097E9F00E94277CA4
:10584600D1F442FE0DC00E94327C3196A4E6B0E04F
:105856000E9497873196E0935708F09358080BC03B
:10586600E2E2E093A80BE2E3F0E0E093EA07F093CC
:10587600EB070E94092AE091A90BF091AA0B319639
:10588600E093A90BF093AA0BFF93EF93A0ECB0E083
:105896000E943788AAE0B0E00E949787AF91BF9137
:1058A600AE17BF0714F40C94C22CE0E0E093A90BEA
:1058B600E093AA0BE0919407F0919507E815F90596
:1058C6005CF40E94107CFF93EF930E94197CAF91C9
:1058D600BF91EA17FB070CF03DC0E091AD0BF091CC
:1058E600AE0BA0919407B0919507EA17FB07ACF4AD
:1058F600A091AD0BB091AE0BE0919407F091950796
:10590600EA1BFB0BFF93EF93AEEBB0E00E943788E8
:10591600AF91BF91AE17BF07E4F40E943B7CDF0155
:10592600E0915508F0915608AE17BF0754F4E09180
:105936005708F09158083196E0935708F0935808A5
:1059460008C0E091EC07F091ED07309711F40E9442
:10595600447C0DC00E94227CE2E3F0E0E093EA077B
:10596600F093EB07E0E0E093EC07E093ED07E091BE
:105976009407F0919507E093AD0BF093AE0B86C0BC
:10598600A091A80BA23211F00C94402DE091EC07E7
:10599600F091ED073097A9F1A091B70BB091B80B34
:1059A6008091B90B9091BA0BA030E0E4BE07E0E01D
:1059B6008E07E0E09E073CF0A0919407B091950712
:1059C600A815B9050CF405C0E0E0E093EC07E093F8
:1059D600ED07A091B70BB091B80B8091B90B9091E0
:1059E600BA0B0E9466883CF0A0919407B091950787
:1059F6008A169B060CF405C0E0E0E093EC07E09302
:105A0600ED07A091BB0BB091BC0BA130E0E0BE0747
:105A160081F4E0E0E093BB0BE093BC0BE091570808
:105A2600F0915808EC59FF4FE0935708F093580847
:105A360010C0A091BB0BB091BC0BAF3FEFEFBE0700
:105A460041F4E0E0E093BB0BE093BC0BE8E2E093AB
:105A5600F60CE091F60CE03079F0E150E093F60CAC
:105A6600E03051F4E0915708F0915808E456F040C0
:105A7600E0935708F093580809C0A091A80BA838DE
:105A860029F4E0E0E0935708E0935808E7E5F8E0EA
:105A96000E94FF7BE8EEF3E0FA93EA930E94E0208F
:105AA60006C0A4E1B0E00E943B88EA3A01F40895FA
:105AB600E091CB0CF091CC0C309751F03197E093FC
:105AC600CB0CF093CC0C309719F4E7E1E093CA0CB9
