:020000020000FC
:0E0000000C9497200C9400000C9400000C94BB
:10000E0000000C9400000C9400000C9400000C9462
:10001E0000000C9400000C9400000C94C5770C9416
:10002E0000000C9400000C9400000C9400000C9442
:10003E0000000C94D4770C9400000C946A290C9454
:10004E0000000C94A4290C9400000C9400000C9455
:10005E0000000C9400000C9400000C9400000C9412
:10006E0000000C9400000C9400000C9400000C9402
:10007E0000000C9400000C9400000C940000002A68
:10008E00547EA882FCD67A502E04D2F886ACF4DECA
:10009E00A08A5C7608228EA4DAF0260C7258C2E88A
:1000AE0096BC6A403E14B892ECC6103A446E361CAA
:1000BE0062489EB4CAE04C661832E4CEB09AAE8462
:1000CE00FAD0062C5278D4FE80AA7C5628025A709A
:1000DE000E24F2D8A68C200A745E88A2DCF66C463A
:1000EE003812C4EE90BA163C4268BE94EAC098B27A
:1000FE00CCE6301A644EE2C8B69C4A601E34765C7A
:10010E002208DEF48AA00C265872A48EF0DA82A899
:10011E00D6FC2A007E54F8D2AC86507A042EB49EB9
:10012E00E0CA1C364862CEE49AB0664C3218406A79
:10013E00143EE8C2BC963A106E4492B8C6ECD8F2A1
:10014E008CA6705A240EA288F6DC0A205E742C0649
:10015E00785284AED0FA567C0228FED4AA801A3089
:10016E004E64B298E6CC604A341EC8E29CB6EEC429
:10017E00BA90466C123894BEC0EA3C166842000E25
:10018E001C123836242A707E6C624846545AE0EEB1
:10019E00FCF2D8D6C4CA909E8C82A8A6B4BACEC0A1
:1001AE00D2DCF6F8EAE4BEB0A2AC86889A942E2091
:1001BE00323C16180A045E50424C66687A74929C61
:1001CE008E80AAA4B6B8E2ECFEF0DAD4C6C8727C71
:1001DE006E604A445658020C1E103A3426285C5261
:1001EE00404E646A78762C22303E141A0806BCB251
:1001FE00A0AE848A9896CCC2D0DEF4FAE8E62A2421
:10020E003638121C0E005A544648626C7E70CAC4B0
:10021E00D6D8F2FCEEE0BAB4A6A8828C9E90E4EAA0
:10022E00F8F6DCD2C0CE949A8886ACA2B0BE040A90
:10023E0018163C32202E747A68664C42505EB8B660
:10024E00A4AA808E9C92C8C6D4DAF0FEECE2585670
:10025E00444A606E7C722826343A101E0C02767860
:10026E006A644E40525C06081A143E30222C969850
:10027E008A84AEA0B2BCE6E8FAF4DED0C2CC000EA0
:10028E001C123836242A707E6C624846545AE0EEB0
:10029E00FCF2D8D6C4CA909E8C82A8A6B4BACEC0A0
:1002AE00D2DCF6F8EAE4BEB0A2AC86889A942E2090
:1002BE00323C16180A045E50424C66687A74929C60
:1002CE008E80AAA4B6B8E2ECFEF0DAD4C6C8727C70
:1002DE006E604A445658020C1E103A3426285C5260
:1002EE00404E646A78762C22303E141A0806BCB250
:1002FE00A0AE848A9896CCC2D0DEF4FAE8E62A2420
:10030E003638121C0E005A544648626C7E70CAC4AF
:10031E00D6D8F2FCEEE0BAB4A6A8828C9E90E4EA9F
:10032E00F8F6DCD2C0CE949A8886ACA2B0BE040A8F
:10033E0018163C32202E747A68664C42505EB8B65F
:10034E00A4AA808E9C92C8C6D4DAF0FEECE258566F
:10035E00444A606E7C722826343A101E0C0276785F
:10036E006A644E40525C06081A143E30222C96984F
:10037E008A84AEA0B2BCE6E8FAF4DED0C2CC000E9F
:10038E001C123836242A707E6C624846545AE0EEAF
:10039E00FCF2D8D6C4CA909E8C82A8A6B4BACEC09F
:1003AE00D2DCF6F8EAE4BEB0A2AC86889A942E208F
:1003BE00323C16180A045E50424C66687A74929C5F
:1003CE008E80AAA4B6B8E2ECFEF0DAD4C6C8727C6F
:1003DE006E604A445658020C1E103A3426285C525F
:1003EE00404E646A78762C22303E141A0806BCB24F
:1003FE00A0AE848A9896CCC2D0DEF4FAE8E62A241F
:10040E003638121C0E005A544648626C7E70CAC4AE
:10041E00D6D8F2FCEEE0BAB4A6A8828C9E90E4EA9E
:10042E00F8F6DCD2C0CE949A8886ACA2B0BE040A8E
:10043E0018163C32202E747A68664C42505EB8B65E
:10044E00A4AA808E9C92C8C6D4DAF0FEECE258566E
:10045E00444A606E7C722826343A101E0C0276785E
:10046E006A644E40525C06081A143E30222C96984E
:10047E008A84AEA0B2BCE6E8FAF4DED0C2CC000E9E
:10048E001C123836242A707E6C624846545AE0EEAE
:10049E00FCF2D8D6C4CA909E8C82A8A6B4BACEC09E
:1004AE00D2DCF6F8EAE4BEB0A2AC86889A942E208E
:1004BE00323C16180A045E50424C66687A74929C5E
:1004CE008E80AAA4B6B8E2ECFEF0DAD4C6C8727C6E
:1004DE006E604A445658020C1E103A3426285C525E
:1004EE00404E646A78762C22303E141A0806BCB24E
:1004FE00A0AE848A9896CCC2D0DEF4FAE8E62A241E
:10050E003638121C0E005A544648626C7E70CAC4AD
:10051E00D6D8F2FCEEE0BAB4A6A8828C9E90E4EA9D
:10052E00F8F6DCD2C0CE949A8886ACA2B0BE040A8D
:10053E0018163C32202E747A68664C42505EB8B65D
:10054E00A4AA808E9C92C8C6D4DAF0FEECE258566D
:10055E00444A606E7C722826343A101E0C0276785D
:10056E006A644E40525C06081A143E30222C96984D
:10057E008A84AEA0B2BCE6E8FAF4DED0C2CC000E9D
:10058E001C123836242A707E6C624846545AE0EEAD
:10059E00FCF2D8D6C4CA909E8C82A8A6B4BACEC09D
:1005AE00D2DCF6F8EAE4BEB0A2AC86889A942E208D
:1005BE00323C16180A045E50424C66687A74929C5D
:1005CE008E80AAA4B6B8E2ECFEF0DAD4C6C8727C6D
:1005DE006E604A445658020C1E103A3426285C525D
:1005EE00404E646A78762C22303E141A0806BCB24D
:1005FE00A0AE848A9896CCC2D0DEF4FAE8E62A241D
:10060E003638121C0E005A544648626C7E70CAC4AC
:10061E00D6D8F2FCEEE0BAB4A6A8828C9E90E4EA9C
:10062E00F8F6DCD2C0CE949A8886ACA2B0BE040A8C
:10063E0018163C32202E747A68664C42505EB8B65C
:10064E00A4AA808E9C92C8C6D4DAF0FEECE258566C
:10065E00444A606E7C722826343A101E0C0276785C
:10066E006A644E40525C06081A143E30222C96984C
:10067E008A84AEA0B2BCE6E8FAF4DED0C2CC000E9C
:10068E001C123836242A707E6C624846545AE0EEAC
:10069E00FCF2D8D6C4CA909E8C82A8A6B4BACEC09C
:1006AE00D2DCF6F8EAE4BEB0A2AC86889A942E208C
:1006BE00323C16180A045E50424C66687A74929C5C
:1006CE008E80AAA4B6B8E2ECFEF0DAD4C6C8727C6C
:1006DE006E604A445658020C1E103A3426285C525C
:1006EE00404E646A78762C22303E141A0806BCB24C
:1006FE00A0AE848A9896CCC2D0DEF4FAE8E62A241C
:10070E003638121C0E005A544648626C7E70CAC4AB
:10071E00D6D8F2FCEEE0BAB4A6A8828C9E90E4EA9B
:10072E00F8F6DCD2C0CE949A8886ACA2B0BE040A8B
:10073E0018163C32202E747A68664C42505EB8B65B
:10074E00A4AA808E9C92C8C6D4DAF0FEECE258566B
:10075E00444A606E7C722826343A101E0C0276785B
:10076E006A644E40525C06081A143E30222C96984B
:10077E008A84AEA0B2BCE6E8FAF4DED0C2CC000E9B
:10078E001C123836242A707E6C624846545AE0EEAB
:10079E00FCF2D8D6C4CA909E8C82A8A6B4BACEC09B
:1007AE00D2DCF6F8EAE4BEB0A2AC86889A942E208B
:1007BE00323C16180A045E50424C66687A74929C5B
:1007CE008E80AAA4B6B8E2ECFEF0DAD4C6C8727C6B
:1007DE006E604A445658020C1E103A3426285C525B
:1007EE00404E646A78762C22303E141A0806BCB24B
:1007FE00A0AE848A9896CCC2D0DEF4FAE8E62A241B
:10080E003638121C0E005A544648626C7E70CAC4AA
:10081E00D6D8F2FCEEE0BAB4A6A8828C9E90E4EA9A
:10082E00F8F6DCD2C0CE949A8886ACA2B0BE040A8A
:10083E0018163C32202E747A68664C42505EB8B65A
:10084E00A4AA808E9C92C8C6D4DAF0FEECE258566A
:10085E00444A606E7C722826343A101E0C0276785A
:10086E006A644E40525C06081A143E30222C96984A
:10087E008A84AEA0B2BCE6E8FAF4DED0C2CC000E9A
:10088E001C123836242A707E6C624846545AE0EEAA
:10089E00FCF2D8D6C4CA909E8C82A8A6B4BACEC09A
:1008AE00D2DCF6F8EAE4BEB0A2AC86889A942E208A
:1008BE00323C16180A045E50424C66687A74929C5A
:1008CE008E80AAA4B6B8E2ECFEF0DAD4C6C8727C6A
:1008DE006E604A445658020C1E103A3426285C525A
:1008EE00404E646A78762C22303E141A0806BCB24A
:1008FE00A0AE848A9896CCC2D0DEF4FAE8E62A241A
:10090E003638121C0E005A544648626C7E70CAC4A9
:10091E00D6D8F2FCEEE0BAB4A6A8828C9E90E4EA99
:10092E00F8F6DCD2C0CE949A8886ACA2B0BE040A89
:10093E0018163C32202E747A68664C42505EB8B659
:10094E00A4AA808E9C92C8C6D4DAF0FEECE2585669
:10095E00444A606E7C722826343A101E0C02767859
:10096E006A644E40525C06081A143E30222C969849
:10097E008A84AEA0B2BCE6E8FAF4DED0C2CC000E99
:10098E001C123836242A707E6C624846545AE0EEA9
:10099E00FCF2D8D6C4CA909E8C82A8A6B4BACEC099
:1009AE00D2DCF6F8EAE4BEB0A2AC86889A942E2089
:1009BE00323C16180A045E50424C66687A74929C59
:1009CE008E80AAA4B6B8E2ECFEF0DAD4C6C8727C69
:1009DE006E604A445658020C1E103A3426285C5259
:1009EE00404E646A78762C22303E141A0806BCB249
:1009FE00A0AE848A9896CCC2D0DEF4FAE8E62A2419
:100A0E003638121C0E005A544648626C7E70CAC4A8
:100A1E00D6D8F2FCEEE0BAB4A6A8828C9E90E4EA98
:100A2E00F8F6DCD2C0CE949A8886ACA2B0BE040A88
:100A3E0018163C32202E747A68664C42505EB8B658
:100A4E00A4AA808E9C92C8C6D4DAF0FEECE2585668
:100A5E00444A606E7C722826343A101E0C02767858
:100A6E006A644E40525C06081A143E30222C969848
:100A7E008A84AEA0B2BCE6E8FAF4DED0C2CC000E98
:100A8E001C123836242A707E6C624846545AE0EEA8
:100A9E00FCF2D8D6C4CA909E8C82A8A6B4BACEC098
:100AAE00D2DCF6F8EAE4BEB0A2AC86889A942E2088
:100ABE00323C16180A045E50424C66687A74929C58
:100ACE008E80AAA4B6B8E2ECFEF0DAD4C6C8727C68
:100ADE006E604A445658020C1E103A3426285C5258
:100AEE00404E646A78762C22303E141A0806BCB248
:100AFE00A0AE848A9896CCC2D0DEF4FAE8E62A2418
:100B0E003638121C0E005A544648626C7E70CAC4A7
:100B1E00D6D8F2FCEEE0BAB4A6A8828C9E90E4EA97
:100B2E00F8F6DCD2C0CE949A8886ACA2B0BE040A87
:100B3E0018163C32202E747A68664C42505EB8B657
:100B4E00A4AA808E9C92C8C6D4DAF0FEECE2585667
:100B5E00444A606E7C722826343A101E0C02767857
:100B6E006A644E40525C06081A143E30222C969847
:100B7E008A84AEA0B2BCE6E8FAF4DED0C2CC000E97
:100B8E001C123836242A707E6C624846545AE0EEA7
:100B9E00FCF2D8D6C4CA909E8C82A8A6B4BACEC097
:100BAE00D2DCF6F8EAE4BEB0A2AC86889A942E2087
:100BBE00323C16180A045E50424C66687A74929C57
:100BCE008E80AAA4B6B8E2ECFEF0DAD4C6C8727C67
:100BDE006E604A445658020C1E103A3426285C5257
:100BEE00404E646A78762C22303E141A0806BCB247
:100BFE00A0AE848A9896CCC2D0DEF4FAE8E62A2417
:100C0E003638121C0E005A544648626C7E70CAC4A6
:100C1E00D6D8F2FCEEE0BAB4A6A8828C9E90E4EA96
:100C2E00F8F6DCD2C0CE949A8886ACA2B0BE040A86
:100C3E0018163C32202E747A68664C42505EB8B656
:100C4E00A4AA808E9C92C8C6D4DAF0FEECE2585666
:100C5E00444A606E7C722826343A101E0C02767856
:100C6E006A644E40525C06081A143E30222C969846
:100C7E008A84AEA0B2BCE6E8FAF4DED0C2CC000E96
:100C8E001C123836242A707E6C624846545AE0EEA6
:100C9E00FCF2D8D6C4CA909E8C82A8A6B4BACEC096
:100CAE00D2DCF6F8EAE4BEB0A2AC86889A942E2086
:100CBE00323C16180A045E50424C66687A74929C56
:100CCE008E80AAA4B6B8E2ECFEF0DAD4C6C8727C66
:100CDE006E604A445658020C1E103A3426285C5256
:100CEE00404E646A78762C22303E141A0806BCB246
:100CFE00A0AE848A9896CCC2D0DEF4FAE8E62A2416
:100D0E003638121C0E005A544648626C7E70CAC4A5
:100D1E00D6D8F2FCEEE0BAB4A6A8828C9E90E4EA95
:100D2E00F8F6DCD2C0CE949A8886ACA2B0BE040A85
:100D3E0018163C32202E747A68664C42505EB8B655
:100D4E00A4AA808E9C92C8C6D4DAF0FEECE2585665
:100D5E00444A606E7C722826343A101E0C02767855
:100D6E006A644E40525C06081A143E30222C969845
:100D7E008A84AEA0B2BCE6E8FAF4DED0C2CC000E95
:100D8E001C123836242A707E6C624846545AE0EEA5
:100D9E00FCF2D8D6C4CA909E8C82A8A6B4BACEC095
:100DAE00D2DCF6F8EAE4BEB0A2AC86889A942E2085
:100DBE00323C16180A045E50424C66687A74929C55
:100DCE008E80AAA4B6B8E2ECFEF0DAD4C6C8727C65
:100DDE006E604A445658020C1E103A3426285C5255
:100DEE00404E646A78762C22303E141A0806BCB245
:100DFE00A0AE848A9896CCC2D0DEF4FAE8E62A2415
:100E0E003638121C0E005A544648626C7E70CAC4A4
:100E1E00D6D8F2FCEEE0BAB4A6A8828C9E90E4EA94
:100E2E00F8F6DCD2C0CE949A8886ACA2B0BE040A84
:100E3E0018163C32202E747A68664C42505EB8B654
:100E4E00A4AA808E9C92C8C6D4DAF0FEECE2585664
:100E5E00444A606E7C722826343A101E0C02767854
:100E6E006A644E40525C06081A143E30222C969844
:100E7E008A84AEA0B2BCE6E8FAF4DED0C2CC000E94
:100E8E001C123836242A707E6C624846545AE0EEA4
:100E9E00FCF2D8D6C4CA909E8C82A8A6B4BACEC094
:100EAE00D2DCF6F8EAE4BEB0A2AC86889A942E2084
:100EBE00323C16180A045E50424C66687A74929C54
:100ECE008E80AAA4B6B8E2ECFEF0DAD4C6C8727C64
:100EDE006E604A445658020C1E103A3426285C5254
:100EEE00404E646A78762C22303E141A0806BCB244
:100EFE00A0AE848A9896CCC2D0DEF4FAE8E62A2414
:100F0E003638121C0E005A544648626C7E70CAC4A3
:100F1E00D6D8F2FCEEE0BAB4A6A8828C9E90E4EA93
:100F2E00F8F6DCD2C0CE949A8886ACA2B0BE040A83
:100F3E0018163C32202E747A68664C42505EB8B653
:100F4E00A4AA808E9C92C8C6D4DAF0FEECE2585663
:100F5E00444A606E7C722826343A101E0C02767853
:100F6E006A644E40525C06081A143E30222C969843
:100F7E008A84AEA0B2BCE6E8FAF4DED0C2CC000E93
:100F8E001C123836242A707E6C624846545AE0EEA3
:100F9E00FCF2D8D6C4CA909E8C82A8A6B4BACEC093
:100FAE00D2DCF6F8EAE4BEB0A2AC86889A942E2083
:100FBE00323C16180A045E50424C66687A74929C53
:100FCE008E80AAA4B6B8E2ECFEF0DAD4C6C8727C63
:100FDE006E604A445658020C1E103A3426285C5253
:100FEE00404E646A78762C22303E141A0806BCB243
:100FFE00A0AE848A9896CCC2D0DEF4FAE8E62A2413
:10100E003638121C0E005A544648626C7E70CAC4A2
:10101E00D6D8F2FCEEE0BAB4A6A8828C9E90E4EA92
:10102E00F8F6DCD2C0CE949A8886ACA2B0BE040A82
:10103E0018163C32202E747A68664C42505EB8B652
:10104E00A4AA808E9C92C8C6D4DAF0FEECE2585662
:10105E00444A606E7C722826343A101E0C02767852
:10106E006A644E40525C06081A143E30222C969842
:10107E008A84AEA0B2BCE6E8FAF4DED0C2CC000E92
:10108E001C123836242A707E6C624846545AE0EEA2
:10109E00FCF2D8D6C4CA909E8C82A8A6B4BACEC092
:1010AE00D2DCF6F8EAE4BEB0A2AC86889A942E2082
:1010BE00323C16180A045E50424C66687A74929C52
:1010CE008E80AAA4B6B8E2ECFEF0DAD4C6C8727C62
:1010DE006E604A445658020C1E103A3426285C5252
:1010EE00404E646A78762C22303E141A0806BCB242
:1010FE00A0AE848A9896CCC2D0DEF4FAE8E62A2412
:10110E003638121C0E005A544648626C7E70CAC4A1
:10111E00D6D8F2FCEEE0BAB4A6A8828C9E90E4EA91
:10112E00F8F6DCD2C0CE949A8886ACA2B0BE040A81
:10113E0018163C32202E747A68664C42505EB8B651
:10114E00A4AA808E9C92C8C6D4DAF0FEECE2585661
:10115E00444A606E7C722826343A101E0C02767851
:10116E006A644E40525C06081A143E30222C969841
:10117E008A84AEA0B2BCE6E8FAF4DED0C2CC000E91
:10118E001C123836242A707E6C624846545AE0EEA1
:10119E00FCF2D8D6C4CA909E8C82A8A6B4BACEC091
:1011AE00D2DCF6F8EAE4BEB0A2AC86889A942E2081
:1011BE00323C16180A045E50424C66687A74929C51
:1011CE008E80AAA4B6B8E2ECFEF0DAD4C6C8727C61
:1011DE006E604A445658020C1E103A3426285C5251
:1011EE00404E646A78762C22303E141A0806BCB241
:1011FE00A0AE848A9896CCC2D0DEF4FAE8E62A2411
:10120E003638121C0E005A544648626C7E70CAC4A0
:10121E00D6D8F2FCEEE0BAB4A6A8828C9E90E4EA90
:10122E00F8F6DCD2C0CE949A8886ACA2B0BE040A80
:10123E0018163C32202E747A68664C42505EB8B650
:10124E00A4AA808E9C92C8C6D4DAF0FEECE2585660
:10125E00444A606E7C722826343A101E0C02767850
:10126E006A644E40525C06081A143E30222C969840
:10127E008A84AEA0B2BCE6E8FAF4DED0C2CC000E90
:10128E001C123836242A707E6C624846545AE0EEA0
:10129E00FCF2D8D6C4CA909E8C82A8A6B4BACEC090
:1012AE00D2DCF6F8EAE4BEB0A2AC86889A942E2080
:1012BE00323C16180A045E50424C66687A74929C50
:1012CE008E80AAA4B6B8E2ECFEF0DAD4C6C8727C60
:1012DE006E604A445658020C1E103A3426285C5250
:1012EE00404E646A78762C22303E141A0806BCB240
:1012FE00A0AE848A9896CCC2D0DEF4FAE8E62A2410
:10130E003638121C0E005A544648626C7E70CAC49F
:10131E00D6D8F2FCEEE0BAB4A6A8828C9E90E4EA8F
:10132E00F8F6DCD2C0CE949A8886ACA2B0BE040A7F
:10133E0018163C32202E747A68664C42505EB8B64F
:10134E00A4AA808E9C92C8C6D4DAF0FEECE258565F
:10135E00444A606E7C722826343A101E0C0276784F
:10136E006A644E40525C06081A143E30222C96983F
:10137E008A84AEA0B2BCE6E8FAF4DED0C2CC000E8F
:10138E001C123836242A707E6C624846545AE0EE9F
:10139E00FCF2D8D6C4CA909E8C82A8A6B4BACEC08F
:1013AE00D2DCF6F8EAE4BEB0A2AC86889A942E207F
:1013BE00323C16180A045E50424C66687A74929C4F
:1013CE008E80AAA4B6B8E2ECFEF0DAD4C6C8727C5F
:1013DE006E604A445658020C1E103A3426285C524F
:1013EE00404E646A78762C22303E141A0806BCB23F
:1013FE00A0AE848A9896CCC2D0DEF4FAE8E62A240F
:10140E003638121C0E005A544648626C7E70CAC49E
:10141E00D6D8F2FCEEE0BAB4A6A8828C9E90E4EA8E
:10142E00F8F6DCD2C0CE949A8886ACA2B0BE040A7E
:10143E0018163C32202E747A68664C42505EB8B64E
:10144E00A4AA808E9C92C8C6D4DAF0FEECE258565E
:10145E00444A606E7C722826343A101E0C0276784E
:10146E006A644E40525C06081A143E30222C96983E
:10147E008A84AEA0B2BCE6E8FAF4DED0C2CC000E8E
:10148E001C123836242A707E6C624846545AE0EE9E
:10149E00FCF2D8D6C4CA909E8C82A8A6B4BACEC08E
:1014AE00D2DCF6F8EAE4BEB0A2AC86889A942E207E
:1014BE00323C16180A045E50424C66687A74929C4E
:1014CE008E80AAA4B6B8E2ECFEF0DAD4C6C8727C5E
:1014DE006E604A445658020C1E103A3426285C524E
:1014EE00404E646A78762C22303E141A0806BCB23E
:1014FE00A0AE848A9896CCC2D0DEF4FAE8E62A240E
:10150E003638121C0E005A544648626C7E70CAC49D
:10151E00D6D8F2FCEEE0BAB4A6A8828C9E90E4EA8D
:10152E00F8F6DCD2C0CE949A8886ACA2B0BE040A7D
:10153E0018163C32202E747A68664C42505EB8B64D
:10154E00A4AA808E9C92C8C6D4DAF0FEECE258565D
:10155E00444A606E7C722826343A101E0C0276784D
:10156E006A644E40525C06081A143E30222C96983D
:10157E008A84AEA0B2BCE6E8FAF4DED0C2CC000E8D
:10158E001C123836242A707E6C624846545AE0EE9D
:10159E00FCF2D8D6C4CA909E8C82A8A6B4BACEC08D
:1015AE00D2DCF6F8EAE4BEB0A2AC86889A942E207D
:1015BE00323C16180A045E50424C66687A74929C4D
:1015CE008E80AAA4B6B8E2ECFEF0DAD4C6C8727C5D
:1015DE006E604A445658020C1E103A3426285C524D
:1015EE00404E646A78762C22303E141A0806BCB23D
:1015FE00A0AE848A9896CCC2D0DEF4FAE8E62A240D
:10160E003638121C0E005A544648626C7E70CAC49C
:10161E00D6D8F2FCEEE0BAB4A6A8828C9E90E4EA8C
:10162E00F8F6DCD2C0CE949A8886ACA2B0BE040A7C
:10163E0018163C32202E747A68664C42505EB8B64C
:10164E00A4AA808E9C92C8C6D4DAF0FEECE258565C
:10165E00444A606E7C722826343A101E0C0276784C
:10166E006A644E40525C06081A143E30222C96983C
:10167E008A84AEA0B2BCE6E8FAF4DED0C2CC000E8C
:10168E001C123836242A707E6C624846545AE0EE9C
:10169E00FCF2D8D6C4CA909E8C82A8A6B4BACEC08C
:1016AE00D2DCF6F8EAE4BEB0A2AC86889A942E207C
:1016BE00323C16180A045E50424C66687A74929C4C
:1016CE008E80AAA4B6B8E2ECFEF0DAD4C6C8727C5C
:1016DE006E604A445658020C1E103A3426285C524C
:1016EE00404E646A78762C22303E141A0806BCB23C
:1016FE00A0AE848A9896CCC2D0DEF4FAE8E62A240C
:10170E003638121C0E005A544648626C7E70CAC49B
:10171E00D6D8F2FCEEE0BAB4A6A8828C9E90E4EA8B
:10172E00F8F6DCD2C0CE949A8886ACA2B0BE040A7B
:10173E0018163C32202E747A68664C42505EB8B64B
:10174E00A4AA808E9C92C8C6D4DAF0FEECE258565B
:10175E00444A606E7C722826343A101E0C0276784B
:10176E006A644E40525C06081A143E30222C96983B
:10177E008A84AEA0B2BCE6E8FAF4DED0C2CC000E8B
:10178E001C123836242A707E6C624846545AE0EE9B
:10179E00FCF2D8D6C4CA909E8C82A8A6B4BACEC08B
:1017AE00D2DCF6F8EAE4BEB0A2AC86889A942E207B
:1017BE00323C16180A045E50424C66687A74929C4B
:1017CE008E80AAA4B6B8E2ECFEF0DAD4C6C8727C5B
:1017DE006E604A445658020C1E103A3426285C524B
:1017EE00404E646A78762C22303E141A0806BCB23B
:1017FE00A0AE848A9896CCC2D0DEF4FAE8E62A240B
:10180E003638121C0E005A544648626C7E70CAC49A
:10181E00D6D8F2FCEEE0BAB4A6A8828C9E90E4EA8A
:10182E00F8F6DCD2C0CE949A8886ACA2B0BE040A7A
:10183E0018163C32202E747A68664C42505EB8B64A
:10184E00A4AA808E9C92C8C6D4DAF0FEECE258565A
:10185E00444A606E7C722826343A101E0C0276784A
:10186E006A644E40525C06081A143E30222C96983A
:10187E008A84AEA0B2BCE6E8FAF4DED0C2CC000E8A
:10188E001C123836242A707E6C624846545AE0EE9A
:10189E00FCF2D8D6C4CA909E8C82A8A6B4BACEC08A
:1018AE00D2DCF6F8EAE4BEB0A2AC86889A942E207A
:1018BE00323C16180A045E50424C66687A74929C4A
:1018CE008E80AAA4B6B8E2ECFEF0DAD4C6C8727C5A
:1018DE006E604A445658020C1E103A3426285C524A
:1018EE00404E646A78762C22303E141A0806BCB23A
:1018FE00A0AE848A9896CCC2D0DEF4FAE8E62A240A
:10190E003638121C0E005A544648626C7E70CAC499
:10191E00D6D8F2FCEEE0BAB4A6A8828C9E90E4EA89
:10192E00F8F6DCD2C0CE949A8886ACA2B0BE040A79
:10193E0018163C32202E747A68664C42505EB8B649
:10194E00A4AA808E9C92C8C6D4DAF0FEECE2585659
:10195E00444A606E7C722826343A101E0C02767849
:10196E006A644E40525C06081A143E30222C969839
:10197E008A84AEA0B2BCE6E8FAF4DED0C2CC000E89
:10198E001C123836242A707E6C624846545AE0EE99
:10199E00FCF2D8D6C4CA909E8C82A8A6B4BACEC089
:1019AE00D2DCF6F8EAE4BEB0A2AC86889A942E2079
:1019BE00323C16180A045E50424C66687A74929C49
:1019CE008E80AAA4B6B8E2ECFEF0DAD4C6C8727C59
:1019DE006E604A445658020C1E103A3426285C5249
:1019EE00404E646A78762C22303E141A0806BCB239
:1019FE00A0AE848A9896CCC2D0DEF4FAE8E62A2409
:101A0E003638121C0E005A544648626C7E70CAC498
:101A1E00D6D8F2FCEEE0BAB4A6A8828C9E90E4EA88
:101A2E00F8F6DCD2C0CE949A8886ACA2B0BE040A78
:101A3E0018163C32202E747A68664C42505EB8B648
:101A4E00A4AA808E9C92C8C6D4DAF0FEECE2585658
:101A5E00444A606E7C722826343A101E0C02767848
:101A6E006A644E40525C06081A143E30222C969838
:101A7E008A84AEA0B2BCE6E8FAF4DED0C2CC000E88
:101A8E001C123836242A707E6C624846545AE0EE98
:101A9E00FCF2D8D6C4CA909E8C82A8A6B4BACEC088
:101AAE00D2DCF6F8EAE4BEB0A2AC86889A942E2078
:101ABE00323C16180A045E50424C66687A74929C48
:101ACE008E80AAA4B6B8E2ECFEF0DAD4C6C8727C58
:101ADE006E604A445658020C1E103A3426285C5248
:101AEE00404E646A78762C22303E141A0806BCB238
:101AFE00A0AE848A9896CCC2D0DEF4FAE8E62A2408
:101B0E003638121C0E005A544648626C7E70CAC497
:101B1E00D6D8F2FCEEE0BAB4A6A8828C9E90E4EA87
:101B2E00F8F6DCD2C0CE949A8886ACA2B0BE040A77
:101B3E0018163C32202E747A68664C42505EB8B647
:101B4E00A4AA808E9C92C8C6D4DAF0FEECE2585657
:101B5E00444A606E7C722826343A101E0C02767847
:101B6E006A644E40525C06081A143E30222C969837
:101B7E008A84AEA0B2BCE6E8FAF4DED0C2CC000E87
:101B8E001C123836242A707E6C624846545AE0EE97
:101B9E00FCF2D8D6C4CA909E8C82A8A6B4BACEC087
:101BAE00D2DCF6F8EAE4BEB0A2AC86889A942E2077
:101BBE00323C16180A045E50424C66687A74929C47
:101BCE008E80AAA4B6B8E2ECFEF0DAD4C6C8727C57
:101BDE006E604A445658020C1E103A3426285C5247
:101BEE00404E646A78762C22303E141A0806BCB237
:101BFE00A0AE848A9896CCC2D0DEF4FAE8E62A2407
:101C0E003638121C0E005A544648626C7E70CAC496
:101C1E00D6D8F2FCEEE0BAB4A6A8828C9E90E4EA86
:101C2E00F8F6DCD2C0CE949A8886ACA2B0BE040A76
:101C3E0018163C32202E747A68664C42505EB8B646
:101C4E00A4AA808E9C92C8C6D4DAF0FEECE2585656
:101C5E00444A606E7C722826343A101E0C02767846
:101C6E006A644E40525C06081A143E30222C969836
:101C7E008A84AEA0B2BCE6E8FAF4DED0C2CC000E86
:101C8E001C123836242A707E6C624846545AE0EE96
:101C9E00FCF2D8D6C4CA909E8C82A8A6B4BACEC086
:101CAE00D2DCF6F8EAE4BEB0A2AC86889A942E2076
:101CBE00323C16180A045E50424C66687A74929C46
:101CCE008E80AAA4B6B8E2ECFEF0DAD4C6C8727C56
:101CDE006E604A445658020C1E103A3426285C5246
:101CEE00404E646A78762C22303E141A0806BCB236
:101CFE00A0AE848A9896CCC2D0DEF4FAE8E62A2406
:101D0E003638121C0E005A544648626C7E70CAC495
:101D1E00D6D8F2FCEEE0BAB4A6A8828C9E90E4EA85
:101D2E00F8F6DCD2C0CE949A8886ACA2B0BE040A75
:101D3E0018163C32202E747A68664C42505EB8B645
:101D4E00A4AA808E9C92C8C6D4DAF0FEECE2585655
:101D5E00444A606E7C722826343A101E0C02767845
:101D6E006A644E40525C06081A143E30222C969835
:101D7E008A84AEA0B2BCE6E8FAF4DED0C2CC000E85
:101D8E001C123836242A707E6C624846545AE0EE95
:101D9E00FCF2D8D6C4CA909E8C82A8A6B4BACEC085
:101DAE00D2DCF6F8EAE4BEB0A2AC86889A942E2075
:101DBE00323C16180A045E50424C66687A74929C45
:101DCE008E80AAA4B6B8E2ECFEF0DAD4C6C8727C55
:101DDE006E604A445658020C1E103A3426285C5245
:101DEE00404E646A78762C22303E141A0806BCB235
:101DFE00A0AE848A9896CCC2D0DEF4FAE8E62A2405
:101E0E003638121C0E005A544648626C7E70CAC494
:101E1E00D6D8F2FCEEE0BAB4A6A8828C9E90E4EA84
:101E2E00F8F6DCD2C0CE949A8886ACA2B0BE040A74
:101E3E0018163C32202E747A68664C42505EB8B644
:101E4E00A4AA808E9C92C8C6D4DAF0FEECE2585654
:101E5E00444A606E7C722826343A101E0C02767844
:101E6E006A644E40525C06081A143E30222C969834
:101E7E008A84AEA0B2BCE6E8FAF4DED0C2CC000E84
:101E8E001C123836242A707E6C624846545AE0EE94
:101E9E00FCF2D8D6C4CA909E8C82A8A6B4BACEC084
:101EAE00D2DCF6F8EAE4BEB0A2AC86889A942E2074
:101EBE00323C16180A045E50424C66687A74929C44
:101ECE008E80AAA4B6B8E2ECFEF0DAD4C6C8727C54
:101EDE006E604A445658020C1E103A3426285C5244
:101EEE00404E646A78762C22303E141A0806BCB234
:101EFE00A0AE848A9896CCC2D0DEF4FAE8E62A2404
:101F0E003638121C0E005A544648626C7E70CAC493
:101F1E00D6D8F2FCEEE0BAB4A6A8828C9E90E4EA83
:101F2E00F8F6DCD2C0CE949A8886ACA2B0BE040A73
:101F3E0018163C32202E747A68664C42505EB8B643
:101F4E00A4AA808E9C92C8C6D4DAF0FEECE2585653
:101F5E00444A606E7C722826343A101E0C02767843
:101F6E006A644E40525C06081A143E30222C969833
:101F7E008A84AEA0B2BCE6E8FAF4DED0C2CC000E83
:101F8E001C123836242A707E6C624846545AE0EE93
:101F9E00FCF2D8D6C4CA909E8C82A8A6B4BACEC083
:101FAE00D2DCF6F8EAE4BEB0A2AC86889A942E2073
:101FBE00323C16180A045E50424C66687A74929C43
:101FCE008E80AAA4B6B8E2ECFEF0DAD4C6C8727C53
:101FDE006E604A445658020C1E103A3426285C5243
:101FEE00404E646A78762C22303E141A0806BCB233
:101FFE00A0AE848A9896CCC2D0DEF4FAE8E62A2403
:10200E003638121C0E005A544648626C7E70CAC492
:10201E00D6D8F2FCEEE0BAB4A6A8828C9E90E4EA82
:10202E00F8F6DCD2C0CE949A8886ACA2B0BE040A72
:10203E0018163C32202E747A68664C42505EB8B642
:10204E00A4AA808E9C92C8C6D4DAF0FEECE2585652
:10205E00444A606E7C722826343A101E0C02767842
:10206E006A644E40525C06081A143E30222C969832
:10207E008A84AEA0B2BCE6E8FAF4DED0C2CC000E82
:10208E001C123836242A707E6C624846545AE0EE92
:10209E00FCF2D8D6C4CA909E8C82A8A6B4BACEC082
:1020AE00D2DCF6F8EAE4BEB0A2AC86889A942E2072
:1020BE00323C16180A045E50424C66687A74929C42
:1020CE008E80AAA4B6B8E2ECFEF0DAD4C6C8727C52
:1020DE006E604A445658020C1E103A3426285C5242
:1020EE00404E646A78762C22303E141A0806BCB232
:1020FE00A0AE848A9896CCC2D0DEF4FAE8E62A2402
:10210E003638121C0E005A544648626C7E70CAC491
:10211E00D6D8F2FCEEE0BAB4A6A8828C9E90E4EA81
:10212E00F8F6DCD2C0CE949A8886ACA2B0BE040A71
:10213E0018163C32202E747A68664C42505EB8B641
:10214E00A4AA808E9C92C8C6D4DAF0FEECE2585651
:10215E00444A606E7C722826343A101E0C02767841
:10216E006A644E40525C06081A143E30222C969831
:10217E008A84AEA0B2BCE6E8FAF4DED0C2CC000E81
:10218E001C123836242A707E6C624846545AE0EE91
:10219E00FCF2D8D6C4CA909E8C82A8A6B4BACEC081
:1021AE00D2DCF6F8EAE4BEB0A2AC86889A942E2071
:1021BE00323C16180A045E50424C66687A74929C41
:1021CE008E80AAA4B6B8E2ECFEF0DAD4C6C8727C51
:1021DE006E604A445658020C1E103A3426285C5241
:1021EE00404E646A78762C22303E141A0806BCB231
:1021FE00A0AE848A9896CCC2D0DEF4FAE8E62A2401
:10220E003638121C0E005A544648626C7E70CAC490
:10221E00D6D8F2FCEEE0BAB4A6A8828C9E90E4EA80
:10222E00F8F6DCD2C0CE949A8886ACA2B0BE040A70
:10223E0018163C32202E747A68664C42505EB8B640
:10224E00A4AA808E9C92C8C6D4DAF0FEECE2585650
:10225E00444A606E7C722826343A101E0C02767840
:10226E006A644E40525C06081A143E30222C969830
:10227E008A84AEA0B2BCE6E8FAF4DED0C2CC000E80
:10228E001C123836242A707E6C624846545AE0EE90
:10229E00FCF2D8D6C4CA909E8C82A8A6B4BACEC080
:1022AE00D2DCF6F8EAE4BEB0A2AC86889A942E2070
:1022BE00323C16180A045E50424C66687A74929C40
:1022CE008E80AAA4B6B8E2ECFEF0DAD4C6C8727C50
:1022DE006E604A445658020C1E103A3426285C5240
:1022EE00404E646A78762C22303E141A0806BCB230
:1022FE00A0AE848A9896CCC2D0DEF4FAE8E62A2400
:10230E003638121C0E005A544648626C7E70CAC48F
:10231E00D6D8F2FCEEE0BAB4A6A8828C9E90E4EA7F
:10232E00F8F6DCD2C0CE949A8886ACA2B0BE040A6F
:10233E0018163C32202E747A68664C42505EB8B63F
:10234E00A4AA808E9C92C8C6D4DAF0FEECE258564F
:10235E00444A606E7C722826343A101E0C0276783F
:10236E006A644E40525C06081A143E30222C96982F
:10237E008A84AEA0B2BCE6E8FAF4DED0C2CC000E7F
:10238E001C123836242A707E6C624846545AE0EE8F
:10239E00FCF2D8D6C4CA909E8C82A8A6B4BACEC07F
:1023AE00D2DCF6F8EAE4BEB0A2AC86889A942E206F
:1023BE00323C16180A045E50424C66687A74929C3F
:1023CE008E80AAA4B6B8E2ECFEF0DAD4C6C8727C4F
:1023DE006E604A445658020C1E103A3426285C523F
:1023EE00404E646A78762C22303E141A0806BCB22F
:1023FE00A0AE848A9896CCC2D0DEF4FAE8E62A24FF
:10240E003638121C0E005A544648626C7E70CAC48E
:10241E00D6D8F2FCEEE0BAB4A6A8828C9E90E4EA7E
:10242E00F8F6DCD2C0CE949A8886ACA2B0BE040A6E
:10243E0018163C32202E747A68664C42505EB8B63E
:10244E00A4AA808E9C92C8C6D4DAF0FEECE258564E
:10245E00444A606E7C722826343A101E0C0276783E
:10246E006A644E40525C06081A143E30222C96982E
:10247E008A84AEA0B2BCE6E8FAF4DED0C2CC000E7E
:10248E001C123836242A707E6C624846545AE0EE8E
:10249E00FCF2D8D6C4CA909E8C82A8A6B4BACEC07E
:1024AE00D2DCF6F8EAE4BEB0A2AC86889A942E206E
:1024BE00323C16180A045E50424C66687A74929C3E
:1024CE008E80AAA4B6B8E2ECFEF0DAD4C6C8727C4E
:1024DE006E604A445658020C1E103A3426285C523E
:1024EE00404E646A78762C22303E141A0806BCB22E
:1024FE00A0AE848A9896CCC2D0DEF4FAE8E62A24FE
:10250E003638121C0E005A544648626C7E70CAC48D
:10251E00D6D8F2FCEEE0BAB4A6A8828C9E90E4EA7D
:10252E00F8F6DCD2C0CE949A8886ACA2B0BE040A6D
:10253E0018163C32202E747A68664C42505EB8B63D
:10254E00A4AA808E9C92C8C6D4DAF0FEECE258564D
:10255E00444A606E7C722826343A101E0C0276783D
:10256E006A644E40525C06081A143E30222C96982D
:10257E008A84AEA0B2BCE6E8FAF4DED0C2CC000E7D
:10258E001C123836242A707E6C624846545AE0EE8D
:10259E00FCF2D8D6C4CA909E8C82A8A6B4BACEC07D
:1025AE00D2DCF6F8EAE4BEB0A2AC86889A942E206D
:1025BE00323C16180A045E50424C66687A74929C3D
:1025CE008E80AAA4B6B8E2ECFEF0DAD4C6C8727C4D
:1025DE006E604A445658020C1E103A3426285C523D
:1025EE00404E646A78762C22303E141A0806BCB22D
:1025FE00A0AE848A9896CCC2D0DEF4FAE8E62A24FD
:10260E003638121C0E005A544648626C7E70CAC48C
:10261E00D6D8F2FCEEE0BAB4A6A8828C9E90E4EA7C
:10262E00F8F6DCD2C0CE949A8886ACA2B0BE040A6C
:10263E0018163C32202E747A68664C42505EB8B63C
:10264E00A4AA808E9C92C8C6D4DAF0FEECE258564C
:10265E00444A606E7C722826343A101E0C0276783C
:10266E006A644E40525C06081A143E30222C96982C
:10267E008A84AEA0B2BCE6E8FAF4DED0C2CC000E7C
:10268E001C123836242A707E6C624846545AE0EE8C
:10269E00FCF2D8D6C4CA909E8C82A8A6B4BACEC07C
:1026AE00D2DCF6F8EAE4BEB0A2AC86889A942E206C
:1026BE00323C16180A045E50424C66687A74929C3C
:1026CE008E80AAA4B6B8E2ECFEF0DAD4C6C8727C4C
:1026DE006E604A445658020C1E103A3426285C523C
:1026EE00404E646A78762C22303E141A0806BCB22C
:1026FE00A0AE848A9896CCC2D0DEF4FAE8E62A24FC
:10270E003638121C0E005A544648626C7E70CAC48B
:10271E00D6D8F2FCEEE0BAB4A6A8828C9E90E4EA7B
:10272E00F8F6DCD2C0CE949A8886ACA2B0BE040A6B
:10273E0018163C32202E747A68664C42505EB8B63B
:10274E00A4AA808E9C92C8C6D4DAF0FEECE258564B
:10275E00444A606E7C722826343A101E0C0276783B
:10276E006A644E40525C06081A143E30222C96982B
:10277E008A84AEA0B2BCE6E8FAF4DED0C2CC000E7B
:10278E001C123836242A707E6C624846545AE0EE8B
:10279E00FCF2D8D6C4CA909E8C82A8A6B4BACEC07B
:1027AE00D2DCF6F8EAE4BEB0A2AC86889A942E206B
:1027BE00323C16180A045E50424C66687A74929C3B
:1027CE008E80AAA4B6B8E2ECFEF0DAD4C6C8727C4B
:1027DE006E604A445658020C1E103A3426285C523B
:1027EE00404E646A78762C22303E141A0806BCB22B
:1027FE00A0AE848A9896CCC2D0DEF4FAE8E62A24FB
:10280E003638121C0E005A544648626C7E70CAC48A
:10281E00D6D8F2FCEEE0BAB4A6A8828C9E90E4EA7A
:10282E00F8F6DCD2C0CE949A8886ACA2B0BE040A6A
:10283E0018163C32202E747A68664C42505EB8B63A
:10284E00A4AA808E9C92C8C6D4DAF0FEECE258564A
:10285E00444A606E7C722826343A101E0C0276783A
:10286E006A644E40525C06081A143E30222C96982A
:10287E008A84AEA0B2BCE6E8FAF4DED0C2CC000E7A
:10288E001C123836242A707E6C624846545AE0EE8A
:10289E00FCF2D8D6C4CA909E8C82A8A6B4BACEC07A
:1028AE00D2DCF6F8EAE4BEB0A2AC86889A942E206A
:1028BE00323C16180A045E50424C66687A74929C3A
:1028CE008E80AAA4B6B8E2ECFEF0DAD4C6C8727C4A
:1028DE006E604A445658020C1E103A3426285C523A
:1028EE00404E646A78762C22303E141A0806BCB22A
:1028FE00A0AE848A9896CCC2D0DEF4FAE8E62A24FA
:10290E003638121C0E005A544648626C7E70CAC489
:10291E00D6D8F2FCEEE0BAB4A6A8828C9E90E4EA79
:10292E00F8F6DCD2C0CE949A8886ACA2B0BE040A69
:10293E0018163C32202E747A68664C42505EB8B639
:10294E00A4AA808E9C92C8C6D4DAF0FEECE2585649
:10295E00444A606E7C722826343A101E0C02767839
:10296E006A644E40525C06081A143E30222C969829
:10297E008A84AEA0B2BCE6E8FAF4DED0C2CC000E79
:10298E001C123836242A707E6C624846545AE0EE89
:10299E00FCF2D8D6C4CA909E8C82A8A6B4BACEC079
:1029AE00D2DCF6F8EAE4BEB0A2AC86889A942E2069
:1029BE00323C16180A045E50424C66687A74929C39
:1029CE008E80AAA4B6B8E2ECFEF0DAD4C6C8727C49
:1029DE006E604A445658020C1E103A3426285C5239
:1029EE00404E646A78762C22303E141A0806BCB229
:1029FE00A0AE848A9896CCC2D0DEF4FAE8E62A24F9
:102A0E003638121C0E005A544648626C7E70CAC488
:102A1E00D6D8F2FCEEE0BAB4A6A8828C9E90E4EA78
:102A2E00F8F6DCD2C0CE949A8886ACA2B0BE040A68
:102A3E0018163C32202E747A68664C42505EB8B638
:102A4E00A4AA808E9C92C8C6D4DAF0FEECE2585648
:102A5E00444A606E7C722826343A101E0C02767838
:102A6E006A644E40525C06081A143E30222C969828
:102A7E008A84AEA0B2BCE6E8FAF4DED0C2CC000E78
:102A8E001C123836242A707E6C624846545AE0EE88
:102A9E00FCF2D8D6C4CA909E8C82A8A6B4BACEC078
:102AAE00D2DCF6F8EAE4BEB0A2AC86889A942E2068
:102ABE00323C16180A045E50424C66687A74929C38
:102ACE008E80AAA4B6B8E2ECFEF0DAD4C6C8727C48
:102ADE006E604A445658020C1E103A3426285C5238
:102AEE00404E646A78762C22303E141A0806BCB228
:102AFE00A0AE848A9896CCC2D0DEF4FAE8E62A24F8
:102B0E003638121C0E005A544648626C7E70CAC487
:102B1E00D6D8F2FCEEE0BAB4A6A8828C9E90E4EA77
:102B2E00F8F6DCD2C0CE949A8886ACA2B0BE040A67
:102B3E0018163C32202E747A68664C42505EB8B637
:102B4E00A4AA808E9C92C8C6D4DAF0FEECE2585647
:102B5E00444A606E7C722826343A101E0C02767837
:102B6E006A644E40525C06081A143E30222C969827
:102B7E008A84AEA0B2BCE6E8FAF4DED0C2CC000E77
:102B8E001C123836242A707E6C624846545AE0EE87
:102B9E00FCF2D8D6C4CA909E8C82A8A6B4BACEC077
:102BAE00D2DCF6F8EAE4BEB0A2AC86889A942E2067
:102BBE00323C16180A045E50424C66687A74929C37
:102BCE008E80AAA4B6B8E2ECFEF0DAD4C6C8727C47
:102BDE006E604A445658020C1E103A3426285C5237
:102BEE00404E646A78762C22303E141A0806BCB227
:102BFE00A0AE848A9896CCC2D0DEF4FAE8E62A24F7
:102C0E003638121C0E005A544648626C7E70CAC486
:102C1E00D6D8F2FCEEE0BAB4A6A8828C9E90E4EA76
:102C2E00F8F6DCD2C0CE949A8886ACA2B0BE040A66
:102C3E0018163C32202E747A68664C42505EB8B636
:102C4E00A4AA808E9C92C8C6D4DAF0FEECE2585646
:102C5E00444A606E7C722826343A101E0C02767836
:102C6E006A644E40525C06081A143E30222C969826
:102C7E008A84AEA0B2BCE6E8FAF4DED0C2CC000E76
:102C8E001C123836242A707E6C624846545AE0EE86
:102C9E00FCF2D8D6C4CA909E8C82A8A6B4BACEC076
:102CAE00D2DCF6F8EAE4BEB0A2AC86889A942E2066
:102CBE00323C16180A045E50424C66687A74929C36
:102CCE008E80AAA4B6B8E2ECFEF0DAD4C6C8727C46
:102CDE006E604A445658020C1E103A3426285C5236
:102CEE00404E646A78762C22303E141A0806BCB226
:102CFE00A0AE848A9896CCC2D0DEF4FAE8E62A24F6
:102D0E003638121C0E005A544648626C7E70CAC485
:102D1E00D6D8F2FCEEE0BAB4A6A8828C9E90E4EA75
:102D2E00F8F6DCD2C0CE949A8886ACA2B0BE040A65
:102D3E0018163C32202E747A68664C42505EB8B635
:102D4E00A4AA808E9C92C8C6D4DAF0FEECE2585645
:102D5E00444A606E7C722826343A101E0C02767835
:102D6E006A644E40525C06081A143E30222C969825
:102D7E008A84AEA0B2BCE6E8FAF4DED0C2CC000E75
:102D8E001C123836242A707E6C624846545AE0EE85
:102D9E00FCF2D8D6C4CA909E8C82A8A6B4BACEC075
:102DAE00D2DCF6F8EAE4BEB0A2AC86889A942E2065
:102DBE00323C16180A045E50424C66687A74929C35
:102DCE008E80AAA4B6B8E2ECFEF0DAD4C6C8727C45
:102DDE006E604A445658020C1E103A3426285C5235
:102DEE00404E646A78762C22303E141A0806BCB225
:102DFE00A0AE848A9896CCC2D0DEF4FAE8E62A24F5
:102E0E003638121C0E005A544648626C7E70CAC484
:102E1E00D6D8F2FCEEE0BAB4A6A8828C9E90E4EA74
:102E2E00F8F6DCD2C0CE949A8886ACA2B0BE040A64
:102E3E0018163C32202E747A68664C42505EB8B634
:102E4E00A4AA808E9C92C8C6D4DAF0FEECE2585644
:102E5E00444A606E7C722826343A101E0C02767834
:102E6E006A644E40525C06081A143E30222C969824
:102E7E008A84AEA0B2BCE6E8FAF4DED0C2CC000E74
:102E8E001C123836242A707E6C624846545AE0EE84
:102E9E00FCF2D8D6C4CA909E8C82A8A6B4BACEC074
:102EAE001F1D1F1E1F1E1F1F1E1F1E1F2020200046
:102EBE000000000000000000000000E2EEF1EAF069
:102ECE002E000000000000000000EFEEEDE5E42E05
:102EDE00000000000000000000E2F2EEF0ED2E0017
:102EEE000000000000000000F1F0E5E4E00000004A
:102EFE0000000000000000F7E5F2E2E5F0E300005C
:102F0E00000000000000EFFFF2ED2E0000000000B8
:102F1E000000000000F1F3E1E1EEF2E0000000003D
:102F2E000000000087004F01170219008100818107
:102F3E0081818181818181818181AA00AAAAAAAA27
:102F4E00AAAAAAAAAAAAAAAAAAAAAAAAAAAAAAAAD3
:102F5E00AAAAAAAAAAAAAAAAAAAAAAAAAAAAAAAAC3
:102F6E007F00AA003031323334353637383941429A
:102F7E0043444546202020202020202020202020B1
:102F8E0020202020000020C2FBF5EEE4202020208F
:102F9E002020202020200000FFEDE200F4E5E200DA
:102FAE00ECE0F000E0EFF000ECE0E900E8FEED0010
:102FBE00E8FEEB00E0E2E300F1E5ED00EEEAF20000
:102FCE00EDEEFF00E4E5EA00303000303100303243
:102FDE0000303300303400303500303600303700EA
:102FEE0030380030390030E00030E10030E200309F
:102FFE00E30030E40030E500303000303100303294
:10300E0000303300303400303500303600303700B9
:10301E0030380030390030E00030E10030E200306E
:10302E00E30030E40030E500313000313100313260
:10303E000031330031340031350031360031370084
:10304E0031380031390031E00031E10031E2003138
:10305E00E30031E40031E50031300031310031322E
:10306E000031330031340031350031360031370054
:10307E0031380031390031E00031E10031E2003108
:10308E00E30031E40031E5003230003231003232FB
:10309E00003233003234003235003236003237001F
:1030AE0032380032390032E00032E10032E20032D2
:1030BE00E30032E40032E5003230003231003232C9
:1030CE0000323300323400323500323600323700EF
:1030DE0032380032390032E00032E10032E20032A2
:1030EE00E30032E40032E500333000333100333296
:1030FE0000333300333400333500333600333700BA
:10310E0033380033390033E00033E10033E200336B
:10311E00E30033E40033E500333000333100333263
:10312E000033330033340033350033360033370089
:10313E0033380033390033E00033E10033E200333B
:10314E00E30033E40033E500343000343100343230
:10315E000034330034340034350034360034370054
:10316E0034380034390034E00034E10034E2003405
:10317E00E30034E40034E5003430003431003432FE
:10318E000034330034340034350034360034370024
:10319E0034380034390034E00034E10034E20034D5
:1031AE00E30034E40034E5003530003531003532CB
:1031BE0000353300353400353500353600353700EF
:1031CE0035380035390035E00035E10035E200359F
:1031DE00E30035E40035E500353000353100353299
:1031EE0000353300353400353500353600353700BF
:1031FE0035380035390035E00035E10035E200356F
:10320E00E30035E40035E500363000363100363265
:10321E000036330036340036350036360036370089
:10322E0036380036390036E00036E10036E2003638
:10323E00E30036E40036E500363000363100363233
:10324E000036330036340036350036360036370059
:10325E0036380036390036E00036E10036E2003608
:10326E00E30036E40036E500FDA2FFAAC8ACADAE21
:10327E00AFB0B1D769B4B5FEDFB5CCBAC9BCBDBE6F
:10328E00BF41A042A1E045A3A4A5A64BA74D484F20
:10329E00A8504354A9AA58E1ABACE2ADAEC4AFB04E
:1032AE00B161B2B3B4E365B6B7B8B9BABBBCBD6F62
:1032BE00BE7063BF79AA78E5C0C1E6C2C3C4C5C6F5
:1032CE00C70000C1814001C0804101C0804100C1E2
:1032DE00814001C0804100C1814000C1814001C0D8
:1032EE00804101C0804100C1814000C1814001C0C8
:1032FE00804100C1814001C0804101C0804100C1B8
:10330E00814001C0804100C1814000C1814001C0A7
:10331E00804100C1814001C0804101C0804100C197
:10332E00814000C1814001C0804101C0804100C187
:10333E00814001C0804100C1814000C1814001C077
:10334E00804101C0804100C1814000C1814001C067
:10335E00804100C1814001C0804101C0804100C157
:10336E00814000C1814001C0804101C0804100C147
:10337E00814001C0804100C1814000C1814001C037
:10338E00804100C1814001C0804101C0804100C127
:10339E00814001C0804100C1814000C1814001C017
:1033AE00804101C0804100C1814000C1814001C007
:1033BE00804100C1814001C0804101C0804100C1F7
:1033CE00814000C0C101C30302C2C60607C705C5BE
:1033DE00C404CC0C0DCD0FCFCE0E0ACACB0BC9092F
:1033EE0008C8D81819D91BDBDA1A1EDEDF1FDD1D3F
:1033FE001CDC14D4D515D71716D6D21213D311D16F
:10340E00D010F03031F133F3F23236F6F737F535BE
:10341E0034F43CFCFD3DFF3F3EFEFA3A3BFB39F9EE
:10342E00F83828E8E929EB2B2AEAEE2E2FEF2DEDBE
:10343E00EC2CE42425E527E7E62622E2E323E1212E
:10344E0020E0A06061A163A3A26266A6A767A5653E
:10345E0064A46CACAD6DAF6F6EAEAA6A6BAB69A9AE
:10346E00A86878B8B979BB7B7ABABE7E7FBF7DBDBE
:10347E00BC7CB47475B577B7B67672B2B373B171EE
:10348E0070B05090915193535292965657975595BE
:10349E0094549C5C5D9D5F9F9E5E5A9A9B5B99596E
:1034AE005898884849894B8B8A4A4E8E8F4F8D4D3E
:1034BE004C8C4484854587474686824243834181AE
:1034CE0080400000AA00AA00AAAAAAAAAAAA0000DE
:1034DE0020002021202030403A3023203024302577
:1034EE00303C0020C0E2E0F0E8E920EDE5F22020DB
:1034FE0020202000205E202030263A302A2030283E
:10350E003029303E0030403A30233A3024203025E6
:10351E00202026305E002020202020D1F2E0EDF683
:10352E00E8FF202020200020202020E2EAEBFEF7FA
:10353E00E5EDE02020202000202020C0E2E0F0E891
:10354E00FF20D7CF2020202000EAEEF0EEF2EAEEA8
:10355E00E520E7E0ECFBEAE0ED00EFE5F0E5E3F077
:10356E002E20EFEE20F2EEEAF32000EDE8E7EAEE91
:10357E00E520EDE0EFF0FFE6E5ED2E00E2FBF1EEEB
:10358E00EAEEE520EDE0EFF0FFE62E20002020EE43
:10359E00E1F0FBE220F4E0E7FB20202020002020D9
:1035AE00EFE5F0E5E3F0E5E22020202020200020EA
:1035BE00202020202020202020202020202020001D
:1035CE00202020CDE0EFF0FFE6E5EDE8E52020201D
:1035DE000020F4E0E7FB204120E7E0EDE8E6E5ED32
:1035EE00EE0020F4E0E7FB204120E7E0E2FBF8E507
:1035FE00EDEE0020F4E0E7FB204220E7E0EDE8E608
:10360E00E5EDEE0020F4E0E7FB204220E7E0E2FBF0
:10361E00F8E5EDEE0020F4E0E7FB204320E7E0EDD7
:10362E00E8E6E5EDEE0020F4E0E7FB204320E7E0DE
:10363E00E2FBF8E5EDEE002020CDE5EFF0E0E2E86C
:10364E00EBFCEDEEE520200020F7E5F0E5E4EEE200
:10365E00E0EDE8E520F4E0E7002020D2E5ECEFE530
:10366E00F0E0F2F3F0E02020200020E7E0E2FBF8AB
:10367E00E5EDE0202020206743200020E7E0EDE884
:10368E00E6E5EDE0202020206743200020202020CA
:10369E00C0E2E0F0E8FF21212120202000202020A0
:1036AE0020D1F3F5EEE920F5EEE42020200020C035
:1036BE00E2E0F0E8FF20E4E0F2F7E8EAE02000E4E0
:1036CE00E0E2EBE5EDE8FF202020202040ECC000FA
:1036DE0020202020C4E0E2EBE5EDE8E520202020CC
:1036EE0000E7E0EDE8E6E5EDEE20202040E0F2EC2C
:1036FE002E00E7E0E2FBF8E5EDEE20202040E0F2C0
:10370E00EC2E0020C4E2E8E3E0F2E5EBFC204E26CE
:10371E0020202000F2EEEA20E7E0EDE8E6E5ED20DD
:10372E00202040C000F2EEEA20E7E0E2FBF8E5EDF3
:10373E0020202040C000F1F0E0E1EEF2E0EBE020CE
:10374E00E7E0F9E8F2E00020D0E5E6E8EC20202002
:10375E00E0E2F2EEECE0F20020D0E5E6E8EC20202C
:10376E0020F0F3F7EDEEE9200020D0E5E6E8EC20BE
:10377E002020202020F2E5F1F20020C2F0E5ECFF3F
:10378E0020E820E4E0F2E020202000CAEBE8ECE0A4
:10379E00F2202020E2EDF3F2F02E2000CAEBE8EC4E
:1037AE00E0F2202020E2EDE5F8ED2E200030212E73
:1037BE0030402830232E242930252E305E00204321
:1037CE00E5F2FC2020204142432020202020002032
:1037DE0043E5F2FC202020414342202020202000FF
:1037EE00202021202020402020202320202024259E
:1037FE000020C4E0E2EBE5EDE8E5202021202020CA
:10380E002000402F20202328202024292F2520206F
:10381E0020200020CDE0F1EEF1EEE220212020402C
:10382E002020230024282020252928202026292076
:10383E003E2020200020D1F2F3EF2EEFF3F1EA200C
:10384E00202021E02E00202040E0202023F1E5EA78
:10385E00202024C3F6200020CFE5F0E5EAEBFEF7AA
:10386E00E5EDE8E5202020002020EDE0F1EEF1EE80
:10387E00E2202020202020200020C2EAEB2E202053
:10388E00202030212E304020200020C2FBEAEB2EDB
:10389E0020202030212E304020200020D1ECE5EDDC
:1038AE00E020EDE0F1EEF1EEE220200020D7E0F195
:1038BE00F2EEF2EDE8EA2020202020200020202148
:1038CE002F30402F232F242F30252020200020C7DB
:1038DE00E0E4E2E8E6EAE02020212020202000209B
:1038EE0040202020202020202420202520202000C1
:1038FE00E2EAEB00E2FBEAEB00D1E8EDF52E00C0C8
:10390E00F1E8EDF52E0020CFF02EEFF3F1EA2020B6
:10391E0020212020202000202040F72E20202030A3
:10392E00242E30252020200020D1F3F5EEE920F5BD
:10393E00EEE420202120202000202040E0F2EC2E7A
:10394E00202024F1E5EA2E202000776D730020D28E
:10395E00E0E9ECE5F020202020202020202000208F
:10396E00CDF3EBE5E2E0FF20EDE0E3F0F3E72E0030
:10397E0020CFC8C42020202020202020202020203E
:10398E000020C0E2F2EEECE0F220202020202020E9
:10399E00200020D0F3F7EDEEE9202020202020207B
:1039AE0020200020D2E5F1F220202020202020200F
:1039BE00202020003025202026305E2021202020AF
:1039CE00202020200020C4E0F2F7E8EA202D20E29B
:1039DE00EDF3F2F02E0020C4E0F2F7E8EA202D20FD
:1039EE00E2EDE5F8ED2E002020C0E2E0F0E8FF2049
:1039FE00F5EEEBEEE42020002020202020202020D9
:103A0E0020202020406743200020C2EAEB2E20EE2B
:103A1E00F2EEEFE8F2E5EBFF200020CAE0EBE8E182
:103A2E00F02EE4E0F2F7E8EAE02000C2EAEB2E2006
:103A3E00E2E5EDF2E8EBFFF2EEF0E00020C0E2E0AE
:103A4E00F0E8FF20EFE5F0E5E3F0E5E20020C3E863
:103A5E00F1F2E5F0E5E7E8F120202020200020C279
:103A6E00FBF5EEE420202020202020202020002026
:103A7E00C4EEEFF3F1EA20202020212520202000A3
:103A8E0020D4E0E7E8F0EEE2EAE0202041424320D5
:103A9E000020D4E0E7E8F0EEE2EAE02020414342E5
:103AAE002000CAE0EBE8E1F02EF4E0E7E041202050
:103ABE0021C200CAE0EBE8E1F02EF4E0E7E042209C
:103ACE002021C200CAE0EBE8E1F02EF4E0E7E0438B
:103ADE00202021C200D2E8EF20E4E0F2F7E8EAEE7F
:103AEE00E22020212000506D696E20202020202011
:103AFE00202021E0F2EC00CAE0EBE8E1F02E20ED10
:103B0E00E0F1F3F5F3FE2000CAE0EBE8E1F0EEE2BF
:103B1E00EAE02020202020200020202050203D20E0
:103B2E002020202021E0F2EC2E00506D6178202024
:103B3E0020202020202021E0F2EC00546D61785FDF
:103B4E006D696E2020202021F1E5EA00476D617835
:103B5E005F6D696E2020202021E0F2EC00CDE0F1B7
:103B6E00EEF1EEE220202020212020202000C7E2CE
:103B7E00E5E7E4E02DF2F0E5F3E3EEEBFCED0020FB
:103B8E002020202020202020212020202020200046
:103B9E00E2EAEB2E00E2FBEAEB2E0020C0E2E0F0C0
:103BAE00E8E820EFEE20F2EEEAF3200020212020BC
:103BBE0020202020202020202020202000EBEEE3BB
:103BCE00E8F7E5F1EAE8E500EFEE20E4E0F2F7E8E9
:103BDE00EAE0EC002049EDEC696E2E20202020203A
:103BEE0020202341002049EDEC61782E202020205A
:103BFE00202020234100D0E5E62EEDE0F1EEF1236A
:103C0E0020212020202000E0E2F22E00F0F3F7ED3C
:103C1E002E0020D1E1F0EEF120EDE0F0E0E1EEF249
:103C2E00EAE80020EDE0F1EEF1E02120202020ED89
:103C3E00E5F2200020EDE0F1EEF1E0212020202041
:103C4E00E4E020200020CAE0EBE8E1F0EEE2EAE05A
:103C5E002049234120002020202020212041202007
:103C6E002020202020200020CAE0EBE8E1F0EEE248
:103C7E00EAE020492343200020202020204020413C
:103C8E0020202020202020200020D121CD202020E7
:103C9E002020202020202020200020D721CD2020D1
:103CAE00202020202020202020200020D3F0EEE213
:103CBE00E5EDFC2020202020202020002020205078
:103CCE00EF203D2020202021E0F2EC2E0020CFF02E
:103CDE00E8F0EEF1F22020202020202020002020ED
:103CEE002050EFF0203D20202021E0F2EC2E00208D
:103CFE00C2F0E5ECFF2020202020202020202000F4
:103D0E00202020D2EFF0203D20202021F1E5EA2EC8
:103D1E000020D7E0F1F2EEF2E0202020202020203B
:103D2E00200020202046EFF0203D20202021C3F649
:103D3E002020002054E2E5F0F5202020202021F163
:103D4E00E5EA2E002054EDE8E72020202020202157
:103D5E00F1E5EA2E002050EAF02E2020202020202F
:103D6E0021E0F2EC2E00204B70202020202020207D
:103D7E00202120202020002054F1EC202020302172
:103D8E00F72E3040ECE8ED00D0E0E7F0E5F8E5ED99
:103D9E00E8E52020E2EAEB2E00D0E0E7F0E5F8E5DA
:103DAE00EDE8E520E2FBEAEB2E00466D696E202081
:103DBE002020232820202129C3F600466D6178207B
:103DCE00202020232820202129C3F6002054EFE0B4
:103DDE00E420202020202021F1E5EA2E002054E2CC
:103DEE00EEE7E2F02020202021F1E5EA2E0020D798
:103DFE0020202020202020202021252020200020CF
:103E0E00CF2B202020202020202021252020200004
:103E1E0020CF2D20202020202020202125202020D2
:103E2E000020C7E0E4E5F0E6EAE020202020202094
:103E3E0020002020F1E1F0EEF1E020202021F1E53C
:103E4E00EA2E0020D1EEF1F2EEFFEDE8E520212082
:103E5E00202020002049E76D696E2020202020219F
:103E6E0041202020002049E76D617820202020206D
:103E7E00214120202000D0E5E6E8EC202120202062
:103E8E002020202020200063E8EDF5F0EEEDEDEE91
:103E9E0000E0F1E8EDF5F0EEEDEDEE002054E8F186
:103EAE00EF2E202020202021F72E2020002054EF5E
:103EBE002EEF2E20202030242E302520200020C44E
:103ECE00E0F2F7E8EA202020212020202020002008
:103EDE0054F1F52E2020202021F1E5EA2E2020009D
:103EEE002050E2F52E2020202021E0F2EC2E202082
:103EFE00002050F3F1F220202020202021E0F2ECCF
:103F0E002E0020CFEEEDE5E4E5EBFCEDE8EA202017
:103F1E0020200020C2F2EEF0EDE8EA202020202042
:103F2E002020200020D1F0E5E4E0202020202020D9
:103F3E00202020200020D7E5F2E2E5F0E32020202B
:103F4E0020202020200020CFFFF2EDE8F6E02020F8
:103F5E002020202020200020D1F3E1E1EEF2E0200D
:103F6E00202020202020200020C2EEF1EAF0E5F1F2
:103F7E00E5EDFCE5202020200020CFED2120304073
:103F8E003A30232D30243A30250020C2F221203041
:103F9E00403A30232D30243A30250020D1F0212014
:103FAE0030403A30232D30243A30250020D7F221EC
:103FBE002030403A30232D30243A30250020CFF2E5
:103FCE00212030403A30232D30243A30250020D1A4
:103FDE00E1212030403A30232D30243A3025002084
:103FEE00C2F1212030403A30232D30243A302500C2
:103FFE0020D0E5E620282020202920202020202067
:10400E000031202020202029E0F2EC2E003220204A
:10401E0020202029C3F62E20003320202020202906
:10402E00EDE0F12E0020EDE520F3F1F2E0ED2E2093
:10403E000020547A65726F2020202021F1E5EA2EAF
:10404E00200020CFE5F0E8EEE42020202021F1E54D
:10405E00EA2E0020D3F1E8EBE5EDE8E52020202064
:10406E002021200020D3F1E8EBE5EDE8E520C82083
:10407E00202021200020D3F1E8EBE5EDE8E520C477
:10408E0020202021200020CEE1EEF0EEF2FB20F7E2
:10409E00E0F1F2EEED2E0020EFE5F0E5EAEB20E2A6
:1040AE00EDE8E720202125000000020004000200B8
:1040BE00B64006005D07322F01006407382F01005D
:1040CE00F0073A2F0600F1073C2F0600F707422FA4
:1040DE0001005D08482F060078084A2F06007E086A
:1040EE00502F06008408562F06008A085C2F060003
:1040FE009008622F06009C08682F0200A8086E2FF9
:10410E000100BD08702F0200D008DE340100150C2E
:10411E00D23401001B0CD43406001C0CD634000023
:10412E00F894EE27ECBBF1E0F5BFE5BFE0936C0031
:10413E00EBBFF8E1F1BDE1BD8DE0A2E0BB27ED9351
:10414E008A95E9F780E090E1A0E0B1E0ED93019768
:10415E00E9F7EAEBF0E485919591009761F0A5916E
:10416E00B59105901590BF01F00105900D92019744
:10417E00E1F7FB01F0CFEFEFEDBFE0E1EEBFC0E006
:10418E00D5E00C9425780E94807914F40E948679EB
:10419E000E948B7914F40E94917991C00E948079CB
:1041AE0014F40E9491790E948B7914F40E948679FE
:1041BE0086C0AC81BD810E94DA870E94967934F464
:1041CE00EA81FB81AC81BD81ED93FC93AC81BD8115
:1041DE000E94DA870E949C7934F4E881F981AC81DF
:1041EE00BD81ED93FC931AC0AC81BD810E94FB870B
:1041FE000E94967934F4EA81FB81AC81BD810E94E4
:10420E000B88AC81BD810E94FB870E949C7934F49F
:10421E00E881F981AC81BD810E940B8826960895B4
:10422E000A930E94A2798F9A979A8D9A95980E94D6
:10423E00B7798E9A969A969A969A9698E0E0E4BBFB
:10424E000E94BC790E94BC790E94BC790E94BC7904
:10425E0003B3E0916400E160E0936400E0916500D7
:10426E00E160E09365008D9A959AE02F088119C060
:10427E000E94A2798F9A979A8D9A95980E94B779F3
:10428E008E9A969A969A969A9698EFEFE4BBE88154
:10429E00E5BB8F9A97988F9A97988F9A979A8D9A3F
:1042AE00959A22960895E881F981E0931709F09383
:1042BE001809EB81E0931409EA81E093150924961D
:1042CE000895E0911709F0911809309789F0319708
:1042DE00E0931709F0931809309751F4E0911409FF
:1042EE00E0930005E0911509E0931009E0931109A0
:1042FE000895F894B99ABA9ABB98BC9A0E94C77955
:10430E00BC9AC498E0ECEA930E94E086C49A789432
:10431E0008950A93F894B99ABA9ABB98BC9A0E94D7
:10432E00C779BC9AC4988BE18A95F1F7E3E00E94B5
:10433E00CC790E94D379C49A7894E02F0881229682
:10434E000895F894B99ABA9ABB98BC9A0E94C77904
:10435E00BC9AC498E5E00E94D9790E94DE79C49A8D
:10436E007894239608950A93B99ABA9ABB98BC9AF0
:10437E000E94C779BC9AC498E2E00E94D979C49A87
:10438E00E02F0881239608950A93F894B99ABA9A61
:10439E00BB98BC9A0E94C779BC9AC49800000000D2
:1043AE00000000000000000000000000E0EAEA93B8
:1043BE000E94E0860E94D379C49A7894E02F0991E6
:1043CE000895F894B99ABA9ABB98BC9A0E94C77984
:1043DE00BC9AC498E881E03019F4E1E8E8830BC098
:1043EE00A881A13019F4E2E8E88305C0A881A230C3
:1043FE0011F4E4E8E8830E94DE79C49A7894219659
:10440E0008952B970E943A8836FC30C1689436F88E
:10441E00E091270AE03019F0E150E093270A0E945C
:10442E00CB21E0931B09E87A29F0ECE2EA93ECE168
:10443E000E94E279E0911B09E17011F40C9489223B
:10444E00ECE2EA93E3E00E94E279A091A309AA309C
:10445E0010F00C948822E091A309EF5FE093A3097A
:10446E000E94E779BF93AF93ADE0B0E00E9433872F
:10447E00AF91BF91EA0FFB1FEE83FF8300E00D307B
:10448E0090F4EE81FF813196EE83FF833197FF9397
:10449E00EF93E02FEF59EA930E949021AF91BF91D5
:1044AE00EC930F5FECCF0E94E779BF93AF93ADE033
:1044BE00B0E00E943387AF91BF910E94ED791496C0
:1044CE000C91AE81BF811396EC91AE81BF81149693
:1044DE00EC93AE81BF811296EC91AE81BF811396A3
:1044EE00EC93AE81BF8112960C93E091A109EF5F20
:1044FE00E093A109A091A109AA3018F0E0E0E093A1
:10450E00A109B2C0E0911B09E47521F4E091270ADC
:10451E00E03009F0A9C0E091260AE03011F40C94C5
:10452E003B23F8940E94F479BF93AF93ADE0B0E0D3
:10453E000E943387AF91BF910E94ED791D91AE839A
:10454E00BF832D91AE83BF833D91AE83BF834D91CB
:10455E00AE83BF835D91AE83BF830E94FA79E88BF1
:10456E000E94FA79EF870E94FA79EE870E94FA7913
:10457E00ED870E94FA79EC870E94FA79EB870E9408
:10458E00FA79EA870E94FA79E9870E94F479BF9353
:10459E00AF93ADE0B0E00E943387AF91BF91EA0FC9
:1045AE00FB1FEE83FF83E091260AE150E093260A7B
:1045BE00E0911E09EF5FE0931E09A0911E09AA303B
:1045CE0018F0E0E0E0931E097894E1E3EA931A9381
:1045DE000E94BA21E2E3EA932A930E94BA21E5E30C
:1045EE00EA93E32FEF7BEA930E94BA21E3E3EA9387
:1045FE004A930E94BA21E4E3EA935A930E94BA21A5
:10460E00E6E3EA93E989EA930E94BA21E7E3EA93A3
:10461E00E889EA930E94BA21E8E3EA93EF85EA93E8
:10462E000E94BA21E9E3EA93EE85EA930E94BA2149
:10463E00EAE3EA93ED85EA930E94BA21EBE3EA936B
:10464E00EC85EA930E94BA21ECE3EA93EB85EA93B8
:10465E000E94BA21EDE3EA93EA850E94007A0E9455
:10466E00E821E5E0E093270AE89436F80E944188B5
:10467E00619608952397E0911D09EA83F894A0911D
:10468E00260AAA3010F00C94E023E091260AEF5F80
:10469E00E093260AE0911D09EF5FE0931D09A091BA
:1046AE001D09AA3018F0E0E0E0931D09EA81A4EAA2
:1046BE00B9E0F0E0BF93AF93ADE0B0E00E94338776
:1046CE00AF91BF91EA0FFB1FE883F9830E94067A30
:1046DE00EE810E940D7AFF93EF93ED81E860AF912A
:1046EE00BF91EC930E94067AE8E00E940D7AFF9348
:1046FE00EF93AB81BC81EC91AF91BF910E940D7A8B
:10470E00FF93EF93AB81BC811196EC91AF91BF916A
:10471E000E940D7AFF93EF93AB81BC811296EC91C0
:10472E00AF91BF910E940D7AFF93EF93AB81BC8145
:10473E001396EC91AF91BF910E940D7AFF93EF9378
:10474E00AB81BC811496EC91AF91BF910E940D7A12
:10475E00FF93EF93AB81BC811596EC91AF91BF9116
:10476E000E940D7AFF93EF93AB81BC811696EC916C
:10477E00AF91BF910E940D7AFF93EF93AB81BC81F5
:10478E001796EC91AF91BF910E940D7AFF93EF9324
:10479E00AB81BC811896EC91AF91BF910E940D7ABE
:1047AE00FF93EF93AB81BC811996EC91AF91BF91C2
:1047BE00EC937894279608950E94157A0E94197AA0
:1047CE00EC91E03011F10E94197AAC91E6EAEA1709
:1047DE00C8F4E881A981BA81F0E0EA0FFB1FFF93CC
:1047EE00EF93E6E7F2E3FF93EF930E94197AEC91D1
:1047FE00E75AAF91BF91F0E0EA0FFB1FE491AF9142
:10480E00BF91EC930E94207AD9CF239608952597D5
:10481E00EFEFEC83EB83ED81FE813197ED83FE8329
:10482E00319611F1AF81B885EC91EA83EF81F8856D
:10483E003196EF83F887EA81AC81EA27F0E0E883CE
:10484E00F983E0EDF2E3A881B981EA0FFB1FE49151
:10485E00AB81EA27EC83E0EDF3E3A881B981EA0F9F
:10486E00FB1FE491EB83D7CFE0E0FC81DF01EB810E
:10487E00F0E0EA2BFB2B2996089524970E943D88A1
:10488E00EFE7FBE0FA93EA930E94247A0E94297ADA
:10489E00E0919D0BE1500E94307A0E1759F40E9460
:1048AE00247AE158F44FE0811E1721F4A0917F0B7A
:1048BE00A23009F011C2E0913C0AEF5FE0933C0A8E
:1048CE00689441F8E0E0E093A50BE0E0E093A30BE1
:1048DE00E093A40BE0919E0BE0939F0B0E94357A20
:1048EE0018F0E0E0E0939E0B0E943E7ABF93AF93E8
:1048FE00A4E1B0E00E943387AF91BF91AE0FBF1F0E
:10490E00AC91A130F9F400E010E022E02630B8F4CA
:10491E000E943E7ABF93AF93A4E1B0E00E9433872A
:10492E00AF91BF910E94447AEF93E22F0E94307AAA
:10493E00AF91EA1711F001E010E02F5FE7CF002EE4
:10494E00012A01F40E944C7ABF93AF93A4E1B0E028
:10495E000E943387AF91BF910E94527AE33021F4C7
:10496E00E091800BE33009F089C1E091810BE430D6
:10497E00D9F40E944C7ABF93AF93A4E1B0E00E94A9
:10498E003387AF91BF910E94577A71F40E944C7A8F
:10499E00BF93AF93A4E1B0E00E943387AF91BF9174
:1049AE000E945D7AE23009F009C10E944C7ABF93F1
:1049BE00AF93A4E1B0E00E943387AF91BF910E9404
:1049CE00627AE73071F40E944C7ABF93AF93A4E100
:1049DE00B0E00E943387AF91BF910E94677AE73FA4
:1049EE0009F01AC0E0E0EB83EC83ED83EE83E091F7
:1049FE00820B0E946C7AE091830B0E946C7AE0919C
:104A0E00840B0E946C7AE091850B0E94887AE09369
:104A1E003D0AF0933E0AD2C00E944C7ABF93AF93E8
:104A2E00A4E1B0E00E943387AF91BF910E94627AF9
:104A3E00E83071F40E944C7ABF93AF93A4E1B0E0DA
:104A4E000E943387AF91BF910E94677AE13009F0DF
:104A5E001AC0E0E0EB83EC83ED83EE83E091820BF2
:104A6E000E946C7AE091830B0E946C7AE091840B29
:104A7E000E946C7AE091850B0E94887AE0933F0A3F
:104A8E00F093400A9BC00E944C7ABF93AF93A4E16F
:104A9E00B0E00E943387AF91BF910E94627AE431F9
:104AAE0071F40E944C7ABF93AF93A4E1B0E00E94E0
:104ABE003387AF91BF910E94677AEF3409F044C0FB
:104ACE00E0E0EB83EC83ED83EE83E091820B0E94BA
:104ADE006C7AE091830B0E946C7AE091840B0E94B9
:104AEE006C7AE091850B0E94A67AAB81BC818D8198
:104AFE009E81EAE0F0E060E070E00E947D87EB834B
:104B0E00FC836D837E83A091F007AA3AB1F4A0E7EF
:104B1E00B2E00E94FB87A4EBB7E00E94B47AACE946
:104B2E00B7E00E94B47AA8EAB7E0EE0FFF1FAE0F0F
:104B3E00BF1FEB81FC81ED93FC93EB81FC81E09335
:104B4E00130CF093140C3AC00E944C7ABF93AF939F
:104B5E00A4E1B0E00E943387AF91BF910E94627AC8
:104B6E00E53171F40E944C7ABF93AF93A4E1B0E0AB
:104B7E000E943387AF91BF910E94677AE33009F0AC
:104B8E001DC0E0E0EB83EC83ED83EE83E091820BBE
:104B9E000E946C7AE091830B0E946C7AE091840BF8
:104BAE000E946C7AE091850B0E94A67AEB81FC81C3
:104BBE006D817E81E093A60BF093A70BE091810BA4
:104BCE00E230D9F40E944C7ABF93AF93A4E1B0E0E7
:104BDE000E943387AF91BF910E94577A71F40E9461
:104BEE004C7ABF93AF93A4E1B0E00E943387AF91AC
:104BFE00BF910E945D7AE13009F040C00E94C17AF7
:104C0E000E944C7ABF93AF93A4E1B0E00E94338729
:104C1E00AF91BF910E94627AE43171F40E944C7A96
:104C2E00BF93AF93A4E1B0E00E943387AF91BF91E1
:104C3E000E94677AEB3309F021C0E0E0EB83EC834E
:104C4E00ED83EE83E091820B0E94C77AAB81BC812B
:104C5E008D819E81E8E00E940587EB83FC836D8346
:104C6E007E83EB81E070EB83E091830B0E94C77A29
:104C7E00EB81FC81E093410AF093420A0E943E7A56
:104C8E00BF93AF93A4E1B0E00E943387AF91BF9181
:104C9E00AE0FBF1FAC91A630F9F400E010E022E099
:104CAE002630B8F40E943E7ABF93AF93A4E1B0E0F1
:104CBE000E943387AF91BF910E94447AEF93E22F07
:104CCE000E94307AAF91EA1711F001E010E02F5FE9
:104CDE00E7CF002E012A01F40E94448827960895FA
:104CEE00A0915F0AA831E1F3F894E0915F0AE030F9
:104CFE0011F45D9917C0A0915D0AB0E0AB5BB54FA2
:104D0E00E881EC93A0915D0AAF5FA0935D0AA83194
:104D1E0019F4E0E0E0935D0AE0915F0AEF5FE09343
:104D2E005F0A08C0BD9AC59ABE9AC69AE881ECB9C8
:104D3E00E89441F87894219608951A930A93EA819B
:104D4E00FB810E94D57ABF93AF93A4E1B0E00E949D
:104D5E003387AF91BF910E94DE7ABF93AF93A4E1E8
:104D6E00B0E00E943387AF91BF910E94E87AE1E0F4
:104D7E000E94ED7ABF93AF93A4E1B0E00E94338717
:104D8E00AF91BF910E94F47ABF93AF93A4E1B0E0CC
:104D9E000E943387AF91BF910E94FF7ABF93AF936A
:104DAE00A4E1B0E00E943387AF91BF910E940A7BCD
:104DBE00BF93AF93A4E1B0E00E943387AF91BF9150
:104DCE000E94107BBF93AF93A4E1B0E00E943387A3
:104DDE00AF91BF910E94167B0E941D7BBF93AF9334
:104DEE00A4E1B0E00E943387AF91BF910E94237B74
:104DFE00BF93AF93A4E1B0E00E943387AF91BF9110
:104E0E000E94297B18F0E0E0E093A00B1981088145
:104E1E0064C41A930A93EE81FF810E94D57ABF93E0
:104E2E00AF93A4E1B0E00E943387AF91BF910E948F
:104E3E00DE7ABF93AF93A4E1B0E00E943387AF91C7
:104E4E00BF910E94E87AEFE00E94ED7ABF93AF9394
:104E5E00A4E1B0E00E943387AF91BF910E94F47A33
:104E6E00BF93AF93A4E1B0E00E943387AF91BF919F
:104E7E000E94FF7ABF93AF93A4E1B0E00E94338704
:104E8E00AF91BF910E940A7BBF93AF93A4E1B0E0B4
:104E9E000E943387AF91BF910E94107BBF93AF9357
:104EAE00A4E1B0E00E943387AF91BF910E943E7B98
:104EBE00BF93AF93A4E1B0E00E943387AF91BF914F
:104ECE00EA0FFB1F37960E94447BBF93AF93A4E17A
:104EDE00B0E00E943387AF91BF91EA0FFB1F389667
:104EEE000E94477BBF93AF93A4E1B0E00E9433874B
:104EFE00AF91BF91EA0FFB1F39960E944A7BBF9379
:104F0E00AF93A4E1B0E00E943387AF91BF91EA0F57
:104F1E00FB1F3A960E944D7BBF93AF93A4E1B0E086
:104F2E000E943387AF91BF910E94507B0E941D7BE0
:104F3E00BF93AF93A4E1B0E00E943387AF91BF91CE
:104F4E000E94577BBF93AF93A4E1B0E00E943387DA
:104F5E00AF91BF910E945D7B18F0E0E0E093A00B53
:104F6E00ACC01A930A93AE81BF810E94727BBF932D
:104F7E00AF93A4E1B0E00E943387AF91BF910E943E
:104F8E00DE7ABF93AF93A4E1B0E00E943387AF9176
:104F9E00BF910E94E87AE0E10E94ED7ABF93AF9351
:104FAE00A4E1B0E00E943387AF91BF910E94F47AE2
:104FBE00BF93AF93A4E1B0E00E943387AF91BF914E
:104FCE000E94FF7ABF93AF93A4E1B0E00E943387B3
:104FDE00AF91BF910E940A7BBF93AF93A4E1B0E063
:104FEE000E943387AF91BF91EA0FFB1F3596DF0109
:104FFE00E2E00E94ED7ABF93AF93A4E1B0E00E948D
:10500E003387AF91BF910E943E7BBF93AF93A4E1D4
:10501E00B0E00E943387AF91BF91EA0FFB1F379626
:10502E000E94477BBF93AF93A4E1B0E00E94338709
:10503E00AF91BF91EA0FFB1F38960E94447BBF933E
:10504E00AF93A4E1B0E00E943387AF91BF91EA0F16
:10505E00FB1F39960E944D7BBF93AF93A4E1B0E046
:10506E000E943387AF91BF91EA0FFB1F3A960E94C1
:10507E004A7BBF93AF93A4E1B0E00E943387AF9118
:10508E00BF910E94507B0E941D7BBF93AF93A4E102
:10509E00B0E00E943387AF91BF910E94577BBF93C0
:1050AE00AF93A4E1B0E00E943387AF91BF910E940D
:1050BE005D7B18F0E0E0E093A00B19810881289643
:1050CE0008951A930A93AB81BC810E94727BBF93A1
:1050DE00AF93A4E1B0E00E943387AF91BF910E94DD
:1050EE00DE7ABF93AF93A4E1B0E00E943387AF9115
:1050FE00BF910E94E87AE3E00E94ED7ABF93AF93EE
:10510E00A4E1B0E00E943387AF91BF910E94F47A80
:10511E00BF93AF93A4E1B0E00E943387AF91BF91EC
:10512E000E94FF7ABF93AF93A4E1B0E00E94338751
:10513E00AF91BF910E940A7BBF93AF93A4E1B0E001
:10514E000E943387AF91BF91EA0FFB1F35960E94E5
:10515E004A7BBF93AF93A4E1B0E00E943387AF9137
:10516E00BF910E94167B0E941D7BBF93AF93A4E15B
:10517E00B0E00E943387AF91BF910E94237BBF9313
:10518E00AF93A4E1B0E00E943387AF91BF910E942C
:10519E00297B18F0E0E0E093A00B19810881EBC1A8
:1051AE00229781E0A0E0B0E0E0EDF4E30E944888B1
:1051BE00E0E0E983EA81A981AE1768F4E981AB8169
:1051CE00BC81F0E0AE0FBF1FEC91EA930E947726F0
:1051DE000E94777BEFCFCFC1E091A10BF091A20B94
:1051EE00309759F13197E093A10BF093A20B3097C2
:1051FE0021F50E94157AE091800AA881AE17A8F4D5
:10520E00E881F0E0E158F44FFF93EF93E881F0E08E
:10521E00E05AF54FE081AF91BF91EC93E091800A97
:10522E00E0939D0B0E94207AE6CFE0E0E093820AA5
:10523E00E093800A0E944424219641FC2BC0E09109
:10524E00A30BF091A40B309729F13197E093A30BA8
:10525E00F093A40B3097F1F4A091A50BAA3090F423
:10526E000E943E7ABF93AF93A4E1B0E00E943387D1
:10527E00AF91BF910E947B7BE091A50BEF5FE09316
:10528E00A50B08C0689441F80E94357A18F0E0E04A
:10529E00E0939E0BE0919E0BA091A00BEA1711F0EC
:1052AE0041FC01C00FC00E943E7ABF93AF93A4E1B0
:1052BE00B0E00E943387AF91BF910E947B7BE0E00C
:1052CE00E093A50B0895AA93BA93EA93FA93EFB7D6
:1052DE00EA931A930A930BB11CB1E02FEC7111F5FE
:1052EE00A091800AB0E0A05AB54F1C93A091800AFD
:1052FE00AF5FA093800AA03219F4E0E2E093800A37
:10530E00A091820AAF5FA093820AA03229F4E0E056
:10531E00E093820A689437F8EDE0F0E0E093A10B99
:10532E00F093A20B09911991E991EFBFF991E991CF
:10533E00B991A9911895F8947894AA93EA93FA934F
:10534E00EFB7EA93E0915F0AE030C9F0BD9AC59AD3
:10535E00BE9AC69AE150E0935F0AE0915E0AF0E0D1
:10536E00EB5BF54FE081ECB9A0915E0AAF5FA093C5
:10537E005E0AA83119F4E0E0E0935E0A0AC0BD9A15
:10538E00C598BE9AC698E6E9F0E0E093A30BF093B9
:10539E00A40BE991EFBFF991E991A99118950E949B
:1053AE00887B0E94907B70F40E94947BEF93ACE814
:1053BE00B1E00E949D7BE491AF91EA27EA830E94BF
:1053CE00777BEFCFEA8114C00E94887B0E94907B8E
:1053DE0070F40E94947BEF93ACE8B0E00E949D7B4A
:1053EE00E491AF91EA27EA830E94777BEFCFEA81BF
:1053FE0026960895E1E0F0E0E0935908F0935A08FC
:10540E00E0E0E093AB0BE093AC0BE0E0E093EE0753
:10541E00E093EF0708950E94A27BE093B50BF09303
:10542E00B60BE0E0F0E0E093B70BF093B80BE09131
:10543E00FD07F091FE070E942C87E093B90BF093C5
:10544E00BA0B6093BB0B7093BC0B0895AEE6B2E043
:10545E000E94FB8731960E940B883197AEE6B2E030
:10546E000E94FB87E431A0E0FA0734F0E0E0F0E0C0
:10547E00AEE6B2E00E940B88AEE6B2E00E94FB8779
:10548E00E258FE4FFF93EF930E94AE7BEF71AF9108
:10549E00BF910E941388AEE6B2E00E94FB87EE56E3
:1054AE00FE4FFF93EF930E94B27BAF91BF910E948C
:1054BE001388AEE6B2E00E94FB87EA55FE4FFF93DB
:1054CE00EF930E94B67BAF91BF910E941388AEE618
:1054DE00B2E00E94FB87E654FE4FFF93EF930E94CB
:1054EE00BA7BAF91BF910E941388AEE6B2E00E94E4
:1054FE00FB87E253FE4FFF93EF930E94BE7BAF916B
:10550E00BF910E941388AEE6B2E00E94FB87EE5177
:10551E00FE4FFF93EF930E94C27BAF91BF910E940B
:10552E001388AEE6B2E00E94FB87A6EFB1E0EE0F65
:10553E00FF1FAE0FBF1FEC81F0E00E940B88AEE69E
:10554E00B2E00E94FB87AEE1B2E0EE0FFF1FAE0F9E
:10555E00BF1FEA81FB810E940B88AEE6B2E00E947B
:10556E00FB87A6E4B2E0EE0FFF1FAE0FBF1FE88170
:10557E00F9810E940B8825960895E0919607F09187
:10558E009707EA15FB0584F0A091AA0BA23261F4ED
:10559E00A0910308A03041F4A091FD07B091FE0741
:1055AE00A83EE3E0BE070CF013C00E94C67B7CF45D
:1055BE00E091280CF091290C3196E093280CF09391
:1055CE00290C0E94C67B1CF0E8E8E093AA0B05C0EC
:1055DE00E0E0E093280CE093290C08952497E091E5
:1055EE005207F09153070E94D17BE4EFF1E060E0A7
:1055FE0070E00E94DC7BE0E0F4E060E070E00E948E
:10560E00A387E883F9836A837B83A881B9818A8122
:10561E009B81A332E0E0BE07E0E08E07E0E09E074C
:10562E003CF0EAEFF0E060E070E00E9430883CF57C
:10563E00A091160CA931E4F4E091160CEF5FE09303
:10564E00160CA091160CA93124F0A091150CA535BD
:10565E0009F40DC0E5E5E093150CE1E0EA93E9816C
:10566E00FA816B817C810E94E77B0E942D2A06C005
:10567E000E94EE7B1CF4E4E1E093160C2EC0A88190
:10568E00B9818A819B81E3E2F0E060E070E00E94E4
:10569E00308844F4AA3FE0E0BE07E0E08E07E0E089
:1056AE009E070CF01AC00E94F37B8CF4E091160C4E
:1056BE00E150E093160C0E94F37B24F0A091150CA0
:1056CE00AA3A09F403C0EAEAE093150C06C00E9458
:1056DE00EE7B1CF4E4E1E093160C24960895A4E10D
:1056EE00B0E00E94FF87E53511F00C94F82BE091A5
:1056FE00AA0BE030C1F5A0910809A535B9F4A09127
:10570E005608A93699F0E091CD0CF091CE0C309759
:10571E0069F4E091CC0CE03049F444FC07C0E09110
:10572E009607F0919707EA15FB050CF01BC0A091A8
:10573E001B0CA535A1F00E94F87BFF93EF930E94FE
:10574E00017CAF91BF91EA17FB0724F4E1E1E093EE
:10575E00AA0B02C00E940A7C0E94012A03C0E9E93A
:10576E00E093AA0B3EC0A091AA0BA13161F4A091C7
:10577E000809AA3A21F0A0915608A93619F4E8E8CA
:10578E00E093AA0B2EC0A091AA0BA23261F4A091B5
:10579E000809AA3A21F0A0915608A93619F4E8E8AA
:1057AE00E093AA0B1EC0A091AA0BA93961F4A09197
:1057BE000809AA3A21F0A0915608A93619F4E8E88A
:1057CE00E093AA0B0EC0A091AA0BA83851F443FC8B
:1057DE0004C0A091F007A13809F003C0E0E0E09307
:1057EE00AA0B0895A4E1B0E00E94FF87E53511F001
:1057FE000C94512DE091AA0BE03031F4E0E0E093EF
:10580E005908E0935A083BC1A091AA0BA13111F09F
:10581E000C94CC2CE091EE07F091EF07309739F015
:10582E00A0919607B0919707AA15BB050CF405C079
:10583E00E0E0E093EE07E093EF07E091EE07F091E2
:10584E00EF073097E9F00E940F7CD1F442FE0DC0B5
:10585E000E941A7C3196A4E6B0E00E945B873196D6
:10586E00E0935908F0935A080BC0E2E2E093AA0BBA
:10587E00E2E3F0E0E093EC07F093ED070E94122ACA
:10588E00E091AB0BF091AC0B3196E093AB0BF09338
:10589E00AC0BFF93EF93A0ECB0E00E94FB87AAE065
:1058AE00B0E00E945B87AF91BF91AE17BF0714F4B3
:1058BE000C94CB2CE0E0E093AB0BE093AC0BE091BF
:1058CE009607F0919707EA15FB055CF40E94F87BAA
:1058DE00FF93EF930E94017CAF91BF91EA17FB07F4
:1058EE000CF03DC0E091AF0BF091B00BA09196077C
:1058FE00B0919707EA17FB07ACF4A091AF0BB091EC
:10590E00B00BE0919607F0919707EA1BFB0BFF9304
:10591E00EF93AEEBB0E00E94FB87AF91BF91AE1755
:10592E00BF07E4F40E94237CDF01E0915708F09159
:10593E005808AE17BF0754F4E0915908F0915A0871
:10594E003196E0935908F0935A0808C0E091EE079B
:10595E00F091EF07309711F40E942C7C0DC00E943D
:10596E000A7CE2E3F0E0E093EC07F093ED07E0E071
:10597E00E093EE07E093EF07E0919607F09197071B
:10598E00E093AF0BF093B00B7AC0A091AA0BA232AA
:10599E0011F00C943D2DE091EE07F091EF0730974A
:1059AE00A9F1A091B90BB091BA0B8091BB0B90915C
:1059BE00BC0BA030E0E4BE07E0E08E07E0E09E07FF
:1059CE003CF0A0919607B0919707AA15BB050CF471
:1059DE0005C0E0E0E093EE07E093EF07A091B90B6E
:1059EE00B091BA0B8091BB0B9091BC0B0E942A8890
:1059FE003CF0A0919607B0919707AA16BB060CF43F
:105A0E0005C0E0E0E093EE07E093EF07A091BD0B39
:105A1E00B091BE0BA130E0E0BE0781F4E0E0E09370
:105A2E00BD0BE093BE0BE0915908F0915A08EC596A
:105A3E00FF4FE0935908F0935A0817C0A091BD0B81
:105A4E00B091BE0BAF3FEFEFBE0779F4E0E0E0930D
:105A5E00BD0BE093BE0BE0915908F0915A08E45645
:105A6E00F040E0935908F0935A0809C0A091AA0B90
:105A7E00A83829F4E0E0E0935908E0935A08E9E5E4
:105A8E00F8E00E94E77BE8EEF3E0FA93EA930E94D7
:105A9E00E02006C0A4E1B0E00E94FF87EA3A01F4DC
:105AAE000895E091CD0CF091CE0C309751F03197D6
:105ABE00E093CD0CF093CE0C309719F4E7E1E09320
:105ACE00CC0CA0912905B0912A05AA30E0E0BE07C2
