:100000002AC0FECFFDCFFCCFFBCFFACFF9CFF8CF80
:10001000F7CF62C8F5CFF4CFF3CFF2CFF1CFF0CF67
:10002000EFCFEECFEDCFC2C3C4C546C2C2000503B9
:1000300007000507030081818181818181818181A0
:1000400081810400F50236000400F9023A00040040
:10005000FD023E000000F894EE27ECBBF1E0FBBF90
:10006000EBBFE5BFF8E1F1BDE1BD8DE0A2E0BB274C
:10007000ED938A95E9F780E094E0A0E6ED9301978F
:10008000E9F7E2E4F0E085919591009761F0A591A0
:10009000B59105901590BF01F00105900D92019763
:1000A000E1F7FB01F0CFEFE5EDBFE4E0EEBFC0EE1E
:1000B000D0E055C8F894BD9ABB9ABC98B89ABA9A41
:1000C000A2D8B89AC098E0ECA3D8C09A78940895C2
:1000D0000A93F894BD9ABB9ABC98B89ABA9A93D8E6
:1000E000B89AC0988BE18A95F1F7E3E091D892D85D
:1000F00093D80E2FC09A7894E02F08812296089505
:10010000F894BD9ABB9ABC98B89ABA9A7CD8B89A17
:10011000C098E5E07DD882D87DD882D8C09A7894FE
:10012000239608950A93BD9ABB9ABC98B89ABA9A36
:100130006AD8B89AC098E2E06BD870D86BD8C09AE9
:10014000E02F0881239608950A93F894BD9ABB9AEC
:10015000BC98B89ABA9A57D8B89AC09800000000CC
:10016000000000000000000000000000E0EA50D89D
:1001700053D80E2FC09A7894E02F09910895F894DF
:10018000BD9ABB9ABC98B89ABA9A3DD8B89AC0980A
:10019000E881E03019F4E1E8E8830BC0A881A130E0
:1001A00019F4E2E8E88305C0A881A23011F4E4E87C
:1001B000E88336D8C09A7894219608952B9702DA6E
:1001C00030FCE8C0689430F82DD829F0E091200484
:1001D000E150E0932004B8DFE0931403E87A19F0CB
:1001E00025D8ECE126D8E0911403E17009F44EC063
:1001F0001DD8E3E01ED8A0919C03AA3008F045C0AA
:10020000E0919C03EF5FE0939C0317D8BF93AF93FB
:100210001AD8AF91BF911BD800E00D3080F4EE8169
:10022000FF813196EE83FF833197FF93EF93E02FA9
:10023000EF5912D8AF91BF91EC930F5FEECFFDD77E
:10024000BF93AF9300D8AF91BF9101D8AE81BF816A
:1002500014960C91AE81BF8101D8AE81BF811496F6
:10026000EC93FFD7EC91AE81BF811396EC93F9D755
:100270000C93E0919A03EF5FE0939A03A0919A03A5
:10028000AA3018F0E0E0E0939A0382C0E0911403F2
:10029000E47511F4C7D709F07BC0E0911F04E0308A
:1002A00009F476C0F894E1D7BF93AF93CCD7AF9160
:1002B000BF91CDD7AE81BF811D91DDD72D91DBD709
:1002C0003D91D9D74D91D7D75D91D5D7D7D7E88B69
:1002D000D9D7EF87D7D7EE87D5D7ED87D3D7EC8798
:1002E000D1D7EB87CFD7EA87CDD7E987BED7BF93E2
:1002F000AF93A9D7AF91BF91AAD7E0911F04E15066
:10030000E0931F04E0911703EF5FE0931703A091C0
:100310001703AA3018F0E0E0E09317037894E1E3C4
:10032000EA931A93FFDEB1D72A93FCDEE5E3EA9362
:10033000E32FEF7BADD7E3E3EA934A93F3DEE4E305
:10034000EA935A93EFDEE6E3EA93E989A1D7E7E37C
:10035000EA93E8899DD7E8E3EA93EF8599D7E9E343
:10036000EA93EE8595D7EAE3EA93ED8591D7EBE33F
:10037000EA93EC858DD7ECE3EA93EB8589D7EDE33F
:10038000EA93EA8585D786D7FADEE5E0E093200494
:10039000E89430F81ED9619608952397E0911603EA
:1003A000EA83F894A0911F04AA3008F083C0E0917A
:1003B0001F04EF5FE0931F04E0911603EF5FE093EB
:1003C0001603A0911603AA3018F0E0E0E09316039C
:1003D000EA81ADE9B3E0F0E0BF93AF9334D7AF91DA
:1003E000BF91EA0FFB1FE883F98357D7EE815CD7F3
:1003F000FF93EF93ED81E860AF91BF91EC934DD700
:10040000E8E052D7FF93EF93AB81BC81EC91AF91C1
:10041000BF914AD7FF93EF93AB81BC811196EC91CA
:10042000AF91BF9141D7FF93EF93AB81BC811296FF
:10043000EC91AF91BF9138D7FF93EF93AB81BC8123
:100440000DD7AF91BF9130D7FF93EF93AB81BC81B4
:100450001496EC91AF91BF9127D7FF93EF93AB81A7
:10046000BC811596EC91AF91BF911ED7FF93EF938E
:10047000AB81BC811696EC91AF91BF9115D7FF93DC
:10048000EF93AB81BC811796EC91AF91BF910CD7E4
:10049000FF93EF93AB81BC811896EC91AF91BF9124
:1004A00003D7FF93EF93AB81BC811996EC91AF9189
:1004B000BF91EC93789427960895AA81BB81AC9163
:1004C000E981AE170CF4F8D6AA81BB81AC91E88122
:1004D000EA170CF4F1D6249608950A93EBDDEEE0CA
:1004E000BBD60E2FE02FE07EE03829F0E9D6E0EE13
:1004F000EA93E0E8E8D68BE18A95F1F7EAE2E5D6FF
:10050000E9E2EA93ECEFC4D6E8E2DFD6E0E6E0D633
:10051000E0E7DED6E0E2EA93E8EFBAD6E1E2EA937A
:10052000E3EEB6D6E2E2D7D6E3E2D5D6B3D6E0E044
:10053000AFD6D4D6E8E0ACD6E2E0CDD6E3E0CBD679
:10054000E4E2CFD6E5E2CDD6E6E2CBD6E7E2C9D605
:10055000EAE0F0E0C9D6B4D6E7EEEA93E6E0B3D637
:10056000EBE2EA93EFE194D6E4E6F0E0BDD6ECE00E
:10057000B2D609910895E091CE02E093E000E091B7
:10058000CF02E093E100E091B001E093E200E0915E
:10059000B101E093E300E091B201E093E400E09167
:1005A000B301E093E500E091B401E093E600E0914F
:1005B000B501E093E700E091B601E093E800E09137
:1005C000B701E093E900E0910503E093EA00E091D0
:1005D0000603E093EB00E091F102E093EC00E0937E
:1005E000ED00E091F202E093EE00E091F202E09380
:1005F000EF00E091F302E093F000E091F302E0936A
:10060000F100E091F402E093F200E091F402E09353
:10061000F300E0910703E093F400E0910803E09316
:10062000F500E091ED02E093F600E093F700E09131
:10063000EE02E093F800E091EE02E093F900E09121
:10064000EF02E093FA00E091EF02E093FB00E0910B
:10065000F002E093FC00E091F002E093FD00E8E09E
:1006600046D6E0EEF0E045D6E9E041D6EAEEF0E02D
:1006700040D6EAE03CD6E4EFF0E03BD60895989B04
:1006800003C03AD6EF5F02C037D6E150EC93E9EEF3
:10069000F2E036D638D6A091E902AA3524F0E5E595
:1006A000E093F10207C0A091E90230D61CF0EAEA1B
:1006B000E093F102999B04C0AAEEB2E02AD603C0EF
:1006C000AAEEB2E029D6EC93EAEEF2E019D61BD6F8
:1006D000A091EA02AA3524F0E5E5E093F20207C012
:1006E000A091EA0213D61CF0EAEAE093F202809BA2
:1006F00004C0ABEEB2E00DD603C0ABEEB2E00CD658
:10070000EC93EBEEF2E0FCD5FED5A091EB02AA351E
:1007100024F0E5E5E093F30207C0A091EB02F6D5E3
:100720001CF0EAEAE093F302869B04C0ACEEB2E070
:10073000F0D503C0ACEEB2E0EFD5EC93ECEEF2E016
:10074000DFD5E1D5A091EC02AA3524F0E5E5E093F0
:10075000F40207C0A091EC02D9D51CF0EAEAE093BC
:10076000F402E4B3EC7FE4BBE5B3E360E5BBE1B3E3
:10077000EE7BE1BBE2B3E164E2BB08950A9300E0E3
:10078000043070F5CCD5E13819F4CFD5D3D51BC0E2
:10079000C6D5E23419F4C9D5D0D515C0C0D5E432D8
:1007A00019F4C3D5CAD50FC0BAD5E93919F4BDD5E6
:1007B000C4D509C0B4D5E63619F4B7D5E2E002C015
:1007C000B4D5E0E0EC93BCD5EF5FFC4FE081E030C6
:1007D00029F0B9D5AF5FBC4F9FD5EC930F5FD0CF59
:1007E0004AC30A93899AE0911003E17011F0929A3A
:1007F00001C092988A9AE0911003E27011F0919AE8
:1008000001C09198E0E0E0930F03E0911103E170E3
:1008100029F0E0910F03E160E0930F03E0911103F1
:10082000E27029F0E0910F03E260E0930F03E091A2
:100830001203E17029F0E0910F03E460E0930F03ED
:10084000E0911203E27029F0E0910F03E860E09379
:100850000F03E0911303E17029F0E0910F03E061D1
:10086000E0930F03E0911303E27029F0E0910F038E
:10087000E062E0930F03E0910F03CAD48B9A939A3E
:1008800088EC90E00197F1F79398F5C29DD600E0CF
:10089000023008F01AC1AEE2B0E052D5EA0FFB1FF9
:1008A00055D51D912C91E8EAF2E0E117F20714F416
:1008B00056D50CF019C047D5A053BD4F2AD558D5F1
:1008C00059D541D55AD53FD55BD53AD5E053FD4FE3
:1008D00017D5DBD458D5E053FD4F57D524F033D589
:1008E000AE51BD4F55D563C01F30E0E02E0714F464
:1008F00036D50CF019C027D54ED525D5AE52BD4FF3
:1009000008D536D53AD51FD53BD51AD5EE52FD4F71
:10091000F7D4BBD438D5EE52FD4F37D524F013D5DC
:10092000AE51BD4F3BD543C0E3ECF0E0E117F20719
:1009300014F415D50CF019C006D52DD504D51AD54B
:1009400002D5AC52BD4FE5D413D51AD5F9D4EC522B
:10095000FD4FD6D49AD417D5EC52FD4F16D524F0BE
:10096000F2D4AE51BD4F1DD522C01139E0E02E07A3
:1009700014F4F5D40CF017C0E6D40DD5E4D4FAD4B1
:10098000E2D4FBD4E0D4AA52BD4FC3D40DD5EA5271
:10099000FD4FB6D47AD4F7D4EA52FD4FF6D414F012
:1009A000D2D404D504C0DBD414F0CDD4FFD4A0E35A
:1009B000B0E0C6D4EA0FFB1FFED41D912C91EEE9E6
:1009C000F2E0E117F20714F4CAD40CF019C0BBD45A
:1009D000A852BD4F9ED4CCD4F7D4B5D4F8D4B3D458
:1009E000F9D4AED4E852FD4F8BD44FD4CCD4E852D6
:1009F000FD4FCBD424F0A7D4A052BD4FC9D463C0BF
:100A00001431E0E02E0714F4AAD40CF019C09BD4E2
:100A1000E4D499D4A652BD4F7CD4AAD4D8D493D4CC
:100A2000D9D48ED4E652FD4F6BD42FD4ACD4E65239
:100A3000FD4FABD424F087D4A052BD4FAFD443C0F8
:100A40001E3FE1E02E0714F48AD40CF019C07BD4C9
:100A5000C4D479D4B9D477D4A452BD4F5AD488D44D
:100A6000B9D46ED4E452FD4F4BD40FD48CD4E4529D
:100A7000FD4F8BD424F067D4A052BD4F92D423C035
:100A8000ECE1F2E0E117F20714F469D40CF017C0BE
:100A90005AD4A3D458D498D456D499D454D4A25266
:100AA000BD4F37D481D4E252FD4F2AD4EED36BD45C
:100AB000E252FD4F6AD414F046D492D404C04FD40D
:100AC00014F041D48DD40F5FE3CE00E00430D8F5AC
:100AD000A2E3B0E035D4EA0FFB1FE49186D4AE0F59
:100AE000BF1F1D912C911436E0E02E0734F42BD457
:100AF000AB51BD4F0ED4EC930AC0E8ECF0E0E11727
:100B0000F2072CF420D4AB51BD4F06D4EC9318D48B
:100B1000EB51FD4FF5D3EAE0EA9335D46CD4E930DC
:100B20002CF011D4A351BD4F3CD40BC009D463D4D5
:100B3000AE2FE1E0EA172CF006D4A351BD4FEAEA4C
:100B4000EC930F5FC3CF17C20A9359D4BF93AF93EF
:100B50007AD3AF91BF91EA0FFB1F3196E081E37E1C
:100B600009F089C14CD4BF93AF936DD3AF91BF91BE
:100B7000AE0FBF1FEC91E03009F0B9C040D4BF9375
:100B8000AF9361D3AF91BF9140D4EF9338D4BF936B
:100B9000AF9359D3AF91BF913DD4AF91EA1721F5EF
:100BA0002ED4BF93AF934FD3AF91BF912ED4EF9379
:100BB00026D4BF93AF9347D3AF91BF9130D4AF91B9
:100BC000EA1791F41CD4BF93AF933DD3AF91BF917B
:100BD0001CD4EF9314D4BF93AF9335D3AF91BF918F
:100BE00023D4AF91EA1709F009C009D4BF93AF939A
:100BF0002AD3AF91BF910ED4E093F50200D4BF93F6
:100C0000AF9321D3AF91BF9114D4EF93F8D3BF9397
:100C1000AF9319D3AF91BF9111D4AF91EA1721F5DA
:100C2000EED3BF93AF930FD3AF91BF9102D4EF93A5
:100C3000E6D3BF93AF9307D3AF91BF9104D4AF91E5
:100C4000EA1791F4DCD3BF93AF93FDD2AF91BF917C
:100C5000F0D3EF93D4D3BF93AF93F5D2AF91BF91BD
:100C6000F7D3AF91EA1709F009C0C9D3BF93AF9387
:100C7000EAD2AF91BF91DDD3E093F60200E00230FB
:100C8000A8F55ED3EAD3EF935BD3EBD3AF91EA172A
:100C900059F156D3E2D3E13821F455D3E6D3E9D361
:100CA00023C04ED3DAD3E23429F44DD3E7D3EAD3C9
:100CB000EDD31AC045D3D1D3E43229F444D3EBD3D6
:100CC000E1D3EDD311C03CD3C8D3E93929F43BD3E8
:100CD000EBD3EED3F1D308C033D3BFD3E63621F440
:100CE00032D3EFD3E5D3F1D30F5FC9CFC4C087D3DD
:100CF000BF93AF93A8D2AF91BF91AE0FBF1FAC917E
:100D0000A13009F0B8C07BD3BF93AF939CD2AF9111
:100D1000BF917BD3EF9373D3BF93AF9394D2AF9133
:100D2000BF9178D3AF91EA1721F569D3BF93AF9301
:100D30008AD2AF91BF9169D3EF9361D3BF93AF9341
:100D400082D2AF91BF916BD3AF91EA1791F457D391
:100D5000BF93AF9378D2AF91BF9157D3EF934FD357
:100D6000BF93AF9370D2AF91BF915ED3AF91EA17AB
:100D700009F009C044D3BF93AF9365D2AF91BF913F
:100D800049D3E093F7023BD3BF93AF935CD2AF91CB
:100D9000BF914FD3EF9333D3BF93AF9354D2AF915F
:100DA000BF914CD3AF91EA1721F529D3BF93AF93ED
:100DB0004AD2AF91BF913DD3EF9321D3BF93AF936D
:100DC00042D2AF91BF913FD3AF91EA1791F417D3BD
:100DD000BF93AF9338D2AF91BF912BD3EF930FD383
:100DE000BF93AF9330D2AF91BF9132D3AF91EA1797
:100DF00009F009C004D3BF93AF9325D2AF91BF913F
:100E000018D3E093F80202E00430A8F599D225D374
:100E1000EF9396D226D3AF91EA1759F191D21DD311
:100E2000E13821F490D221D324D323C089D215D321
:100E3000E23429F488D222D325D328D31AC080D211
:100E40000CD3E43229F47FD226D31CD328D311C08B
:100E500077D203D3E93929F476D226D329D32CD3F8
:100E600008C06ED2FAD2E63621F46DD22AD320D34E
:100E70002CD30F5FC9CF09910895E0919C03E03016
:100E800099F062DEE0919C03E150E0939C03E091D5
:100E90009B03EF5FE0939B03A0919B03AA3018F0A4
:100EA000E0E0E0939B03E9CF08958ED300E00830A3
:100EB000F8F420E030E010E0103160F4E02F08D3C7
:100EC000BF93AF9309D3AF91BF910AD32E0F3F1FAA
:100ED0001F5FF2CFE02F89D2EA0FFB1FFF93EF9342
:100EE000E22FF32F52D3AF91BF9164D30F5FDFCFC7
:100EF00000E0043000F520E030E010E0103160F454
:100F0000E02FF8D2BF93AF93E7D2AF91BF91E8D271
:100F10002E0F3F1F1F5FF2CFE02FA0EBB1E0EED20C
:100F2000FF93EF93E22FF32FF595E795AF91BF91E4
:100F300041D30F5FDECFEEE2F0E008D237D3E0938B
:100F40000503F0930603EFE2F0E000D22FD3E09325
:100F50000703F0930803E0E3F0E02DD227D3E093FA
:100F60000903F0930A03E1E3F0E025D21FD3E093F5
:100F70000B03F0930C032FD32496089524D3B99A2E
:100F800004B115B1C1D208F045C0E091FE00F09166
:100F9000FF000E171F0720F40093FE001093FF00C0
:100FA000C016D10610F4C02ED12EE091BC01EF5F27
:100FB000E093BC01A091BC01AE3158F1EB2D9AD267
:100FC000BF93AF9389D2AF91BF91EA0FFB1FFF93FD
:100FD000EF939DD2AF91BF9191D2FF93EF93A091E8
:100FE000FE00B091FF00EC2DFD2DEA1BFB0BAF9135
:100FF000BF91E0D2BB2001F490D28BD1EC9387D289
:10100000E03110F08AD296D1B3947ED210F48AD215
:1010100096D236C0E4E0EB1531F5EE2D59D2BF93F0
:10102000AF935AD2AF91BF91AE0FBF1FE091CD02E7
:10103000F0E0EE0FFF1FAE0FBF1F0D931C93E39464
:10104000E8E0EE1678F0EE24E5E082D2E091CD0201
:10105000EF5FE093CD02A091CD02A03118F0E0E067
:10106000E093CD020DC0E5E0EB1521F4E6E070D28F
:1010700066D206C0E6E0EB1519F4BB2453D25FD26A
:10108000E7B3E06CE7BB8D9AE8B3EF73EF93EE2D17
:10109000E295E07FEE0FEE0FAF91EA2BE8BBEE2D6D
:1010A000E695E6958AD2E2B3E5F9E2BBE6E8E6B971
:1010B000A6E2B0E0EB2DF0E0EA0FFB1FE491E7B908
:1010C000369A88D225960895E3E0E3BFE3E8E2BFCD
:1010D000E9B7E160E9BF08950A921A92FA926A9319
:1010E0007A938A939A93AA93BA93EA93FA93EFB76F
:1010F000EA93EADF43DFE0E22E2625FC5FD8439443
:10110000EAE04E16F0F04424689420F853945E16FA
:1011100018F05524689421F86394E4E16E1618F0F1
:101120006624689422F87394E2E37E1618F077241C
:10113000689423F88394E4E68E1618F08824689463
:1011400024F8E991EFBFF991E991B991A9919991A9
:10115000899179916991F990199009901895E0E039
:10116000E8BBE7BBE5BBE4BBE2BBE1BBEFBDEEBD6B
:10117000EDBDECBDE7BDE6BDEBBDEABDE9BDE8BD3B
:10118000E2BDE5BDE4BDE3BDE5BF9EDFE0E8E8B953
:10119000E0E0E0BF7894A1D9E0E03AD08B9A939A4E
:1011A00088EC90E00197F1F7939820FE04C0E89452
:1011B00020F865DA62DE21FE05C0E89421F866DBDE
:1011C000DDDA0FDB22FE03C0E89422F86EDE23FE98
:1011D00003C0E89423F8CFD924FE13C0E89424F880
:1011E000A0910D03B0910E03A83EE3E0BE074CF4BE
:1011F000E0910D03F0910E033196E0930D03F0930F
:101200000E03D3CFFFCFE0E5EDB9E1E0EEB90895ED
:10121000EA93ACC1E981FCCFE5E5FACFEA81F8CFEA
:10122000E881F6CFE0912004E0300895ECE2EA9303
:101230000895EA93E0E0EA9363C7E0919A03A8E196
:10124000B3E0F0E00895ADE0B0E0A8D10895EA0F72
:10125000FB1FEE83FF830895EA933AC71396EC9140
:101260000895AE81BF8112960895E0911703ADE90C
:10127000B3E0F0E00895AE83BF830895ED91AE83AF
:10128000BF830895AE81BF81F9CFE2E3EA93089569
:10129000EA9348C7E0E0EA930895A881B9811196DE
:1012A000A883B98311970895EC93E881F981319669
:1012B000E883F98331970895AA81BB81EC9308955F
:1012C000EFE0EA930895EA931BC7EA93E1E0E0CFE9
:1012D000EA93E0E4DDCFEA93E0E0DACFE1E0EA93FD
:1012E0000895EA93EFEFD4CFFA93EA9333C1EA93E8
:1012F000F5CFFA93EA9351C8A9EEB2E0EC910895C4
:10130000FA93EA93C7CFE4E6EA93D7C8EAE0EA178C
:101310000895EC91EF5F0895EC91E1500895E02F6E
:10132000F0E0E350FD4FE0810895A02FB0E0A05F12
:10133000BC4F0895E0E0EC930895E1E0EC9308954C
:10134000E02FF0E00895A02FB0E00895E491ADEB18
:10135000B2E0F0E0EE0FFF1FAE0FBF1F0895A091A7
:101360000D03B0910E03EAE0F0E0EA17FB070895E1
:10137000EC93E9CFAE52BD4FDDCFAC52BD4FDACFCB
:10138000AA52BD4FD7CF99D8DBCFE081E233089581
:10139000E6E6EC930895A053BD4FCCCFE9E6EC937D
:1013A0000895E5E5EC930895EC93CACFAE51BD4F97
:1013B000EAEAEC930895E491ADEBB2E0F0E0EE0FD1
:1013C000FF1FAE0FBF1F0895A652BD4FB3CFA4524B
:1013D000BD4FB0CFA252BD4FADCFA852BD4FAACF87
:1013E000A052BD4FEAEAEC930895ADEBB2E0F0E015
:1013F000EE0FFF1F0895EB51FD4FE0810895E0913E
:101400009B03A8E1B3E0F0E00895EA0FFB1F3596D7
:10141000E0810895EA0FFB1F3696E0810895EA0FF8
:10142000FB1F3796E0810895EA0FFB1F3896E08195
:101430000895EA0FFB1F3996E0810895EA0FFB1F1C
:101440003A96E0810895EA0FFB1F3B96E0810895EC
:10145000EA0FFB1F3C96E0810895EB50FD4FE081C1
:101460000895E750FD4FE0810895A350BD4FE1E896
:101470007FCFA750BD4FE1E8EC930895A350BD4F37
:10148000E2E476CFAF5FBC4FEAE072CFA750BD4F2A
:10149000E2E4EC930895A350BD4FE4E269CFA75076
:1014A000BD4FE4E2EC930895A350BD4FE9E960CF4E
:1014B000AF5FBC4FE3E25CCFA750BD4FE9E9EC93CF
:1014C0000895A350BD4FE6E653CFA750BD4F60CF60
:1014D000ADEBB1E0F0E00895EE0FFF1F4DD00895A1
:1014E000AE0FBF1FE12FF0E0EE0FFF1FAE0FBF1FCB
:1014F0005DD00895A0E3B1E0F0E00895F0E0EE0FD4
:10150000FF1FEA0FFB1F0895E4E0BE160895EB2DC0
:10151000F0E0E854FE4FE0810895AB2DB0E0A85410
:10152000BE4F0895E0E0E0932E01E0932F01E0E04C
:10153000E093BC01E0932D01E0932C010895EFEFBF
:10154000F3E0E093FE00F093FF00CC24DD24089547
:10155000BE2EE8CFE991F991309639F080ED97E011
:101560000197F1F7A8953197C9F70895E991EFB977
:10157000779BFECFEFB10895EE0FFF1FEE0FFF1F19
:10158000EE0FFF1FEE0FFF1F0895F595E795F595F8
:10159000E795F595E795F595E7950895FA9FF02D70
:1015A000EB9FF00DEA9FE02DF10D0895ED91FC9178
:1015B00011970895ED93FC930895E8940024E011A9
:1015C000689408955A934A933A932A931A930A93E4
:1015D00008955D814C813B812A811981088108959C
:00000001FF
