:020000040800F2
:100000000010002025050008ED040008F304000896
:1000100000000000000000000000000000000000E0
:10002000000000000000000000000000F9040008CB
:100030000000000000000000030500080D05000896
:10004000750500080000000075050008750500082A
:100050007505000875050008750500087505000898
:10006000000000007505000875050008750500080A
:1000700075050008750500087505000800000000FA
:10008000750500080000000000000000750500086C
:1000900000000000750500087505000875050008DA
:1000A000000000007505000800000000750500084C
:1000B0000000000000000000000000000000000040
:1000C00010B5064C2378002B07D1054B002B02D02E
:1000D000044800E000BF0123237010BD0C00002085
:1000E000000000003C1D0008044B10B5002B03D09D
:1000F0000349044800E000BF10BDC04600000000F6
:10010000100000203C1D0008002243088B4274D3DD
:1001100003098B425FD3030A8B4244D3030B8B4208
:1001200028D3030C8B420DD3FF22090212BA030C11
:100130008B4202D31212090265D0030B8B4219D3F2
:1001400000E0090AC30B8B4201D3CB03C01A524112
:10015000830B8B4201D38B03C01A5241430B8B425A
:1001600001D34B03C01A5241030B8B4201D30B0343
:10017000C01A5241C30A8B4201D3CB02C01A52416A
:10018000830A8B4201D38B02C01A5241430A8B422D
:1001900001D34B02C01A5241030A8B4201D30B0216
:1001A000C01A5241CDD2C3098B4201D3CB01C01A30
:1001B000524183098B4201D38B01C01A524143093A
:1001C0008B4201D34B01C01A524103098B4201D328
:1001D0000B01C01A5241C3088B4201D3CB00C01A95
:1001E000524183088B4201D38B00C01A524143080D
:1001F0008B4201D34B00C01A5241411A00D2014632
:10020000524110467047FFE701B5002000F006F8A4
:1002100002BDC0460029F7D076E770477047C04658
:1002200080B500AF00F0A8F900F01AF800F0A0F8CF
:1002300000F06EF8642000F003FA9023DB05202123
:10024000180000F062FC054B00229B5E9BB201335C
:100250009BB21AB2014B1A80ECE7C046B0000020F6
:1002600090B595B000AF20243B19180030231A0038
:10027000002101F037FD1023FB18180010231A008D
:10028000002101F02FFD3B00180010231A0000216F
:1002900001F028FD21007B1802221A607B18012240
:1002A000DA607B1810221A617B1800221A627B1810
:1002B000180000F045FC031E01D000F0A1F8102149
:1002C0007B1807221A607B1800225A607B180022D4
:1002D0009A607B180022DA607B180021180000F079
:1002E00049FF031E01D000F08BF83B0001221A6089
:1002F0003B0000229A603B00180001F07FF8031ECB
:1003000001D000F07DF8C046BD4615B090BD00009C
:1003100080B500AF144B154A1A60134B9622920118
:100320005A60114B00229A600F4B0022DA600E4B8C
:1003300000221A610C4B0C225A610B4B00229A616D
:10034000094B0022DA61084B00221A62064B002298
:100350005A62054B180001F01FF9031E01D000F08E
:100360004FF8C046BD4680BD28000020003801403F
:1003700090B589B000AF0C243B19180014231A0063
:10038000002101F0AFFC1D4B5A691C4B8021C903B1
:100390000A435A61194B5A698023DB031340BB603F
:1003A000BB68164B5A69154B802189020A435A6172
:1003B000124B5A6980239B0213407B607B68902319
:1003C000DB0500221021180000F082FB21007B18C1
:1003D00010221A607B1801225A607B1800229A6052
:1003E0007B180022DA607A189023DB0511001800D0
:1003F00000F0FEF9C046BD4609B090BD00100240B5
:1004000080B500AF72B6C046FEE7000080B582B08E
:1004100000AF0F4B9A690E4B01210A439A610C4BB6
:100420009B69012213407B607B68094BDA69084BAA
:10043000802149050A43DA61054BDA6980235B05AF
:1004400013403B603B68C046BD4602B080BDC0461D
:100450000010024090B58BB000AF786014243B19B7
:10046000180014231A00002101F03CFC7B681B6873
:100470001C4A934232D11C4B9A691B4B8021C90103
:100480000A439A61184B9A698023DB0113403B6150
:100490003B69154B5A69144B802189020A435A6102
:1004A000114B5A6980239B021340FB60FB682100BB
:1004B0007B180C221A607B1802225A607B180022DB
:1004C0009A607B180322DA607B1801221A617A187D
:1004D0009023DB051100180000F08AF9C046BD46E4
:1004E0000BB090BD003801400010024080B500AF55
:1004F000FEE780B500AFFEE780B500AFC046BD4661
:1005000080BD80B500AFC046BD4680BD80B500AFA0
:1005100000F07AF8C046BD4680BD80B500AFC04649
:10052000BD4680BD0D488546FFF7F7FF0C480D49D5
:100530000D4A002302E0D458C4500433C4188C423E
:10054000F9D30A4A0A4C002301E013600432A242A4
:10055000FBD301F0CFFBFFF763FEFEE700100020A6
:10056000000000200C000020941D00080C0000205A
:10057000B8000020FEE7000080B500AF074B1A6806
:10058000064B10210A431A60032000F009F8FFF718
:100590003DFF00231800BD4680BDC046002002403C
:1005A00090B583B000AF7860144B1C68144B1B7877
:1005B0001900FA239800FFF7A7FD03001900200097
:1005C000FFF7A2FD0300180000F005F9031E01D09B
:1005D00001230FE07B68032B0BD8796801235B4272
:1005E0000022180000F0E2F8064B7A681A60002337
:1005F00000E001231800BD4603B090BD00000020BC
:10060000080000200400002080B500AF054B1B78D7
:100610001A00054B1B68D218034B1A60C046BD4632
:1006200080BDC04608000020B400002080B500AFA7
:10063000024B1B681800BD4680BDC046B4000020B8
:1006400080B584B000AF7860FFF7F0FF0300BB60B7
:100650007B68FB60FB68013305D00A4B1B781A00EE
:10066000FB689B18FB60C046FFF7E0FF0200BB6819
:10067000D31AFA689A42F7D8C046C046BD4604B0BD
:1006800080BDC0460800002090B583B000AF0200D6
:100690003960FB1D1A70FB1D1B787F2B28D82F4A51
:1006A000FB1D1B785BB29B08C0339B009B58FA1D57
:1006B0001278110003220A40D200FF2191400A0063
:1006C000D2431A4011003B689B01FF221A40FB1DD8
:1006D0001B78180003230340DB009A401F48FB1DD2
:1006E0001B785BB29B080A43C0339B001A5031E071
:1006F0001B4AFB1D1B7819000F230B40083B9B086E
:1007000006339B00D31804331B68FA1D12781100BE
:1007100003220A40D200FF2191400A00D2431A402E
:1007200011003B689B01FF221A40FB1D1B7818003B
:1007300003230340DB009A400948FB1D1B781C0083
:100740000F232340083B9B080A4306339B00C31832
:1007500004331A60C046BD4603B090BD00E100E01E
:1007600000ED00E080B582B000AF78607B685A1E73
:1007700080235B049A4201D3012310E00A4B7A687C
:10078000013A5A6001235B4203211800FFF77CFF06
:10079000054B00229A60044B07221A6000231800C0
:1007A000BD4602B080BDC04610E000E080B584B018
:1007B00000AFB9607A600F217B18021C1A70BA680A
:1007C0007B181B785BB211001800FFF75DFFC04675
:1007D000BD4604B080BD80B582B000AF78607B6854
:1007E0001800FFF7BFFF03001800BD4602B080BD30
:1007F00080B586B000AF7860396000237B614FE13F
:100800003B681B6801217A6991400A001340FB6034
:10081000FB68002B00D140E13B685B68032213407A
:10082000012B05D03B685B6803221340022B30D1BB
:100830007B689B683B617B695B0003229A401300E5
:10084000DA433B6913403B613B68DA687B695B00D4
:100850009A4013003A6913433B617B683A699A6096
:100860007B685B683B6101227B699A401300DA4335
:100870003B6913403B613B685B681B0901221A40DE
:100880007B699A4013003A6913433B617B683A697C
:100890005A603B685B6803221340032B17D07B68C8
:1008A000DB683B617B695B0003229A401300DA43FB
:1008B0003B6913403B613B689A687B695B009A40E7
:1008C00013003A6913433B617B683A69DA603B681D
:1008D0005B6803221340022B23D17B69DA087B6813
:1008E00008329200D3583B617B69072213409B007A
:1008F0000F229A401300DA433B6913403B613B6887
:100900001A697B6907210B409B009A4013003A69E2
:1009100013433B617B69DA087B68083292003969CE
:10092000D1507B681B683B617B695B0003229A4066
:100930001300DA433B6913403B613B685B68032269
:100940001A407B695B009A4013003A6913433B618C
:100950007B683A691A603B685A68C0239B0213405F
:1009600000D19AE0544B9A69534B01210A439A6192
:10097000514B9B6901221340BB60BB684F4A7B69A6
:100980009B0802339B009B583B617B690322134009
:100990009B000F229A401300DA433B6913403B61EE
:1009A0007A689023DB059A4213D07B68444A9342CD
:1009B0000DD07B68434A934207D07B68424A9342FA
:1009C00001D1032306E0052304E0022302E0012312
:1009D00000E000237A6903210A40920093403A69BB
:1009E00013433B6135497B699B0802339B003A699D
:1009F0005A50364B9B683B61FB68DA433B691340B6
:100A00003B613B685A6880235B03134003D03A691B
:100A1000FB6813433B612D4B3A699A602B4BDB68B3
:100A20003B61FB68DA433B6913403B613B685A68B2
:100A300080239B03134003D03A69FB6813433B6157
:100A4000224B3A69DA60214B5B683B61FB68DA4311
:100A50003B6913403B613B685A6880239B0213400B
:100A600003D03A69FB6813433B61184B3A695A60FB
:100A7000164B1B683B61FB68DA433B6913403B61E3
:100A80003B685A6880235B02134003D03A69FB68D5
:100A900013433B610D4B3A691A607B6901337B61FB
:100AA0003B681A687B69DA40131E00D0A8E6C0468E
:100AB000C046BD4606B080BD0010024000000140A7
:100AC0000004004800080048000C004800040140F1
:100AD00080B582B000AF786008001100BB1C021C1A
:100AE0001A807B1C0A1C1A707B1C1B78002B04D0FC
:100AF000BB1C1A887B689A6103E0BB1C1A887B6860
:100B00009A62C046BD4602B080BD80B584B000AFD9
:100B100078600A00BB1C1A807B685B69FB60BB1CA9
:100B20001B88FA6813401A04FB68DB43B91C098868
:100B30000B401A437B689A61C046BD4604B080BD35
:100B400080B588B000AF78607B68002B01D10123AD
:100B500001E37B681B680122134000D18DE0C34B89
:100B60005B680C221340042B0ED0C04B5B680C2238
:100B70001340082B16D1BD4B5A6880235B021A40E4
:100B800080235B029A420DD1B84B1A6880239B02E6
:100B9000134000D170E07B685B68002B00D06BE0F5
:100BA0000123D8E27B685B68012B07D1AF4B1A6841
:100BB000AE4B802149020A431A602FE07B685B68D4
:100BC000002B0CD1A94B1A68A84BA9490A401A60FE
:100BD000A64B1A68A54BA7490A401A601EE07B681D
:100BE0005B68052B0ED1A14B1A68A04B8021C9026E
:100BF0000A431A609D4B1A689C4B802149020A43A4
:100C00001A600BE0994B1A68984B99490A401A6090
:100C1000964B1A68954B97490A401A607B685B6847
:100C2000002B14D0FFF702FD0300BB6108E0FFF7C3
:100C3000FDFC0200BB69D31A642B01D903238AE2AD
:100C40008A4B1A6880239B021340F0D015E0FFF70F
:100C5000EDFC0300BB6108E0FFF7E8FC0200BB69A4
:100C6000D31A642B01D9032375E2804B1A688023C1
:100C70009B021340F0D100E0C0467B681B68022253
:100C8000134000D169E0794B5B680C2213400BD014
:100C9000764B5B680C221340082B1CD1734B5A68AF
:100CA00080235B02134016D1704B1B680222134055
:100CB00005D07B68DB68012B01D001234BE26B4B35
:100CC0001B68F822934319007B681B69DA00674BA5
:100CD0000A431A6041E07B68DB68002B24D0634B39
:100CE0001A68624B01210A431A60FFF79FFC030058
:100CF000BB6108E0FFF79AFC0200BB69D31A022B24
:100D000001D9032327E2594B1B6802221340F1D07B
:100D1000564B1B68F822934319007B681B69DA0065
:100D2000524B0A431A6018E0504B1A684F4B01218E
:100D30008A431A60FFF77AFC0300BB6108E0FFF703
:100D400075FC0200BB69D31A022B01D9032302E20E
:100D5000464B1B6802221340F1D17B681B680822B6
:100D6000134036D07B68DB69002B19D03F4B5A6AA1
:100D70003E4B01210A435A62FFF758FC0300BB6156
:100D800008E0FFF753FC0200BB69D31A022B01D91C
:100D90000323E0E1354B5B6A02221340F1D018E0F7
:100DA000324B5A6A314B01218A435A62FFF73EFCAB
:100DB0000300BB6108E0FFF739FC0200BB69D31AEE
:100DC000022B01D90323C6E1284B5B6A02221340A0
:100DD000F1D17B681B680422134000D1B4E01F20CE
:100DE0003B1800221A70214BDA6980235B051340FF
:100DF00010D11E4BDA691D4B802149050A43DA6187
:100E00001A4BDA6980235B051340FB60FB683B18D3
:100E100001221A70184B1A6880235B0013401AD104
:100E2000154B1A68144B802149000A431A60FFF7DA
:100E3000FDFB0300BB6108E0FFF7F8FB0200BB69A4
:100E4000D31A642B01D9032385E10B4B1A68802345
:100E50005B001340F0D07B689B68012B0ED1034BE5
:100E60001A6A024B01210A431A6235E0001002405F
:100E7000FFFFFEFFFFFFFBFF007000407B689B68E9
:100E8000002B0CD1B64B1A6AB54B01218A431A626A
:100E9000B34B1A6AB24B04218A431A621CE07B6886
:100EA0009B68052B0CD1AE4B1A6AAD4B04210A434B
:100EB0001A62AB4B1A6AAA4B01210A431A620BE071
:100EC000A74B1A6AA64B01218A431A62A44B1A6ADD
:100ED000A34B04218A431A627B689B68002B14D0C1
:100EE000FFF7A4FB0300BB6109E0FFF79FFB0200D3
:100EF000BB69D31A9B4A934201D903232BE1984B38
:100F00001B6A02221340F0D013E0FFF78FFB0300AF
:100F1000BB6109E0FFF78AFB0200BB69D31A914A63
:100F2000934201D9032316E18D4B1B6A0222134021
:100F3000F0D11F23FB181B78012B05D1884BDA69F0
:100F4000874B89490A40DA617B681B68102213408D
:100F500063D07B685B69012B2AD1814B5A6B804B34
:100F600004210A435A637E4B5A6B7D4B01210A438D
:100F70005A63FFF75BFB0300BB6108E0FFF756FB1A
:100F80000200BB69D31A022B01D90323E3E0744B9F
:100F90005B6B02221340F1D0714B5B6BF8229343E1
:100FA00019007B689B69DA006D4B0A435A6334E091
:100FB0007B685B69053311D1694B5A6B684B04211F
:100FC0008A435A63664B5B6BF822934319007B6834
:100FD0009B69DA00624B0A435A631EE0604B5A6B0E
:100FE0005F4B04210A435A635D4B5A6B5C4B0121F2
:100FF0008A435A63FFF71AFB0300BB6108E0FFF75F
:1010000015FB0200BB69D31A022B01D90323A2E00E
:10101000534B5B6B02221340F1D17B681B6A002BA0
:1010200000D197E04E4B5B680C221340082B00D197
:101030006BE07B681B6A022B4CD1494B1A68484B0A
:101040004A490A401A60FFF7F1FA0300BB6108E061
:10105000FFF7ECFA0200BB69D31A022B01D9032374
:1010600079E03F4B1A6880239B041340F0D13C4B3E
:10107000DB6A0F22934319007B68DA6A384B0A4314
:10108000DA62374B5B683A4A134019007B689A6A08
:101090007B685B6A1A43324B0A435A60304B1A68CA
:1010A0002F4B802149040A431A60FFF7BFFA03005F
:1010B000BB6108E0FFF7BAFA0200BB69D31A022B42
:1010C00001D9032347E0264B1A6880239B04134071
:1010D000F0D03FE0224B1A68214B24490A401A60A5
:1010E000FFF7A4FA0300BB6108E0FFF79FFA0200D4
:1010F000BB69D31A022B01D903232CE0184B1A68C1
:1011000080239B041340F0D124E07B681B6A012BF1
:1011100001D101231FE0124B5B687B61104BDB6A3E
:101120003B617A6980235B021A407B685B6A9A4262
:101130000ED13B690F221A407B68DB6A9A4207D1C5
:101140007A69F0239B031A407B689B6A9A4201D01C
:10115000012300E000231800BD4608B080BDC04652
:101160000010024088130000FFFFFFEFFFFFFFFEAB
:10117000FFFFC2FF80B584B000AF786039607B6844
:10118000002B01D10123B3E05B4B1B68012213400C
:101190003A689A4211D9584B1B68012293431900AF
:1011A000554B3A680A431A60534B1B68012213409F
:1011B0003A689A4201D001239AE07B681B680222B8
:1011C000134015D07B681B680422134006D04B4B9C
:1011D0005A684A4BE021C9000A435A60474B5B6892
:1011E000F022934319007B689A68444B0A435A6083
:1011F0007B681B680122134040D07B685B68012B31
:1012000007D13E4B1A6880239B02134014D101235F
:101210006EE07B685B68022B07D1384B1A6880232D
:101220009B04134008D1012362E0344B1B68022267
:10123000134001D101235BE0304B5B6803229343F1
:1012400019007B685A682D4B0A435A60FFF7EEF984
:101250000300FB6009E0FFF7E9F90200FB68D31A1D
:10126000274A934201D9032342E0244B5B680C22B6
:101270001A407B685B689B009A42ECD11E4B1B684E
:10128000012213403A689A4211D21B4B1B6801227B
:1012900093431900184B3A680A431A60164B1B68AF
:1012A000012213403A689A4201D0012320E07B6872
:1012B0001B680422134009D0104B5B68114A13408D
:1012C00019007B68DA680D4B0A435A6000F020F879
:1012D00001000A4B5B681B090F2213400A4AD35CCA
:1012E0000A00DA40094B1A600320FFF759F900237E
:1012F0001800BD4604B080BD00200240001002402E
:1013000088130000FFF8FFFF541D000800000020B4
:1013100080B586B000AF0023FB600023BB600023D4
:101320007B6100237B6000233B61204B5B68FB609B
:10133000FB680C221340042B02D0082B03D02CE0B6
:101340001B4B3B612CE0FB689B0C0F221340194A9E
:10135000D35C7B60154BDB6A0F221340164AD35CCB
:10136000BB60FA6880235B02134009D0B96810485B
:10137000FEF7CAFE03001A007B6853437B6109E055
:1013800079680A005201521A93019B1ADB005B181C
:101390001B027B617B693B6102E0054B3B61C04600
:1013A0003B691800BD4606B080BDC0460010024033
:1013B00000127A006C1D00087C1D000880B500AF8B
:1013C000024B1B681800BD4680BDC04600000020CF
:1013D00080B500AFFFF7F2FF0100064B5B681B0A08
:1013E00007221340044AD35CD9400B001800BD46C5
:1013F00080BDC04600100240641D000880B586B064
:1014000000AF786000233B610023FB607B681A68B3
:1014100080235B02134000D18EE017203B1800228E
:101420001A70574BDA6980235B05134010D1544B77
:10143000DA69534B802149050A43DA61504BDA6976
:1014400080235B051340BB60BB683B1801221A7008
:101450004C4B1A6880235B0013401AD1494B1A6821
:10146000484B802149000A431A60FFF7DFF8030068
:101470003B6108E0FFF7DAF802003B69D31A642BFE
:1014800001D9032377E03F4B1A6880235B001340A8
:10149000F0D03B4B1A6AC0239B001340FB60FB68F3
:1014A000002B34D07B685A68C0239B001340FA6835
:1014B0009A422CD0324B1B6A334A1340FB60304BAC
:1014C0001A6A2F4B802149020A431A622C4B1A6A6E
:1014D0002B4B2E490A401A62294BFA681A62FB68A4
:1014E0000122134013D0FFF7A1F803003B6109E08C
:1014F000FFF79CF802003B69D31A254A934201D9B1
:10150000032338E01E4B1B6A02221340F0D01C4B11
:101510001B6A1D4A134019007B685A68184B0A431E
:101520001A621723FB181B78012B05D1144BDA69BB
:10153000134B18490A40DA617B681B68012213408B
:1015400009D00F4B1B6B0322934319007B689A68E9
:101550000B4B0A431A637B681B682022134009D097
:10156000074B1B6B1022934319007B68DA68044B0E
:101570000A431A6300231800BD4606B080BDC0466A
:101580000010024000700040FFFCFFFFFFFFFEFF65
:1015900088130000FFFFFFEF80B582B000AF7860D6
:1015A0007B68002B01D1012344E07B68DB6F002BBB
:1015B00007D17B687822002199547B681800FEF7D8
:1015C00049FF7B682422DA677B681B681A687B689E
:1015D0001B6801218A431A607B68180000F030F80C
:1015E0000300012B01D1012324E07B685B6A002BFF
:1015F00003D07B68180000F04BF97B681B685A68C1
:101600007B681B680D490A405A607B681B689A68B2
:101610007B681B6808218A439A607B681B681A688C
:101620007B681B6801210A431A607B68180000F080
:10163000E3F903001800BD4602B080BDFFF7FFFFCD
:1016400080B588B000AF78601E23FB1800221A70A6
:101650007B689A687B681B691A437B685B691A43DD
:101660007B68DB6913437B617B681B681B68834A6B
:10167000134019007B681B687A690A431A607B680B
:101680001B685B687E4A134019007B68DA687B68D8
:101690001B680A435A607B689B697B617B681B6A95
:1016A0007A6913437B617B681B689B68754A1340AA
:1016B00019007B681B687A690A439A60724B1B6B3E
:1016C00003221340032B0DD01BD8022B14D018D8A3
:1016D000002B02D0012B0AD013E01F23FB1800229D
:1016E0001A7012E01F23FB1802221A700DE01F234C
:1016F000FB1804221A7008E01F23FB1808221A7036
:1017000003E01F23FB1810221A707B68DA6980231C
:101710001B029A425CD11F23FB181B78082B15D0A3
:1017200018DC042B0DD015DC002B02D0022B05D0C9
:1017300010E0FFF74DFE0300BB6112E0534BBB61AD
:101740000FE0FFF7E5FD0300BB610AE080231B0209
:10175000BB6106E00023BB611E23FB1801221A7047
:10176000C046BB69002B00D17AE0BB695A007B6898
:101770005B685B08D2187B685B6819001000FEF795
:10178000C3FC03003B613B690F2B1CD93A698023E2
:101790005B029A4217D23B699AB20E203B180F2186
:1017A0008A431A803B695B089BB20722134099B2B7
:1017B0003B183A1812880A431A807B681B683A184B
:1017C0001288DA604CE01E23FB1801221A7047E0F1
:1017D0001F23FB181B78082B15D018DC042B0DD009
:1017E00015DC002B02D0022B05D010E0FFF7F0FD36
:1017F0000300BB6112E0254BBB610FE0FFF788FDE2
:101800000300BB610AE080231B02BB6106E00023EA
:10181000BB611E23FB1801221A70C046BB69002B56
:101820001ED07B685B685A08BB69D2187B685B680E
:1018300019001000FEF768FC03003B613B690F2BA9
:101840000AD93A6980235B029A4205D23B699AB26F
:101850007B681B68DA6003E01E23FB1801221A7004
:101860007B6800229A667B680022DA661E23FB18DA
:101870001B781800BD4608B080BDC046F369FFFF65
:10188000FFCFFFFFFFF4FFFF0010024000127A00BD
:1018900080B582B000AF78607B685B6A012213403C
:1018A0000BD07B681B685B684A4A134019007B6851
:1018B0009A6A7B681B680A435A607B685B6A0222EB
:1018C00013400BD07B681B685B68434A13401900C8
:1018D0007B68DA6A7B681B680A435A607B685B6ACC
:1018E000042213400BD07B681B685B683B4A1340A3
:1018F00019007B681A6B7B681B680A435A607B6817
:101900005B6A082213400BD07B681B685B68344A13
:10191000134019007B685A6B7B681B680A435A6046
:101920007B685B6A102213400BD07B681B689B6846
:101930002C4A134019007B689A6B7B681B680A432A
:101940009A607B685B6A202213400BD07B681B681F
:101950009B68254A134019007B68DA6B7B681B681B
:101960000A439A607B685B6A402213401DD07B6803
:101970001B685B681D4A134019007B681A6C7B6802
:101980001B680A435A607B681A6C80235B039A4287
:101990000BD17B681B685B68154A134019007B6894
:1019A0005A6C7B681B680A435A607B685B6A8022BA
:1019B00013400BD07B681B685B680E4A134019000C
:1019C0007B689A6C7B681B680A435A60C046BD46B8
:1019D00002B080BDFFFFFDFFFFFFFEFFFFFFFBFF2B
:1019E000FF7FFFFFFFEFFFFFFFDFFFFFFFFFEFFFC7
:1019F000FFFF9FFFFFFFF7FF80B592B002AF786057
:101A00007B68842200219950FEF710FE0300FB63DF
:101A10007B681B681B6808221340082B2CD1FB6BCA
:101A2000802291037868464A0092002200F08CF8E8
:101A3000031E21D0EFF310837B627B6ABB6301231B
:101A4000BB62BB6A83F31088C0467B681B681A6858
:101A50007B681B6880218A431A60BB6BFB62FB6A50
:101A600083F31088C0467B682022DA677B6878227F
:101A70000021995403235FE07B681B681B680422E4
:101A80001340042B46D1FB6B8022D10378682C4A8B
:101A90000092002200F058F8031E3BD0EFF31083B1
:101AA000FB60FB687B6301233B613B6983F3108828
:101AB000C0467B681B681A687B681B6821490A401E
:101AC0001A607B6B7B617B6983F31088C046EFF300
:101AD0001083BB61BB693B630123FB61FB6983F33B
:101AE0001088C0467B681B689A687B681B68012168
:101AF0008A439A603B6B3B623B6A83F31088C04623
:101B00007B688022202199507B687822002199549B
:101B1000032311E07B682022DA677B688022202182
:101B200099507B6800221A667B6800225A667B689F
:101B300078220021995400231800BD4610B080BDC2
:101B4000FFFFFF01DFFEFFFF80B584B000AFF8604C
:101B5000B9603B60FB1D1A704BE0BB69013348D094
:101B6000FEF764FD02003B68D31ABA699A4202D3B9
:101B7000BB69002B01D103234BE0FB681B681B688A
:101B80000422134035D0FB681B68DB690822134030
:101B9000082B11D1FB681B6808221A62FB68180029
:101BA00000F03CF8FB68842208219950FB687822F9
:101BB0000021995401232CE0FB681B68DA6980231B
:101BC0001B011A4080231B019A4212D1FB681B683B
:101BD000802212011A62FB68180000F01FF8FB68EF
:101BE000842220219950FB687822002199540323F4
:101BF0000FE0FB681B68DB69BA681340BA68D31A48
:101C00005A425341DBB21A00FB1D1B789A42A4D002
:101C100000231800BD4604B080BD000080B58EB022
:101C200000AF7860EFF310837B617B697B630123F6
:101C3000BB61BB6983F31088C0467B681B681A6868
:101C40007B681B6826490A401A607B6BFB61FB6955
:101C500083F31088C046EFF310833B623B6A3B631B
:101C600001237B627B6A83F31088C0467B681B6814
:101C70009A687B681B6801218A439A603B6BBB6250
:101C8000BB6A83F31088C0467B681B6E012B18D19A
:101C9000EFF31083BB60BB68FB620123FB60FB6852
:101CA00083F31088C0467B681B681A687B681B68D2
:101CB00010218A431A60FB6A3B613B6983F31088F9
:101CC000C0467B688022202199507B6800221A66DA
:101CD0007B6800229A66C046BD460EB080BDC046F5
:101CE000DFFEFFFF03008218934200D17047197096
:101CF0000133F9E770B500260C4C0D4D641BA410A0
:101D0000A64209D1002600F019F80A4C0A4D641BBE
:101D1000A410A64205D170BDB300EB589847013618
:101D2000EEE7B300EB5898470136F2E78C1D000848
:101D30008C1D0008901D00088C1D0008F8B5C046D9
:101D4000F8BC08BC9E467047F8B5C046F8BC08BC55
:041D50009E467047F4
:101D54000000000000000000010203040607080957
:101D64000000000001020304020304050607080939
:101D74000A0B0C0D0E0F10100102030405060708D0
:081D8400090A0B0C0D0E0F10F3
:041D8C00E900000862
:041D9000C100000886
:0C1D940000127A000400000001000000B2
:0400000508000525C5
:00000001FF
