:020000040800F2
:10000000001000207D060008450500084B0500088B
:1000100000000000000000000000000000000000E0
:100020000000000000000000000000005105000872
:1000300000000000000000005B05000865050008E6
:10004000CD06000800000000CD060008CD0600081F
:10005000CD060008CD060008CD060008CD06000834
:1000600000000000CD060008CD060008CD060008FF
:10007000CD060008CD060008CD06000800000000EF
:10008000CD0600080000000000000000CD060008BA
:1000900000000000CD060008CD060008CD060008CF
:1000A00000000000CD06000800000000CD0600089A
:1000B0000000000000000000000000000000000040
:1000C00010B5064C2378002B07D1054B002B02D02E
:1000D000044800E000BF0123237010BD6800002029
:1000E00000000000282E0008044B10B5002B03D0A0
:1000F0000349044800E000BF10BDC04600000000F6
:100100006C000020282E000803B471464908400006
:100110004900095E49008E4403BC70470022430831
:100120008B4274D303098B425FD3030A8B4244D3BF
:10013000030B8B4228D3030C8B420DD3FF22090201
:1001400012BA030C8B4202D31212090265D0030BC0
:100150008B4219D300E0090AC30B8B4201D3CB03B6
:10016000C01A5241830B8B4201D38B03C01A5241F8
:10017000430B8B4201D34B03C01A5241030B8B42FA
:1001800001D30B03C01A5241C30A8B4201D3CB02E5
:10019000C01A5241830A8B4201D38B02C01A5241CA
:1001A000430A8B4201D34B02C01A5241030A8B42CD
:1001B00001D30B02C01A5241CDD2C3098B4201D3E5
:1001C000CB01C01A524183098B4201D38B01C01A63
:1001D000524143098B4201D34B01C01A52410309DA
:1001E0008B4201D30B01C01A5241C3088B4201D389
:1001F000CB00C01A524183088B4201D38B00C01A36
:10020000524143088B4201D34B00C01A5241411A5C
:1002100000D20146524110467047FFE701B5002069
:1002200000F006F802BDC0460029F7D076E7704717
:100230007047C04680B500AF00F04AFA00F026F8DB
:1002400000F0ACF800F07AF8642000F0A5FA9023F2
:10025000DB051021180000F004FD094B00229B5E15
:100260009BB201339BB21AB2054B1A80044B002299
:100270009B5E1A000349044B180001F031FFE3E7CD
:100280000C010020402E0008482E000890B595B0C3
:1002900000AF20243B19180030231A00002101F080
:1002A0007BFF1023FB18180010231A00002101F017
:1002B00073FF3B00180010231A00002101F06CFFAF
:1002C00021007B1802221A607B180122DA607B1859
:1002D00010221A617B1800221A627B18180000F0A5
:1002E000DBFC031E01D000F0B7F810217B180722B9
:1002F0001A607B1800225A607B1800229A607B18D3
:100300000022DA607B180021180000F0DFFF031ED6
:1003100001D000F0A1F83B0001221A603B0000224E
:100320009A603B00180001F015F9031E01D000F09F
:1003300093F8C046BD4615B090BD000080B500AF33
:10034000144B154A1A60134B962292015A60114BB6
:1003500000229A600F4B0022DA600E4B00221A61D5
:100360000C4B0C225A610B4B00229A61094B002264
:10037000DA61084B00221A62064B00225A62054BD2
:10038000180001F0B5F9031E01D000F065F8C04671
:10039000BD4680BD840000200038014090B589B082
:1003A00000AF0C243B19180014231A00002101F09F
:1003B000F3FE1D4B5A691C4B8021C9030A435A6145
:1003C000194B5A698023DB031340BB60BB68164B93
:1003D0005A69154B802189020A435A61124B5A69A6
:1003E00080239B0213407B607B689023DB05002207
:1003F0001021180000F018FC21007B1810221A6050
:100400007B1801225A607B1800229A607B18002218
:10041000DA607A189023DB051100180000F094FAD6
:10042000C046BD4609B090BD0010024080B584B002
:1004300000AFF860B9607A607B689AB201235B42D2
:10044000B968044801F0A8F97B681800BD4604B0FB
:1004500080BDC0468400002080B500AF72B6C046A3
:10046000FEE7000080B582B000AF0F4B9A690E4BDB
:1004700001210A439A610C4B9B69012213407B6066
:100480007B68094BDA69084B802149050A43DA6128
:10049000054BDA6980235B0513403B603B68C0462F
:1004A000BD4602B080BDC0460010024090B58BB082
:1004B00000AF786014243B19180014231A0000219F
:1004C00001F06AFE7B681B681C4A934232D11C4BC8
:1004D0009A691B4B8021C9010A439A61184B9A699A
:1004E0008023DB0113403B613B69154B5A69144B78
:1004F000802189020A435A61114B5A6980239B0269
:100500001340FB60FB6821007B180C221A607B18EB
:1005100002225A607B1800229A607B180322DA605C
:100520007B1801221A617A189023DB05110018004C
:1005300000F00AFAC046BD460BB090BD003801403D
:100540000010024080B500AFFEE780B500AFFEE7C7
:1005500080B500AFC046BD4680BD80B500AFC04687
:10056000BD4680BD80B500AF00F0FAF8C046BD467C
:1005700080BD80B586B000AFF860B9607A600023B6
:100580007B610AE000E000BF0100BB685A1CBA6052
:10059000CAB21A707B6901337B617A697B689A42BF
:1005A000F0DB7B681800BD4606B080BD80B582B028
:1005B00000AF786001235B421800BD4602B080BDE9
:1005C00080B582B000AF786039603B6880229201CC
:1005D0005A6000231800BD4602B080BD80B582B0CD
:1005E00000AF786001231800BD4602B080BD80B521
:1005F00084B000AFF860B9607A6000231800BD468F
:1006000004B080BD80B586B000AF7860144A154B49
:10061000D31A7B617B693B61134B1B68002B02D1B2
:10062000114B124A1A60104B1A687B68D3183A694A
:100630009A4207D201F006FE03000C221A60012341
:100640005B4209E0084B1B68FB60074B1A687B683C
:10065000D218054B1A60FB681800BD4606B080BD75
:10066000001000200004000010010020680200209B
:1006700080B500AFC046BD4680BD00000D48854630
:10068000FFF7F6FF0C480D490D4A002302E0D4584D
:10069000C4500433C4188C42F9D30A4A0A4C0023CC
:1006A00001E013600432A242FBD301F0D1FDFFF759
:1006B000C1FDFEE7001000200000002068000020BF
:1006C000D02E00086800002064020020FEE7000031
:1006D00080B500AF074B1A68064B10210A431A6019
:1006E000032000F009F8FFF7BDFE00231800BD4607
:1006F00080BDC0460020024090B583B000AF786056
:10070000144B1C68144B1B781900FA239800FFF750
:1007100005FD030019002000FFF700FD030018008D
:1007200000F005F9031E01D001230FE07B68032BC5
:100730000BD8796801235B420022180000F0E2F830
:10074000064B7A681A60002300E001231800BD46BA
:1007500003B090BD0000002008000020040000202D
:1007600080B500AF054B1B781A00054B1B68D218EB
:10077000034B1A60C046BD4680BDC046080000203D
:100780001401002080B500AF024B1B681800BD4665
:1007900080BDC0461401002080B584B000AF7860F1
:1007A000FFF7F0FF0300BB607B68FB60FB68013371
:1007B00005D00A4B1B781A00FB689B18FB60C046EB
:1007C000FFF7E0FF0200BB68D31AFA689A42F7D835
:1007D000C046C046BD4604B080BDC04608000020EB
:1007E00090B583B000AF02003960FB1D1A70FB1D8D
:1007F0001B787F2B28D82F4AFB1D1B785BB29B08E8
:10080000C0339B009B58FA1D1278110003220A4046
:10081000D200FF2191400A00D2431A4011003B68E8
:100820009B01FF221A40FB1D1B7818000323034085
:10083000DB009A401F48FB1D1B785BB29B080A43F4
:10084000C0339B001A5031E01B4AFB1D1B78190076
:100850000F230B40083B9B0806339B00D31804333F
:100860001B68FA1D1278110003220A40D200FF21F2
:1008700091400A00D2431A4011003B689B01FF22BD
:100880001A40FB1D1B78180003230340DB009A402D
:100890000948FB1D1B781C000F232340083B9B08C5
:1008A0000A4306339B00C31804331A60C046BD4692
:1008B00003B090BD00E100E000ED00E080B582B043
:1008C00000AF78607B685A1E80235B049A4201D394
:1008D000012310E00A4B7A68013A5A6001235B4217
:1008E00003211800FFF77CFF054B00229A60044BA0
:1008F00007221A6000231800BD4602B080BDC04622
:1009000010E000E080B584B000AFB9607A600F21DC
:100910007B18021C1A70BA687B181B785BB2110036
:100920001800FFF75DFFC046BD4604B080BD80B52E
:1009300082B000AF78607B681800FFF7BFFF03004C
:100940001800BD4602B080BD80B586B000AF7860AB
:10095000396000237B614FE13B681B6801217A69A4
:1009600091400A001340FB60FB68002B00D140E17E
:100970003B685B6803221340012B05D03B685B6832
:1009800003221340022B30D17B689B683B617B695B
:100990005B0003229A401300DA433B6913403B613A
:1009A0003B68DA687B695B009A4013003A6913433D
:1009B0003B617B683A699A607B685B683B610122B6
:1009C0007B699A401300DA433B6913403B613B6803
:1009D0005B681B0901221A407B699A4013003A693F
:1009E00013433B617B683A695A603B685B6803224A
:1009F0001340032B17D07B68DB683B617B695B008E
:100A000003229A401300DA433B6913403B613B6881
:100A10009A687B695B009A4013003A6913433B6113
:100A20007B683A69DA603B685B6803221340022BFB
:100A300023D17B69DA087B6808329200D3583B6186
:100A40007B69072213409B000F229A401300DA4370
:100A50003B6913403B613B681A697B6907210B4086
:100A60009B009A4013003A6913433B617B69DA08A3
:100A70007B68083292003969D1507B681B683B6102
:100A80007B695B0003229A401300DA433B69134001
:100A90003B613B685B6803221A407B695B009A40BC
:100AA00013003A6913433B617B683A691A603B68FB
:100AB0005A68C0239B02134000D19AE0544B9A69B4
:100AC000534B01210A439A61514B9B690122134008
:100AD000BB60BB684F4A7B699B0802339B009B58F5
:100AE0003B617B69032213409B000F229A40130055
:100AF000DA433B6913403B617A689023DB059A42F5
:100B000013D07B68444A93420DD07B68434A93429A
:100B100007D07B68424A934201D1032306E00523B4
:100B200004E0022302E0012300E000237A690321AC
:100B30000A40920093403A6913433B6135497B690F
:100B40009B0802339B003A695A50364B9B683B61C5
:100B5000FB68DA433B6913403B613B685A6880237A
:100B60005B03134003D03A69FB6813433B612D4B91
:100B70003A699A602B4BDB683B61FB68DA433B695F
:100B800013403B613B685A6880239B03134003D0AA
:100B90003A69FB6813433B61224B3A69DA60214BA7
:100BA0005B683B61FB68DA433B6913403B613B6830
:100BB0005A6880239B02134003D03A69FB681343B1
:100BC0003B61184B3A695A60164B1B683B61FB68E6
:100BD000DA433B6913403B613B685A6880235B0200
:100BE000134003D03A69FB6813433B610D4B3A69EC
:100BF0001A607B6901337B613B681A687B69DA4064
:100C0000131E00D0A8E6C046C046BD4606B080BD53
:100C100000100240000001400004004800080048A5
:100C2000000C00480004014080B582B000AF78603D
:100C300008001100BB1C021C1A807B1C0A1C1A70C5
:100C40007B1C1B78002B04D0BB1C1A887B689A6124
:100C500003E0BB1C1A887B689A62C046BD4602B09E
:100C600080BD80B584B000AF78600A00BB1C1A80DC
:100C70007B685B69FB60BB1C1B88FA6813401A0425
:100C8000FB68DB43B91C09880B401A437B689A61F7
:100C9000C046BD4604B080BD80B588B000AF786066
:100CA0007B68002B01D1012301E37B681B680122D3
:100CB000134000D18DE0C34B5B680C221340042B22
:100CC0000ED0C04B5B680C221340082B16D1BD4BD5
:100CD0005A6880235B021A4080235B029A420DD13E
:100CE000B84B1A6880239B02134000D170E07B68E8
:100CF0005B68002B00D06BE00123D8E27B685B6867
:100D0000012B07D1AF4B1A68AE4B802149020A4331
:100D10001A602FE07B685B68002B0CD1A94B1A6826
:100D2000A84BA9490A401A60A64B1A68A54BA749C7
:100D30000A401A601EE07B685B68052B0ED1A14B50
:100D40001A68A04B8021C9020A431A609D4B1A6899
:100D50009C4B802149020A431A600BE0994B1A68A8
:100D6000984B99490A401A60964B1A68954B9749D7
:100D70000A401A607B685B68002B14D0FFF702FD05
:100D80000300BB6108E0FFF7FDFC0200BB69D31A5A
:100D9000642B01D903238AE28A4B1A6880239B02C1
:100DA0001340F0D015E0FFF7EDFC0300BB6108E055
:100DB000FFF7E8FC0200BB69D31A642B01D90323B7
:100DC00075E2804B1A6880239B021340F0D100E04B
:100DD000C0467B681B680222134000D169E0794B52
:100DE0005B680C2213400BD0764B5B680C221340DF
:100DF000082B1CD1734B5A6880235B02134016D119
:100E0000704B1B680222134005D07B68DB68012B06
:100E100001D001234BE26B4B1B68F822934319006E
:100E20007B681B69DA00674B0A431A6041E07B6804
:100E3000DB68002B24D0634B1A68624B01210A4304
:100E40001A60FFF79FFC0300BB6108E0FFF79AFC04
:100E50000200BB69D31A022B01D9032327E2594BA5
:100E60001B6802221340F1D0564B1B68F8229343B3
:100E700019007B681B69DA00524B0A431A6018E0BC
:100E8000504B1A684F4B01218A431A60FFF77AFCD6
:100E90000300BB6108E0FFF775FC0200BB69D31AD1
:100EA000022B01D9032302E2464B1B6802221340A6
:100EB000F1D17B681B680822134036D07B68DB6960
:100EC000002B19D03F4B5A6A3E4B01210A435A620C
:100ED000FFF758FC0300BB6108E0FFF753FC02007A
:100EE000BB69D31A022B01D90323E0E1354B5B6ABE
:100EF00002221340F1D018E0324B5A6A314B0121E3
:100F00008A435A62FFF73EFC0300BB6108E0FFF72B
:100F100039FC0200BB69D31A022B01D90323C6E1B5
:100F2000284B5B6A02221340F1D17B681B680422C4
:100F3000134000D1B4E01F203B1800221A70214B4F
:100F4000DA6980235B05134010D11E4BDA691D4B13
:100F5000802149050A43DA611A4BDA6980235B056F
:100F60001340FB60FB683B1801221A70184B1A688B
:100F700080235B0013401AD1154B1A68144B802153
:100F800049000A431A60FFF7FDFB0300BB6108E05C
:100F9000FFF7F8FB0200BB69D31A642B01D90323C6
:100FA00085E10B4B1A6880235B001340F0D07B680F
:100FB0009B68012B0ED1034B1A6A024B01210A4395
:100FC0001A6235E000100240FFFFFEFFFFFFFBFF4B
:100FD000007000407B689B68002B0CD1B64B1A6AEE
:100FE000B54B01218A431A62B34B1A6AB24B0421F2
:100FF0008A431A621CE07B689B68052B0CD1AE4BC0
:101000001A6AAD4B04210A431A62AB4B1A6AAA4B07
:1010100001210A431A620BE0A74B1A6AA64B012171
:101020008A431A62A44B1A6AA34B04218A431A62A8
:101030007B689B68002B14D0FFF7A4FB0300BB6107
:1010400009E0FFF79FFB0200BB69D31A9B4A93425A
:1010500001D903232BE1984B1B6A02221340F0D0E5
:1010600013E0FFF78FFB0300BB6109E0FFF78AFB8A
:101070000200BB69D31A914A934201D9032316E1B6
:101080008D4B1B6A02221340F0D11F23FB181B78E3
:10109000012B05D1884BDA69874B89490A40DA610F
:1010A0007B681B681022134063D07B685B69012B4F
:1010B0002AD1814B5A6B804B04210A435A637E4BE1
:1010C0005A6B7D4B01210A435A63FFF75BFB030018
:1010D000BB6108E0FFF756FB0200BB69D31A022B85
:1010E00001D90323E3E0744B5B6B02221340F1D080
:1010F000714B5B6BF822934319007B689B69DA00A4
:101100006D4B0A435A6334E07B685B69053311D148
:10111000694B5A6B684B04218A435A63664B5B6B7D
:10112000F822934319007B689B69DA00624B0A43FB
:101130005A631EE0604B5A6B5F4B04210A435A63AB
:101140005D4B5A6B5C4B01218A435A63FFF71AFBD4
:101150000300BB6108E0FFF715FB0200BB69D31A6F
:10116000022B01D90323A2E0534B5B6B02221340F5
:10117000F1D17B681B6A002B00D197E04E4B5B6876
:101180000C221340082B00D16BE07B681B6A022BFA
:101190004CD1494B1A68484B4A490A401A60FFF73C
:1011A000F1FA0300BB6108E0FFF7ECFA0200BB694B
:1011B000D31A022B01D9032379E03F4B1A6880230D
:1011C0009B041340F0D13C4BDB6A0F229343190080
:1011D0007B68DA6A384B0A43DA62374B5B683A4A13
:1011E000134019007B689A6A7B685B6A1A43324B2A
:1011F0000A435A60304B1A682F4B802149040A4336
:101200001A60FFF7BFFA0300BB6108E0FFF7BAFA04
:101210000200BB69D31A022B01D9032347E0264BF6
:101220001A6880239B041340F0D03FE0224B1A68D9
:10123000214B24490A401A60FFF7A4FA0300BB615E
:1012400008E0FFF79FFA0200BB69D31A022B01D90D
:1012500003232CE0184B1A6880239B041340F0D121
:1012600024E07B681B6A012B01D101231FE0124B94
:101270005B687B61104BDB6A3B617A6980235B02B0
:101280001A407B685B6A9A420ED13B690F221A4072
:101290007B68DB6A9A4207D17A69F0239B031A4084
:1012A0007B689B6A9A4201D0012300E0002318006A
:1012B000BD4608B080BDC046001002408813000043
:1012C000FFFFFFEFFFFFFFFEFFFFC2FF80B584B00F
:1012D00000AF786039607B68002B01D10123B3E057
:1012E0005B4B1B68012213403A689A4211D9584B54
:1012F0001B68012293431900554B3A680A431A6050
:10130000534B1B68012213403A689A4201D00123D3
:101310009AE07B681B680222134015D07B681B682B
:101320000422134006D04B4B5A684A4BE021C900B7
:101330000A435A60474B5B68F022934319007B686D
:101340009A68444B0A435A607B681B680122134029
:1013500040D07B685B68012B07D13E4B1A68802325
:101360009B02134014D101236EE07B685B68022B63
:1013700007D1384B1A6880239B04134008D10123FE
:1013800062E0344B1B680222134001D101235BE071
:10139000304B5B680322934319007B685A682D4BDE
:1013A0000A435A60FFF7EEF90300FB6009E0FFF71C
:1013B000E9F90200FB68D31A274A934201D90323B3
:1013C00042E0244B5B680C221A407B685B689B0000
:1013D0009A42ECD11E4B1B68012213403A689A4294
:1013E00011D21B4B1B68012293431900184B3A681A
:1013F0000A431A60164B1B68012213403A689A424E
:1014000001D0012320E07B681B680422134009D02F
:10141000104B5B68114A134019007B68DA680D4B6A
:101420000A435A6000F020F801000A4B5B681B0970
:101430000F2213400A4AD35C0A00DA40094B1A60B3
:101440000320FFF759F900231800BD4604B080BD02
:10145000002002400010024088130000FFF8FFFF48
:101460005C2E00080000002080B586B000AF00238D
:10147000FB600023BB6000237B6100237B600023B3
:101480003B61204B5B68FB60FB680C221340042B24
:1014900002D0082B03D02CE01B4B3B612CE0FB68F7
:1014A0009B0C0F221340194AD35C7B60154BDB6AFF
:1014B0000F221340164AD35CBB60FA6880235B029C
:1014C000134009D0B9681048FEF728FE03001A003F
:1014D0007B6853437B6109E079680A005201521A24
:1014E00093019B1ADB005B181B027B617B693B61EC
:1014F00002E0054B3B61C0463B691800BD4606B0A3
:1015000080BDC0460010024000127A00742E000810
:10151000842E000880B500AF024B1B681800BD4642
:1015200080BDC0460000002080B500AFFFF7F2FF8D
:101530000100064B5B681B0A07221340044AD35C78
:10154000D9400B001800BD4680BDC04600100240C7
:101550006C2E000880B586B000AF786000233B6138
:101560000023FB607B681A6880235B02134000D174
:101570008EE017203B1800221A70574BDA6980233F
:101580005B05134010D1544BDA69534B8021490558
:101590000A43DA61504BDA6980235B051340BB6074
:1015A000BB683B1801221A704C4B1A6880235B0001
:1015B00013401AD1494B1A68484B802149000A430D
:1015C0001A60FFF7DFF803003B6108E0FFF7DAF885
:1015D00002003B69D31A642B01D9032377E03F4B08
:1015E0001A6880235B001340F0D03B4B1A6AC0237B
:1015F0009B001340FB60FB68002B34D07B685A686B
:10160000C0239B001340FA689A422CD0324B1B6ACD
:10161000334A1340FB60304B1A6A2F4B802149023A
:101620000A431A622C4B1A6A2B4B2E490A401A6243
:10163000294BFA681A62FB680122134013D0FFF7A6
:10164000A1F803003B6109E0FFF79CF802003B6949
:10165000D31A254A934201D9032338E01E4B1B6A53
:1016600002221340F0D01C4B1B6A1D4A1340190084
:101670007B685A68184B0A431A621723FB181B78B9
:10168000012B05D1144BDA69134B18490A40DA6172
:101690007B681B680122134009D00F4B1B6B032290
:1016A000934319007B689A680B4B0A431A637B6863
:1016B0001B682022134009D0074B1B6B1022934359
:1016C00019007B68DA68044B0A431A630023180088
:1016D000BD4606B080BDC04600100240007000400C
:1016E000FFFCFFFFFFFFFEFF88130000FFFFFFEF7F
:1016F00080B582B000AF78607B68002B01D10123F8
:1017000044E07B68DB6F002B07D17B6878220021E7
:1017100099547B681800FEF7C9FE7B682422DA67BB
:101720007B681B681A687B681B6801218A431A6002
:101730007B68180000F0D0F80300012B01D10123D1
:1017400024E07B685B6A002B03D07B68180000F004
:10175000EBF97B681B685A687B681B680D490A4077
:101760005A607B681B689A687B681B6808218A43FB
:101770009A607B681B681A687B681B6801210A43B2
:101780001A607B68180000F083FA03001800BD4659
:1017900002B080BDFFF7FFFF80B58AB002AFF860EE
:1017A000B9603B60BB1D1A80FB68DB6F202B00D04B
:1017B0008DE0BB68002B03D0BB1D1B88002B01D123
:1017C000012385E0FB689A6880235B019A4209D176
:1017D000FB681B69002B05D1BB680122134001D0B7
:1017E000012375E0FB68842200219950FB682122C7
:1017F000DA67FEF7C7FF03007B61FB68BA1D502163
:1018000012885A52FB68BA1D522112885A52FB683C
:101810009A6880235B019A4208D1FB681B69002B00
:1018200004D10023FB61BB68BB6103E0BB68FB61C3
:101830000023BB6130E07A69F8683B6800931300CD
:101840000022802100F0CCFA031E04D0FB68202285
:10185000DA6703233CE0FB69002B0BD1BB691A88D4
:10186000FB681B68D205D20D92B21A85BB690233A0
:10187000BB6108E0FB691A78FB681B6892B21A85A5
:10188000FB690133FB61FB6852229B5A9BB2013B0F
:1018900099B2FB6852229952FB6852229B5A9BB222
:1018A000002BC8D17A69F8683B68009313000022C6
:1018B000402100F095FA031E04D0FB682022DA676D
:1018C000032305E0FB682022DA67002300E00223FF
:1018D0001800BD4608B080BD80B588B000AF786004
:1018E0001E23FB1800221A707B689A687B681B69AC
:1018F0001A437B685B691A437B68DB6913437B612E
:101900007B681B681B68834A134019007B681B684F
:101910007A690A431A607B681B685B687E4A1340D9
:1019200019007B68DA687B681B680A435A607B6829
:101930009B697B617B681B6A7A6913437B617B6867
:101940001B689B68754A134019007B681B687A699D
:101950000A439A60724B1B6B03221340032B0DD07A
:101960001BD8022B14D018D8002B02D0012B0AD080
:1019700013E01F23FB1800221A7012E01F23FB182C
:1019800002221A700DE01F23FB1804221A7008E0CF
:101990001F23FB1808221A7003E01F23FB181022D4
:1019A0001A707B68DA6980231B029A425CD11F237C
:1019B000FB181B78082B15D018DC042B0DD015DC78
:1019C000002B02D0022B05D010E0FFF7ADFD030085
:1019D000BB6112E0534BBB610FE0FFF745FD030015
:1019E000BB610AE080231B02BB6106E00023BB61F0
:1019F0001E23FB1801221A70C046BB69002B00D1C0
:101A00007AE0BB695A007B685B685B08D2187B6828
:101A10005B6819001000FEF781FB03003B613B6926
:101A20000F2B1CD93A6980235B029A4217D23B697B
:101A30009AB20E203B180F218A431A803B695B083B
:101A40009BB20722134099B23B183A1812880A43F6
:101A50001A807B681B683A181288DA604CE01E23F3
:101A6000FB1801221A7047E01F23FB181B78082B74
:101A700015D018DC042B0DD015DC002B02D0022B66
:101A800005D010E0FFF750FD0300BB6112E0254BCD
:101A9000BB610FE0FFF7E8FC0300BB610AE08023B5
:101AA0001B02BB6106E00023BB611E23FB18012261
:101AB0001A70C046BB69002B1ED07B685B685A0851
:101AC000BB69D2187B685B6819001000FEF726FB23
:101AD00003003B613B690F2B0AD93A6980235B0203
:101AE0009A4205D23B699AB27B681B68DA6003E0D0
:101AF0001E23FB1801221A707B6800229A667B68FD
:101B00000022DA661E23FB181B781800BD4608B0B9
:101B100080BDC046F369FFFFFFCFFFFFFFF4FFFF6B
:101B20000010024000127A0080B582B000AF7860E9
:101B30007B685B6A012213400BD07B681B685B6883
:101B40004A4A134019007B689A6A7B681B680A43FB
:101B50005A607B685B6A022213400BD07B681B686B
:101B60005B68434A134019007B68DA6A7B681B682C
:101B70000A435A607B685B6A042213400BD07B687F
:101B80001B685B683B4A134019007B681A6B7B68D3
:101B90001B680A435A607B685B6A082213400BD0BB
:101BA0007B681B685B68344A134019007B685A6B7A
:101BB0007B681B680A435A607B685B6A102213408B
:101BC0000BD07B681B689B682C4A134019007B680C
:101BD0009A6B7B681B680A439A607B685B6A202269
:101BE00013400BD07B681B689B68254A1340190083
:101BF0007B68DA6B7B681B680A439A607B685B6A68
:101C0000402213401DD07B681B685B681D4A13404F
:101C100019007B681A6C7B681B680A435A607B68F2
:101C20001A6C80235B039A420BD17B681B685B684C
:101C3000154A134019007B685A6C7B681B680A437D
:101C40005A607B685B6A802213400BD07B681B68FC
:101C50005B680E4A134019007B689A6C7B681B68AE
:101C60000A435A60C046BD4602B080BDFFFFFDFF7B
:101C7000FFFFFEFFFFFFFBFFFF7FFFFFFFEFFFFF09
:101C8000FFDFFFFFFFFFEFFFFFFF9FFFFFFFF7FFFC
:101C900080B592B002AF78607B68842200219950B1
:101CA000FEF770FD0300FB637B681B681B6808225E
:101CB0001340082B2CD1FB6B802291037868464A95
:101CC0000092002200F08CF8031E21D0EFF3108365
:101CD0007B627B6ABB630123BB62BB6A83F31088B0
:101CE000C0467B681B681A687B681B6880218A4332
:101CF0001A60BB6BFB62FB6A83F31088C0467B688B
:101D00002022DA677B6878220021995403235FE060
:101D10007B681B681B6804221340042B46D1FB6BB5
:101D20008022D10378682C4A0092002200F058F8F3
:101D3000031E3BD0EFF31083FB60FB687B63012342
:101D40003B613B6983F31088C0467B681B681A6857
:101D50007B681B6821490A401A607B6B7B617B6949
:101D600083F31088C046EFF31083BB61BB693B630C
:101D70000123FB61FB6983F31088C0467B681B6805
:101D80009A687B681B6801218A439A603B6B3B62BF
:101D90003B6A83F31088C0467B68802220219950DB
:101DA0007B68782200219954032311E07B6820226C
:101DB000DA677B688022202199507B6800221A66AE
:101DC0007B6800225A667B687822002199540023A0
:101DD0001800BD4610B080BDFFFFFF01DFFEFFFF12
:101DE00080B584B000AFF860B9603B60FB1D1A702D
:101DF0004BE0BB69013348D0FEF7C4FC02003B68EE
:101E0000D31ABA699A4202D3BB69002B01D10323CA
:101E10004BE0FB681B681B680422134035D0FB684D
:101E20001B68DB6908221340082B11D1FB681B6873
:101E300008221A62FB68180000F03CF8FB68842254
:101E400008219950FB6878220021995401232CE045
:101E5000FB681B68DA6980231B011A4080231B0181
:101E60009A4212D1FB681B68802212011A62FB6839
:101E7000180000F01FF8FB68842220219950FB68AD
:101E800078220021995403230FE0FB681B68DB696B
:101E9000BA681340BA68D31A5A425341DBB21A00E7
:101EA000FB1D1B789A42A4D000231800BD4604B045
:101EB00080BD000080B58EB000AF7860EFF3108376
:101EC0007B617B697B630123BB61BB6983F3108802
:101ED000C0467B681B681A687B681B6826490A40F5
:101EE0001A607B6BFB61FB6983F31088C046EFF3DC
:101EF00010833B623B6A3B6301237B627B6A83F313
:101F00001088C0467B681B689A687B681B68012143
:101F10008A439A603B6BBB62BB6A83F31088C046FE
:101F20007B681B6E012B18D1EFF31083BB60BB687D
:101F3000FB620123FB60FB6883F31088C0467B686B
:101F40001B681A687B681B6810218A431A60FB6A49
:101F50003B613B6983F31088C0467B688022202167
:101F600099507B6800221A667B6800229A66C046F8
:101F7000BD460EB080BDC046DFFEFFFF002310B59A
:101F80000400036043608360818143661900C2815D
:101F900003614361836108225C3000F0FDF8054B6A
:101FA00024626362044BA362044BE362044B236329
:101FB00010BDC04601210008292100086121000848
:101FC0008D21000810B5034A0349044800F06CF85D
:101FD00010BDC0460C000020352B00081800002062
:101FE00041680B4B10B50400994201D000F0A2FDEE
:101FF000A168084B994202D0200000F09BFDE168E7
:10200000054B994202D0200000F094FD10BDC0465F
:102010001801002080010020E801002010B5094BC4
:10202000094A04211A6009480022FFF7A7FF01228C
:1020300009210748FFF7A2FF022212210548FFF7F6
:102040009DFF10BD50020020C51F00081801002090
:1020500080010020E801002010B5024800F01CF9C2
:1020600010BDC0465902002010B5024800F015F915
:1020700010BDC0465902002010B50400FFF7ECFF68
:10208000236A002B02D0FFF7EFFF10BD044B236241
:10209000044B1B68002BF6D1FFF7C0FFF3E7C046E7
:1020A000E11F000850020020F7B514000026009040
:1020B0000191A5686768013F04D52468002CF8D118
:1020C0003000FEBDAB89012B08D90E22AB5E013377
:1020D00004D029000098019B984706436835EAE739
:1020E0000FB407B5054904AB086804CB81680193B8
:1020F00000F0FAF903B008BC04B0184764000020EF
:1021000070B50C000E25495F00F074F8002803DB61
:10211000636D1B18636570BDA389024A1340A381D8
:10212000F9E7C046FFEFFFFFF8B51F008B890500F8
:102130000C001600DB0505D50E23C95E0022022324
:1021400000F044F8A389054A28001340A381320017
:102150000E23E15E3B0000F061F8F8BDFFEFFFFFEA
:1021600070B50C000E25495F00F030F8A389421CC1
:1021700003D1054A1340A38170BD8022520113434D
:10218000A3816065F8E7C046FFEFFFFF10B50E239F
:10219000C95E00F009F810BD03008218934200D117
:1021A000704719700133F9E7002370B5064D04003C
:1021B00008002B60FEF7FAF9431C03D12B68002BB3
:1021C00000D0236070BDC0465402002070B50400EA
:1021D000080011001A000023054D2B60FEF707FAD6
:1021E000431C03D12B68002B00D0236070BDC04678
:1021F0005402002070B50400080011001A000023EA
:10220000054D2B60FEF7B5F9431C03D12B68002B5D
:1022100000D0236070BDC0465402002070B5040099
:10222000080011001A000023054D2B60FEF7FEF890
:10223000431C03D12B68002B00D0236070BDC04627
:1022400054020020014B18687047C046640000200B
:1022500070B500260C4C0D4D641BA410A64209D18C
:10226000002600F0E1FD0A4C0A4D641BA410A642B2
:1022700005D170BDB300EB5898470136EEE7B300C7
:10228000EB5898470136F2E7C82E0008C82E000820
:10229000CC2E0008C82E00087047704770B50500A6
:1022A000002910D00C1F2368002B00DAE418280046
:1022B00000F0E2F81D4A1368002B05D1636014603A
:1022C000280000F0E1F870BDA34208D92068211869
:1022D0008B42F3D119685B6809182160EEE71A0098
:1022E0005B68002B01D0A342F9D911685018A042B5
:1022F0000BD120680918501811608342E0D118688A
:102300005B68411811605360DAE7A04202D90C23E0
:102310002B60D5E7206821188B4203D119685B68D0
:102320000918216063605460CAE7C0465C0200205F
:1023300070B50F4E0D0031680400002902D100F085
:10234000CBFC30602900200000F0C6FC431C0AD002
:102350000323C51C9D43A84207D0291A200000F082
:10236000BBFC013001D101256D42280070BDC04683
:1023700060020020F7B50322CB1C9343083306000C
:102380001F000C2B38D20C27B94237D8300000F090
:1023900073F8384B00931B681C00002C33D13900B4
:1023A0003000FFF7C5FF0400431C5ED1009B1C6892
:1023B0002500002D4ED1002C51D023682900E318B0
:1023C0003000019300F088FC019B834247D12368D1
:1023D0003000FF1A3900FFF7ABFF01303FD0236810
:1023E000DB192360009B1B68002B40D05A68A24277
:1023F00033D100225A6014E0002BC5DA0C230025EB
:1024000033602800FEBD2168C91B20D40B2918D9D0
:10241000E2192760A34212D1009B1A606368116021
:1024200053603000250000F02FF807220B35231DE4
:102430009543EA1A9D42E4D05B1BA350E1E75A6042
:10244000ECE76268A342D5D1009B1A60E9E723005C
:102450006468A2E72C006D68ABE71300C4E70C23A7
:102460003000336000F010F8CBE72760D9E75B60FD
:10247000FFDEC0465C02002010B50248FFF70CFFEB
:1024800010BDC0465802002010B50248FFF705FFF6
:1024900010BDC04658020020936810B5013B936000
:1024A000002B04DA9469A34207DB0A2905D01368DC
:1024B000581C10601970080010BD00F066FB010088
:1024C000F9E7F8B506000F001400D518AC4201D1A9
:1024D000002007E021783A003000FFF7DDFF0134EB
:1024E000431CF3D1F8BD0000F0B5A1B00F001500FA
:1024F0001E000390002804D0036A002B01D1FFF7CF
:10250000BBFD7B6EDB0705D4BB899B0502D4B86D90
:10251000FFF7C2FEBB891B0702D53B69002B13D115
:102520003900039800F074FB00280DD07B6EDB07A8
:1025300003D50120404221B0F0BDBB899B05F8D4F2
:10254000B86DFFF7AAFEF4E7002308AC63612033FF
:1025500063761033A37607962E003378002B01D0D4
:10256000252B48D1731B0593AE420BD02A003900AE
:102570000398FFF7A6FF013000D1AFE06369059A29
:102580009B1863613378002B00D1A7E00122002360
:102590005242626004A954325218751C2360E360F1
:1025A000A3601370A365594B052218002978059381
:1025B00000F0A4FB6E1C00281FD12268D30604D5AE
:1025C000532304A95B1820211970130704D5532342
:1025D00004A95B182B2119702B782A2B16D02E00FA
:1025E00000210A20E3683278751C303A092A4ED956
:1025F000002911D117E00136AFE7059B2268C01A08
:1026000001238340134335002360CCE7079B191D4A
:102610001B680791002B01DB0B9304E05B42E36036
:1026200002231343236033782E2B0AD173782A2B8D
:1026300035D1079B02361A1D1B680792002B2BDB36
:102640000993334D03222800317800F057FB00280E
:1026500006D04023401B8340226801361343236089
:10266000317806222B48751C217600F047FB0028A4
:1026700043D0294B002B25D10722079B07339343D7
:10268000083307936369049A9B18636164E74343C3
:102690002E0001219B18A6E701235B42D0E700230F
:1026A0000A201A00013663603178751C3039092917
:1026B00003D9002BC5D00992C3E742432E00012362
:1026C0005218F1E707AA009221003A00134B039831
:1026D00000E000BF0490049B0133D3D17B6EDB0785
:1026E00005D4BB899B0502D4B86DFFF7D6FDBB8925
:1026F0005B0600D51DE70D981DE707AA0092210093
:102700003A00064B039800F07BF8E3E7942E0008AC
:102710009A2E00089E2E000800000000C324000826
:10272000F7B5160001938A680B690C00009093427C
:1027300000DA13002200336043321278002A01D0FD
:102740000133336023689B0602D53368023333605C
:102750002268062315001D401A4227D02300433368
:102760001B785A1E93412268920630D422000199A8
:102770000098089D4332A847013025D006222368DF
:1027800000251340042B05D13368E568ED1AEB43AF
:10279000DB171D40A3682269934201DD9B1AED18E7
:1027A0000026B54220D1002010E00135E3683268F0
:1027B0009B1AAB42D2DD2200012301990098089FA9
:1027C0001932B8470130F0D101204042FEBD30201F
:1027D000E1184331087021005A1C45310978A218CC
:1027E000433202331170C1E722000123019900989E
:1027F000089F1A32B8470130E6D00136D1E7000011
:10280000F0B58BB006920A0043320793059004920C
:102810000A7E0C00109B782A09D8622A0BD8002A5D
:1028200000D1BEE07C490391582A00D193E02600F4
:102830004236327022E0100063381528F7D8FDF7D1
:1028400063FC16001F00F6FFF6FFF6FFF6FF1F0001
:10285000F6FFF6FFF6FFF6FFA30036008300F6FF53
:10286000F6FFB400F6FF3600F6FFF6FF87002600FD
:102870001A684236111D1960136833700123A2E0F3
:1028800018680968021D0D060BD505681A60002D31
:1028900003DA2D23049A6D4213705F4B0A270393CA
:1028A0001BE005681A604906F1D52DB2EFE70D6807
:1028B0001968081D18602E0601D50D6803E06D0625
:1028C000FBD50D68ADB2544B082703936F2A00D097
:1028D00002372300002243331A706368A360002B81
:1028E00003DB042122688A432260002D02D1049E6A
:1028F000002B0CD0049E28003900FDF795FC039BAB
:10290000013E5B5C33702B0005009F42F3D9082F1A
:1029100009D12368DB0706D5626823699A4202DC85
:102920003023013E3370049B9B1B2361079B2100D6
:1029300000930598069B09AAFFF7F2FE013047D1E4
:10294000012040420BB0F0BD202209680A432260FA
:10295000782232490391210045310A7019682268B2
:1029600020C9100602D4500600D5ADB21960D307B5
:1029700002D52023134323601027002DA9D1202244
:10298000236893432360A4E71A680D68101D496902
:10299000186013682E0601D5196002E06D06FBD59C
:1029A00019800023049E2361C0E71A68111D196075
:1029B000166800213000626800F0A0F9002801D0FC
:1029C000801B6060636823610023049A1370ADE785
:1029D0003200236906990598079DA8470130AFD0BA
:1029E00023689B0715D4099BE0689842AADA18006F
:1029F000A8E72200012306990598079E1932B047DF
:102A000001309DD00135E368099A9B1AAB42F0DC96
:102A1000E9E70025F7E7C046A52E0008B62E000816
:102A2000F7B58B8905000C001A075CD44A68002AA8
:102A300004DC0A6C002A01DC0020FEBDE76A002FDE
:102A4000FAD0002280202E682A601A004001216AF4
:102A50000240034234D0606DA3895B0706D56368EA
:102A6000C01A636B002B01D0236CC01A0200002334
:102A70002800E76A216AB847A289431C06D1296861
:102A80001D292CD82A4B0B41DB0728D40023636077
:102A900023692360D20405D5431C02D12B68002B87
:102AA00000D16065616B2E600029C5D023004433DE
:102AB000994202D02800FFF7F1FB00206063BCE7D9
:102AC00001232800B847431CC6D12B68002BC3D074
:102AD0001D2B01D0162B01D12E60ADE7A28940231A
:102AE0001343A381A9E70E69002EA5D00F680E60DD
:102AF000BA1B019200229B0700D14A69A260019B88
:102B0000002B99DDA36A32001F002800019B216A77
:102B1000B847002806DC40230120A2894042134325
:102B2000A3818AE7019B36181B1A0193E7E7C04689
:102B3000FEFFBFDF0B6970B505000C00002B02D152
:102B40000025280070BD002804D0036A002B01D1A5
:102B5000FFF792FA0C22A35E002BF1D0626ED2072F
:102B600004D49B0502D4A06DFFF796FB280021003A
:102B7000FFF756FF636E0500DB07E2D4A3899B05D0
:102B8000DFD4A06DFFF789FBDBE7F8B506000D0089
:102B90001400002804D0036A002B01D1FFF76CFA5F
:102BA000A369A360A3891B0728D52369002B25D01F
:102BB00023692068EFB2C01A6369EDB2834205DC75
:102BC00021003000FFF7B6FF00281DD1A3680130B7
:102BD000013BA36023685A1C22601F706369834213
:102BE00004D0A389DB0707D50A2D05D121003000C9
:102BF000FFF7A0FF002807D12800F8BD2100300012
:102C000000F006F80028D3D001256D42F4E700005B
:102C1000304B70B5050018680C00002804D0036A1A
:102C2000002B01D1FFF728FA0C23E25E93B21107C3
:102C300023D4D90607D4092301202B60373313434B
:102C4000A381404270BD5B0713D5616B002908D09A
:102C500023004433994202D02800FFF71FFB0023D2
:102C600063632422A3899343A381002363602369C0
:102C700023600823A2891343A3812369002B0BD16E
:102C8000A0218022A389890092000B40934203D0A7
:102C90002100280000F066F80C22A35E01201A0033
:102CA00099B2024003420FD00022A26062695242F0
:102CB000A261002022698242C4D10906C2D5402205
:102CC0001343A3810138BDE7880700D46269A2607D
:102CD000EFE7C04664000020002370B5064D0400F5
:102CE00008002B60FDF78EFC431C03D12B68002BE2
:102CF00000D0236070BDC04654020020C9B28218C3
:102D0000904201D10020704703788B42FBD0013004
:102D1000F6E7000070B50E001D000E23C95E14001A
:102D200096B000290CDAB2898023110019401A42AA
:102D300013D00021403B00202960236016B070BDF5
:102D40006A4600F04DF80028EDDBF02301991B02E4
:102D50001940034BC9184B4259418023DB00EAE775
:102D600000E0FFFFF7B502268B8905000C00334217
:102D700006D0230047332360236101236361F7BD3D
:102D80006A4601ABFFF7C6FF009907002800FFF76E
:102D9000F1FA002808D10C22A35E9A05EFD4032291
:102DA00093431E43A681E4E78023A2892060134356
:102DB000A381009B20616361019B002B0CD0280044
:102DC0000E23E15E00F01EF8002805D00323A2893F
:102DD0009A43023B1343A381A3893B43A381CEE7DC
:102DE000002370B5064D0400080011002B60FDF7AC
:102DF000E7FB431C03D12B68002B00D0236070BD80
:102E000054020020002370B5064D040008002B601A
:102E1000FDF7E4FB431C03D12B68002B00D023609B
:102E200070BDC04654020020F8B5C046F8BC08BCCE
:102E30009E467047F8B5C046F8BC08BC9E46704731
:102E4000776F726C6400000048656C6C6F313120E4
:102E5000257320202564200D0A00000000000000DA
:102E6000000000000102030406070809000000003A
:102E70000102030402030405060708090A0B0C0DEE
:102E80000E0F10100102030405060708090A0B0CB7
:102E90000D0E0F10232D302B2000686C4C00656642
:102EA000674546470030313233343536373839419B
:102EB00042434445460030313233343536373839B1
:082EC0006162636465660000B5
:042EC800E900000815
:042ECC00C100000839
:102ED00000127A0004000000010000000000000061
:102EE000030000001801002000000000180100206D
:102EF00080010020E8010020000000000000000028
:102F000000000000000000000000000000000000C1
:102F100000000000000000000000000000000000B1
:102F200000000000000000000000000000000000A1
:082F3000000000001800002061
:040000050800067D6C
:00000001FF
