:020000040000FA
:10000000F8E20720E1000000E5000000E700000042
:10001000E9000000EB000000ED000000000000001F
:10002000000000000000000000000000EF000000E1
:10003000F100000000000000F3000000A57F0200B6
:10004000F700000089020000B5020000F700000080
:10005000F7000000D1D502003D180300F7000000B2
:10006000F7000000F7000000F7000000F7000000B4
:10007000F7000000F7000000F7000000F7000000A4
:10008000F7000000F7000000F7000000F700000094
:10009000F7000000F7000000A3710000F700000067
:1000A000F7000000C5D30200F7000000F7000000D1
:1000B000F7000000F7000000F7000000F700000064
:1000C000F7000000F7000000F7000000DFF80CD098
:1000D00031F08EFF004800477F810200F8E20720E0
:1000E00005480047FEE7FEE7FEE7FEE7FEE7FEE71E
:1000F000FEE7FEE7FEE7FEE7CD00000070B5374AF9
:100100000020A2F11401064601F10A030C5C54B16F
:100110001D5CAC4207D1145C2CB1641E14F0FF04CA
:10012000145400D10E540C5C1C54401CC0B20A285C
:10013000ECD370BD70B5294D0024143D641CE4B2AD
:100140002E5D1EB1864201D00A2CF7D328552348D4
:100150000C3040F82410283040F82420343803555F
:1001600070BD1E4A0021143A491CC9B2535C834237
:1001700001D00A29F8D3DBB2834210D117480C30E2
:1001800050F8213016480360144B343353F82130B3
:10019000436000205054114A505401207047002001
:1001A00070470E4A0021143A491CC9B2535C83427D
:1001B00001D00A29F8D3DAB282420CD107480C30B8
:1001C00050F8212006480260044A343252F82110C7
:1001D00041600120704700207047000024CB0720B9
:1001E0002C0000100C4BDA601870597070470A4AE6
:1001F0001161907070470849088170470648B0F94E
:100200000810002907D0491E09B20181002902D136
:10021000084601F085BB70470CC1072090F90030FB
:100220008B4200DA027090F90030934200DD0170D9
:10023000704790F900308B4200DA017090F900109D
:10024000914200DD02707047B0F900308B4200DA55
:100250000180B0F90010914200DD02807047B0F9D2
:1002600000308B4200DA0280B0F90030934200DDAA
:100270000180704703688B4200DA02600368934292
:1002800000DD0160704700004FF040210120086050
:100290000C480168491C01600B49002008700B489C
:1002A000016821F0FF01091D0160016841F08071C2
:1002B0000160704706490120086002484168491CF6
:1002C00041607047340100100AC00720004003401D
:1002D00000800040FE21C0B231F076BE8021C0B265
:1002E00031F072BE1C21C0B231F06EBE7021C0B2BE
:1002F00031F06ABE70470B0D0F0E0300FFFFFFFFCA
:10030000002801DA404200B270470020FD4A202157
:100310001154401CC0B2C828FAD370470146F94AAC
:100320000020401CC0B2135C8B4201D0C828F8D317
:10033000704710B50021F44C0A2200BFB0FBF2F365
:1003400002FB13006054491CC9B218460529F5D3B5
:1003500010BDF0B5ED4B0121202719700521EA4AA7
:10036000002601E01C7844B1541814F8015C25B94A
:10037000814202D904F8017C05E0541814F8015DAB
:10038000303525701E70491E11F0FF01EAD1F0BD15
:10039000FEB52B23002802DA404200B22D230025AF
:1003A0000A266C4690FBF6F706FB170060556D1C9D
:1003B0006DB238B20A2DF5DB012600250920202771
:1003C00000E046B114F800C0BCF1000F03D1904228
:1003D00001DD275405E0265C3036265400266D1CCE
:1003E000EDB2401E40B20028EBDA2D2B02D163554E
:1003F0006D1CEDB26AB168B205E0231813F8013C38
:100400002354401E40B29042F7DC2E206D1CA054B5
:10041000EDB20846FFF782FF0021BA4A04E0635CB0
:10042000461A491C935549B2A942F8DBFEBD10B5E6
:1004300004460846FFF772FF0146B248227842544C
:10044000491CC9B262784254491CC9B2A2784254CC
:10045000491CC9B2E2784254491CC9B222794254BB
:10046000491CC9B262794254491CC9B2A2794254AA
:1004700010BD2DE9FE41044616460020DDF824801B
:100480009C460A226D462746B4FBF2F402FB147721
:100490002F54401C40B20A28F5DB0846FFF73EFF08
:1004A0000021984A05E06B5C441A3033491C13550F
:1004B00049B2B142F7DB96490978002906D0B8F174
:1004C000000F03D0A0EB0C005F211154BDE8FE81AA
:1004D000FEB52B23002801DA40422D2300250A26F1
:1004E0006C46074690FBF6F006FB107767556D1CCF
:1004F0006DB20A2DF5DB012600250920202700E03A
:1005000046B114F800C0BCF1000F03D1904201DDE8
:10051000275405E0265C3036265400266D1CEDB2CB
:10052000401E40B20028EBDA2D2B02D163556D1C22
:10053000EDB26AB168B205E0231813F8013C235408
:10054000401E40B29042F7DC2E206D1CA054EDB24C
:100550000846FFF7E3FE00216A4A04E0635C461A9E
:10056000491C935549B2A942F8DBFEBD30B50022C3
:1005700091B1012912D0022912D0032912D00429E5
:1005800013D0052914D0062914D0072914D008291E
:1005900014D0092914D014E0012212E00A2210E03C
:1005A00064220EE04FF47A720BE042F2107208E01F
:1005B000584A06E0584A04E0584A02E0584A00E027
:1005C000584A0A2502EB82014B00B0FBF2F1B0FB66
:1005D000F3F302FB1104B1FBF5F005FB1010401C16
:1005E000B0FBF5F105FB110003EB830100EB4100CB
:1005F0004B4900FB0240491E884200D9002030BD13
:1006000030B5002291B1012912D0022912D003295C
:1006100012D0042913D0052914D0062914D0072993
:1006200014D0082914D0092914D014E0012212E0B2
:100630000A2210E064220EE04FF47A720BE042F2DC
:10064000107208E0334A06E0334A04E0334A02E01D
:10065000334A00E0334A02EB82014C00B0FBF2F176
:10066000B0FBF4F402FB11030A25B1FBF5F005FB26
:10067000101068B1B0F1010004EB840100EB4100FF
:10068000274900FB0230491E884200D9002030BDB6
:100690000920F1E7FEB52B26002801DA40422D267D
:1006A00000240A276D46844690FBF7F007FB10CC28
:1006B00005F804C0641C64B20A2CF4DB0127002096
:1006C00009244FF0200C00E04FB115F804E0BEF112
:1006D000000F04D19C4202DD05F804C005E02F5D47
:1006E00030372F550027401CC0B2641E64B2002C66
:1006F000EADA2D2E02D12E54401CC0B203B344B20C
:1007000018E00000B6C40720F6000010FB0000103F
:1007100064C10720A086010040420F008096980027
:1007200000E1F50500CA9A3B2E1916F8016C2E550A
:10073000641E64B29C42F7DC2E24401CEC54C0B210
:1007400001EB810102EB8101CAB20021FE4B04E002
:100750006C5C561A491C9C5549B28142F8DBFEBDBF
:1007600070B50D4616461C46FFF7E3FD601CC0B28F
:10077000FFF7EFFD05EB850006EB8000C1B2F34A01
:10078000F14B0020A04201D2155C5D5406D3155CEC
:10079000202D03D04CB15E1806F8015C491E401CA8
:1007A000C0B2C9B20528EDD370BD5D54F6E730B5CF
:1007B000044608461546FFF7B1FDFF2809D0E24A76
:1007C0002178002905D04319641C401CD154C0B2C3
:1007D000F6E730BD70B50D461446FFF7AAFD601C64
:1007E000C0B2FFF7B6FD2846FFF798FDD74BD64AB3
:1007F000002124B95D5C202D01D015540FE0A142E9
:1008000001D25D5CF9E704D14FF02E0515545D5C13
:1008100002E05D5C202D02D0161806F8015C401E37
:10082000491CC9B2C0B20529E3D370BD801801D5F7
:10083000084402E0884200DB401AC0B270472DE94C
:10084000FE4F04460D464FF460602AF08BFB624277
:100850004021FFF7EBFF400100F58060044602A94C
:100860002AF0FDFB694604F108002AF0F8FB01A913
:1008700004F10C002AF0F3FB2846FFF74FFD064673
:100880009DF8080030252327DFF8BCB220244FF064
:10089000400C4FF0210A552851D04FF0CF084FF0AF
:1008A000D10950287ED0E22351287CD042287BD029
:1008B00053287AD0492879D0D3214FF0EE094FF050
:1008C000E708732873D0752872D0662871D19DF817
:1008D0000A005A28FAD1D4210BF80610761CF0B27F
:1008E000F0260BF80090401CC0B2EC220BF8006020
:1008F000401CC0B22E210BF80020401CC0B25B4649
:100900000BF80010401CC0B2E02203F80080401C2D
:10091000C0B21A54401CC0B21E54401CC0B219547C
:10092000401CC0B21C54401CC0B21C54401CC1B27C
:1009300087489DF80020838F9A4271D0F3E39DF899
:100940000A0052280ED1C2200BF80600761CF0B225
:10095000EA220BF80020401CC0B2EB220BF800206A
:10096000401CC6B258460BF80640761CF1B20BF894
:100970000140491CC9B20BF80140491CC9B20BF82F
:1009800001409DE09DF8013092F83860B34277D184
:100990009DF8023092F82C209342F8D14554491C1E
:1009A000C9B207E03DE06CE0A0E0FEE3FEE3FEE359
:1009B000FEE328E000F801A0491CC9B23A224254E3
:1009C000491CC9B24554491CC9B200F801C0491CB0
:1009D000C9B24254491CC9B200224554491CC9B28B
:1009E0000BF801709DF804002121FFF7F3FE9DF83C
:1009F000050000224021FFF7EDFE9DF806000022D1
:100A00002321FFF7E7FEBDE8FE8F00BF9DF8011030
:100A10005048002200EB81004021FFF7C8FEF2E7BA
:100A2000FDE3C0210BF80610761CF1B2C2220BF8D0
:100A30000120491CC9B22E220BF80120491CC9B261
:100A400058460BF80180491CC9B20BF80190491CAB
:100A5000C9B24454491CC9B24454491CC9B2445493
:100A6000491CC9B2FDE300BF9DF8012096F838305B
:100A70009A428CD19DF8022096F82C309A428DD063
:100A8000F0E3C0210BF80610761CF1B2C2220BF87D
:100A90000120491CC9B22E220BF80120491CC9B201
:100AA00055220BF80120491CC9B258460BF80130F9
:100AB000491CC9B2FB224254491CC9B2F522425416
:100AC000491CC9B24454491CC9B24454491CC9B256
:100AD0004454491CC9B21E4A4454491C9DF8003074
:100AE000968FC9B2B3423FF44DAFBBE39DF80A0005
:100AF0004FF0F20943287ED1C0210BF80610761C76
:100B0000F1B2C2220BF80120491CC9B22E220BF807
:100B10000120491CC9B2C1220BF80120491C5846CA
:100B2000C9B2E0224254491CC9B24E2200F80190D9
:100B3000491CC9B24254491CCEB29DF8091009297A
:100B40000AD2313181551CE0B6C40720F6000010EE
:100B500000400240B8280300A1F109025A2A0FD22E
:100B6000491C0A23B1FBF3F2904630328255761CC1
:100B700003FB1811F6B230318155761CF1B205E055
:100B80008455761CF1B24454491CC9B24454491CE2
:100B9000C9B24454491C9DF80020C9B2FF4EB38F1E
:100BA0009A423CD19DF8012096F838309A4236D1CD
:100BB0009DF8022096F82C309A4230D14554491CB9
:100BC000C9B23A2200F801A0491CC9B24254491CDA
:100BD000C9B24554491CC9B200F801C0491CC9B288
:100BE0004254491CC9B24554491CC9B20BF80170A2
:100BF000491CCEB200E04AE09DF804000022212109
:100C0000FFF7E8FD9DF8050000224021FFF7E2FD17
:100C10009DF8060000222321FFF7DCFD37E0445455
:100C2000491CC9B200224554491CC9B200F801A0B0
:100C3000491CC9B200F801C0491CC9B24454491C3E
:100C4000C9B24454491CC9B24554491CC9B20BF835
:100C50000170491CCEB29DF802002121FFF7BAFDB8
:100C60009DF8000000222321FFF7B4FD9DF801004C
:100C7000401E0C2802D301208DF801009DF80110C0
:100C8000C748002200EB81004021FFF790FD9DF84E
:100C90000A0053287BD1C0210BF80610761CF2B253
:100CA000C2230BF80230521CD2B22E230BF80230B2
:100CB000521CD2B2C1230BF80230521C5846D2B299
:100CC000E0238354521CD2B2432600F80290521CF7
:100CD0009DF80930D2B2092B08D231338354521C0B
:100CE000D2B28154521CD1B246540EE0093B5A2B69
:100CF00004D28154521CD1B2465403E08454521C95
:100D0000D1B24454491CC9B24454A44E491C9DF864
:100D10000020B38FC9B29A423AD19DF8012096F8CB
:100D200038309A4234D19DF8022096F82C309A42FD
:100D30002ED14554491CC9B23A2200F801A0491CE1
:100D4000C9B24254491CC9B24554491CC9B200F841
:100D500001C0491CC9B24254491CC9B200224554C1
:100D6000491CC9B20BF80170491CCEB29DF80400B1
:100D70002121FFF72FFD9DF8050000224021FFF7FC
:100D800029FD9DF8060000222321FFF723FD37E00F
:100D90004454491CC9B200224554491CC9B200F848
:100DA00001A0491CC9B200F801C0491CC9B2445491
:100DB000491CC9B24454491CC9B24554491CC9B262
:100DC0000BF80170491CCEB29DF802002121FFF7FB
:100DD00001FD9DF8000000222321FFF7FBFC9DF898
:100DE0000100401E0C2802D301208DF801009DF85F
:100DF00001106B48002200EB81004021FFF7D7FC77
:100E00009DF80A00542873D1C1210BF80610761CF6
:100E1000F1B2E0230BF80130491CC9B24E220BF8A5
:100E20000190491CC9B258460BF80120491C9DF895
:100E30000920C9B2092A02D23132425400E0445496
:100E4000491CC9B2ED224254491CC9B2E3224354A1
:100E5000491CC9B2514E4254491CC9B2F0224254F5
:100E6000491CC9B22E224254491CC9B24454491CDF
:100E70009DF80020B38FC9B29A423AD19DF8012063
:100E800096F838309A4234D19DF8022096F82C30EA
:100E90009A422ED14554491CC9B23A2200F801A009
:100EA000491CC9B24254491CC9B24554491CC9B273
:100EB00000F801C0491CC9B24254491CC9B2002201
:100EC0004554491CC9B20BF80170491CCEB29DF8BB
:100ED00004002121FFF77EFC9DF80500002240213F
:100EE000FFF778FC9DF8060000222321FFF772FC33
:100EF00037E04454491CC9B200224554491CC9B2C8
:100F000000F801A0491CC9B200F801C0491CC9B2CF
:100F10004454491CC9B24454491CC9B24554491CE3
:100F2000C9B20BF80170491CCEB29DF80200212114
:100F3000FFF750FC9DF8000000222321FFF74AFC38
:100F40009DF80100401E0C2802D301208DF80100FD
:100F50009DF801101248002200EB81004021FFF7AC
:100F600026FC9DF80A005A2870D1C2210BF8061001
:100F7000761CF1B2FB220BF80120491CC9B2F02605
:100F80000BF80160491CC9B22E230BF80130491C33
:100F90005846C9B2C7224254491C03E000400240EF
:100FA000B8280300C9B2E0224254491CC9B24654D1
:100FB000491CC9B24354491CC9B24454491CC9B262
:100FC0004454491CC9B24454491C9DF80020C9B27C
:100FD000FF4EB38F9A423AD19DF8012096F83830EF
:100FE0009A4234D19DF8022096F82C309A422ED1A4
:100FF0004554491CC9B23A2200F801A0491CC9B2A3
:101000004254491CC9B24554491CC9B200F801C038
:10101000491CC9B24254491CC9B200224554491C5A
:10102000C9B20BF80170491CCEB29DF80400212111
:10103000FFF7D0FB9DF8050000224021FFF7CAFB17
:101040009DF8060000222321FFF7C4FB37E044543B
:10105000491CC9B200224554491CC9B200F801A07C
:10106000491CC9B200F801C0491CC9B24454491C0A
:10107000C9B24454491CC9B24554491CC9B20BF801
:101080000170491CCEB29DF802002121FFF7A2FB9E
:101090009DF8000000222321FFF79CFB9DF8010032
:1010A000401E0C2802D301208DF801009DF801108C
:1010B000C848002200EB81004021FFF778FB9DF833
:1010C0000A00572875D1C1210BF80610761CF1B221
:1010D000E0220BF80120491CC9B258460BF80190D8
:1010E000491CCEB29DF80910092906D2313181552B
:1010F000761CF1B2F02242541AE0A1F109025A2AF8
:1011000012D2491C0A23B1FBF3F2904630328255C9
:10111000761C03FB1811F6B230318155761CF1B202
:10112000F022425407E0AFE18455761CF1B24454FA
:10113000491CC9B24454491CC9B2A54E4454491C67
:10114000C9B24454491CC9B24454491CC9B244549C
:10115000491CC9B24454491C9DF80020B38FC9B240
:101160009A4240D19DF8012096F838309A423AD1FF
:101170009DF8022096F82C309A4234D14554491CEF
:10118000C9B23A2200F801A0491CC9B24254491C14
:10119000C9B24554491CC9B200F801C0491CC9B2C2
:1011A0004254491CC9B2455404E0A9E0ECE035E1E1
:1011B0006CE152E0491CC9B200220BF80170491CD5
:1011C000CEB29DF804002121FFF704FB9DF8050035
:1011D00000224021FFF7FEFA9DF80600002223219D
:1011E000FFF7F8FA39E04454491CC9B24554491C88
:1011F000C9B200F801A0491CC9B200F801C0491CDD
:10120000C9B24454491CC9B24454491CC9B24554DA
:10121000491CC9B20BF80170491CCEB200E09CE138
:101220009DF8020000222121FFF7D4FA9DF800006A
:1012300000222321FFF7CEFA9DF80100401E0C2862
:1012400002D301208DF801009DF8011061480022B1
:1012500000EB81004021FFF7AAFA9DF80A004B2815
:1012600001E08CE049E17FF4CEABC1210BF8061020
:10127000761CF1B2E0220BF80120491CC9B20BF830
:101280000190491C9DF80900C9B24FF0E5090928F1
:101290000ED231300BF80100491CC8B2EA210BF81C
:1012A0000010401CC0B20BF80090401CC0B220E0FF
:1012B000A0F109025A2A18D2401C0A23B0FBF3F20B
:1012C000904630320BF80120491C03FB1800C9B2CC
:1012D00030300BF80100491CC8B2EA210BF80010AD
:1012E000401CC0B20BF8009005E00BF80140491C0F
:1012F000C8B20BF80040401CC1B25846FFF7EBBB28
:10130000C0210BF80610761CF1B2C2220BF80120A6
:10131000491CC9B22E220BF80120491CC9B2C122B6
:101320000BF80120491CC9B258460BF80180491C32
:10133000C9B24E2200F80190491CC9B24254491C5E
:10134000CEB29DF80910092902D23131815514E03D
:10135000A1F109025A2A0FD2491C0A23B1FBF3F268
:10136000904630328255761C03FB1811F6B23031AC
:101370008155761CF1B205E08455761CF1B24454D7
:10138000491CC9B24454ACE0C0210BF80610761CCD
:10139000F1B2C2220BF80120491CC9B22E220BF86F
:1013A0000120491CC9B2C8220BF80120491C58462B
:1013B000C9B2ED224254491CC9B24354491CC9B2B6
:1013C0004754491C9DF80920C9B2092A07D203E0F5
:1013D00000400240B82803003132425412E0A2F12A
:1013E00009035A2B0DD2521C0A25B2FBF5F303F167
:1013F00030064654491C05FB1322C9B23032425410
:1014000003E04454491CC9B24454491CC9B2445471
:10141000491CC9B20BF80140BDE8FE8F9DF80A00D7
:101420005A28F9D10BF80610761CF0B2F1220BF80D
:101430000020401CC0B2EA210BF80010401CC0B2D2
:101440005B460BF80090401CC0B2F0261E54401CB6
:10145000C0B22E211954401CC0B2E02203F8008013
:10146000401CC0B21A54401CC0B21E54401CC0B232
:101470001954401CC0B21C54FFF758BA9DF8022002
:1014800090F82C00824270D0584636E09DF80A0051
:101490005A28C1D10BF80610761CF1B2F0260BF8D1
:1014A0000160491CC9B2E0220BF80120491CC9B2F5
:1014B00058460BF80130491CC9B2ED230BF8013036
:1014C000491CC9B22E234354491CC9B200F80180FB
:1014D000491CC9B24254491CC9B24654491CC9B23C
:1014E0004354491CC9B2FD4E4454491C9DF8002088
:1014F000B38FC9B29A423FF4B7AA4454491CC9B247
:1015000000224554491CC9B200F801A0491CC9B2C7
:1015100000F801C0491CC9B24454491CC9B2445422
:10152000491CC9B24554491CC9B20BF801709DF859
:1015300002002121FFF74EF99DF80000002223212F
:10154000FFF748F99DF80100401E0C28FFF45EAA41
:1015500001208DF80100FFF759BA9DF8012090F89D
:1015600038309A4290D189E7FFE75846FFF716BA1C
:10157000F0B50446084694461D46FEF7CFFE00230C
:10158000D74E0146FF2806D109E03754401C641CA1
:101590005B1CC0B2DBB227780FB1132BF5D3D14857
:1015A0000078002804D0002D02D061445F207054E0
:1015B000F0BD70B50446084615461E46FEF7AEFE61
:1015C000C74B0146FF2804D106E01A54641C401C96
:1015D000C0B22278002AF8D1C2480078002804D08E
:1015E000002E02D029445F20585470BD2DE9F047E9
:1015F0000746894692461846089CFEF78FFEB94E6C
:1016000020210A23B64A012C06D1357825B11518B8
:1016100005F8091D69700CE097FBF3F5A84602EB8D
:10162000000C30350CF8095C03FB187530350CF8EC
:10163000085C15184FF02F0805F8078C022C06D10E
:10164000377827B105F8061C05F8051C0AE099FB58
:10165000F3F707F1300C03FB179705F806CC30378A
:1016600005F8057C05F8048C032C06D1347824B1E8
:1016700005F8031D6970A97012E064249AFBF4F662
:10168000322105F8031D3021697004FB16A191FB7E
:10169000F3F19AFBF3F43031A97003FB14A130315C
:1016A0001154BDE8F0872DE9FF4F8146DDE90D04B7
:1016B0008A469346FEF732FE2022DFF828828849C8
:1016C0000A234FF0640C012C09D198F8005035B171
:1016D0000D18A5F10E05AA706A702A7020E099FB1A
:1016E000F3F603FB16970D183037A5F10E05022C03
:1016F000AF7096FBF3F703FB176606F130066E70CA
:1017000099FBFCF606F1300605F80E6B08D198F847
:1017100000602EB1A5F10A05AA706A702A7021E056
:101720009AFBF3F603FB16A70D183037A5F10A054F
:10173000032CAF7096FBF3F703FB176606F1300638
:101740006E709AFBFCF606F13006674605F80A6BE8
:1017500008D198F800602EB1A5F10605AA706A704C
:101760002A7022E09BFBF3F603FB16B70D18303707
:10177000A5F10605042CAF7096FBF3F703FB176683
:1017800006F130066E709BFBFCF606F130066746EC
:1017900005F8066B09D198F8004034B1A5F10205AF
:1017A0000A546A702A70BDE8FF8F039C94FBF3F221
:1017B00003FB124430340C5492FBF3F403FB142269
:1017C0000844A0F1020030324270039991FBF7F116
:1017D00001F130010170E6E710B50C46FEF79EFD01
:1017E0003F490CB1032200E004220A5410BD17B592
:1017F00001EB810002EB8000C2B29DF800303A4854
:1018000003F00F0100EB1313445C35498C54521E56
:10181000D2B21B788B549DF80130521E03F00F0496
:10182000D2B2045D8C54521E00EB1313D2B21B785B
:101830008B549DF80230521E03F00F04D2B2045DA7
:101840008C54521E00EB1313D2B21B788B549DF8AC
:101850000330521E03F00F04D2B2045D8C54521EAA
:1018600000EB1310D2B2007888541EBD01EB810149
:1018700002EB81011C4A10B500F00F03C9B2D45C21
:10188000174B02EB10105C54491EC9B20078585433
:1018900010BD30B515490123114D91F9012091F981
:1018A000041000EB80048A4202D105F8243030BDD8
:1018B0000B4D4C1C00EB800005EB8000A24201D1D7
:1018C000037530BD8C1CA24202D180F8283030BD97
:1018D000CC1CA2420CD180F83C3030BD004002400C
:1018E000B6C4072064C107204229030034C407207E
:1018F0000C1DA24202D180F85030EEE74C1DA242EE
:1019000002D180F86430E8E78C1DA24202D180F851
:101910007830E2E7C91D8A42DFD180F88C30DCE7FD
:10192000734A13885B1E1BB21380002B01DC00235B
:1019300013809BB2184400B210806E4A00EB800006
:1019400002446D48136803601279027142781144B1
:1019500041707047F0B5664D664FB5F9004004EB35
:101960008406641C2C80644C3E44256835602579CF
:101970003571207061702271A370F0BDF0B505461D
:101980000E461746FEF7C1FC5C4C0020401C15F8C3
:10199000011BC0B204F8011B1428F7D35FF000004C
:1019A000401C16F8011BC0B204F8011B1428F7D321
:1019B0005FF00000401C17F8011BC0B204F8011BC7
:1019C0001428F7D35FF00000401C13F8011BC0B2CD
:1019D00004F8011B1428F7D3F0BD30B56425039C2F
:1019E00094FBF5F4464D2C70464C2060464801604F
:1019F00046480260464803606FE72DE9FE43400118
:101A00000D4600F58060044602A929F028FB6946CE
:101A100004F1080029F023FB01A904F10C0029F0CE
:101A20001EFB2846FEF77AFC344C20253026255430
:101A3000401CC0B24FF021082654401CC0B24FF0E9
:101A4000400C04F80080401CC0B2232104F800C000
:101A5000401CC0B200222554401CC0B22554401C7A
:101A6000C0B22654401CC0B22154401CC7B29DF8DD
:101A700002002121FEF7AEFE9DF800000022232186
:101A8000FEF7A8FE9DF80100401E0C2802D301209D
:101A90008DF801009DF801001E49002201EB800035
:101AA0004021FEF784FEE5557F1CF8B23A2126540A
:101AB000401CC0B2002204F80080401CC0B2215477
:101AC000401CC0B221212654401CC0B204F800C002
:101AD000401CC6B29DF80400FEF77CFE9DF8050090
:101AE00000224021FEF776FEA555BDE8FE830000EA
:101AF00066000010AACB072034C40720B6C4072014
:101B000071C1072004C4072008C407200CC40720A3
:101B100010C40720B8280300FD4890F824100229BB
:101B200004D0002141708170C170017170472DE9AE
:101B3000FF41F74C0027054684F8287094F82400EC
:101B40000121022805D0F34A525D552A05D06520AF
:101B50000DE084F82810BDE8FF81EF4A05EB85030E
:101B600002EB031696F84120D30703D0662084F8D1
:101B70002800F0E796F843309B0701D56720F6E789
:101B8000920701D56820F2E7E44AB6F90830B2F9C5
:101B90000020934201DD6920E9E75242934201DAD5
:101BA0006A20E4E7012805D194F8250000287DD0BB
:101BB00001287CD004F12404642020712170A4F851
:101BC0004C1040F29A2029F0C1FA65702946A4F819
:101BD0004E5040F29E2029F0B9FAD148F761002119
:101BE00030F9150029F0B2FAA770A4F85070394600
:101BF0004FF4287029F0AAFACA48CB4D0088401C3F
:101C000000F0070006EB4000808CADF80000A88BC8
:101C10008DF804004FF063024FF0010101A8FEF7B8
:101C200008FBBB4C9DF80400D0342070287E8DF852
:101C300004000C22012101A8FEF7FBFA9DF8040024
:101C40006070287B8DF804001F22012101A8FEF797
:101C5000F0FA9DF80400A0709DF80000E07040F2DA
:101C6000A220216829F0ADFA287A8DF80400172205
:101C7000002101A8FEF7DDFA9DF804002071287903
:101C80008DF804003B22002101A8FEF7D2FA9DF84E
:101C90000400607128788DF804003B22002101A81F
:101CA000FEF7C7FA9DF80400A07101E009E00AE020
:101CB0009DF80100E07140F2A620616829F081FAE8
:101CC00049E76B2053E76C2051E72DE9F047904C32
:101CD00094F8240001287ED12046012790F82500A1
:101CE00094F82610C0F1010207FA02F08C4E8A4DDA
:101CF00002B211B1012932D036E01423CA21C82022
:101D0000FEF718FA14234FF0FF32CE21CD20FEF754
:101D100011FA94F8250000EB800005EB0010B0F9F3
:101D20000800FEF7EDFA94F8251001EB810205EBAF
:101D30000212D369184448F6A043D061984213DBDD
:101D4000C01AD06136F8110029F00CF9401C01B21C
:101D500094F8250036F9100029F0F8F904E014236E
:101D6000CA21C820FEF7E6F994F82500A84600EB42
:101D7000800205EB02116D4AB1F902100025B2F99B
:101D8000002040F29A2902EB8202B1EB420F4CDABA
:101D9000B4F86C10491C09B2A4F86C101E2946DB7B
:101DA00094F82410012926D194F8261019BB36F88E
:101DB000100029F0D7F804F1240401B25C486278DD
:101DC00030F9120029F0C2F9607836F8100029F0D5
:101DD000C9F881B200E04AE0607804F081FD55481E
:101DE000617830F91100002129F0B0F93220208209
:101DF0006082A4F12404474994F82500C0F1010051
:101E0000085C552809D084F82450A4F870500021AB
:101E10004FEA090029F09AF909E084F82670A4F83D
:101E2000747001214FF42870F4E7A4F86C5094F812
:101E3000251001EB8102C1F1010101EB810108EBE9
:101E4000021208EB0110B2F90220B0F9020082423E
:101E50000DDB94F82600012809D184F82450A4F859
:101E600070504846BDE8F047002129F06FB9BDE841
:101E7000F08770B5264C0546002694F8240050BB28
:101E800004F13204022104F80E1CE18740F29A208A
:101E900029F05CF9C5EB0510E5868000A087A4F168
:101EA000320415B91E20A4F86E0004F164044FF446
:101EB0002770B4F90A1029F049F9B4F90A104FF45F
:101EC0002A7029F043F90020E080208060800126FC
:101ED000304604F091FD304670BD10B50C4C94F8BE
:101EE0002400022812D104F13204E08E04F084FDB3
:101EF00000206086E086208704F80E0CE08701460B
:101F0000BDE8104040F29A2029F020B910BD000031
:101F100000C00720AAC207206C0200101AC20720C6
:101F20001E22030020C607202040024014C20720C2
:101F30003A2203001A22030070B5FF4C94F83800CF
:101F4000FE4D297808440C2803D9A08F401C01B20B
:101F500001E0B4F93C10B82029F0F8F894F83810F2
:101F6000287801440C2994F8381000D90C38014421
:101F7000B62029F0EBF894F82C001C2801D91C217C
:101F800001E094F82C10B42029F0E0F804F12004CA
:101F9000217A4FF0AE0029F0D9F82179B02029F04C
:101FA000D5F82178BDE87040B22029F0CFB810B53F
:101FB000E248E34C007838B3DF48818FE14A128869
:101FC000914221D190F83810DF4A128891421BD1FA
:101FD00090F82C10DD4A1288914215D190F8281003
:101FE000DB4A128891420FD190F82410D94A128806
:101FF000914209D190F82000D7490988884203D13D
:10200000012084F8270003E094F8270000280CD072
:10201000D2480088C0B2FFF72CFF002805D000206E
:1020200084F82700BDE8104086E76FE738B5C44C58
:1020300094F8240002281CD1C9480078012819D03E
:10204000C8480088002815D001206070C648007874
:102050004FF00A01B0FBF1F201FB1200002808D199
:1020600041F288300090C1A3C6A2CCA1D1A0FFF755
:10207000B4FC38BDB4F866004FF4616100258842B5
:1020800012D2401C80B2A4F8660088420CD3A4F897
:102090006650B4F8680038B1401E24F8680F6088B4
:1020A000401C6080A4F16804B4F864003C2823D28A
:1020B000401C80B2A4F864003C281DD324F8645F5F
:1020C0006089401E01B261814FF4277029F03EF80B
:1020D0006089A4F1640418B1BC48008801280BD1C0
:1020E00084F82450A4F87050002140F29A2029F07E
:1020F0002DF8002004F080FC657038BD904910B5C3
:1021000091F824304A790020134309D1002A07D1DD
:102110000120487101464FF4C97028F0E0FF01200A
:10212000F4E687484179002905D0102141714FF428
:10213000C97028F0D4BF7047814910B591F8243098
:102140004A790020134309D1002A07D10120C87120
:1021500001464FF4CA7028F0C2FF0120D6E6784845
:10216000C179002905D01321C1714FF4CA7028F03C
:10217000B6BF704796486FF03B010088C0EB001077
:1021800001EB80006E49A1F8580070472DE9F05F1F
:10219000DFF8AC918E480026B9F858108D4F491CD5
:1021A00009B2A9F85810B0F900008B4DC0EB00122D
:1021B0004FF0010B09F15E044FF00A08B1EB820FFA
:1021C00055DBF0B3A9F858602670DFF810A26670EE
:1021D00089F81E609AF80000552811D1B5F902005F
:1021E00050280DDDB5F90800FEF78AF8B7F90010A0
:1021F000884203DB95F84100C00701D084F800B0A5
:102200009AF80100552811D1B5F9520050280DDD7A
:10221000B5F95800FEF774F8B7F90010884203DBEF
:1022200095F89100C00701D084F801B06C4800789F
:1022300068B999F81F10484649B190F8241019B1AF
:1022400000E014E0022902D16649097821B1267024
:10225000667089F81E6008E0217801291DD0617838
:1022600001291AD0817F012917D0A9F85A60484660
:10227000B9F95A10DFF8C890DFF86CA109F18609A6
:10228000F1B383460246491E08B2A2F85A00052857
:1022900006DD0F231E22642107E0A9F85A80E6E735
:1022A00000281BDD0F231E226921E120FDF742FFDC
:1022B000BBF85A00052811D1B5F90800FEF720F83F
:1022C000A9F80000B5F95800FEF71AF8A9F80200BD
:1022D000BAF90000FEF714F8ABF860001848B0F83F
:1022E0005A00002827D1AB46B5F90800FEF708F8D8
:1022F000134D8A352880BBF95800FEF701F800E03D
:1023000095E06880BAF90000FDF7FAFFDFF830A029
:10231000AAF86200AAF85C60B9F90000B5F90010EB
:102320000844B7F90010884202DA2078012874D0F6
:10233000BBF902005AE075E0004002406CC1072082
:1023400000C00720B8C20720B6C20720B4C20720C9
:10235000AEC20720B0C20720B2C20720BAC207200F
:10236000BAC3072042C3072020400240202020207B
:10237000C2C5CDD2C8CBDFD6C8DF21212120202085
:10238000000000002020202020CDC5C8D1CFD0C023
:10239000C2CDC020202020200000000020202020CE
:1023A000C7C0C1CBCECAC8D0CEC2C0CD202020204D
:1023B00000000000C2DBD0C0C2CDC8C2C0DED9C898
:1023C000C920C7C0D0DFC42000000000A2C307207E
:1023D0002AC207201AC207206C020010AAC20720D6
:1023E00075C107202AC10720FCC30720C82804DDC7
:1023F00000212670084603F039FFB9F90200B5F94B
:1024000002100844B7F90010884202DA6078012807
:1024100006D0BBF952007BE0FFE7AAF85C80ECE74E
:10242000AAF85C80BDE8F09F66700021E5E0B0F995
:102430005C10E9B380460246491E08B2A2F85C006F
:10244000052803DD0F23C822642104E000281BDDDA
:102450000F23C8226921E120FDF76CFEB8F85C006B
:10246000052811D1B5F90800FDF74AFFA9F80000C9
:10247000B5F95800FDF744FFA9F80200BAF90000C9
:10248000FDF73EFFA8F86000FF48B0F85C000028A8
:10249000C8D1DFF8F883B8F90800FDF731FFFA4D2D
:1024A0008A352880B8F95800FDF72AFF688000E0D7
:1024B00037E0BAF90000FDF723FFDFF8CC83A8F876
:1024C000620088F81D60B9F90000B5F900100844F1
:1024D000B7F90010884202DA207801281BD0EB48B7
:1024E000B0F90200C82804DD00212670084603F078
:1024F000BDFEB9F90200B5F902100844B7F90010A1
:10250000884202DA6078012808D0E048B0F9520029
:10251000C82889DC86E788F81DB0EAE788F81DB08E
:1025200080E78146407F0028F4D00F2300226E21EF
:10253000E120FDF7FFFDB5F90800FDF7E1FEB7F971
:102540000010884207DD2078012804D10021267080
:10255000084603F08BFEB5F95800FDF7D1FEB7F938
:102560000010884206DD6078012803D166700021E2
:1025700003F07CFE207830B9607820B999F81E10FD
:1025800009B989F81D60E620FDF7EBFD18B1C048D8
:102590000068E7280AD0BF48BF49B0F90000B1F988
:1025A000001000EB8000B1EB400FB3DA89F81D603A
:1025B0002078BA4E01280FD1B7F90000410091FBF5
:1025C000F8F0B6F90010884206DA95F84100C00725
:1025D00002D1012103F04AFE607801289AD1B7F9AF
:1025E0000000410091FBF8F0B6F90010884291DA42
:1025F00095F89100C0078DD10121BDE8F05F012061
:1026000003F034BEA04940F2F960A1F856007047CB
:1026100070B59D4CB4F85600401C00B2A4F85600AA
:10262000B0F5E16F03DB0020A4F8560070BDB0F5F3
:10263000DF6F13D9E07988B90F2301226421D220FA
:10264000FDF778FD0F230022D821D720FDF772FD7A
:102650000F230022D821DC20FDF76CFDB4F95600D1
:10266000A0F5E0610739E1D1E0790028DED18C4E98
:102670008C4C8D4D30882188884205D0B4F90010EB
:10268000B5F9000028F062FD708861888842CDD0DD
:10269000B4F90210B5F90200BDE8704028F056BD4B
:1026A00010B5824C082200212088401C2080204642
:1026B000FDF7D5FD7548B4F9001000EB41014288E3
:1026C0008A84B0F85200A1F874001FE42DE9F041AB
:1026D0007749B1F9000008B1401E08807648754E70
:1026E0000A27B0F900307548B6F90020664C90F919
:1026F00000109A421ADA724D0A290EDA714BB3F9B8
:1027000000300F2B0ADD491C49B201700A2905DB94
:102710002A80012003F011FA00E00770B6F90000EA
:10272000B5F9001088420EDA28800CE00BDD51B1BB
:10273000491E49B20170002905DC002003F0FDF9B3
:1027400084F8337003E094F83300002803D014F8C1
:10275000330F401E2070BDE8F0812DE9F04F5A483C
:10276000DFF824A1DFF84CB10288BAF83C005749E1
:10277000574E87B0012A68D0564A584B41F27074C0
:10278000B2F90020574D504349F6404290FBF2F019
:10279000514A00B21080B6F90620B3F900305A430E
:1027A00092FBF4F24E4B12B21A80B6F91430B5F91E
:1027B00000506B4393FBF4F31CB24B4B82421C80E2
:1027C0005B46ABF8000000DA1A80B3F90050AC4267
:1027D00001DAABF800400880824200DD0A80B1F9DE
:1027E0000000844200DD0C80394840494FF4FA650E
:1027F000B0F90030B1F90020244C5A4392FBF5F2B5
:102800003B4B6280B0F90860B3F9002072434FF48B
:102810002F7692FBF6F2A280B0F91820B1F90210DF
:10282000514391FBF5F1A4F85210B0F90210B3F93D
:102830000200484390FBF6F0A4F85400DC20FDF7BA
:10284000B0FC4FF47A7958B1B7E02A4AB2F90020C7
:102850005043294A90FBF2F0ABF800000880C3E730
:1028600010480F4945F6386C0088098845F6926291
:10287000401A22494FF4967E45F2FA53B1F90010FE
:1028800041431F4800883DE000C007206C02001053
:102890002C00001014C2072046C3072048C307209D
:1028A000B4000010460100104622030020C6072095
:1028B000E4C5072056C3072016C207202AC60720F2
:1028C000FC00001090C107206EC207205EC30720E5
:1028D000B4CA0720CA00001058C30720FAC5072051
:1028E0005AC30720CC0000105CC30720B0000010C2
:1028F000F0C50720BC000010B0AD0100F4C50720F2
:10290000ACC2072045F21366B71E604501D0904265
:1029100002D191FBFEF10AE0984203D0B04201D00F
:10292000B84202D191FBF5F101E091FBF9F121816F
:1029300041F22E61E0466181F849DFF8E4C349883D
:10294000BCF802C0CDF800C0A1EB0C0CF549B1F900
:102950000210019101FB0CF1C446604501D0904288
:1029600002D191FBFEF10AE0984203D0B04201D0BF
:10297000B84202D191FBF5F101E091FBF9F1A4F825
:102980005810E949DDF800806045A1EB080801997D
:1029900001FB08F101D0904202D191FBFEF00AE068
:1029A000984203D0B04201D0B84202D191FBF5F079
:1029B00001E091FBF9F0A4F85A00DC4840F6B73387
:1029C0000127B0F90C100026A1F2213C9C4501D250
:1029D000A67300E0A7738646D54844F6206840F603
:1029E000B733B0F90000484390FBF8F0A0F21110A3
:1029F000A081BEF90E00A0F221329A4202D284F8E0
:102A00005E6001E084F85E70C94AB2F90220424378
:102A100092FBF8F0A0F21110C64AA4F85C00BEF9CF
:102A20000400B2F90020504390FBF5F0C24A40F692
:102A3000B7351080BEF90A20C048A2F22133AB425C
:102A400001D2067000E00770DFF8F4E2BEF9003052
:102A5000534393FBF8F2BB4BA2F21112AC451A8020
:102A600001D2467000E04770BEF90220F4464A43A6
:102A700092FBF8F1A1F2111109B259808E46AB49CF
:102A8000B1F90610A1F22132AA4201D2867000E00B
:102A90008770BCF90420AC4D4A4392FBF8F1A1F2D7
:102AA000111109B29980DFF8A4C200912A88BCF9FB
:102AB00000104FF47A68514391FBF8F1A44A89B2AF
:102AC000A44B1180642901D3BBF8001019806988D8
:102AD000BCF90230A24D4B4393FBF8F151809E4A62
:102AE000DFF87882B2F90010B8F900304B4341F2B8
:102AF000707193FBF1F32B80B2F902C0B8F9023088
:102B000003FB0CF393FBF1F36B80B8F90430B2F9DB
:102B100004C0DFF8508203FB0CF393FBF1F3AB80AE
:102B2000B2F90650B8F90030DFF83CC26B4393FBB2
:102B3000F1F3ACF80030B2F90850B8F902306B4349
:102B400093FBF1F3ACF80230B2F90A20B8F9043083
:102B5000864D534393FBF1F1ACF804100EF21111C2
:102B60000AB22A80009901F211110BB26B804178F0
:102B70002972807868727E4D21B101290ED011B181
:102B80000DD020E010B1012810D01CE0D01800EBCF
:102B9000D0716FF4887000EB610013E010B1012870
:102BA00008D010E0A3F211132B800CE0A2F2111256
:102BB0002A8008E06F480078052802D26E48008815
:102BC00000E0142028806D486D490278552A03D012
:102BD000B1F90020002A06DDB4F90220C82A02DD7E
:102BE0002389AAF84A304078552803D0B1F900006B
:102BF00001280BDDB4F95200C82807DDB4F95800EC
:102C0000B4F90810884201DDAAF84A005D49AAF823
:102C10004A603546B1F900200A215046002A07DDF6
:102C2000B4F9083093FBF1F3AB4201DDA0F84A3070
:102C3000012A09DDB4F95830B0F94A5093FBF1F399
:102C4000AB4201DDA0F84A303546A0F84C60002ABE
:102C500013DDB4F90A3093FBF1F3AB4201DDA0F8C8
:102C60004C30012A09DDB4F95A20B0F94C3092FBFE
:102C7000F1F29A4201DDAAF84C2043480022DFF825
:102C80000C81B0F9003032E002EBC20000EB02151B
:102C900008EB8500C578192D20D2857990F807C0FA
:102CA00005EB0C254562057A90F809C005EB0C256B
:102CB0000562857A90F80BC005EB0C25C561057B94
:102CC0008562457B80F85650857B80F84250057CB4
:102CD00090F811C005EB0C25056506E0C66146625B
:102CE0000662866280F842600665521CD2B29A4241
:102CF000CADBB4F90820B4F9584092FBF1F28B46D4
:102D000094FBFBF11144224849420AB2DFF884C027
:102D100002800021ACF800604FE000004601001086
:102D2000B4000010F4C507204ACE0720B4CA07201B
:102D3000B8000010F8C5072046C30720B7C3072016
:102D4000C40000106EC407203EC60720BE0000105D
:102D500074C4072074C307209C1F001010010010CA
:102D60007AC4072044C6072080C40720121F001021
:102D700066C3072082C107200E010010AAC20720E7
:102D800056C2072092C207205AC207209805001099
:102D900048C3072038C6072001EBC10404EB011526
:102DA00008EB8505EC78052C05D26C6ABCF8005060
:102DB0002C44ACF80040491CC9B29942ECDBBCF889
:102DC0000010114409B20180002900DA0680FF4892
:102DD000B0F90030F3B30022DFF8F4C35EE000BFC7
:102DE00002EBC20000EB021108EB810090F8D31750
:102DF000192939D200F2D6700178447801EB042405
:102E000002EB42010CEB4111CC618478C57804EBF4
:102E10000524CC620479457904EB05248C6184791E
:102E20000C62C47981F84640047A457A04EB0524A3
:102E30008C62847AC57A04EB05244C628E70047B24
:102E400081F85940447B81F85A40847B81F858408E
:102E5000C47B00E024E081F85B40047C81F85C40A6
:102E6000407C81F85D0017E002EB42000CEB401063
:102E70001921C661C6628661066280F846604662B4
:102E80008662817080F8596080F85A6080F85860D6
:102E900080F85B6080F85C60521CD2B29A429FDB83
:102EA000CC4D681C2EF060FF0446E81C2EF05CFF41
:102EB000DFF824A30146DFF82483AAF80800284697
:102EC00000F169052A1D0092083A01920C32029223
:102ED0000E328330CDE90320202C02D0212C68D083
:102EE000DBE0BAF80020C1EBC10000EB4111521C3D
:102EF00008EB8104AAF8002004F10804202284F8D9
:102F0000922028462EF01AFF608000982EF016FFBF
:102F10005D4690FBF5F02080AE4851302EF00EFF5C
:102F2000A0F6AB2090FBF5F06086AA4855302EF055
:102F300005FFA0F6AB2090FBF5F0A086A548593020
:102F40002EF0FCFEA0F6AB2090FBF5F0E086A14849
:102F50005D302EF0F3FEA0F6AB2090FBF5F020875D
:102F60009C4861302EF0EAFEA0F6AB2090FBF5F015
:102F7000608701982EF0E2FEA0F6AB2090FBF5F002
:102F8000A08702982EF0DAFE6081924877302EF00A
:102F9000D5FE208103982EF0D1FEE08004982EF01B
:102FA000CDFEA4F890008B487B302EF0C7FEA085A4
:102FB00073E0BAF80220C1EBC100521C00EB4111D2
:102FC000AAF8022008EB8104212284F89A200298B2
:102FD0002EF0B4FE60817F4875302EF0AFFE90FB7E
:102FE000FBF0208101982EF0A9FEA0F6AB2090FB0B
:102FF000FBF0608728462EF0A1FEA0F6AB2090FBE8
:10300000FBF0A08700982EF099FEA0F6AB2090FB75
:10301000FBF0A4F844006F4879302EF08FFE6082F8
:1030200003982EF08BFE20826A4887302EF086FEB1
:10303000E08168488B302EF081FEA4F89800654846
:1030400097302EF091FE84F88700624899302EF078
:103050008BFE84F888005F489B302EF085FE84F854
:1030600089005C489D302EF07FFE84F88A00594824
:103070009F302EF079FE84F88B005648A1302EF058
:1030800073FE84F88C005348A3302EF06DFE84F854
:103090008D0004982EF052FEA086514C601C2EF03C
:1030A00063FE8346E01C2EF05FFEAAF80A00054688
:1030B000204600F145040094A41C0194A41C029431
:1030C000A41C0394A41C00F165010494A41C5130B9
:1030D000CDE90540524602245B464FF0040ABBF19D
:1030E000200F02D0212B45D09EE09088401C90807C
:1030F000C5EBC50202EB451308EB830505F1780526
:103100004FF6FF70A88308462EF02EFEA8773548AC
:10311000B0F90000C0EBC00101EB401108EB8100E9
:1031200080F8914080F892A02D4857302EF01CFE78
:1031300005F8320C00982EF017FEA87101982EF0B9
:1031400013FEE87102982EF00FFE287203982EF0FD
:103150000BFE687204982EF007FEA87205982EF0F8
:1031600003FEE8721E485D302EF0FEFD28731C48F9
:103170005F3052E0D088401CD08008462EF0DEFD43
:10318000C5EBC50101EB451208EB820505F1780599
:10319000A883134800F169002EF0E6FDA8771048D7
:1031A0006B302EF0E1FD68760D486D302EF0DCFDC1
:1031B000A8760B4859302EF0D7FD05F8320C009850
:1031C0002EF0D2FDA87101980EE000005CC207202D
:1031D00044130010AC210010881F0010AC03001035
:1031E0006022001000C407202EF0BEFDE871029896
:1031F0002EF0BAFD287203982EF0B6FD687204987E
:103200002EF0B2FDA87205982EF0AEFDE872F948D6
:103210002EF0AAFD2873F748801C2EF0A5FD6873D8
:1032200006982EF0A1FDA873404698F87E20F2493A
:1032300006254FF003084FF0050CDAB990F87F200F
:1032400012F0A00F16D190F8802012F0AA0F11D121
:1032500090F88120D2060DD490F8822012F02A0F27
:1032600008D190F8832012F0910F03D190F88520B7
:10327000920702D00A78012A15D090F87F20930790
:1032800003D590F886309B0703D5B0F912304B4533
:1032900002D10B78012B09D012070DD590F88620AA
:1032A000D20706D008E080F89B5018E080F89B8099
:1032B00015E00A78012A16D090F94620D30702D0EB
:1032C0000B78012B12D0930702D50B78012B10D06D
:1032D000D20602D50A78012A0ED080F89B6090F8B9
:1032E0001A2142BB0BE080F89BA0F8E780F89B40D6
:1032F000F5E780F89B70F2E780F89BC0EFE790F865
:103300001B2112F0A00F16D190F81C2112F0AA0F69
:1033100011D190F81D21D2060DD490F81E2112F083
:103320002A0F08D190F81F2112F0110F03D190F845
:103330002121920702D04A78012A15D090F81B214A
:10334000930703D590F822319B0703D5B0F9AE302F
:103350004B4502D14B78012B0BD012070FD590F8BB
:103360002221D20708D00AE080F8375107B0BDE823
:10337000F08F80F83781F9E74A78012A13D090F965
:10338000E220D30702D04B78012B0FD0930702D550
:103390004B78012B0DD0D20602D5497801290BD0EC
:1033A00080F83761E2E780F837A1DFE780F837413E
:1033B000DCE780F83771D9E780F837C1D6E78F4A64
:1033C0008F481178052901D0012905D1517819B903
:1033D0008C490978552902D08B49098803E0017886
:1033E000002901D0491E0170704700EBC00101EBBC
:1033F0000011864800EB810090F85E10002912D180
:1034000090F85F1000290ED1B0F8601000290AD1A1
:103410003C2100F85E1F032141707D494FF4616239
:10342000098851434180704700EBC00202EB001253
:103430007648002100EB820000F85E1F4170418059
:1034400070472DE9F041734B0025734F1D754FF008
:103450003C0C4FF002086D4C704E85E070490978C5
:1034600049B900EBC00101EB001104EB810101F847
:103470005E5F4D704D80397839B900EBC00101EBCA
:10348000001104EB8101A1F8605000EBC00101EBD9
:10349000001104EB810191F85E202AB991F85F20B8
:1034A00012B9B1F860207AB38A78012A14D081F871
:1034B0006350187D00EBC00101EB001004EB8000AD
:1034C00090F85E1059B3491EA0F8605011F0FF014A
:1034D00080F85E100DD02FE091F863203C2AE8D2EE
:1034E000521CD2B281F863203C2AE2D3FFF79CFF42
:1034F000DFE790F85F1041B1491E80F85F1080F857
:103500005EC080F8628021E016E03978012913D18D
:103510003F494FF4616209885143A0F86010B0F848
:10352000601049B1491E0904090CA0F8601003D1CC
:1035300080F85F8080F85EC0187D00EBC00101EB71
:10354000001004EB800090F8620050B1187D00EB91
:10355000C00101EB001004EB800010F8621F491E4F
:103560000170187D401C1875187DB6F9001088424E
:10357000FFF674AFBDE8F0812A48416821F440218C
:1035800041F480214160416821F4403141F48031AF
:103590004160416821F4404141F480414160416C07
:1035A00021F4402141F400214164416C21F4403177
:1035B00041F400314164416C21F4404141F4004147
:1035C00041641948016821F0E0610160016841F43B
:1035D00000110160016821F480310160016821F46B
:1035E0007F4141F4807101608115C1600F488903FA
:1035F00001607047C1220010ABC6072034C4072009
:1036000022C107206DC10720BCC207209805001009
:1036100088C2072000C007206BC107205AC20720BC
:103620006AC1072000C002400040034000E100E002
:103630002DE9F041FA4C60882188401A00B203F06D
:10364000ABFDA51D2880A0886188401A00B203F058
:10365000A3FD6880A0882188401A00B203F09CFD79
:103660004FF49672A880A4F1C401904201DAA088B8
:103670000AE0B5F90200904201DA608804E0B5F989
:103680000000904201DA2088C88791F80BC000231F
:10369000BCF1000F25D0E348B1F93E200468144482
:1036A0000460446814444460846814448460C468BA
:1036B0002244C260B1F84620521C12B2A1F8462042
:1036C000B2F5805F01DBA1F84630B1F946209405E0
:1036D0002ED1921250F8224024128C8740F82230CA
:1036E00026E0D14F087B4C7B07EB8015B1F93E20DB
:1036F00045F82420A2070FD100252A4607EB8016A3
:1037000056F82270521CD2B23D44102AF8D32A1126
:10371000C44D203D25F81020401CC0B2087310286D
:1037200006D3641CE0B20B734873102800D34B73AC
:103730000CF1010C8B721CF00100BC4AC87205D060
:10374000106820F0FF00001D106034E0097B0807BE
:103750000028106820F0FF0002DB00F1010001E00A
:1037600000F102001060B248036843F08053036028
:10377000036A43F080430362036E43F08063036691
:10378000CB07436908D043F0805343618B07436BF9
:1037900005D423F0804304E023F08053F5E743F0A1
:1037A000804343634907416F02D421F0806101E007
:1037B00041F080614167106840F080701060D9E688
:1037C000F0B5DFF85CC2ACF1C40CBCF9380018B13C
:1037D000401EACF83800F0BD0520ACF838004FF0C2
:1037E000000E954A8CF81BE070469249B2F90040F1
:1037F00013E000BF00EBC00202EB001201EB8202FB
:103800009378012B07D1D278142A04D29CF81B207C
:10381000521C8CF81B20401CC0B2A042EADB9CF872
:103820001C00012510B18CF81CE001E08CF81C5044
:103830009CF81B60022ECED3794841F2883244387E
:10384000C0E904E20022C0F818E016E002EBC2036F
:1038500003EB021301EB83039F78012F0BD15B6A0B
:103860000769BB4200DD03614769BB4200DA43617F
:1038700087693B448361521CD2B2A242E6DB826973
:1038800092FBF6F2C261436903B94561036964269C
:103890007343466993FBF6F30362822B01DD8CF8D8
:1038A0001A506E2B02DA8CF81AE035E09CF81A00F8
:1038B000012831D100236FF031062BE003EBC30068
:1038C00000EB031001EB80008578012D20D1456AC3
:1038D000954207DD9CF81C7027B9B0F854707F1E24
:1038E000A0F85470954207DA9CF81C5025B1B0F846
:1038F00054506D1CA0F85450B0F95450B54202DA3F
:10390000A0F8546004E0322D02DD3225A0F85450B6
:103910005B1CDBB2A342D1DB00BFF0BD2DE9F04759
:1039200046480168464A11400160414C216841F413
:103930007C712160C16921F44021C161216E41F097
:1039400000712166416821F040614160206840F0CB
:10395000005020603C483B4B3D4902783B4893F87F
:103960004050B1F900100078154307D030B1052957
:1039700004DDA56945F48075A56103E0E56945F4BA
:103980008075E56193F89030134307D030B1052975
:1039900004DDA06940F04000A06103E0E06940F070
:1039A0004000E061D220FCF7FCFB2A4D60B12868A2
:1039B000642809D16868012801D028B108E0A0690D
:1039C00040F00050A06103E0E06940F00050E06189
:1039D000D220FCF7E6FB10B12868662813D01E48F9
:1039E0000068C00788B1A06F40F02000A067D22017
:1039F000FCF7D7FB0A49C43910B128686B2809D0F5
:103A0000087860B12FE06868ECE7E06F40F02000D4
:103A1000E067ECE7686810B1012824D027E01DE0DA
:103A2000C4C00720D4CA0720B4C607200040034002
:103A300000C00920980500105AC2072000C00240AB
:103A4000FF00F0FF6C020010AE00001027C107203D
:103A500090C107202C00001040000010A06940F029
:103A60004000A06103E0E06940F04000E061FF48F1
:103A7000008801287ED1002391F82450DFF8F083DC
:103A8000DFF8F0C3FC4CDFF8F49318465FF0010256
:103A900039F91010CE070ED0F94EFA4FB6F9006082
:103AA000B7F9007006EB8606B7EB460F03DA02FAA9
:103AB00000F61E43F3B28E0707D5F34E3678022E7A
:103AC00003D102FA00F61E43F3B24E0705D5022DCC
:103AD00003D102FA00F61E43F3B20E0706D5EB4EF1
:103AE00036681EB102FA00F61E43F3B2CE0607D5C1
:103AF00098F80060012E03D102FA00F61E43F3B2DB
:103B00008E0607D598F80060022E03D102FA00F65F
:103B10001E43F3B24E061BD59CF80160F60603D592
:103B2000B4F90060012E0FDA9CF86560F60603D543
:103B3000B4F90060022E07DA9CF8C960F60607D5D2
:103B4000B4F90060032E03DB02FA00F61E43F3B261
:103B50000E061DD59CF80160360703D0B4F900604D
:103B6000012E11DA9CF86560360705D0B4F90060C3
:103B7000022E00E019E007DA9CF8C960360707D08A
:103B8000B4F90060032E03DB02FA00F61E43F3B221
:103B9000090403D402FA00F15940CBB2401CC0B270
:103BA0000428FFF475AFBA480370BDE8F0872DE92B
:103BB000F84FDFF8E0A2012400259AF822105046C1
:103BC0000A2909D2491CC9B280F822100A2903D354
:103BD00080F822508AF82340AE4ECD2080367562A0
:103BE000B562FCF7DEFADFF88C92DFF88CB2B0B386
:103BF000A9484FF6FF720168CE290BD0CF290BD010
:103C0000D1290BD0D2290CD0D0290CD0B1F59A7F74
:103C10000ED00BE0B26209E0406806E040687062D6
:103C200004E0726202E0406805E0B062002733E021
:103C3000416804FA01F07062C043F6E704FA07F045
:103C40000090B16A084207EBC70000EB071109EBCF
:103C5000810005D030F8401F491C018002E020E0BF
:103C6000A0F8405007EBC70000EB071109EB8100FB
:103C70008046403032220021FCF7E6FAB8F94000D5
:103C8000142801DD88F82C400098716A084201D0A0
:103C900088F82C507F1CFFB2BBF900008742CDDDB5
:103CA0008AE09AF823005646E8B300231A464946AC
:103CB000BBF900000AE000BF02EBC20707EB0217E6
:103CC00001EB8707521C87F82C40D2B28242F3DD09
:103CD000002224E0C7B2202F00D9202796F82AC05E
:103CE000844501DB4FF0000C94440CF0FF0CBCFB4E
:103CF000F7F807FB18C707EBC70C0CEB071701EB2E
:103D0000870797F802C0BCF1020F02D0BCF1010F87
:103D100003D15B1C87F82C50DBB2521CD2B282421A
:103D200006DA5E4F00E047E0B7F90070BB42D1DB36
:103D30009AF82B2002EBC20303EB021201EB820282
:103D400082F82C50564AB2F900203C2A0EDA0022A2
:103D50000AE000BF02EBC20303EB021301EB830393
:103D6000521C83F82C50D2B28242F3DD4D4A1288A5
:103D700072B100220AE000BF02EBC20303EB0213A0
:103D800001EB8303521C83F82C40D2B28242F3DD54
:103D900000226FF031060DE002EBC20303EB0213C9
:103DA00001EB830393F82C70012F01D1A3F8546029
:103DB000521CD2B28242EFDD002063264946BBF995
:103DC00000700DE000EBC00202EB001201EB82027A
:103DD000D36B1BB182F82C605B1ED363401CC0B256
:103DE000B842EFDB8AF82350002350468AF81F5070
:103DF0001A4613E002EBC20606EB021601EB860C34
:103E00009CF80260012E07D1C67F761CC677DCF8CD
:103E10001C609E4200DDB3B2521CD2B2BA42E9DB52
:103E200000F12C004FF0000203851F4B8570447099
:103E3000B3F90030A0F12C00A3F1050612E000BF99
:103E400002EBC20C0CEB021C01EB8C0CDCF828C062
:103E50009C4501DB80F82E40B44501DB80F82D50F5
:103E6000521CD2B2BA42EBDB20E0000068C207204D
:103E700086C10720980500105AC2072086C4072073
:103E800014C2072046C307202AC107203C000010A7
:103E90005EC6072000C007202C00001002010010A1
:103EA00090C107202E01001010C2072090F82E109C
:103EB00001290BD090F82F10002905D090F82D1073
:103EC000002901D08AF82F50BDE8F88F8AF82F40DA
:103ED000FAE770B5FF480A21FF4D036800242868FF
:103EE000B3FBF1F2B0FBF1F6FC48B2420AD1027822
:103EF0000F2A01D2521C0270D0B20A2803D3F8480C
:103F0000036000E004702B60F648F74BB0F9002026
:103F1000B3F90000B2FBF1F5B0FBF1F1F3488D42CB
:103F20000AD101780F2901D2491C0170C8B20A28B0
:103F300003D3EF48028000E004701A8070BD704720
:103F40002DE9F041804600EBC001EA4801EB081181
:103F500010F82120032A71D100EB810494F842501B
:103F6000A807B4F9460010D54FF4966188421ADAD2
:103F7000401C00B2A4F84600884214DBA4F84610A6
:103F80006078C0070FD1012209E060B1401E00B285
:103F9000A4F8460038B96078C00704D00022002198
:103FA000404601F083FF2807B4F948004FF00A07A4
:103FB0004FF0000615D50A2826DA401C00B2A4F8F6
:103FC00048000A2820DBA4F848706078800704D4F1
:103FD00001221146404601F069FF4046FFF705FA0D
:103FE00012E000280DDDA0F1010000B2A4F84800A5
:103FF00050B94FF000024FF00101404601F056FF6A
:1040000002E001DAA4F84860E806B4F94A0016D5DF
:104010000A281FDA401C00B2A4F84A000A2819DB5B
:10402000A4F84A706078400704D401220221404677
:1040300001F03CFF4046FFF7D8F90BE080E048B1C3
:10404000401E00B2A4F84A0020B9002202214046D6
:1040500001F02CFFA848A94AE169B0F90000B2F9C3
:104060000020801A814218DAA078012822D1B4F900
:104070004C004FF4967188420CDA401C00B2A4F850
:104080004C00884216DBA4F84C106078400711D42D
:1040900001220BE0A4F84C600CE0B4F94C0048B1EC
:1040A000401E00B2A4F84C0020B900220221404674
:1040B00001F0FCFE6078000701D0042011E0904878
:1040C000007820B1E078142801D9052009E094F89F
:1040D0004200800601D5022003E0E078142801D2D6
:1040E0000120A070E0780A2894F82C0002D340F058
:1040F000800001E000F07F0084F82C00814890F8F7
:10410000331039B194F82C1041F0020184F82C10CE
:1041100066700CE094F86210002994F82C1002D01C
:1041200041F0020101E001F0FD0184F82C10B4F926
:104130005410B0F93400084420634FF47A7060637F
:10414000BDE8F08130B5704900200122B1F90C3092
:104150006E49044602FA00F52B4201D00A5400E0F1
:104160000C54401CC0B20C28F4D3694A00200B5CEC
:104170001354401CC0B20C28F9D330BD70B5C82010
:10418000FCF70FF86349002280B3634C01232068D9
:10419000C92803D0CA28104610D028E05FF00000DC
:1041A00000EB800401EB04142578322D01D26D1C44
:1041B0002570401CC0B20228F2D321E0D4F804508C
:1041C00003FA00F4254200EB800407D001EB04164B
:1041D0003478322C05D2641C347002E001EB0414F4
:1041E0002270401CC0B20228EAD309E01BE000EBB9
:1041F000800401EB0414401CC0B222700228F6D3E4
:104200005FF0000000EB800401EB04142578142D0E
:1042100002D984F8403001E084F84020401CC0B24C
:104220000228EFD370BD00EB800301EB0313401CA9
:104230001A70C0B283F840200228F4D370BD2DE973
:10424000FC5F05462F48AC3030F9151011B1491EFE
:1042500020F815102B4AB03232F9151011B1491E51
:1042600022F815102B4905EB850301EB03142B4BAA
:10427000B4F90810B3F90030994202DD642320F844
:104280001530002902DA642122F8151030F81530B3
:104290001C4900264BB132F8153033B1B1F87830F3
:1042A000B3B140F6B830A1F87600A1F8766094F882
:1042B0004200401CC0B284F842000A2801D384F8AE
:1042C0004260174FDFF85C803888322835D043E0F1
:1042D0002AE00000180100104CC6072052C6072033
:1042E00028C4072050C607201C0100101E01001022
:1042F00078C30720980500100CC207202EC20720A3
:1043000075C1072000C007209C1F0010301F00103F
:10431000B01F00106C0200102C00001024C20720F7
:104320008EC107201AC207204FF41673A1F8783007
:1043300020F8156022F81560B7E794F84000F8B946
:10434000B4F9020050281BDA94F84100C00717D1D5
:104350000121284601F08AFFB7F90000C8280FDDC7
:10436000B4F90800FBF7CCFFB8F90010884207DD6C
:1043700094F84100C00703D00021284601F076FFE1
:10438000F948B4F90810B0F900004042814212DD4A
:10439000E07B0A280CD2401CC0B2E0730A2875D317
:1043A000207C002872D02674284601F0C1FE6DE002
:1043B0000A20E0736AE069DAE07BF0B3401E10F097
:1043C000FF00E07362D1207CB8BB01202074E74875
:1043D000E74F0088401C00F0070004EB4000808C91
:1043E000ADF80400B88B8DF800004FF063024FF079
:1043F00001016846FBF71DFF04F120049DF8000051
:104400002076387E8DF800004FF00C024FF001014D
:104410006846FBF70EFF9DF800006076387B8DF84C
:1044200000001F2201216846FBF703FF9DF80000F2
:10443000A0769DF80400E07600E027E0387A8DF859
:104440000000172200216846FBF7F3FE9DF80000EC
:10445000207738798DF800003B2200216846FBF771
:10446000E8FE9DF80000607738788DF800003B2268
:1044700000216846FBF7DDFE9DF80000A0779DF85F
:104480000500E07726806680A4F1200448F6A04865
:1044900094F8420088BBB4F90810A069DFF8D4A2F0
:1044A0000844DFF8D49245F2555BA061404525DB16
:1044B00039F915205A4503D1B04830F8157001E09C
:1044C00039F815703AF8150026F04CFD80B2B84264
:1044D0000AD2A16900F10100A1F50041A1F54A61EC
:1044E000A1613AF915202BE031D93AF9150039B21A
:1044F00026F02CFEC4F8188029E051E0A04988423B
:1045000025DC39F915205A4503D19C4830F815703F
:1045100001E039F815703AF8150026F023FD80B255
:10452000B84205D93AF9150039B226F00FFE3846DF
:1045300058B1A269401E02EB0801A1613AF91520A9
:1045400001B2104626F002FE01E08D48A0613AF863
:10455000150026F007FD014639F91500584502D12E
:10456000864830F915004FF47A72514308B1B1FB17
:10457000F0F00A21B0FBF1F0608282480088012847
:1045800008D1C5EBC500804900EB451001EB800068
:10459000408A608204F1120064220021FBF754FE7D
:1045A000207C012813D1208C4746B8420ED2B4F9A2
:1045B0000800FBF7A5FE218C084480B22084B84295
:1045C00005D32684608C401C608400E026846F49FB
:1045D000B4F90C00B1F90010884201DDA07B80B372
:1045E000B4F84400B0F10100A4F844004FF4167987
:1045F00004F144004A460021FBF726FEB4F94400CA
:1046000040F24E27B84205DB94F8431041F0010117
:1046100084F843100A2805DC94F8430020F00100D8
:1046200084F8430094F84300C10710D0C0061AD4A0
:104630000121284601F02AFF94F84300C00706D064
:1046400011E0FFE7B4F8440000F10100CCE794F872
:104650004300C0060CD50021284601F017FF94F84E
:104660004300C00704D094F8430040F0100003E07A
:1046700094F8430020F01000454984F84300B4F951
:104680000C00B1F90010884201DDA07BD8B3B4F86A
:104690004600401EA4F8460004F146004A460021A8
:1046A000FBF7D2FDB4F94600B84205DB94F843109D
:1046B00041F0020184F843100A2805DC94F8430015
:1046C00020F0020084F8430094F84300810709D5E4
:1046D000800613D40321284601F0D8FE94F8430045
:1046E00080070BD494F84300800611D50221284698
:1046F00001F0CCFE94F84300800709D594F84300FC
:1047000040F0200008E0FFE7B4F84600401CC1E795
:1047100094F8430020F0200084F84300A06C40454A
:1047200010DA401CA06440450DDBA664194E36F833
:10473000150026F017FC401C01B236F9150026F0D2
:1047400005FD00E0A664144E3088002871D013489F
:10475000B0F900004845B4F9020021DAC11700EBB6
:104760009170801020E000001AC2072020C60720A8
:10477000204002401A220300E0C30720D8C30720CC
:104780006073FFFF54C20720AC030010D400001078
:1047900002C607203622030032C20720D2000010D2
:1047A000052190FBF1F000B2A188C1EB400000B2FE
:1047B000FBF7A6FD00EB8000400000B20C2190FB4F
:1047C000F1F000B2E080B6F90010884233DDB4F9B0
:1047D0000800FBF795FDFF49B1F9001001EB8101DD
:1047E000884228DAFC487321B0F90000484364216C
:1047F00090FBF1F0B4F9021000B288421BDA94F891
:104800004100800717D4B4F84C00401C00B2A0F55A
:104810003061A4F84C00B83903D10121284601F0D9
:104820004FFFB4F94C1040F6BD30814201DBA4F8D3
:104830004C00BDE8FC9FB4F94C000028F9D0401EA4
:1048400000B2A4F84C000028F3D12846BDE8FC5F74
:10485000002101F035BF2DE9FF5FE04CE04EDFF8AD
:1048600084932078DFF880A300254FF0640B0128A3
:104870001FD199F80000012801D03C2030700A2394
:104880000022E621E120FBF755FCD848B0F90010E2
:10489000BAF90000421E914204DB401C814201DC57
:1048A00002202070307820B1401E10F0FF003070E0
:1048B0000AD02078DFF838C3DFF83883CE4F0228DB
:1048C0000AD003285DD0C3E0CC48257002210170D6
:1048D000CB4981F800B0BBE0BAF90020652102FBAA
:1048E00001F0B0FBFBF302EB421000EB4000B0FB29
:1048F000FBF0ACF80030A8F8000099F80000E246A0
:10490000C346022801D03C2030700A23BF21BE20BC
:10491000FBF710FC0A230022E621E120FBF70AFC4A
:10492000B949BAF900800020DFF8D8A2BBF900200D
:10493000B1F9001011E000BF00EBC00303EB001C55
:104940000AEB8C03DB69434501DA934203DCAC4993
:10495000401C087008E0401CC0B28842ECDB032019
:104960002070AA483D7005703078002870D0401E35
:1049700010F0FF0030706BD1A04925700220087044
:1049800066E0BAF90020652102FB01F0B0FBFBF004
:10499000ACF8000002EB421000EB4000B0FBFBF073
:1049A000A8F8000099F80000E246C346032800D0AA
:1049B0003D700A23BF21BE20FBF7BCFB0A23002267
:1049C000E621E120FBF7B6FBBAF900805946DFF893
:1049D00038A20126B1F900200020DFF828B2BAF988
:1049E00000100EE000EBC00303EB001C0BEB8C038C
:1049F000DB69434501DA934201DC002603E0401CF9
:104A0000C0B28842EEDBD720FBF7ABFB78B1804821
:104A10000068D9280BD13878401CC1B23970BAF976
:104A20000000814203DB7549257003200870012EC8
:104A30000ED1EE20CDE900050295039539780346A5
:104A4000162208462CF059FC70480178491C017068
:104A5000217889F80010BDE8FF9F2DE9F84F6D4CD3
:104A60000026E07B0A2807D2401CC0B2E0730A2867
:104A700002D3E67301206074207C052805D2401C17
:104A8000C0B22074052800D12674BE20FBF789FB34
:104A9000DFF87C91604D30B1D9F80010BF291CD1EE
:104AA000D9F8040085E0607C002816D05B495C489A
:104AB0000A78552A04D04A78552A01D0008878E02F
:104AC0005848DFF864E1DFF86881B0F90020574802
:104AD000DFF860B112B1012A50D06BE08A4614278A
:104AE000267569467B42207D1AF80020552A10D091
:104AF00021F81030401CC0B220750228F3D3BDF954
:104B00000020BDF902104C488A4213DD11460260B4
:104B100011E0464A00EB800C02EB0C1292F80EC03A
:104B2000BCF1000F02D021F81070E3E7928921F860
:104B30001020DFE70160002902DAB8F9000011E077
:104B4000282901DD28210160BBF90010B8F90020F7
:104B50000068891A01EB810149004143C82091FB9B
:104B6000F0F0104494F82410022922D19EF800108D
:104B700001291ED13148B0F900001AE040880A30FE
:104B8000288094F82400022806D19EF8000001280D
:104B900002D12A4800882880B5F90010B8F9000031
:104BA000814200DB2880B5F90010BBF9000081428A
:104BB00000DB2880E07B0A2807D2401CC0B2E073EB
:104BC0000A2802D3E67301206074207C05283CD2B9
:104BD000401C35E01AC2072014C207202DC107204F
:104BE0008BC10720AF0000102CC207204AC307204A
:104BF000B0C30720B2C3072089C107202EC10720F8
:104C000032010010980500105AC207208AC10720FF
:104C10002C00001000C0072068C30720AAC207208C
:104C2000D200001054C20720BAC307206C02001043
:104C3000FEC507200CC2072030C607201CC2072073
:104C4000C0B22074052800D12674BE20FBF7A9FA53
:104C500038B1D9F80010BF2918D1D9F8040028803C
:104C600014E0607C90B16674FF48008804280DD180
:104C7000FE481E22012100882880FD48FBF7E4FA47
:104C80004FF42F720021FB48FBF7DEFAFA48008848
:104C900018B9FA480078022802D1F948008828801B
:104CA000B5F9000062214143642291FBF2F1F54B1A
:104CB00019806621484390FBF2F0F3490880BDE873
:104CC000F88F2DE9F041F14CB4F93A0008B1401EDB
:104CD0006087EF48EF4DF04E00882880B6F9080055
:104CE0000A27002806DAFBF70BFB90FBF7F0298870
:104CF00008442880B6F95800002806DAFBF700FBC4
:104D000090FBF7F0298808442880E449B5F90000B1
:104D1000E34AB1F900103C2390FBF1F1491CC9B200
:104D200084F82010B2F9002090FBF2F0401CC2B2CF
:104D3000DC4884F82120B0F90050A94201DD01804F
:104D400004E0AA4203DA618F09B902806387D64979
:104D50000A88D6490AB10A880280B1F90020BDE864
:104D6000F0410121CF48FBF76FBA2DE9F05F0A222D
:104D70000121CF48FBF768FAC44C4FF0000AA07C31
:104D80000A2825D2401CC0B2A0740A2822D384F875
:104D900012A00122C64BE274A17DB3F90030504647
:104DA000994207DA491CC9B2A175994203DBA07583
:104DB000E27500E0A075217E0A2907D2491CC9B21C
:104DC00021760A2906D32076627603E0207601E078
:104DD00084F812A0E120FBF7E4F9B64DD8B3B64849
:104DE0000168642908D069290AD06E290CD0E52908
:104DF0001ED0E6291ED079E14068E18E084449E0E2
:104E00004068E18E081A45E0A08E401E00B2A086E0
:104E10001E2806DDA949B5F90000B1F90010884245
:104E2000E9DA0A230022E721E620FBF783F95DE1B6
:104E300040682FE08F49B5F90000B1F900108842B1
:104E400013DDA0EB01000A2806DDB4F934000028C8
:104E500002DD401F1EE01FE0B4F9340000281AD024
:104E6000E17C002917D0401E14E014DA081A0A2841
:104E700007DDB4F9340040F2F731884201DA401D11
:104E800008E0B4F93400B0F57F7F04DAE17C002952
:104E900001D0401CA08629E189484FF00A0C894EB8
:104EA0000088A4F84E00884884F814A0B0F90020C7
:104EB0008648B0F9001012E0C0EBC00303EB4013CA
:104EC00006EB8303B3F9343093FBFCF3934204DB2A
:104ED0007F480088A4F84E0004E0401C2075207D27
:104EE0008842E9DBB4F84E200520B2FBFCF1B2FBAE
:104EF000F0F08B180344511A081A9BB280B2A4F840
:104F00005230A4F850008646E07C9B46A0B3574937
:104F1000B4F93600A4F84800B1F900306D4999465B
:104F2000A0460B8096F84A706B4B17B996F8E6606E
:104F30002EB1B3F90060D12E0BDA761C06E098F89A
:104F4000196026B1B3F9006056B1761E1E801E8826
:104F500036B1B3F9003093FBFCF6A9EB06030B80E6
:104F6000322388F82930B8F94A303327B3EB420F9F
:104F700003DBA8F848A005E0B8E05B4505DB0A388C
:104F8000A8F8480088F8297061E0B5F90050B4F835
:104F90005470A5F11406A4464FF03A09B74201DA5D
:104FA0004E491BE063B193421FDB3C218CF8291072
:104FB0009CF81710A1B3401EACF84800342044E020
:104FC000B1F900204649954207DD0988A0EB0100B0
:104FD000ACF848004FF0390037E038DA0988084467
:104FE000ACF8480084F8299031E0734519DB3D2284
:104FF0008CF829209CF8172092B1B1F900108D424D
:1050000006DDA0F10100ACF848004FF036001CE0CE
:105010001DDA00F10100ACF848004FF0370014E051
:1050200015E0B1F900202F49954207DD0988A0EB72
:105030000100ACF848004FF0470006E007DA0988A5
:105040000844ACF848004FF0480084F829000F48A5
:1050500040F2F2320A214830FBF7F6F8B8F848007F
:10506000A8F8360040E0000054C207207EC30720A5
:10507000DA00001068C307205AC607202AC107209B
:1050800096C307206CC307206AC3072000C007200F
:1050900038C60720080100106C02001020C207204B
:1050A00022C207200201001030C207205AC2072086
:1050B0008EC3072046C307202C00001014C207200F
:1050C00084C30720AC03001082C3072092C20720CC
:1050D00086C3072080C3072054C6072088C3072043
:1050E0008AC307208CC30720A8F8340084F815A0D1
:1050F000554684F814A0FF4B0121FF48B0F9002069
:105100000CE000BF00EBC00606EB001603EB8606C2
:10511000F6781E2E00D26175401C2075207D9042CD
:10512000F0DB607D30B9A586E586A4F848501420F0
:1051300084F8290040F2F2320A21F048FBF784F8A3
:10514000E574E5756576BDE8F09FF0B5EC4804249C
:10515000EC4904800020EC4A4FF0010E0A26034679
:1051600020E0EA4DEA4F2D5C37F91550B5F5FA6F9E
:105170000D560BDA0A2D07DA6D1C6DB20D540A2D8F
:105180000EDB02F800E00BE00E5409E0002D06DD16
:105190006D1E6DB20D54002D02DC135400E00B5453
:1051A000401CC0B2A042DCDB0020DA49DA4D28E026
:1051B000DA4F37F81070002F175C01D067B101E0AB
:1051C000012F09D00F56002F13DB7F1E7FB20F5423
:1051D000002F0FDC2B540DE00F560A2F07DA7F1C2F
:1051E0007FB20F540A2F05DB05F800E002E00E54F1
:1051F00000E00B54DFF828C32F5C0CF80070401C53
:10520000C0B2A042D4DBF0BDC649C74A0120087035
:1052100010704870507070472DE9F05FC448DFF897
:1052200014E3DFF808C3B0F90070BEF90000B34C16
:10523000C0EB0011343CBCF902506FF01D0A6FF056
:10524000950B0026DFF8DC82B4F958000AEB8102E6
:105250000BEB8103BD4204DCB74FB7F90070BD42D0
:1052600005DA824203DD834201DA88F80060B34D3B
:10527000E146BCF908C0B5F90050AB4FBCEB450F97
:1052800003DC6D42BCEB450F04DA824202DD83424F
:1052900000DA3E706FF0090202EB8101754681422F
:1052A00021D194F82400F0B998F8000001281AD10F
:1052B0003878012817D14FF4EF7025F053FEA0493C
:1052C000B1F9001088420ED09E48008858B199F874
:1052D0004100C00707D14FF4EF7025F037FF9A481F
:1052E0000178491C01709249B9F902204846B1F988
:1052F00000108A4206DC9049B0F95220B1F9001042
:105300008A420FDAB5F90010B4F95820C1EB011147
:105310000AEB8103934205DD0BEB8101914201DA37
:1053200088F801608549B9F95800B1F90010B0EB6F
:10533000410F03DC4942B0EB410F0EDAB5F9000032
:10534000B4F95810C0EB00100AEB80028A4204DD69
:105350000BEB8000884200DA7E70B5F90000C0EBEC
:1053600000116FF0090000EB8100B4F95810884279
:1053700023D194F8240000BB98F8010001281CD127
:105380007878012819D14FF4FE76304625F0EAFDF1
:1053900002466B48B0F902108A420ED06948008874
:1053A00002280AD199F89100C00706D1304625F0AD
:1053B000CDFE65480178491C0170B5F900006FF019
:1053C0000101C0EB001001EB8000B4F958108842D5
:1053D00002D1BDE8F05F17E7B5E62DE9F0035B48C1
:1053E0005B4ADFF870C100784FF000084FF0010908
:1053F000F0B359486146B0F900605848B1F900105F
:10540000B0F900705648BE42B0F900305548B0F9C6
:1054100000405548B0F900505448B0F9000013DA84
:10542000834203DB844201DB85420DDA5048B0F948
:105430000000814219DA491C09B2ACF8001081421F
:1054400013D182F8008015E04A4FB7F90070BE42D0
:105450000BDD834209DD844207DD854205DD21B194
:10546000491E08B2ACF8000060B11078002800E0D6
:105470000DE009D1BDE8F0030F2301226E21D220F7
:10548000FAF758BE82F80090BDE8F0037047ACF818
:105490000080F7E7F0B530480024374BB0F9002022
:1054A0002E48B0F900503548AA42B0F9001004DC8B
:1054B000304EB6F90060B2420CDA2D4AB2F9002043
:1054C000914264DA491C09B2018091425FDB1C7091
:1054D00002805FE02A4FB7F900703E44964256DAE8
:1054E000ED1B954253DD21B1491E09B2018000290F
:1054F00048E04CE0980500105AC2072034C007204D
:1055000060C2072014C40720BAC30720F6020000B7
:10551000B4CA07202BC60720BEC307208EC40720AD
:10552000FE0000103AC607200A0100106C020010AD
:105530006AC307202AC207206CC307201AC20720AB
:10554000E0C3072056C207200C01001068C10720E5
:10555000E6C507202401001046C307204AC20720E1
:1055600058C307205AC307205CC3072016C2072070
:1055700048C207204CC2072029C1072090C307203A
:105580004EC2072003DC012119700480F0BD187899
:105590000028FBD1BC490A200870F0BD2DE9F0417C
:1055A000BA4CBB4D00262078607004F82A69B5F922
:1055B0000000002802DDB0F5FA7F02DD2E80BDE894
:1055C000F08194F82C00401CC0B284F82C003C28D8
:1055D00019D34FF4947784F82C60384625F0C2FC38
:1055E000401C00B2AB4AA4F87A00B5F90010B2F939
:1055F00000205143814201DCA4F87A60B4F97A10AA
:10560000384625F0A3FDB4F97A00B5F9001090FBF7
:10561000F1F084F82A00D2E710B500214FF494701D
:1056200025F094FD99493A202A3981F82C0010BDC3
:105630002DE9F04F9849974885B091F86740B0F947
:105640000000A64691F8CB40CB78A14691F82F51A7
:10565000D1F8F0C0D1F88C70D1F854418A6A009525
:10566000D1F8B851AA4691F893510195D1F81C523E
:10567000029591F8F7510395D1F88052049591F86D
:105680005B5291F8BF62AB46D1F8E452F0B3834964
:10569000B1F900108A423DDC1E2B3BD2012804DD0B
:1056A0008F4237DCBEF11E0F34D2022804DD8C4558
:1056B00030DCB9F11E0F2DD2032806DD8C4229DC27
:1056C000DDF80080B8F11E0F24D2042806DD8A45DB
:1056D00020DCDDF80480B8F11E0F1BD2052808DDA0
:1056E000DDF80880884515DCDDF80C80B8F11E0F68
:1056F00010D2062806DDDDF8108088450ADCBBF1F3
:105700001E0F07D207280CDD8D4200E009E001DC06
:105710001E2E06D35D4801212A38017005B0BDE870
:10572000F08FDFF86881A8F12A0898F800100029A6
:10573000F4D0C0B35A49B1F900108A42EEDA0A2B0C
:10574000ECD2022829DB8F42E8DABEF10A0FE5D25B
:10575000032822DB8C45E1DAB9F10A0FDED20428F6
:105760001BDB8C42DADA009A0A2AD7D2052814DB2E
:105770008A45D3DA019A0A2AD0D206280DDB029A8A
:105780008A42CBDA039A0A2AC8D2072805DB049A90
:105790008A42C3DABBF10A0FC0D2082803DB8D426C
:1057A000BCDA0A2EBAD2002188F80010B6E72DE93B
:1057B000F05F3C4FDFF8F080B7F90A10B8F900004D
:1057C000A1F57A71B1F5FA6F01D8401E00E0401CD6
:1057D000A8F800000A2200213348FAF735FDB8F98D
:1057E00000000025314C4FF0010B012801DA258023
:1057F00003E0092801DDA4F800B0DFF8B490DFF879
:105800008CA02C4EB9F90000AAF12A0A012807DB66
:105810009AF80000012803D127480068C0070CD07F
:10582000A6F80050B7F90E00A0F57A70B0F5FA6F3F
:10583000B8F8020004D8401E03E020883080F1E769
:10584000401CA8F802000A22002108F10200FAF721
:10585000FBFCB8F90200012801DA658003E00928A1
:1058600001DDA4F802B0B9F90000022807DB9AF8BC
:105870000000012803D110480068C00701D07580DE
:1058800061E4608870805EE428C107202AC0072098
:105890000CC607205AC207209805001044C20720F2
:1058A00046C20720B4CA07200401001034C60720EE
:1058B00094C2072024C407203C00001070B5FF48A4
:1058C0000278FF48816812B141F0010101E021F046
:1058D000010181600021FB4C5FF0010201EB8103BB
:1058E00004EB031393F841309B0706D04D1C02FADA
:1058F00005F385689D431D4304E04B1C856802FA4F
:1059000003F39D43491CC9B285600229E6D3EE4CDE
:10591000002100BF01EBC10303EB011304EB830380
:105920005B7813F0EF0F06D0CD1C02FA05F3856803
:105930009D431D4303E0CB1C02FA03F39D43491C26
:10594000C9B285601229E5D3E04D002104786B5C73
:10595000012B02FA01F324EA030400D11C43491C81
:10596000C9B204700429F1D30369816821EA0304F0
:105970004461C2688B432243DC43D54B8461C260DF
:10598000B3F9003013B9D34D2C4384612240C0E9F0
:1059900003210178827821EA0205C57044788A43A0
:1059A0002C43D243D5B2CC4A44700571168816B147
:1059B00024F00104447054881CB1447824F002049B
:1059C000447094881CB1447824F004044470D28854
:1059D0001AB1427822F00802427013B945F00F0262
:1059E0000271427803791A4042708170BB49BC4A07
:1059F0000988126801F03F0141EA0221C161446A4D
:105A000021EA04028262036A8C431343E243134097
:105A1000C262C0E9083170BDF8B54FF46065284630
:105A200025F0A0FA401C04463F2800D9002421B2EA
:105A3000284625F08BFB40F60266304625F092FAA8
:105A40003F2800D0204601B2304625F07FFB284693
:105A500025F088FA4FF4806101EB4010054655208F
:105A60008DF8000000268DF8016052208DF80200AC
:105A70008DF803606946284625F0ECFB6946281D31
:105A8000009625F0E7FB974CA08B8DF80000207E58
:105A90008DF80100207B8DF802008DF803606946C7
:105AA00005F1080025F0D6FB207A8DF8000020795A
:105AB0008DF8010020788DF802008B48D0F8800125
:105AC0008DF80300694605F10C0025F0C3FB412465
:105AD0008DF800408DF801408DF802408DF80340AC
